{
  "address": "0x5FbDB2315678afecb367f032d93F642f64180aa3",
  "abi": [
    {
      "inputs": [
        {
          "internalType": "address",
          "name": "_manager",
          "type": "address"
        }
      ],
      "stateMutability": "nonpayable",
      "type": "constructor"
    },
    {
      "anonymous": false,
      "inputs": [
        {
          "indexed": true,
          "internalType": "address",
          "name": "account",
          "type": "address"
        },
        {
          "indexed": true,
          "internalType": "address",
          "name": "operator",
          "type": "address"
        },
        {
          "indexed": false,
          "internalType": "bool",
          "name": "approved",
          "type": "bool"
        }
      ],
      "name": "ApprovalForAll",
      "type": "event"
    },
    {
      "anonymous": false,
      "inputs": [
        {
          "indexed": false,
          "internalType": "address",
          "name": "account",
          "type": "address"
        },
        {
          "indexed": true,
          "internalType": "uint256",
          "name": "tokenId",
          "type": "uint256"
        },
        {
          "indexed": true,
          "internalType": "uint256",
          "name": "amount",
          "type": "uint256"
        }
      ],
      "name": "Minted",
      "type": "event"
    },
    {
      "anonymous": false,
      "inputs": [
        {
          "indexed": true,
          "internalType": "address",
          "name": "operator",
          "type": "address"
        },
        {
          "indexed": true,
          "internalType": "address",
          "name": "from",
          "type": "address"
        },
        {
          "indexed": true,
          "internalType": "address",
          "name": "to",
          "type": "address"
        },
        {
          "indexed": false,
          "internalType": "uint256[]",
          "name": "ids",
          "type": "uint256[]"
        },
        {
          "indexed": false,
          "internalType": "uint256[]",
          "name": "values",
          "type": "uint256[]"
        }
      ],
      "name": "TransferBatch",
      "type": "event"
    },
    {
      "anonymous": false,
      "inputs": [
        {
          "indexed": true,
          "internalType": "address",
          "name": "operator",
          "type": "address"
        },
        {
          "indexed": true,
          "internalType": "address",
          "name": "from",
          "type": "address"
        },
        {
          "indexed": true,
          "internalType": "address",
          "name": "to",
          "type": "address"
        },
        {
          "indexed": false,
          "internalType": "uint256",
          "name": "id",
          "type": "uint256"
        },
        {
          "indexed": false,
          "internalType": "uint256",
          "name": "value",
          "type": "uint256"
        }
      ],
      "name": "TransferSingle",
      "type": "event"
    },
    {
      "anonymous": false,
      "inputs": [
        {
          "indexed": false,
          "internalType": "string",
          "name": "value",
          "type": "string"
        },
        {
          "indexed": true,
          "internalType": "uint256",
          "name": "id",
          "type": "uint256"
        }
      ],
      "name": "URI",
      "type": "event"
    },
    {
      "inputs": [
        {
          "internalType": "address",
          "name": "account",
          "type": "address"
        },
        {
          "internalType": "uint256",
          "name": "id",
          "type": "uint256"
        }
      ],
      "name": "balanceOf",
      "outputs": [
        {
          "internalType": "uint256",
          "name": "",
          "type": "uint256"
        }
      ],
      "stateMutability": "view",
      "type": "function"
    },
    {
      "inputs": [
        {
          "internalType": "address[]",
          "name": "accounts",
          "type": "address[]"
        },
        {
          "internalType": "uint256[]",
          "name": "ids",
          "type": "uint256[]"
        }
      ],
      "name": "balanceOfBatch",
      "outputs": [
        {
          "internalType": "uint256[]",
          "name": "",
          "type": "uint256[]"
        }
      ],
      "stateMutability": "view",
      "type": "function"
    },
    {
      "inputs": [
        {
          "internalType": "address",
          "name": "_newManager",
          "type": "address"
        }
      ],
      "name": "changeManager",
      "outputs": [
        {
          "internalType": "bool",
          "name": "",
          "type": "bool"
        }
      ],
      "stateMutability": "nonpayable",
      "type": "function"
    },
    {
      "inputs": [
        {
          "internalType": "address",
          "name": "account",
          "type": "address"
        },
        {
          "internalType": "address",
          "name": "operator",
          "type": "address"
        }
      ],
      "name": "isApprovedForAll",
      "outputs": [
        {
          "internalType": "bool",
          "name": "",
          "type": "bool"
        }
      ],
      "stateMutability": "view",
      "type": "function"
    },
    {
      "inputs": [],
      "name": "manager",
      "outputs": [
        {
          "internalType": "address",
          "name": "",
          "type": "address"
        }
      ],
      "stateMutability": "view",
      "type": "function"
    },
    {
      "inputs": [
        {
          "internalType": "string",
          "name": "_uri",
          "type": "string"
        },
        {
          "internalType": "uint256",
          "name": "_amount",
          "type": "uint256"
        },
        {
          "internalType": "bytes",
          "name": "_signature",
          "type": "bytes"
        }
      ],
      "name": "mint",
      "outputs": [
        {
          "internalType": "uint256",
          "name": "_tokenId",
          "type": "uint256"
        }
      ],
      "stateMutability": "nonpayable",
      "type": "function"
    },
    {
      "inputs": [
        {
          "internalType": "address",
          "name": "from",
          "type": "address"
        },
        {
          "internalType": "address",
          "name": "to",
          "type": "address"
        },
        {
          "internalType": "uint256[]",
          "name": "ids",
          "type": "uint256[]"
        },
        {
          "internalType": "uint256[]",
          "name": "amounts",
          "type": "uint256[]"
        },
        {
          "internalType": "bytes",
          "name": "data",
          "type": "bytes"
        }
      ],
      "name": "safeBatchTransferFrom",
      "outputs": [],
      "stateMutability": "nonpayable",
      "type": "function"
    },
    {
      "inputs": [
        {
          "internalType": "address",
          "name": "from",
          "type": "address"
        },
        {
          "internalType": "address",
          "name": "to",
          "type": "address"
        },
        {
          "internalType": "uint256",
          "name": "id",
          "type": "uint256"
        },
        {
          "internalType": "uint256",
          "name": "amount",
          "type": "uint256"
        },
        {
          "internalType": "bytes",
          "name": "data",
          "type": "bytes"
        }
      ],
      "name": "safeTransferFrom",
      "outputs": [],
      "stateMutability": "nonpayable",
      "type": "function"
    },
    {
      "inputs": [
        {
          "internalType": "address",
          "name": "operator",
          "type": "address"
        },
        {
          "internalType": "bool",
          "name": "approved",
          "type": "bool"
        }
      ],
      "name": "setApprovalForAll",
      "outputs": [],
      "stateMutability": "nonpayable",
      "type": "function"
    },
    {
      "inputs": [
        {
          "internalType": "bytes4",
          "name": "interfaceId",
          "type": "bytes4"
        }
      ],
      "name": "supportsInterface",
      "outputs": [
        {
          "internalType": "bool",
          "name": "",
          "type": "bool"
        }
      ],
      "stateMutability": "view",
      "type": "function"
    },
    {
      "inputs": [],
      "name": "totalSupply",
      "outputs": [
        {
          "internalType": "uint256",
          "name": "_value",
          "type": "uint256"
        }
      ],
      "stateMutability": "view",
      "type": "function"
    },
    {
      "inputs": [
        {
          "internalType": "uint256",
          "name": "_tokenId",
          "type": "uint256"
        }
      ],
      "name": "uri",
      "outputs": [
        {
          "internalType": "string",
          "name": "",
          "type": "string"
        }
      ],
      "stateMutability": "view",
      "type": "function"
    }
  ],
  "transactionHash": "0x762388b6fedc6fcf161b712fd7b4a9e12f6e08377aac75ee2ab1e1a5d7e44b46",
  "args": [
    "0x2968cC604C2b29b031C0E773300074992c9C5C13"
  ],
  "solcInputHash": "dfddb3c60aae195be201388b46d56a91",
  "bytecode": "0x60806040523480156200001157600080fd5b5060405162001ebe38038062001ebe833981016040819052620000349162000143565b604080518082019091526007815266697066733a2f2f60c81b60208201526200005d8162000084565b50600580546001600160a01b0319166001600160a01b0392909216919091179055620001b0565b8051620000999060029060208401906200009d565b5050565b828054620000ab9062000173565b90600052602060002090601f016020900481019282620000cf57600085556200011a565b82601f10620000ea57805160ff19168380011785556200011a565b828001600101855582156200011a579182015b828111156200011a578251825591602001919060010190620000fd565b50620001289291506200012c565b5090565b5b808211156200012857600081556001016200012d565b60006020828403121562000155578081fd5b81516001600160a01b03811681146200016c578182fd5b9392505050565b600181811c908216806200018857607f821691505b60208210811415620001aa57634e487b7160e01b600052602260045260246000fd5b50919050565b611cfe80620001c06000396000f3fe608060405234801561001057600080fd5b50600436106100b35760003560e01c8063481c6a7511610071578063481c6a75146101535780634e1273f41461017e578063a22cb4651461019e578063a3fbbaae146101b1578063e985e9c5146101c4578063f242432a1461020057600080fd5b8062fdd58e146100b857806301ffc9a7146100de5780630e89341c1461010157806310662e911461012157806318160ddd146101345780632eb2c2d61461013e575b600080fd5b6100cb6100c6366004611684565b610213565b6040519081526020015b60405180910390f35b6100f16100ec366004611778565b6102aa565b60405190151581526020016100d5565b61011461010f366004611830565b6102fc565b6040516100d591906119f1565b6100cb61012f3660046117b0565b61042b565b6004546100cb9081565b61015161014c366004611541565b61058a565b005b600554610166906001600160a01b031681565b6040516001600160a01b0390911681526020016100d5565b61019161018c3660046116ad565b610851565b6040516100d591906119b9565b6101516101ac36600461164a565b6109b3565b6100f16101bf3660046114f5565b610a8a565b6100f16101d236600461150f565b6001600160a01b03918216600090815260016020908152604080832093909416825291909152205460ff1690565b61015161020e3660046115e7565b610af2565b60006001600160a01b0383166102845760405162461bcd60e51b815260206004820152602b60248201527f455243313135353a2062616c616e636520717565727920666f7220746865207a60448201526a65726f206164647265737360a81b60648201526084015b60405180910390fd5b506000908152602081815260408083206001600160a01b03949094168352929052205490565b60006001600160e01b03198216636cdb3d1360e11b14806102db57506001600160e01b031982166303a24d0760e21b145b806102f657506301ffc9a760e01b6001600160e01b03198316145b92915050565b60008181526003602052604081208054606092919061031a90611b5e565b80601f016020809104026020016040519081016040528092919081815260200182805461034690611b5e565b80156103935780601f1061036857610100808354040283529160200191610393565b820191906000526020600020905b81548152906001019060200180831161037657829003601f168201915b505050505090508051600014156103f85760405162461bcd60e51b8152602060048201526024808201527f4552433131353555524953746f726167653a20746f6b656e4964206e6f7420656044820152631e1a5cdd60e21b606482015260840161027b565b6104026000610ca2565b816040516020016104149291906118ae565b604051602081830303815290604052915050919050565b6000803390506000858583604051602001610448939291906118dd565b604051602081830303815290604052905060006104c3856104bd84805190602001206040517f19457468657265756d205369676e6564204d6573736167653a0a3332000000006020820152603c8101829052600090605c01604051602081830303815290604052805190602001209050919050565b90610d36565b6005549091506001600160a01b038083169116146105085760405162461bcd60e51b81526020600482015260026024820152614e4d60f01b604482015260640161027b565b60045493506105178488610dec565b610525600480546001019055565b61054083858860405180602001604052806000815250610e10565b6040516001600160a01b0384168152869085907f25b428dfde728ccfaddad7e29e4ac23c24ed7fd1a6e3e3f91894a9a073f5dfff9060200160405180910390a35050509392505050565b81518351146105ec5760405162461bcd60e51b815260206004820152602860248201527f455243313135353a2069647320616e6420616d6f756e7473206c656e677468206044820152670dad2e6dac2e8c6d60c31b606482015260840161027b565b6001600160a01b0384166106125760405162461bcd60e51b815260040161027b90611a4c565b6001600160a01b03851633148061062e575061062e85336101d2565b6106955760405162461bcd60e51b815260206004820152603260248201527f455243313135353a207472616e736665722063616c6c6572206973206e6f74206044820152711bdddb995c881b9bdc88185c1c1c9bdd995960721b606482015260840161027b565b3360005b84518110156107e35760008582815181106106c457634e487b7160e01b600052603260045260246000fd5b6020026020010151905060008583815181106106f057634e487b7160e01b600052603260045260246000fd5b602090810291909101810151600084815280835260408082206001600160a01b038e1683529093529190912054909150818110156107405760405162461bcd60e51b815260040161027b90611a91565b61074a8282611b17565b60008085815260200190815260200160002060008c6001600160a01b03166001600160a01b03168152602001908152602001600020819055508160008085815260200190815260200160002060008b6001600160a01b03166001600160a01b0316815260200190815260200160002060008282546107c89190611aff565b92505081905550505050806107dc90611bc6565b9050610699565b50846001600160a01b0316866001600160a01b0316826001600160a01b03167f4a39dc06d4c0dbc64b70af90fd698a233a518aa5d07e595d983b8c0526c8f7fb87876040516108339291906119cc565b60405180910390a4610849818787878787610f11565b505050505050565b606081518351146108b65760405162461bcd60e51b815260206004820152602960248201527f455243313135353a206163636f756e747320616e6420696473206c656e677468604482015268040dad2e6dac2e8c6d60bb1b606482015260840161027b565b6000835167ffffffffffffffff8111156108e057634e487b7160e01b600052604160045260246000fd5b604051908082528060200260200182016040528015610909578160200160208202803683370190505b50905060005b84518110156109ab5761097085828151811061093b57634e487b7160e01b600052603260045260246000fd5b602002602001015185838151811061096357634e487b7160e01b600052603260045260246000fd5b6020026020010151610213565b82828151811061099057634e487b7160e01b600052603260045260246000fd5b60209081029190910101526109a481611bc6565b905061090f565b509392505050565b336001600160a01b0383161415610a1e5760405162461bcd60e51b815260206004820152602960248201527f455243313135353a2073657474696e6720617070726f76616c20737461747573604482015268103337b91039b2b63360b91b606482015260840161027b565b3360008181526001602090815260408083206001600160a01b03871680855290835292819020805460ff191686151590811790915590519081529192917f17307eab39ab6107e8899845ad3d59bd9653f200f220920489ca2b5937696c31910160405180910390a35050565b6005546000906001600160a01b03163314610acc5760405162461bcd60e51b81526020600482015260026024820152614e4d60f01b604482015260640161027b565b50600580546001600160a01b0319166001600160a01b0392909216919091179055600190565b6001600160a01b038416610b185760405162461bcd60e51b815260040161027b90611a4c565b6001600160a01b038516331480610b345750610b3485336101d2565b610b925760405162461bcd60e51b815260206004820152602960248201527f455243313135353a2063616c6c6572206973206e6f74206f776e6572206e6f7260448201526808185c1c1c9bdd995960ba1b606482015260840161027b565b33610bb2818787610ba28861107c565b610bab8861107c565b5050505050565b6000848152602081815260408083206001600160a01b038a16845290915290205483811015610bf35760405162461bcd60e51b815260040161027b90611a91565b610bfd8482611b17565b6000868152602081815260408083206001600160a01b038c81168552925280832093909355881681529081208054869290610c39908490611aff565b909155505060408051868152602081018690526001600160a01b03808916928a821692918616917fc3d58168c5ae7397731d063d5bbf3d657854427343f4c083240f7aacaa2d0f62910160405180910390a4610c998288888888886110d5565b50505050505050565b606060028054610cb190611b5e565b80601f0160208091040260200160405190810160405280929190818152602001828054610cdd90611b5e565b8015610d2a5780601f10610cff57610100808354040283529160200191610d2a565b820191906000526020600020905b815481529060010190602001808311610d0d57829003601f168201915b50505050509050919050565b600080600080845160411415610d605750505060208201516040830151606084015160001a610dd6565b845160401415610d8e5750505060408201516020830151906001600160ff1b0381169060ff1c601b01610dd6565b60405162461bcd60e51b815260206004820152601f60248201527f45434453413a20696e76616c6964207369676e6174757265206c656e67746800604482015260640161027b565b610de28682858561119f565b9695505050505050565b60008281526003602090815260409091208251610e0b92840190611348565b505050565b6001600160a01b038416610e705760405162461bcd60e51b815260206004820152602160248201527f455243313135353a206d696e7420746f20746865207a65726f206164647265736044820152607360f81b606482015260840161027b565b33610e8181600087610ba28861107c565b6000848152602081815260408083206001600160a01b038916845290915281208054859290610eb1908490611aff565b909155505060408051858152602081018590526001600160a01b0380881692600092918516917fc3d58168c5ae7397731d063d5bbf3d657854427343f4c083240f7aacaa2d0f62910160405180910390a4610bab816000878787876110d5565b6001600160a01b0384163b156108495760405163bc197c8160e01b81526001600160a01b0385169063bc197c8190610f559089908990889088908890600401611916565b602060405180830381600087803b158015610f6f57600080fd5b505af1925050508015610f9f575060408051601f3d908101601f19168201909252610f9c91810190611794565b60015b61104c57610fab611c0d565b806308c379a01415610fe55750610fc0611c25565b80610fcb5750610fe7565b8060405162461bcd60e51b815260040161027b91906119f1565b505b60405162461bcd60e51b815260206004820152603460248201527f455243313135353a207472616e7366657220746f206e6f6e20455243313135356044820152732932b1b2b4bb32b91034b6b83632b6b2b73a32b960611b606482015260840161027b565b6001600160e01b0319811663bc197c8160e01b14610c995760405162461bcd60e51b815260040161027b90611a04565b604080516001808252818301909252606091600091906020808301908036833701905050905082816000815181106110c457634e487b7160e01b600052603260045260246000fd5b602090810291909101015292915050565b6001600160a01b0384163b156108495760405163f23a6e6160e01b81526001600160a01b0385169063f23a6e61906111199089908990889088908890600401611974565b602060405180830381600087803b15801561113357600080fd5b505af1925050508015611163575060408051601f3d908101601f1916820190925261116091810190611794565b60015b61116f57610fab611c0d565b6001600160e01b0319811663f23a6e6160e01b14610c995760405162461bcd60e51b815260040161027b90611a04565b60007f7fffffffffffffffffffffffffffffff5d576e7357a4501ddfe92f46681b20a082111561121c5760405162461bcd60e51b815260206004820152602260248201527f45434453413a20696e76616c6964207369676e6174757265202773272076616c604482015261756560f01b606482015260840161027b565b8360ff16601b148061123157508360ff16601c145b6112885760405162461bcd60e51b815260206004820152602260248201527f45434453413a20696e76616c6964207369676e6174757265202776272076616c604482015261756560f01b606482015260840161027b565b6040805160008082526020820180845288905260ff871692820192909252606081018590526080810184905260019060a0016020604051602081039080840390855afa1580156112dc573d6000803e3d6000fd5b5050604051601f1901519150506001600160a01b03811661133f5760405162461bcd60e51b815260206004820152601860248201527f45434453413a20696e76616c6964207369676e61747572650000000000000000604482015260640161027b565b95945050505050565b82805461135490611b5e565b90600052602060002090601f01602090048101928261137657600085556113bc565b82601f1061138f57805160ff19168380011785556113bc565b828001600101855582156113bc579182015b828111156113bc5782518255916020019190600101906113a1565b506113c89291506113cc565b5090565b5b808211156113c857600081556001016113cd565b600067ffffffffffffffff8311156113fb576113fb611bf7565b604051611412601f8501601f191660200182611b99565b80915083815284848401111561142757600080fd5b83836020830137600060208583010152509392505050565b80356001600160a01b038116811461145657600080fd5b919050565b600082601f83011261146b578081fd5b8135602061147882611adb565b6040516114858282611b99565b8381528281019150858301600585901b870184018810156114a4578586fd5b855b858110156114c2578135845292840192908401906001016114a6565b5090979650505050505050565b600082601f8301126114df578081fd5b6114ee838335602085016113e1565b9392505050565b600060208284031215611506578081fd5b6114ee8261143f565b60008060408385031215611521578081fd5b61152a8361143f565b91506115386020840161143f565b90509250929050565b600080600080600060a08688031215611558578081fd5b6115618661143f565b945061156f6020870161143f565b9350604086013567ffffffffffffffff8082111561158b578283fd5b61159789838a0161145b565b945060608801359150808211156115ac578283fd5b6115b889838a0161145b565b935060808801359150808211156115cd578283fd5b506115da888289016114cf565b9150509295509295909350565b600080600080600060a086880312156115fe578081fd5b6116078661143f565b94506116156020870161143f565b93506040860135925060608601359150608086013567ffffffffffffffff81111561163e578182fd5b6115da888289016114cf565b6000806040838503121561165c578182fd5b6116658361143f565b915060208301358015158114611679578182fd5b809150509250929050565b60008060408385031215611696578182fd5b61169f8361143f565b946020939093013593505050565b600080604083850312156116bf578182fd5b823567ffffffffffffffff808211156116d6578384fd5b818501915085601f8301126116e9578384fd5b813560206116f682611adb565b6040516117038282611b99565b8381528281019150858301600585901b870184018b1015611722578889fd5b8896505b8487101561174b576117378161143f565b835260019690960195918301918301611726565b5096505086013592505080821115611761578283fd5b5061176e8582860161145b565b9150509250929050565b600060208284031215611789578081fd5b81356114ee81611caf565b6000602082840312156117a5578081fd5b81516114ee81611caf565b6000806000606084860312156117c4578081fd5b833567ffffffffffffffff808211156117db578283fd5b818601915086601f8301126117ee578283fd5b6117fd878335602085016113e1565b9450602086013593506040860135915080821115611819578283fd5b50611826868287016114cf565b9150509250925092565b600060208284031215611841578081fd5b5035919050565b6000815180845260208085019450808401835b838110156118775781518752958201959082019060010161185b565b509495945050505050565b6000815180845261189a816020860160208601611b2e565b601f01601f19169290920160200192915050565b600083516118c0818460208801611b2e565b8351908301906118d4818360208801611b2e565b01949350505050565b600084516118ef818460208901611b2e565b919091019283525060601b6bffffffffffffffffffffffff19166020820152603401919050565b6001600160a01b0386811682528516602082015260a06040820181905260009061194290830186611848565b82810360608401526119548186611848565b905082810360808401526119688185611882565b98975050505050505050565b6001600160a01b03868116825285166020820152604081018490526060810183905260a0608082018190526000906119ae90830184611882565b979650505050505050565b6020815260006114ee6020830184611848565b6040815260006119df6040830185611848565b828103602084015261133f8185611848565b6020815260006114ee6020830184611882565b60208082526028908201527f455243313135353a204552433131353552656365697665722072656a656374656040820152676420746f6b656e7360c01b606082015260800190565b60208082526025908201527f455243313135353a207472616e7366657220746f20746865207a65726f206164604082015264647265737360d81b606082015260800190565b6020808252602a908201527f455243313135353a20696e73756666696369656e742062616c616e636520666f60408201526939103a3930b739b332b960b11b606082015260800190565b600067ffffffffffffffff821115611af557611af5611bf7565b5060051b60200190565b60008219821115611b1257611b12611be1565b500190565b600082821015611b2957611b29611be1565b500390565b60005b83811015611b49578181015183820152602001611b31565b83811115611b58576000848401525b50505050565b600181811c90821680611b7257607f821691505b60208210811415611b9357634e487b7160e01b600052602260045260246000fd5b50919050565b601f8201601f1916810167ffffffffffffffff81118282101715611bbf57611bbf611bf7565b6040525050565b6000600019821415611bda57611bda611be1565b5060010190565b634e487b7160e01b600052601160045260246000fd5b634e487b7160e01b600052604160045260246000fd5b600060033d1115611c2257600481823e5160e01c5b90565b600060443d1015611c335790565b6040516003193d81016004833e81513d67ffffffffffffffff8160248401118184111715611c6357505050505090565b8285019150815181811115611c7b5750505050505090565b843d8701016020828501011115611c955750505050505090565b611ca460208286010187611b99565b509095945050505050565b6001600160e01b031981168114611cc557600080fd5b5056fea264697066735822122055d3287add4a636a7763b8a4b2af6a00a1c617a079ddc8a90e82f6cfda85a31364736f6c63430008040033",
  "devdoc": {
    "kind": "dev",
    "methods": {
      "balanceOf(address,uint256)": {
        "details": "See {IERC1155-balanceOf}. Requirements: - `account` cannot be the zero address."
      },
      "balanceOfBatch(address[],uint256[])": {
        "details": "See {IERC1155-balanceOfBatch}. Requirements: - `accounts` and `ids` must have the same length."
      },
      "isApprovedForAll(address,address)": {
        "details": "See {IERC1155-isApprovedForAll}."
      },
      "safeBatchTransferFrom(address,address,uint256[],uint256[],bytes)": {
        "details": "See {IERC1155-safeBatchTransferFrom}."
      },
      "safeTransferFrom(address,address,uint256,uint256,bytes)": {
        "details": "See {IERC1155-safeTransferFrom}."
      },
      "setApprovalForAll(address,bool)": {
        "details": "See {IERC1155-setApprovalForAll}."
      },
      "supportsInterface(bytes4)": {
        "details": "See {IERC165-supportsInterface}."
      }
    },
    "version": 1
  },
  "userdoc": {
    "kind": "user",
    "methods": {},
    "version": 1
  },
  "storageLayout": {
    "storage": [
      {
        "astId": 25,
        "contract": "contracts/OnCyberScenes.sol:OnCyberScenes",
        "label": "_balances",
        "offset": 0,
        "slot": "0",
        "type": "t_mapping(t_uint256,t_mapping(t_address,t_uint256))"
      },
      {
        "astId": 31,
        "contract": "contracts/OnCyberScenes.sol:OnCyberScenes",
        "label": "_operatorApprovals",
        "offset": 0,
        "slot": "1",
        "type": "t_mapping(t_address,t_mapping(t_address,t_bool))"
      },
      {
        "astId": 33,
        "contract": "contracts/OnCyberScenes.sol:OnCyberScenes",
        "label": "_uri",
        "offset": 0,
        "slot": "2",
        "type": "t_string_storage"
      },
      {
        "astId": 1779,
        "contract": "contracts/OnCyberScenes.sol:OnCyberScenes",
        "label": "_tokenURIs",
        "offset": 0,
        "slot": "3",
        "type": "t_mapping(t_uint256,t_string_storage)"
      },
      {
        "astId": 1858,
        "contract": "contracts/OnCyberScenes.sol:OnCyberScenes",
        "label": "totalSupply",
        "offset": 0,
        "slot": "4",
        "type": "t_struct(Counter)1535_storage"
      },
      {
        "astId": 1860,
        "contract": "contracts/OnCyberScenes.sol:OnCyberScenes",
        "label": "manager",
        "offset": 0,
        "slot": "5",
        "type": "t_address"
      }
    ],
    "types": {
      "t_address": {
        "encoding": "inplace",
        "label": "address",
        "numberOfBytes": "20"
      },
      "t_bool": {
        "encoding": "inplace",
        "label": "bool",
        "numberOfBytes": "1"
      },
      "t_mapping(t_address,t_bool)": {
        "encoding": "mapping",
        "key": "t_address",
        "label": "mapping(address => bool)",
        "numberOfBytes": "32",
        "value": "t_bool"
      },
      "t_mapping(t_address,t_mapping(t_address,t_bool))": {
        "encoding": "mapping",
        "key": "t_address",
        "label": "mapping(address => mapping(address => bool))",
        "numberOfBytes": "32",
        "value": "t_mapping(t_address,t_bool)"
      },
      "t_mapping(t_address,t_uint256)": {
        "encoding": "mapping",
        "key": "t_address",
        "label": "mapping(address => uint256)",
        "numberOfBytes": "32",
        "value": "t_uint256"
      },
      "t_mapping(t_uint256,t_mapping(t_address,t_uint256))": {
        "encoding": "mapping",
        "key": "t_uint256",
        "label": "mapping(uint256 => mapping(address => uint256))",
        "numberOfBytes": "32",
        "value": "t_mapping(t_address,t_uint256)"
      },
      "t_mapping(t_uint256,t_string_storage)": {
        "encoding": "mapping",
        "key": "t_uint256",
        "label": "mapping(uint256 => string)",
        "numberOfBytes": "32",
        "value": "t_string_storage"
      },
      "t_string_storage": {
        "encoding": "bytes",
        "label": "string",
        "numberOfBytes": "32"
      },
      "t_struct(Counter)1535_storage": {
        "encoding": "inplace",
        "label": "struct Counters.Counter",
        "members": [
          {
            "astId": 1534,
            "contract": "contracts/OnCyberScenes.sol:OnCyberScenes",
            "label": "_value",
            "offset": 0,
            "slot": "0",
            "type": "t_uint256"
          }
        ],
        "numberOfBytes": "32"
      },
      "t_uint256": {
        "encoding": "inplace",
        "label": "uint256",
        "numberOfBytes": "32"
      }
    }
  }
}