{
  "address": "0x3864De7a292B94B2F0969DE550836b29DDB36F8a",
  "abi": [
    {
      "anonymous": false,
      "inputs": [
        {
          "indexed": true,
          "internalType": "address",
          "name": "account",
          "type": "address"
        },
        {
          "indexed": true,
          "internalType": "address",
          "name": "operator",
          "type": "address"
        },
        {
          "indexed": false,
          "internalType": "bool",
          "name": "approved",
          "type": "bool"
        }
      ],
      "name": "ApprovalForAll",
      "type": "event"
    },
    {
      "anonymous": false,
      "inputs": [
        {
          "indexed": true,
          "internalType": "address",
          "name": "account",
          "type": "address"
        },
        {
          "indexed": true,
          "internalType": "uint256",
          "name": "tokenId",
          "type": "uint256"
        }
      ],
      "name": "DropCreated",
      "type": "event"
    },
    {
      "anonymous": false,
      "inputs": [
        {
          "indexed": true,
          "internalType": "address",
          "name": "account",
          "type": "address"
        },
        {
          "indexed": true,
          "internalType": "uint256",
          "name": "tokenId",
          "type": "uint256"
        },
        {
          "indexed": true,
          "internalType": "uint256",
          "name": "amount",
          "type": "uint256"
        }
      ],
      "name": "Minted",
      "type": "event"
    },
    {
      "anonymous": false,
      "inputs": [
        {
          "indexed": true,
          "internalType": "address",
          "name": "operator",
          "type": "address"
        },
        {
          "indexed": true,
          "internalType": "address",
          "name": "from",
          "type": "address"
        },
        {
          "indexed": true,
          "internalType": "address",
          "name": "to",
          "type": "address"
        },
        {
          "indexed": false,
          "internalType": "uint256[]",
          "name": "ids",
          "type": "uint256[]"
        },
        {
          "indexed": false,
          "internalType": "uint256[]",
          "name": "values",
          "type": "uint256[]"
        }
      ],
      "name": "TransferBatch",
      "type": "event"
    },
    {
      "anonymous": false,
      "inputs": [
        {
          "indexed": true,
          "internalType": "address",
          "name": "operator",
          "type": "address"
        },
        {
          "indexed": true,
          "internalType": "address",
          "name": "from",
          "type": "address"
        },
        {
          "indexed": true,
          "internalType": "address",
          "name": "to",
          "type": "address"
        },
        {
          "indexed": false,
          "internalType": "uint256",
          "name": "id",
          "type": "uint256"
        },
        {
          "indexed": false,
          "internalType": "uint256",
          "name": "value",
          "type": "uint256"
        }
      ],
      "name": "TransferSingle",
      "type": "event"
    },
    {
      "anonymous": false,
      "inputs": [
        {
          "indexed": false,
          "internalType": "string",
          "name": "value",
          "type": "string"
        },
        {
          "indexed": true,
          "internalType": "uint256",
          "name": "tokenId",
          "type": "uint256"
        }
      ],
      "name": "URI",
      "type": "event"
    },
    {
      "inputs": [
        {
          "internalType": "uint256",
          "name": "id",
          "type": "uint256"
        }
      ],
      "name": "accountsByToken",
      "outputs": [
        {
          "internalType": "address[]",
          "name": "",
          "type": "address[]"
        }
      ],
      "stateMutability": "view",
      "type": "function"
    },
    {
      "inputs": [
        {
          "internalType": "address",
          "name": "account",
          "type": "address"
        },
        {
          "internalType": "uint256",
          "name": "id",
          "type": "uint256"
        }
      ],
      "name": "balanceOf",
      "outputs": [
        {
          "internalType": "uint256",
          "name": "",
          "type": "uint256"
        }
      ],
      "stateMutability": "view",
      "type": "function"
    },
    {
      "inputs": [
        {
          "internalType": "address[]",
          "name": "accounts",
          "type": "address[]"
        },
        {
          "internalType": "uint256[]",
          "name": "ids",
          "type": "uint256[]"
        }
      ],
      "name": "balanceOfBatch",
      "outputs": [
        {
          "internalType": "uint256[]",
          "name": "",
          "type": "uint256[]"
        }
      ],
      "stateMutability": "view",
      "type": "function"
    },
    {
      "inputs": [
        {
          "internalType": "string",
          "name": "_uri",
          "type": "string"
        },
        {
          "internalType": "uint256",
          "name": "_timeStart",
          "type": "uint256"
        },
        {
          "internalType": "uint256",
          "name": "_timeEnd",
          "type": "uint256"
        },
        {
          "internalType": "uint256",
          "name": "_price",
          "type": "uint256"
        },
        {
          "internalType": "uint256",
          "name": "_amountCap",
          "type": "uint256"
        },
        {
          "internalType": "uint256",
          "name": "_shareCyber",
          "type": "uint256"
        },
        {
          "internalType": "bytes",
          "name": "_signature",
          "type": "bytes"
        }
      ],
      "name": "createDrop",
      "outputs": [
        {
          "internalType": "uint256",
          "name": "tokenId",
          "type": "uint256"
        }
      ],
      "stateMutability": "nonpayable",
      "type": "function"
    },
    {
      "inputs": [
        {
          "internalType": "uint256",
          "name": "_tokenId",
          "type": "uint256"
        },
        {
          "internalType": "address",
          "name": "_minter",
          "type": "address"
        }
      ],
      "name": "dropMintCounter",
      "outputs": [
        {
          "internalType": "uint256",
          "name": "",
          "type": "uint256"
        }
      ],
      "stateMutability": "view",
      "type": "function"
    },
    {
      "inputs": [
        {
          "internalType": "uint256",
          "name": "_tokenId",
          "type": "uint256"
        }
      ],
      "name": "getDrop",
      "outputs": [
        {
          "internalType": "uint256",
          "name": "timeStart",
          "type": "uint256"
        },
        {
          "internalType": "uint256",
          "name": "timeEnd",
          "type": "uint256"
        },
        {
          "internalType": "uint256",
          "name": "price",
          "type": "uint256"
        },
        {
          "internalType": "uint256",
          "name": "amountCap",
          "type": "uint256"
        },
        {
          "internalType": "uint256",
          "name": "shareCyber",
          "type": "uint256"
        },
        {
          "internalType": "address",
          "name": "creator",
          "type": "address"
        },
        {
          "internalType": "uint256",
          "name": "minted",
          "type": "uint256"
        }
      ],
      "stateMutability": "view",
      "type": "function"
    },
    {
      "inputs": [
        {
          "internalType": "string",
          "name": "_uri",
          "type": "string"
        },
        {
          "internalType": "address",
          "name": "_manager",
          "type": "address"
        },
        {
          "internalType": "address",
          "name": "_trustedForwarder",
          "type": "address"
        },
        {
          "internalType": "address",
          "name": "_opensea",
          "type": "address"
        },
        {
          "internalType": "address",
          "name": "_oncyber",
          "type": "address"
        }
      ],
      "name": "initialize",
      "outputs": [],
      "stateMutability": "nonpayable",
      "type": "function"
    },
    {
      "inputs": [
        {
          "internalType": "address",
          "name": "account",
          "type": "address"
        },
        {
          "internalType": "address",
          "name": "operator",
          "type": "address"
        }
      ],
      "name": "isApprovedForAll",
      "outputs": [
        {
          "internalType": "bool",
          "name": "",
          "type": "bool"
        }
      ],
      "stateMutability": "view",
      "type": "function"
    },
    {
      "inputs": [
        {
          "internalType": "address",
          "name": "forwarder",
          "type": "address"
        }
      ],
      "name": "isTrustedForwarder",
      "outputs": [
        {
          "internalType": "bool",
          "name": "",
          "type": "bool"
        }
      ],
      "stateMutability": "view",
      "type": "function"
    },
    {
      "inputs": [],
      "name": "manager",
      "outputs": [
        {
          "internalType": "address",
          "name": "",
          "type": "address"
        }
      ],
      "stateMutability": "view",
      "type": "function"
    },
    {
      "inputs": [
        {
          "internalType": "uint256",
          "name": "_tokenId",
          "type": "uint256"
        },
        {
          "internalType": "uint256",
          "name": "_quantity",
          "type": "uint256"
        },
        {
          "internalType": "bytes",
          "name": "_signature",
          "type": "bytes"
        }
      ],
      "name": "mint",
      "outputs": [
        {
          "internalType": "bool",
          "name": "success",
          "type": "bool"
        }
      ],
      "stateMutability": "payable",
      "type": "function"
    },
    {
      "inputs": [
        {
          "internalType": "address",
          "name": "_minter",
          "type": "address"
        }
      ],
      "name": "minterNonce",
      "outputs": [
        {
          "internalType": "uint256",
          "name": "",
          "type": "uint256"
        }
      ],
      "stateMutability": "view",
      "type": "function"
    },
    {
      "inputs": [],
      "name": "oncyber",
      "outputs": [
        {
          "internalType": "address",
          "name": "",
          "type": "address"
        }
      ],
      "stateMutability": "view",
      "type": "function"
    },
    {
      "inputs": [
        {
          "internalType": "address",
          "name": "from",
          "type": "address"
        },
        {
          "internalType": "address",
          "name": "to",
          "type": "address"
        },
        {
          "internalType": "uint256[]",
          "name": "ids",
          "type": "uint256[]"
        },
        {
          "internalType": "uint256[]",
          "name": "amounts",
          "type": "uint256[]"
        },
        {
          "internalType": "bytes",
          "name": "data",
          "type": "bytes"
        }
      ],
      "name": "safeBatchTransferFrom",
      "outputs": [],
      "stateMutability": "nonpayable",
      "type": "function"
    },
    {
      "inputs": [
        {
          "internalType": "address",
          "name": "from",
          "type": "address"
        },
        {
          "internalType": "address",
          "name": "to",
          "type": "address"
        },
        {
          "internalType": "uint256",
          "name": "id",
          "type": "uint256"
        },
        {
          "internalType": "uint256",
          "name": "amount",
          "type": "uint256"
        },
        {
          "internalType": "bytes",
          "name": "data",
          "type": "bytes"
        }
      ],
      "name": "safeTransferFrom",
      "outputs": [],
      "stateMutability": "nonpayable",
      "type": "function"
    },
    {
      "inputs": [
        {
          "internalType": "address",
          "name": "operator",
          "type": "address"
        },
        {
          "internalType": "bool",
          "name": "status",
          "type": "bool"
        }
      ],
      "name": "setApprovalForAll",
      "outputs": [],
      "stateMutability": "nonpayable",
      "type": "function"
    },
    {
      "inputs": [
        {
          "internalType": "bytes4",
          "name": "interfaceId",
          "type": "bytes4"
        }
      ],
      "name": "supportsInterface",
      "outputs": [
        {
          "internalType": "bool",
          "name": "",
          "type": "bool"
        }
      ],
      "stateMutability": "view",
      "type": "function"
    },
    {
      "inputs": [
        {
          "internalType": "address",
          "name": "account",
          "type": "address"
        }
      ],
      "name": "tokensByAccount",
      "outputs": [
        {
          "internalType": "uint256[]",
          "name": "",
          "type": "uint256[]"
        }
      ],
      "stateMutability": "view",
      "type": "function"
    },
    {
      "inputs": [
        {
          "internalType": "uint256",
          "name": "id",
          "type": "uint256"
        }
      ],
      "name": "totalHolders",
      "outputs": [
        {
          "internalType": "uint256",
          "name": "",
          "type": "uint256"
        }
      ],
      "stateMutability": "view",
      "type": "function"
    },
    {
      "inputs": [],
      "name": "totalSupply",
      "outputs": [
        {
          "internalType": "uint256",
          "name": "",
          "type": "uint256"
        }
      ],
      "stateMutability": "view",
      "type": "function"
    },
    {
      "inputs": [
        {
          "internalType": "uint256",
          "name": "id",
          "type": "uint256"
        }
      ],
      "name": "totalSupply",
      "outputs": [
        {
          "internalType": "uint256",
          "name": "",
          "type": "uint256"
        }
      ],
      "stateMutability": "view",
      "type": "function"
    },
    {
      "inputs": [
        {
          "internalType": "uint256",
          "name": "_tokenId",
          "type": "uint256"
        }
      ],
      "name": "uri",
      "outputs": [
        {
          "internalType": "string",
          "name": "",
          "type": "string"
        }
      ],
      "stateMutability": "view",
      "type": "function"
    }
  ],
  "transactionHash": "0x61807db5b00a71766a97be43df86c248aa514b6d7b378aa93c27a3c38ee0bdfd",
  "args": [],
  "solcInputHash": "2b379ff76cf0347fa71d33773f7cff08",
  "bytecode": "0x608060405234801561001057600080fd5b50613643806100206000396000f3fe6080604052600436106101745760003560e01c8063572b6c05116100cb578063b3a721d11161007f578063e751c98111610059578063e751c98114610512578063e985e9c514610532578063f242432a1461059a57600080fd5b8063b3a721d114610469578063bc01188e14610489578063bd85b039146104c657600080fd5b80636dcfd841116100b05780636dcfd841146103fc57806385bff2e714610429578063a22cb4651461044957600080fd5b8063572b6c05146103505780636787d4491461039e57600080fd5b806313ba55df1161012d5780632eb2c2d6116101075780632eb2c2d6146102b2578063481c6a75146102d25780634e1273f41461032357600080fd5b806313ba55df1461023e57806318160ddd1461025e5780631b0239471461029257600080fd5b806308dc9f421161015e57806308dc9f42146101dc5780630b885ac3146101ef5780630e89341c1461021157600080fd5b8062fdd58e1461017957806301ffc9a7146101ac575b600080fd5b34801561018557600080fd5b50610199610194366004612ac0565b6105ba565b6040519081526020015b60405180910390f35b3480156101b857600080fd5b506101cc6101c7366004612b00565b6105cf565b60405190151581526020016101a3565b6101cc6101ea366004612bdb565b610610565b3480156101fb57600080fd5b5061020f61020a366004612c2b565b6109fe565b005b34801561021d57600080fd5b5061023161022c366004612cab565b610be7565b6040516101a39190612d1c565b34801561024a57600080fd5b50610199610259366004612cab565b610d3f565b34801561026a57600080fd5b507f47dc25f21c7793543edaeb1ef19d41726ddbada967ae9a7980b9bd8a45228a6054610199565b34801561029e57600080fd5b506101996102ad366004612d2f565b610d75565b3480156102be57600080fd5b5061020f6102cd366004612ddf565b610db2565b3480156102de57600080fd5b507f47dc25f21c7793543edaeb1ef19d41726ddbada967ae9a7980b9bd8a45228a5e546001600160a01b03165b6040516001600160a01b0390911681526020016101a3565b34801561032f57600080fd5b5061034361033e366004612e89565b610e7e565b6040516101a39190612f8f565b34801561035c57600080fd5b506101cc61036b366004612d2f565b7fa5e014e253d3b66bd348c3cdd05f38b9805fff0b6471d004b58c6ada26cae993546001600160a01b0390811691161490565b3480156103aa57600080fd5b506103be6103b9366004612cab565b6110a5565b60408051978852602088019690965294860193909352606085019190915260808401526001600160a01b031660a083015260c082015260e0016101a3565b34801561040857600080fd5b5061041c610417366004612cab565b611158565b6040516101a39190612fa2565b34801561043557600080fd5b50610343610444366004612d2f565b611236565b34801561045557600080fd5b5061020f610464366004612fef565b611309565b34801561047557600080fd5b5061019961048436600461302b565b611412565b34801561049557600080fd5b507f47dc25f21c7793543edaeb1ef19d41726ddbada967ae9a7980b9bd8a45228a62546001600160a01b031661030b565b3480156104d257600080fd5b506101996104e1366004612cab565b60009081527fb31c2c74f86ca3ce94d901f5f5bbe66f7161eec2f7b5aa0b75a86371436424ea602052604090205490565b34801561051e57600080fd5b5061019961052d366004613057565b61149b565b34801561053e57600080fd5b506101cc61054d3660046130eb565b6001600160a01b0391821660009081527f1799cf914cb0cb442ca7c7ac709ee40d0cb89e87351dc08d517fbda27d50c68c6020908152604080832093909416825291909152205460ff1690565b3480156105a657600080fd5b5061020f6105b5366004613115565b6117c3565b60006105c68383611888565b90505b92915050565b6001600160e01b0319811660009081527f326d0c59a7612f6a9919e2a8ee333c80ba689d8ba2634de89c85cbb04832e705602052604081205460ff166105c9565b60008061061b61194d565b60008681527f6862122c88c20d0f389f9211fb45e4a0982f5f74838cd11cfb5e8c8b41fbe65a60205260409020600681015460038201549293509091869161066291613190565b10156106b55760405162461bcd60e51b815260206004820152600260248201527f435200000000000000000000000000000000000000000000000000000000000060448201526064015b60405180910390fd5b8054421180156106c9575080600101544211155b6107155760405162461bcd60e51b815260206004820152600360248201527f4f4f54000000000000000000000000000000000000000000000000000000000060448201526064016106ac565b84816002015461072591906131a7565b34146107735760405162461bcd60e51b815260206004820152600260248201527f494100000000000000000000000000000000000000000000000000000000000060448201526064016106ac565b6001600160a01b038216600090815260078201602090815260408083205481519283018a9052908201889052606085811b6bffffffffffffffffffffffff191690830152607482018190529190609401604051602081830303815290604052905060006107fd7f47dc25f21c7793543edaeb1ef19d41726ddbada967ae9a7980b9bd8a45228a5e90565b905060006108698861086385805190602001206040517f19457468657265756d205369676e6564204d6573736167653a0a3332000000006020820152603c8101829052600090605c01604051602081830303815290604052805190602001209050919050565b906119a3565b82549091506001600160a01b038083169116146108ad5760405162461bcd60e51b81526020600482015260026024820152614e4d60f01b60448201526064016106ac565b888560060160008282546108c191906131c6565b90915550506001600160a01b0386166000908152600786016020526040902080546001019055610902868b8b604051806020016040528060008152506119bf565b6002850154156109b6576000606486600401543461092091906131a7565b61092a91906131de565b905060006109388234613190565b60058801546040519192506001600160a01b03169082156108fc029083906000818181858888f19350505050158015610975573d6000803e3d6000fd5b5060048401546040516001600160a01b039091169083156108fc029084906000818181858888f193505050501580156109b2573d6000803e3d6000fd5b5050505b888a876001600160a01b03167f25b428dfde728ccfaddad7e29e4ac23c24ed7fd1a6e3e3f91894a9a073f5dfff60405160405180910390a45060019998505050505050505050565b7fc8fcad8db84d3cc18b4c41d551ea0ee66dd599cde068d998e57d5e09332c1320546001600160a01b03163314610a775760405162461bcd60e51b815260206004820152600260248201527f4e4f00000000000000000000000000000000000000000000000000000000000060448201526064016106ac565b7fa5e014e253d3b66bd348c3cdd05f38b9805fff0b6471d004b58c6ada26cae993805473ffffffffffffffffffffffffffffffffffffffff19166001600160a01b0385161790557fd9b67a26000000000000000000000000000000000000000000000000000000006000527fc8fcad8db84d3cc18b4c41d551ea0ee66dd599cde068d998e57d5e09332c131f6020527f845f7f8d885943dffdc1524acbd9538b2923f93aad26d306df3b8982c7f0632d805460ff19166001179055610b3b856119e0565b7f47dc25f21c7793543edaeb1ef19d41726ddbada967ae9a7980b9bd8a45228a5e80546001600160a01b0395861673ffffffffffffffffffffffffffffffffffffffff19918216179091557f47dc25f21c7793543edaeb1ef19d41726ddbada967ae9a7980b9bd8a45228a5f8054938616938216939093179092557f47dc25f21c7793543edaeb1ef19d41726ddbada967ae9a7980b9bd8a45228a628054919094169116179091555050565b60008181527fb3408a5d8f30170919d3996b6cc182726500ad24733d17ace2f621485f6e7c836020526040812080546060929190610c2490613200565b80601f0160208091040260200160405190810160405280929190818152602001828054610c5090613200565b8015610c9d5780601f10610c7257610100808354040283529160200191610c9d565b820191906000526020600020905b815481529060010190602001808311610c8057829003601f168201915b505050505090508051600003610cf55760405162461bcd60e51b815260206004820152601d60248201527f455243313135355552493a20746f6b656e4964206e6f7420657869737400000060448201526064016106ac565b604051610d28907fb3408a5d8f30170919d3996b6cc182726500ad24733d17ace2f621485f6e7c8490839060200161323a565b604051602081830303815290604052915050919050565b60008181527fb31c2c74f86ca3ce94d901f5f5bbe66f7161eec2f7b5aa0b75a86371436424eb602052604081206105c990611a0f565b6001600160a01b03811660009081527f47dc25f21c7793543edaeb1ef19d41726ddbada967ae9a7980b9bd8a45228a6160205260408120546105c9565b6001600160a01b038516331480610e0b57506001600160a01b03851660009081527f1799cf914cb0cb442ca7c7ac709ee40d0cb89e87351dc08d517fbda27d50c68c6020908152604080832033845290915290205460ff165b610e695760405162461bcd60e51b815260206004820152602960248201527f455243313135353a2063616c6c6572206973206e6f74206f776e6572206e6f7260448201526808185c1c1c9bdd995960ba1b60648201526084016106ac565b610e77338686868686611a19565b5050505050565b60608151835114610ef75760405162461bcd60e51b815260206004820152602960248201527f455243313135353a206163636f756e747320616e6420696473206c656e67746860448201527f206d69736d61746368000000000000000000000000000000000000000000000060648201526084016106ac565b82517f1799cf914cb0cb442ca7c7ac709ee40d0cb89e87351dc08d517fbda27d50c68b9060009067ffffffffffffffff811115610f3657610f36612b24565b604051908082528060200260200182016040528015610f5f578160200160208202803683370190505b50905060005b855181101561109c5760006001600160a01b0316868281518110610f8b57610f8b6132c1565b60200260200101516001600160a01b03160361100f5760405162461bcd60e51b815260206004820152603160248201527f455243313135353a2062617463682062616c616e636520717565727920666f7260448201527f20746865207a65726f206164647265737300000000000000000000000000000060648201526084016106ac565b826000868381518110611024576110246132c1565b60200260200101518152602001908152602001600020600087838151811061104e5761104e6132c1565b60200260200101516001600160a01b03166001600160a01b0316815260200190815260200160002054828281518110611089576110896132c1565b6020908102919091010152600101610f65565b50949350505050565b60008181527f6862122c88c20d0f389f9211fb45e4a0982f5f74838cd11cfb5e8c8b41fbe65a60205260408120600381015482918291829182918291829182036111175760405162461bcd60e51b8152602060048201526003602482015262444e4560e81b60448201526064016106ac565b805460018201546002830154600384015460048501546005860154600690960154949e939d50919b50995097506001600160a01b0390921695509350915050565b60008181527fb31c2c74f86ca3ce94d901f5f5bbe66f7161eec2f7b5aa0b75a86371436424eb6020526040812060609161119182611a0f565b67ffffffffffffffff8111156111a9576111a9612b24565b6040519080825280602002602001820160405280156111d2578160200160208202803683370190505b50905060005b6111e183611a0f565b81101561122e576111f28382611a3d565b828281518110611204576112046132c1565b6001600160a01b039092166020928302919091019091015280611226816132d7565b9150506111d8565b509392505050565b6001600160a01b03811660009081527fb31c2c74f86ca3ce94d901f5f5bbe66f7161eec2f7b5aa0b75a86371436424ec6020526040812060609161127982611a0f565b67ffffffffffffffff81111561129157611291612b24565b6040519080825280602002602001820160405280156112ba578160200160208202803683370190505b50905060005b6112c983611a0f565b81101561122e576112da8382611a3d565b8282815181106112ec576112ec6132c1565b602090810291909101015280611301816132d7565b9150506112c0565b6001600160a01b03821633036113875760405162461bcd60e51b815260206004820152602960248201527f455243313135353a2073657474696e6720617070726f76616c2073746174757360448201527f20666f722073656c66000000000000000000000000000000000000000000000060648201526084016106ac565b3360008181527f1799cf914cb0cb442ca7c7ac709ee40d0cb89e87351dc08d517fbda27d50c68c602090815260408083206001600160a01b03871680855290835292819020805460ff191686151590811790915590519081529192917f17307eab39ab6107e8899845ad3d59bd9653f200f220920489ca2b5937696c31910160405180910390a35050565b60008281527f6862122c88c20d0f389f9211fb45e4a0982f5f74838cd11cfb5e8c8b41fbe65a60205260408120600381015482036114785760405162461bcd60e51b8152602060048201526003602482015262444e4560e81b60448201526064016106ac565b6001600160a01b0383166000908152600782016020526040902054949350505050565b6000806114a88888613190565b116114f55760405162461bcd60e51b815260206004820152600260248201527f495400000000000000000000000000000000000000000000000000000000000060448201526064016106ac565b60648311156115465760405162461bcd60e51b815260206004820152600360248201527f49534f000000000000000000000000000000000000000000000000000000000060448201526064016106ac565b600084116115965760405162461bcd60e51b815260206004820152600360248201527f494143000000000000000000000000000000000000000000000000000000000060448201526064016106ac565b7f47dc25f21c7793543edaeb1ef19d41726ddbada967ae9a7980b9bd8a45228a5e60006115c161194d565b905060006115ce82610d75565b905060008b8b8b8b8b8b88886040516020016115f19897969594939291906132f0565b604051602081830303815290604052905060006116668761086384805190602001206040517f19457468657265756d205369676e6564204d6573736167653a0a3332000000006020820152603c8101829052600090605c01604051602081830303815290604052805190602001209050919050565b85549091506001600160a01b038083169116146116aa5760405162461bcd60e51b81526020600482015260026024820152614e4d60f01b60448201526064016106ac565b600285015495506116bb868e611a49565b6116cb8560020180546001019055565b6001600160a01b038416600090815260038601602052604090208054600101905560007f6862122c88c20d0f389f9211fb45e4a0982f5f74838cd11cfb5e8c8b41fbe659600101600088815260200190815260200160002090508c81600001819055508b81600101819055508a8160020181905550898160030181905550888160040181905550848160050160006101000a8154816001600160a01b0302191690836001600160a01b0316021790555086856001600160a01b03167f4011446e11141f68f741bffe55d700b48cbc73fb927148a01c8f4664c3be014260405160405180910390a3505050505050979650505050505050565b6001600160a01b03851633148061181c57506001600160a01b03851660009081527f1799cf914cb0cb442ca7c7ac709ee40d0cb89e87351dc08d517fbda27d50c68c6020908152604080832033845290915290205460ff165b61187a5760405162461bcd60e51b815260206004820152602960248201527f455243313135353a2063616c6c6572206973206e6f74206f776e6572206e6f7260448201526808185c1c1c9bdd995960ba1b60648201526084016106ac565b610e77338686868686611a85565b60006001600160a01b0383166119065760405162461bcd60e51b815260206004820152602b60248201527f455243313135353a2062616c616e636520717565727920666f7220746865207a60448201527f65726f206164647265737300000000000000000000000000000000000000000060648201526084016106ac565b7f1799cf914cb0cb442ca7c7ac709ee40d0cb89e87351dc08d517fbda27d50c68b6000928352602090815260408084206001600160a01b0395909516845293905250205490565b60006018361080159061198957507fa5e014e253d3b66bd348c3cdd05f38b9805fff0b6471d004b58c6ada26cae993546001600160a01b031633145b1561199b575060131936013560601c90565b503390565b90565b60008060006119b28585611aa1565b9150915061122e81611b0f565b6119cb84848484611cc8565b6119da33600086868686611e0b565b50505050565b7fb3408a5d8f30170919d3996b6cc182726500ad24733d17ace2f621485f6e7c84611a0b8282613390565b5050565b60006105c9825490565b611a27868686868686611fb9565b611a35868686868686612251565b505050505050565b60006105c6838361234d565b60008281527fb3408a5d8f30170919d3996b6cc182726500ad24733d17ace2f621485f6e7c8360205260409020611a808282613390565b505050565b611a938686868686866123ee565b611a35868686868686611e0b565b6000808251604103611ad75760208301516040840151606085015160001a611acb87828585612596565b94509450505050611b08565b8251604003611b005760208301516040840151611af5868383612683565b935093505050611b08565b506000905060025b9250929050565b6000816004811115611b2357611b23613450565b03611b2b5750565b6001816004811115611b3f57611b3f613450565b03611b8c5760405162461bcd60e51b815260206004820152601860248201527f45434453413a20696e76616c6964207369676e6174757265000000000000000060448201526064016106ac565b6002816004811115611ba057611ba0613450565b03611bed5760405162461bcd60e51b815260206004820152601f60248201527f45434453413a20696e76616c6964207369676e6174757265206c656e6774680060448201526064016106ac565b6003816004811115611c0157611c01613450565b03611c595760405162461bcd60e51b815260206004820152602260248201527f45434453413a20696e76616c6964207369676e6174757265202773272076616c604482015261756560f01b60648201526084016106ac565b6004816004811115611c6d57611c6d613450565b03611cc55760405162461bcd60e51b815260206004820152602260248201527f45434453413a20696e76616c6964207369676e6174757265202776272076616c604482015261756560f01b60648201526084016106ac565b50565b6001600160a01b038416611d445760405162461bcd60e51b815260206004820152602160248201527f455243313135353a206d696e7420746f20746865207a65726f2061646472657360448201527f730000000000000000000000000000000000000000000000000000000000000060648201526084016106ac565b611d6333600086611d54876126d5565b611d5d876126d5565b86612720565b60008381527f1799cf914cb0cb442ca7c7ac709ee40d0cb89e87351dc08d517fbda27d50c68b602090815260408083206001600160a01b0388168452918290528220805491928592611db69084906131c6565b909155505060408051858152602081018590526001600160a01b0387169160009133917fc3d58168c5ae7397731d063d5bbf3d657854427343f4c083240f7aacaa2d0f62910160405180910390a45050505050565b6001600160a01b0384163b15611a355760405163f23a6e6160e01b81526001600160a01b0385169063f23a6e6190611e4f9089908990889088908890600401613466565b6020604051808303816000875af1925050508015611e8a575060408051601f3d908101601f19168201909252611e87918101906134a9565b60015b611f3f57611e966134c6565b806308c379a003611ecf5750611eaa6134e1565b80611eb55750611ed1565b8060405162461bcd60e51b81526004016106ac9190612d1c565b505b60405162461bcd60e51b815260206004820152603460248201527f455243313135353a207472616e7366657220746f206e6f6e204552433131353560448201527f526563656976657220696d706c656d656e74657200000000000000000000000060648201526084016106ac565b6001600160e01b0319811663f23a6e6160e01b14611fb05760405162461bcd60e51b815260206004820152602860248201527f455243313135353a204552433131353552656365697665722072656a656374656044820152676420746f6b656e7360c01b60648201526084016106ac565b50505050505050565b6001600160a01b03841661201d5760405162461bcd60e51b815260206004820152602560248201527f455243313135353a207472616e7366657220746f20746865207a65726f206164604482015264647265737360d81b60648201526084016106ac565b81518351146120945760405162461bcd60e51b815260206004820152602860248201527f455243313135353a2069647320616e6420616d6f756e7473206c656e6774682060448201527f6d69736d6174636800000000000000000000000000000000000000000000000060648201526084016106ac565b6120a2868686868686612720565b7f1799cf914cb0cb442ca7c7ac709ee40d0cb89e87351dc08d517fbda27d50c68b60005b84518110156121f05760008582815181106120e3576120e36132c1565b602002602001015190506000858381518110612101576121016132c1565b602090810291909101810151600084815286835260408082206001600160a01b038e1683529093529190912054909150818110156121955760405162461bcd60e51b815260206004820152602b60248201527f455243313135353a20696e73756666696369656e742062616c616e636573206660448201526a37b9103a3930b739b332b960a91b60648201526084016106ac565b6000838152602086815260408083206001600160a01b038e811685529252808320938590039093558a16815290812080548392906121d49084906131c6565b92505081905550505080806121e8906132d7565b9150506120c6565b50846001600160a01b0316866001600160a01b0316886001600160a01b03167f4a39dc06d4c0dbc64b70af90fd698a233a518aa5d07e595d983b8c0526c8f7fb878760405161224092919061356b565b60405180910390a450505050505050565b6001600160a01b0384163b15611a355760405163bc197c8160e01b81526001600160a01b0385169063bc197c81906122959089908990889088908890600401613599565b6020604051808303816000875af19250505080156122d0575060408051601f3d908101601f191682019092526122cd918101906134a9565b60015b6122dc57611e966134c6565b6001600160e01b0319811663bc197c8160e01b14611fb05760405162461bcd60e51b815260206004820152602860248201527f455243313135353a204552433131353552656365697665722072656a656374656044820152676420746f6b656e7360c01b60648201526084016106ac565b815460009082106123c65760405162461bcd60e51b815260206004820152602260248201527f456e756d657261626c655365743a20696e646578206f7574206f6620626f756e60448201527f647300000000000000000000000000000000000000000000000000000000000060648201526084016106ac565b8260000182815481106123db576123db6132c1565b9060005260206000200154905092915050565b6001600160a01b0384166124525760405162461bcd60e51b815260206004820152602560248201527f455243313135353a207472616e7366657220746f20746865207a65726f206164604482015264647265737360d81b60648201526084016106ac565b612461868686611d54876126d5565b60008381527f1799cf914cb0cb442ca7c7ac709ee40d0cb89e87351dc08d517fbda27d50c68b602081815260408084206001600160a01b038a16855290915290912054838110156125085760405162461bcd60e51b815260206004820152602b60248201527f455243313135353a20696e73756666696369656e742062616c616e636573206660448201526a37b9103a3930b739b332b960a91b60648201526084016106ac565b6000858152602083815260408083206001600160a01b038b811685529252808320938790039093558716815290812080548592906125479084906131c6565b909155505060408051858152602081018590526001600160a01b038088169289821692918b16917fc3d58168c5ae7397731d063d5bbf3d657854427343f4c083240f7aacaa2d0f629101612240565b6000807f7fffffffffffffffffffffffffffffff5d576e7357a4501ddfe92f46681b20a08311156125cd575060009050600361267a565b8460ff16601b141580156125e557508460ff16601c14155b156125f6575060009050600461267a565b6040805160008082526020820180845289905260ff881692820192909252606081018690526080810185905260019060a0016020604051602081039080840390855afa15801561264a573d6000803e3d6000fd5b5050604051601f1901519150506001600160a01b0381166126735760006001925092505061267a565b9150600090505b94509492505050565b6000807f7fffffffffffffffffffffffffffffffffffffffffffffffffffffffffffffff8316816126b960ff86901c601b6131c6565b90506126c787828885612596565b935093505050935093915050565b6040805160018082528183019092526060916000919060208083019080368337019050509050828160008151811061270f5761270f6132c1565b602090810291909101015292915050565b611a35868686868686611a35868686868686836001600160a01b0316856001600160a01b031614611a35576001600160a01b0385811660009081527fb31c2c74f86ca3ce94d901f5f5bbe66f7161eec2f7b5aa0b75a86371436424ec6020526040808220928716825281207fb31c2c74f86ca3ce94d901f5f5bbe66f7161eec2f7b5aa0b75a86371436424ea927fb31c2c74f86ca3ce94d901f5f5bbe66f7161eec2f7b5aa0b75a86371436424eb929091905b875181101561291b5760008782815181106127f0576127f06132c1565b602002602001015190506000811115612908576000898381518110612817576128176132c1565b6020026020010151905060006001600160a01b03168c6001600160a01b03160361286457600081815260208890526040812080548492906128599084906131c6565b909155506128999050565b8161286f8d83611888565b0361289957600081815260208790526040902061288c908d612928565b50612897858261293d565b505b6001600160a01b038b166128d057600081815260208890526040812080548492906128c5908490613190565b909155506129069050565b6128da8b82611888565b6000036129065760008181526020879052604090206128f9908c612949565b50612904848261295e565b505b505b5080612913816132d7565b9150506127d3565b5050505050505050505050565b60006105c6836001600160a01b03841661296a565b60006105c6838361296a565b60006105c6836001600160a01b038416612a55565b60006105c68383612a55565b60008181526001830160205260408120548015612a4b57600061298e600183613190565b855490915060009086906129a490600190613190565b815481106129b4576129b46132c1565b90600052602060002001549050808660000183815481106129d7576129d76132c1565b6000918252602090912001556129ee8260016131c6565b60008281526001880160205260409020558554869080612a1057612a106135f7565b6001900381819060005260206000200160009055905585600101600086815260200190815260200160002060009055600193505050506105c9565b60009150506105c9565b6000818152600183016020526040812054612a9c575081546001818101845560008481526020808220909301849055845484825282860190935260409020919091556105c9565b5060006105c9565b80356001600160a01b0381168114612abb57600080fd5b919050565b60008060408385031215612ad357600080fd5b612adc83612aa4565b946020939093013593505050565b6001600160e01b031981168114611cc557600080fd5b600060208284031215612b1257600080fd5b8135612b1d81612aea565b9392505050565b634e487b7160e01b600052604160045260246000fd5b601f8201601f1916810167ffffffffffffffff81118282101715612b6057612b60612b24565b6040525050565b600082601f830112612b7857600080fd5b813567ffffffffffffffff811115612b9257612b92612b24565b604051612ba9601f8301601f191660200182612b3a565b818152846020838601011115612bbe57600080fd5b816020850160208301376000918101602001919091529392505050565b600080600060608486031215612bf057600080fd5b8335925060208401359150604084013567ffffffffffffffff811115612c1557600080fd5b612c2186828701612b67565b9150509250925092565b600080600080600060a08688031215612c4357600080fd5b853567ffffffffffffffff811115612c5a57600080fd5b612c6688828901612b67565b955050612c7560208701612aa4565b9350612c8360408701612aa4565b9250612c9160608701612aa4565b9150612c9f60808701612aa4565b90509295509295909350565b600060208284031215612cbd57600080fd5b5035919050565b60005b83811015612cdf578181015183820152602001612cc7565b838111156119da5750506000910152565b60008151808452612d08816020860160208601612cc4565b601f01601f19169290920160200192915050565b6020815260006105c66020830184612cf0565b600060208284031215612d4157600080fd5b6105c682612aa4565b600067ffffffffffffffff821115612d6457612d64612b24565b5060051b60200190565b600082601f830112612d7f57600080fd5b81356020612d8c82612d4a565b604051612d998282612b3a565b83815260059390931b8501820192828101915086841115612db957600080fd5b8286015b84811015612dd45780358352918301918301612dbd565b509695505050505050565b600080600080600060a08688031215612df757600080fd5b612e0086612aa4565b9450612e0e60208701612aa4565b9350604086013567ffffffffffffffff80821115612e2b57600080fd5b612e3789838a01612d6e565b94506060880135915080821115612e4d57600080fd5b612e5989838a01612d6e565b93506080880135915080821115612e6f57600080fd5b50612e7c88828901612b67565b9150509295509295909350565b60008060408385031215612e9c57600080fd5b823567ffffffffffffffff80821115612eb457600080fd5b818501915085601f830112612ec857600080fd5b81356020612ed582612d4a565b604051612ee28282612b3a565b83815260059390931b8501820192828101915089841115612f0257600080fd5b948201945b83861015612f2757612f1886612aa4565b82529482019490820190612f07565b96505086013592505080821115612f3d57600080fd5b50612f4a85828601612d6e565b9150509250929050565b600081518084526020808501945080840160005b83811015612f8457815187529582019590820190600101612f68565b509495945050505050565b6020815260006105c66020830184612f54565b6020808252825182820181905260009190848201906040850190845b81811015612fe35783516001600160a01b031683529284019291840191600101612fbe565b50909695505050505050565b6000806040838503121561300257600080fd5b61300b83612aa4565b91506020830135801515811461302057600080fd5b809150509250929050565b6000806040838503121561303e57600080fd5b8235915061304e60208401612aa4565b90509250929050565b600080600080600080600060e0888a03121561307257600080fd5b873567ffffffffffffffff8082111561308a57600080fd5b6130968b838c01612b67565b985060208a0135975060408a0135965060608a0135955060808a0135945060a08a0135935060c08a01359150808211156130cf57600080fd5b506130dc8a828b01612b67565b91505092959891949750929550565b600080604083850312156130fe57600080fd5b61310783612aa4565b915061304e60208401612aa4565b600080600080600060a0868803121561312d57600080fd5b61313686612aa4565b945061314460208701612aa4565b93506040860135925060608601359150608086013567ffffffffffffffff81111561316e57600080fd5b612e7c88828901612b67565b634e487b7160e01b600052601160045260246000fd5b6000828210156131a2576131a261317a565b500390565b60008160001904831182151516156131c1576131c161317a565b500290565b600082198211156131d9576131d961317a565b500190565b6000826131fb57634e487b7160e01b600052601260045260246000fd5b500490565b600181811c9082168061321457607f821691505b60208210810361323457634e487b7160e01b600052602260045260246000fd5b50919050565b600080845461324881613200565b600182811680156132605760018114613275576132a4565b60ff19841687528215158302870194506132a4565b8860005260208060002060005b8581101561329b5781548a820152908401908201613282565b50505082870194505b5050505083516132b8818360208801612cc4565b01949350505050565b634e487b7160e01b600052603260045260246000fd5b6000600182016132e9576132e961317a565b5060010190565b60008951613302818460208e01612cc4565b91909101978852506020870195909552604086019390935260608086019290925260808501521b6bffffffffffffffffffffffff191660a083015260b482015260d401919050565b601f821115611a8057600081815260208120601f850160051c810160208610156133715750805b601f850160051c820191505b81811015611a355782815560010161337d565b815167ffffffffffffffff8111156133aa576133aa612b24565b6133be816133b88454613200565b8461334a565b602080601f8311600181146133f357600084156133db5750858301515b600019600386901b1c1916600185901b178555611a35565b600085815260208120601f198616915b8281101561342257888601518255948401946001909101908401613403565b50858210156134405787850151600019600388901b60f8161c191681555b5050505050600190811b01905550565b634e487b7160e01b600052602160045260246000fd5b60006001600160a01b03808816835280871660208401525084604083015283606083015260a0608083015261349e60a0830184612cf0565b979650505050505050565b6000602082840312156134bb57600080fd5b8151612b1d81612aea565b600060033d11156119a05760046000803e5060005160e01c90565b600060443d10156134ef5790565b6040516003193d81016004833e81513d67ffffffffffffffff816024840111818411171561351f57505050505090565b82850191508151818111156135375750505050505090565b843d87010160208285010111156135515750505050505090565b61356060208286010187612b3a565b509095945050505050565b60408152600061357e6040830185612f54565b82810360208401526135908185612f54565b95945050505050565b60006001600160a01b03808816835280871660208401525060a060408301526135c560a0830186612f54565b82810360608401526135d78186612f54565b905082810360808401526135eb8185612cf0565b98975050505050505050565b634e487b7160e01b600052603160045260246000fdfea26469706673582212207ee579faa815518c623b118ad5459da94c24542a25fdccd19765428e961774e964736f6c634300080f0033",
  "devdoc": {
    "kind": "dev",
    "methods": {
      "accountsByToken(uint256)": {
        "params": {
          "id": "token id to query"
        },
        "returns": {
          "_0": "list of holder addresses"
        }
      },
      "balanceOf(address,uint256)": {
        "params": {
          "account": "address to query",
          "id": "token to query"
        },
        "returns": {
          "_0": "token balance"
        }
      },
      "balanceOfBatch(address[],uint256[])": {
        "params": {
          "accounts": "addresss to query",
          "ids": "tokens to query"
        },
        "returns": {
          "_0": "token balances"
        }
      },
      "isApprovedForAll(address,address)": {
        "params": {
          "account": "address to query for approval granted",
          "operator": "address to query for approval received"
        },
        "returns": {
          "_0": "whether operator is approved to spend tokens held by account"
        }
      },
      "safeBatchTransferFrom(address,address,uint256[],uint256[],bytes)": {
        "params": {
          "amounts": "list of quantities of tokens to transfer",
          "data": "data payload",
          "from": "sender of tokens",
          "ids": "list of token IDs",
          "to": "receiver of tokens"
        }
      },
      "safeTransferFrom(address,address,uint256,uint256,bytes)": {
        "params": {
          "amount": "quantity of tokens to transfer",
          "data": "data payload",
          "from": "sender of tokens",
          "id": "token ID",
          "to": "receiver of tokens"
        }
      },
      "setApprovalForAll(address,bool)": {
        "params": {
          "operator": "address whose approval status to update",
          "status": "whether operator should be considered approved"
        }
      },
      "supportsInterface(bytes4)": {
        "params": {
          "interfaceId": "interface id"
        },
        "returns": {
          "_0": "bool whether interface is supported"
        }
      },
      "tokensByAccount(address)": {
        "params": {
          "account": "address to query"
        },
        "returns": {
          "_0": "list of token ids"
        }
      },
      "totalHolders(uint256)": {
        "params": {
          "id": "token id to query"
        },
        "returns": {
          "_0": "quantity of holders"
        }
      },
      "totalSupply(uint256)": {
        "params": {
          "id": "token id to query"
        },
        "returns": {
          "_0": "token supply"
        }
      }
    },
    "version": 1
  },
  "userdoc": {
    "kind": "user",
    "methods": {
      "accountsByToken(uint256)": {
        "notice": "query holders of given token"
      },
      "balanceOf(address,uint256)": {
        "notice": "query the balance of given token held by given address"
      },
      "balanceOfBatch(address[],uint256[])": {
        "notice": "query the balances of given tokens held by given addresses"
      },
      "isApprovedForAll(address,address)": {
        "notice": "query approval status of given operator with respect to given address"
      },
      "safeBatchTransferFrom(address,address,uint256[],uint256[],bytes)": {
        "notice": "transfer batch of tokens between given addresses, checking for ERC1155Receiver implementation if applicable"
      },
      "safeTransferFrom(address,address,uint256,uint256,bytes)": {
        "notice": "transfer tokens between given addresses, checking for ERC1155Receiver implementation if applicable"
      },
      "setApprovalForAll(address,bool)": {
        "notice": "grant approval to or revoke approval from given operator to spend held tokens"
      },
      "supportsInterface(bytes4)": {
        "notice": "query whether contract has registered support for given interface"
      },
      "tokensByAccount(address)": {
        "notice": "query tokens held by given address"
      },
      "totalHolders(uint256)": {
        "notice": "query total number of holders for given token"
      },
      "totalSupply(uint256)": {
        "notice": "query total minted supply of given token"
      }
    },
    "version": 1
  },
  "storageLayout": {
    "storage": [],
    "types": null
  }
}