{
  "address": "0x5f108e3431B9ee9E3308D7b2B806CA4eCDF7d8fA",
  "abi": [
    {
      "anonymous": false,
      "inputs": [
        {
          "indexed": true,
          "internalType": "address",
          "name": "account",
          "type": "address"
        },
        {
          "indexed": true,
          "internalType": "address",
          "name": "operator",
          "type": "address"
        },
        {
          "indexed": false,
          "internalType": "bool",
          "name": "approved",
          "type": "bool"
        }
      ],
      "name": "ApprovalForAll",
      "type": "event"
    },
    {
      "anonymous": false,
      "inputs": [
        {
          "indexed": true,
          "internalType": "address",
          "name": "account",
          "type": "address"
        },
        {
          "indexed": true,
          "internalType": "uint256",
          "name": "tokenId",
          "type": "uint256"
        }
      ],
      "name": "DropCreated",
      "type": "event"
    },
    {
      "anonymous": false,
      "inputs": [
        {
          "indexed": true,
          "internalType": "address",
          "name": "account",
          "type": "address"
        },
        {
          "indexed": true,
          "internalType": "uint256",
          "name": "tokenId",
          "type": "uint256"
        },
        {
          "indexed": true,
          "internalType": "uint256",
          "name": "amount",
          "type": "uint256"
        }
      ],
      "name": "Minted",
      "type": "event"
    },
    {
      "anonymous": false,
      "inputs": [
        {
          "indexed": true,
          "internalType": "address",
          "name": "operator",
          "type": "address"
        },
        {
          "indexed": true,
          "internalType": "address",
          "name": "from",
          "type": "address"
        },
        {
          "indexed": true,
          "internalType": "address",
          "name": "to",
          "type": "address"
        },
        {
          "indexed": false,
          "internalType": "uint256[]",
          "name": "ids",
          "type": "uint256[]"
        },
        {
          "indexed": false,
          "internalType": "uint256[]",
          "name": "values",
          "type": "uint256[]"
        }
      ],
      "name": "TransferBatch",
      "type": "event"
    },
    {
      "anonymous": false,
      "inputs": [
        {
          "indexed": true,
          "internalType": "address",
          "name": "operator",
          "type": "address"
        },
        {
          "indexed": true,
          "internalType": "address",
          "name": "from",
          "type": "address"
        },
        {
          "indexed": true,
          "internalType": "address",
          "name": "to",
          "type": "address"
        },
        {
          "indexed": false,
          "internalType": "uint256",
          "name": "id",
          "type": "uint256"
        },
        {
          "indexed": false,
          "internalType": "uint256",
          "name": "value",
          "type": "uint256"
        }
      ],
      "name": "TransferSingle",
      "type": "event"
    },
    {
      "anonymous": false,
      "inputs": [
        {
          "indexed": false,
          "internalType": "string",
          "name": "value",
          "type": "string"
        },
        {
          "indexed": true,
          "internalType": "uint256",
          "name": "tokenId",
          "type": "uint256"
        }
      ],
      "name": "URI",
      "type": "event"
    },
    {
      "inputs": [
        {
          "internalType": "uint256",
          "name": "id",
          "type": "uint256"
        }
      ],
      "name": "accountsByToken",
      "outputs": [
        {
          "internalType": "address[]",
          "name": "",
          "type": "address[]"
        }
      ],
      "stateMutability": "view",
      "type": "function"
    },
    {
      "inputs": [
        {
          "internalType": "address",
          "name": "account",
          "type": "address"
        },
        {
          "internalType": "uint256",
          "name": "id",
          "type": "uint256"
        }
      ],
      "name": "balanceOf",
      "outputs": [
        {
          "internalType": "uint256",
          "name": "",
          "type": "uint256"
        }
      ],
      "stateMutability": "view",
      "type": "function"
    },
    {
      "inputs": [
        {
          "internalType": "address[]",
          "name": "accounts",
          "type": "address[]"
        },
        {
          "internalType": "uint256[]",
          "name": "ids",
          "type": "uint256[]"
        }
      ],
      "name": "balanceOfBatch",
      "outputs": [
        {
          "internalType": "uint256[]",
          "name": "",
          "type": "uint256[]"
        }
      ],
      "stateMutability": "view",
      "type": "function"
    },
    {
      "inputs": [
        {
          "internalType": "string",
          "name": "_uri",
          "type": "string"
        },
        {
          "internalType": "uint256",
          "name": "_timeStart",
          "type": "uint256"
        },
        {
          "internalType": "uint256",
          "name": "_timeEnd",
          "type": "uint256"
        },
        {
          "internalType": "uint256",
          "name": "_price",
          "type": "uint256"
        },
        {
          "internalType": "uint256",
          "name": "_amountCap",
          "type": "uint256"
        },
        {
          "internalType": "uint256",
          "name": "_shareCyber",
          "type": "uint256"
        },
        {
          "internalType": "bytes",
          "name": "_signature",
          "type": "bytes"
        }
      ],
      "name": "createDrop",
      "outputs": [
        {
          "internalType": "uint256",
          "name": "tokenId",
          "type": "uint256"
        }
      ],
      "stateMutability": "nonpayable",
      "type": "function"
    },
    {
      "inputs": [
        {
          "internalType": "uint256",
          "name": "_tokenId",
          "type": "uint256"
        },
        {
          "internalType": "address",
          "name": "_minter",
          "type": "address"
        }
      ],
      "name": "dropMintCounter",
      "outputs": [
        {
          "internalType": "uint256",
          "name": "",
          "type": "uint256"
        }
      ],
      "stateMutability": "view",
      "type": "function"
    },
    {
      "inputs": [
        {
          "internalType": "uint256",
          "name": "_tokenId",
          "type": "uint256"
        }
      ],
      "name": "getDrop",
      "outputs": [
        {
          "internalType": "uint256",
          "name": "timeStart",
          "type": "uint256"
        },
        {
          "internalType": "uint256",
          "name": "timeEnd",
          "type": "uint256"
        },
        {
          "internalType": "uint256",
          "name": "price",
          "type": "uint256"
        },
        {
          "internalType": "uint256",
          "name": "amountCap",
          "type": "uint256"
        },
        {
          "internalType": "uint256",
          "name": "shareCyber",
          "type": "uint256"
        },
        {
          "internalType": "address",
          "name": "creator",
          "type": "address"
        },
        {
          "internalType": "uint256",
          "name": "minted",
          "type": "uint256"
        }
      ],
      "stateMutability": "view",
      "type": "function"
    },
    {
      "inputs": [
        {
          "internalType": "string",
          "name": "_uri",
          "type": "string"
        },
        {
          "internalType": "address",
          "name": "_manager",
          "type": "address"
        },
        {
          "internalType": "address",
          "name": "_trustedForwarder",
          "type": "address"
        },
        {
          "internalType": "address",
          "name": "_opensea",
          "type": "address"
        },
        {
          "internalType": "address",
          "name": "_oncyber",
          "type": "address"
        }
      ],
      "name": "initialize",
      "outputs": [],
      "stateMutability": "nonpayable",
      "type": "function"
    },
    {
      "inputs": [
        {
          "internalType": "address",
          "name": "account",
          "type": "address"
        },
        {
          "internalType": "address",
          "name": "operator",
          "type": "address"
        }
      ],
      "name": "isApprovedForAll",
      "outputs": [
        {
          "internalType": "bool",
          "name": "",
          "type": "bool"
        }
      ],
      "stateMutability": "view",
      "type": "function"
    },
    {
      "inputs": [
        {
          "internalType": "address",
          "name": "forwarder",
          "type": "address"
        }
      ],
      "name": "isTrustedForwarder",
      "outputs": [
        {
          "internalType": "bool",
          "name": "",
          "type": "bool"
        }
      ],
      "stateMutability": "view",
      "type": "function"
    },
    {
      "inputs": [],
      "name": "manager",
      "outputs": [
        {
          "internalType": "address",
          "name": "",
          "type": "address"
        }
      ],
      "stateMutability": "view",
      "type": "function"
    },
    {
      "inputs": [
        {
          "internalType": "uint256",
          "name": "_tokenId",
          "type": "uint256"
        },
        {
          "internalType": "uint256",
          "name": "_quantity",
          "type": "uint256"
        },
        {
          "internalType": "bytes",
          "name": "_signature",
          "type": "bytes"
        }
      ],
      "name": "mint",
      "outputs": [
        {
          "internalType": "bool",
          "name": "success",
          "type": "bool"
        }
      ],
      "stateMutability": "payable",
      "type": "function"
    },
    {
      "inputs": [
        {
          "internalType": "address",
          "name": "to",
          "type": "address"
        },
        {
          "internalType": "uint256",
          "name": "tokenId",
          "type": "uint256"
        },
        {
          "internalType": "uint256",
          "name": "amount",
          "type": "uint256"
        }
      ],
      "name": "mintTransfer",
      "outputs": [],
      "stateMutability": "nonpayable",
      "type": "function"
    },
    {
      "inputs": [
        {
          "internalType": "address",
          "name": "_minter",
          "type": "address"
        }
      ],
      "name": "minterNonce",
      "outputs": [
        {
          "internalType": "uint256",
          "name": "",
          "type": "uint256"
        }
      ],
      "stateMutability": "view",
      "type": "function"
    },
    {
      "inputs": [],
      "name": "oncyber",
      "outputs": [
        {
          "internalType": "address",
          "name": "",
          "type": "address"
        }
      ],
      "stateMutability": "view",
      "type": "function"
    },
    {
      "inputs": [
        {
          "internalType": "address",
          "name": "from",
          "type": "address"
        },
        {
          "internalType": "address",
          "name": "to",
          "type": "address"
        },
        {
          "internalType": "uint256[]",
          "name": "ids",
          "type": "uint256[]"
        },
        {
          "internalType": "uint256[]",
          "name": "amounts",
          "type": "uint256[]"
        },
        {
          "internalType": "bytes",
          "name": "data",
          "type": "bytes"
        }
      ],
      "name": "safeBatchTransferFrom",
      "outputs": [],
      "stateMutability": "nonpayable",
      "type": "function"
    },
    {
      "inputs": [
        {
          "internalType": "address",
          "name": "from",
          "type": "address"
        },
        {
          "internalType": "address",
          "name": "to",
          "type": "address"
        },
        {
          "internalType": "uint256",
          "name": "id",
          "type": "uint256"
        },
        {
          "internalType": "uint256",
          "name": "amount",
          "type": "uint256"
        },
        {
          "internalType": "bytes",
          "name": "data",
          "type": "bytes"
        }
      ],
      "name": "safeTransferFrom",
      "outputs": [],
      "stateMutability": "nonpayable",
      "type": "function"
    },
    {
      "inputs": [
        {
          "internalType": "address",
          "name": "operator",
          "type": "address"
        },
        {
          "internalType": "bool",
          "name": "status",
          "type": "bool"
        }
      ],
      "name": "setApprovalForAll",
      "outputs": [],
      "stateMutability": "nonpayable",
      "type": "function"
    },
    {
      "inputs": [
        {
          "internalType": "bytes4",
          "name": "interfaceId",
          "type": "bytes4"
        }
      ],
      "name": "supportsInterface",
      "outputs": [
        {
          "internalType": "bool",
          "name": "",
          "type": "bool"
        }
      ],
      "stateMutability": "view",
      "type": "function"
    },
    {
      "inputs": [
        {
          "internalType": "address",
          "name": "account",
          "type": "address"
        }
      ],
      "name": "tokensByAccount",
      "outputs": [
        {
          "internalType": "uint256[]",
          "name": "",
          "type": "uint256[]"
        }
      ],
      "stateMutability": "view",
      "type": "function"
    },
    {
      "inputs": [
        {
          "internalType": "uint256",
          "name": "id",
          "type": "uint256"
        }
      ],
      "name": "totalHolders",
      "outputs": [
        {
          "internalType": "uint256",
          "name": "",
          "type": "uint256"
        }
      ],
      "stateMutability": "view",
      "type": "function"
    },
    {
      "inputs": [],
      "name": "totalSupply",
      "outputs": [
        {
          "internalType": "uint256",
          "name": "",
          "type": "uint256"
        }
      ],
      "stateMutability": "view",
      "type": "function"
    },
    {
      "inputs": [
        {
          "internalType": "uint256",
          "name": "id",
          "type": "uint256"
        }
      ],
      "name": "totalSupply",
      "outputs": [
        {
          "internalType": "uint256",
          "name": "",
          "type": "uint256"
        }
      ],
      "stateMutability": "view",
      "type": "function"
    },
    {
      "inputs": [
        {
          "internalType": "uint256",
          "name": "_tokenId",
          "type": "uint256"
        }
      ],
      "name": "uri",
      "outputs": [
        {
          "internalType": "string",
          "name": "",
          "type": "string"
        }
      ],
      "stateMutability": "view",
      "type": "function"
    }
  ],
  "transactionHash": "0xa9ed01fd043450d85943ce2bfcb6fd9ddc7d1da3de6a7ca5f9912f2228350e55",
  "args": [],
  "solcInputHash": "0c64dd8f7f27b60942a29d70336a44fd",
  "bytecode": "0x608060405234801561001057600080fd5b50615d6c80620000216000396000f3fe60806040526004361061013f5760003560e01c8063572b6c05116100b6578063b3a721d11161006f578063b3a721d1146104d6578063bc01188e14610513578063bd85b0391461053e578063e751c9811461057b578063e985e9c5146105b8578063f242432a146105f55761013f565b8063572b6c051461038a5780636787d449146103c75780636dcfd8411461040a57806385bff2e71461044757806396f33ef514610484578063a22cb465146104ad5761013f565b806313ba55df1161010857806313ba55df1461025457806318160ddd146102915780631b023947146102bc5780632eb2c2d6146102f9578063481c6a75146103225780634e1273f41461034d5761013f565b8062fdd58e1461014457806301ffc9a71461018157806308dc9f42146101be5780630b885ac3146101ee5780630e89341c14610217575b600080fd5b34801561015057600080fd5b5061016b6004803603810190610166919061378e565b61061e565b60405161017891906137dd565b60405180910390f35b34801561018d57600080fd5b506101a860048036038101906101a39190613850565b610632565b6040516101b59190613898565b60405180910390f35b6101d860048036038101906101d391906139f9565b610655565b6040516101e59190613898565b60405180910390f35b3480156101fa57600080fd5b5061021560048036038101906102109190613b09565b610aa5565b005b34801561022357600080fd5b5061023e60048036038101906102399190613ba0565b610d09565b60405161024b9190613c55565b60405180910390f35b34801561026057600080fd5b5061027b60048036038101906102769190613ba0565b610e2c565b60405161028891906137dd565b60405180910390f35b34801561029d57600080fd5b506102a6610e59565b6040516102b391906137dd565b60405180910390f35b3480156102c857600080fd5b506102e360048036038101906102de9190613c77565b610e73565b6040516102f091906137dd565b60405180910390f35b34801561030557600080fd5b50610320600480360381019061031b9190613d6c565b610ecc565b005b34801561032e57600080fd5b50610337610f60565b6040516103449190613e4a565b60405180910390f35b34801561035957600080fd5b50610374600480360381019061036f9190613f28565b610f93565b604051610381919061405e565b60405180910390f35b34801561039657600080fd5b506103b160048036038101906103ac9190613c77565b611187565b6040516103be9190613898565b60405180910390f35b3480156103d357600080fd5b506103ee60048036038101906103e99190613ba0565b6111ea565b6040516104019796959493929190614080565b60405180910390f35b34801561041657600080fd5b50610431600480360381019061042c9190613ba0565b6112b8565b60405161043e91906141ad565b60405180910390f35b34801561045357600080fd5b5061046e60048036038101906104699190613c77565b6113c0565b60405161047b919061405e565b60405180910390f35b34801561049057600080fd5b506104ab60048036038101906104a691906141cf565b6114c6565b005b3480156104b957600080fd5b506104d460048036038101906104cf919061424e565b6116e3565b005b3480156104e257600080fd5b506104fd60048036038101906104f8919061428e565b611857565b60405161050a91906137dd565b60405180910390f35b34801561051f57600080fd5b50610528611911565b6040516105359190613e4a565b60405180910390f35b34801561054a57600080fd5b5061056560048036038101906105609190613ba0565b611944565b60405161057291906137dd565b60405180910390f35b34801561058757600080fd5b506105a2600480360381019061059d91906142ce565b61196a565b6040516105af91906137dd565b60405180910390f35b3480156105c457600080fd5b506105df60048036038101906105da91906143a8565b611ca1565b6040516105ec9190613898565b60405180910390f35b34801561060157600080fd5b5061061c600480360381019061061791906143e8565b611d3e565b005b600061062a8383611dd2565b905092915050565b600061064e82610640611ea4565b611ed190919063ffffffff16565b9050919050565b600080610660611f3c565b9050600061066c611f78565b60010160008781526020019081526020016000209050848160060154826003015461069791906144ae565b10156106d8576040517f08c379a00000000000000000000000000000000000000000000000000000000081526004016106cf9061452e565b60405180910390fd5b8060000154421180156106ef575080600101544211155b61072e576040517f08c379a00000000000000000000000000000000000000000000000000000000081526004016107259061459a565b60405180910390fd5b84816002015461073e91906145ba565b341461077f576040517f08c379a000000000000000000000000000000000000000000000000000000000815260040161077690614660565b60405180910390fd5b60006107ca8260070160008573ffffffffffffffffffffffffffffffffffffffff1673ffffffffffffffffffffffffffffffffffffffff168152602001908152602001600020611fa5565b90506000878785846040516020016107e594939291906146e9565b60405160208183030381529060405290506000610800611fb3565b90506000610826886108188580519060200120611fe0565b61201090919063ffffffff16565b90508160000160009054906101000a900473ffffffffffffffffffffffffffffffffffffffff1673ffffffffffffffffffffffffffffffffffffffff168173ffffffffffffffffffffffffffffffffffffffff16146108ba576040517f08c379a00000000000000000000000000000000000000000000000000000000081526004016108b190614783565b60405180910390fd5b888560060160008282546108ce91906147a3565b9250508190555061091e8560070160008873ffffffffffffffffffffffffffffffffffffffff1673ffffffffffffffffffffffffffffffffffffffff168152602001908152602001600020612037565b610939868b8b6040518060200160405280600081525061204d565b600085600201541115610a4f576000606486600401543461095a91906145ba565b6109649190614828565b90506000813461097491906144ae565b90508660050160009054906101000a900473ffffffffffffffffffffffffffffffffffffffff1673ffffffffffffffffffffffffffffffffffffffff166108fc829081150290604051600060405180830381858888f193505050501580156109e0573d6000803e3d6000fd5b508360040160009054906101000a900473ffffffffffffffffffffffffffffffffffffffff1673ffffffffffffffffffffffffffffffffffffffff166108fc839081150290604051600060405180830381858888f19350505050158015610a4b573d6000803e3d6000fd5b5050505b888a8773ffffffffffffffffffffffffffffffffffffffff167f25b428dfde728ccfaddad7e29e4ac23c24ed7fd1a6e3e3f91894a9a073f5dfff60405160405180910390a4600196505050505050509392505050565b3373ffffffffffffffffffffffffffffffffffffffff16610ac461206e565b60040160009054906101000a900473ffffffffffffffffffffffffffffffffffffffff1673ffffffffffffffffffffffffffffffffffffffff1614610b3e576040517f08c379a0000000000000000000000000000000000000000000000000000000008152600401610b35906148a5565b60405180910390fd5b82610b4761209b565b60000160006101000a81548173ffffffffffffffffffffffffffffffffffffffff021916908373ffffffffffffffffffffffffffffffffffffffff1602179055506001610b9261206e565b60030160007fd9b67a26000000000000000000000000000000000000000000000000000000007bffffffffffffffffffffffffffffffffffffffffffffffffffffffff19167bffffffffffffffffffffffffffffffffffffffffffffffffffffffff1916815260200190815260200160002060006101000a81548160ff021916908315150217905550610c24856120c8565b83610c2d611fb3565b60000160006101000a81548173ffffffffffffffffffffffffffffffffffffffff021916908373ffffffffffffffffffffffffffffffffffffffff16021790555081610c77611fb3565b60010160006101000a81548173ffffffffffffffffffffffffffffffffffffffff021916908373ffffffffffffffffffffffffffffffffffffffff16021790555080610cc1611fb3565b60040160006101000a81548173ffffffffffffffffffffffffffffffffffffffff021916908373ffffffffffffffffffffffffffffffffffffffff1602179055505050505050565b60606000610d156120e4565b60000160008481526020019081526020016000208054610d34906148f4565b80601f0160208091040260200160405190810160405280929190818152602001828054610d60906148f4565b8015610dad5780601f10610d8257610100808354040283529160200191610dad565b820191906000526020600020905b815481529060010190602001808311610d9057829003601f168201915b505050505090506000815103610df8576040517f08c379a0000000000000000000000000000000000000000000000000000000008152600401610def90614971565b60405180910390fd5b610e006120e4565b60010181604051602001610e15929190614a65565b604051602081830303815290604052915050919050565b6000610e52610e39612111565b600101600084815260200190815260200160002061213e565b9050919050565b6000610e6e610e66611fb3565b600201611fa5565b905090565b6000610ec5610e80611fb3565b60030160008473ffffffffffffffffffffffffffffffffffffffff1673ffffffffffffffffffffffffffffffffffffffff168152602001908152602001600020611fa5565b9050919050565b3373ffffffffffffffffffffffffffffffffffffffff168573ffffffffffffffffffffffffffffffffffffffff161480610f0c5750610f0b8533611ca1565b5b610f4b576040517f08c379a0000000000000000000000000000000000000000000000000000000008152600401610f4290614afb565b60405180910390fd5b610f59338686868686612153565b5050505050565b6000610f6a611fb3565b60000160009054906101000a900473ffffffffffffffffffffffffffffffffffffffff16905090565b60608151835114610fd9576040517f08c379a0000000000000000000000000000000000000000000000000000000008152600401610fd090614b8d565b60405180910390fd5b6000610fe3612177565b60000190506000845167ffffffffffffffff811115611005576110046138ce565b5b6040519080825280602002602001820160405280156110335781602001602082028036833780820191505090505b50905060005b855181101561117b57600073ffffffffffffffffffffffffffffffffffffffff1686828151811061106d5761106c614bad565b5b602002602001015173ffffffffffffffffffffffffffffffffffffffff16036110cb576040517f08c379a00000000000000000000000000000000000000000000000000000000081526004016110c290614c4e565b60405180910390fd5b8260008683815181106110e1576110e0614bad565b5b60200260200101518152602001908152602001600020600087838151811061110c5761110b614bad565b5b602002602001015173ffffffffffffffffffffffffffffffffffffffff1673ffffffffffffffffffffffffffffffffffffffff1681526020019081526020016000205482828151811061116257611161614bad565b5b6020026020010181815250508080600101915050611039565b50809250505092915050565b600061119161209b565b60000160009054906101000a900473ffffffffffffffffffffffffffffffffffffffff1673ffffffffffffffffffffffffffffffffffffffff168273ffffffffffffffffffffffffffffffffffffffff16149050919050565b6000806000806000806000806111fe611f78565b60010160008a81526020019081526020016000209050600081600301540361125b576040517f08c379a000000000000000000000000000000000000000000000000000000000815260040161125290614cba565b60405180910390fd5b806000015481600101548260020154836003015484600401548560050160009054906101000a900473ffffffffffffffffffffffffffffffffffffffff168660060154975097509750975097509750975050919395979092949650565b606060006112c4612111565b6001016000848152602001908152602001600020905060006112e58261213e565b67ffffffffffffffff8111156112fe576112fd6138ce565b5b60405190808252806020026020018201604052801561132c5781602001602082028036833780820191505090505b50905060005b61133b8361213e565b8110156113b55761135581846121a490919063ffffffff16565b82828151811061136857611367614bad565b5b602002602001019073ffffffffffffffffffffffffffffffffffffffff16908173ffffffffffffffffffffffffffffffffffffffff168152505080806113ad90614cda565b915050611332565b508092505050919050565b606060006113cc612111565b60020160008473ffffffffffffffffffffffffffffffffffffffff1673ffffffffffffffffffffffffffffffffffffffff16815260200190815260200160002090506000611419826121be565b67ffffffffffffffff811115611432576114316138ce565b5b6040519080825280602002602001820160405280156114605781602001602082028036833780820191505090505b50905060005b61146f836121be565b8110156114bb5761148981846121d390919063ffffffff16565b82828151811061149c5761149b614bad565b5b60200260200101818152505080806114b390614cda565b915050611466565b508092505050919050565b60006114d0611f3c565b905060006114dc611f78565b6001016000858152602001908152602001600020905073bf0562b81ef8e52316bdaf6f36948fd8be82fcc873ffffffffffffffffffffffffffffffffffffffff168273ffffffffffffffffffffffffffffffffffffffff1614611574576040517f08c379a000000000000000000000000000000000000000000000000000000000815260040161156b90614d6e565b60405180910390fd5b60008414806115835750600184145b6115c2576040517f08c379a00000000000000000000000000000000000000000000000000000000081526004016115b990614dda565b60405180910390fd5b82816006015482600301546115d791906144ae565b1015611618576040517f08c379a000000000000000000000000000000000000000000000000000000000815260040161160f9061452e565b60405180910390fd5b8281600601600082825461162c91906147a3565b9250508190555061167c8160070160008773ffffffffffffffffffffffffffffffffffffffff1673ffffffffffffffffffffffffffffffffffffffff168152602001908152602001600020612037565b6116978585856040518060200160405280600081525061204d565b82848673ffffffffffffffffffffffffffffffffffffffff167f25b428dfde728ccfaddad7e29e4ac23c24ed7fd1a6e3e3f91894a9a073f5dfff60405160405180910390a45050505050565b8173ffffffffffffffffffffffffffffffffffffffff163373ffffffffffffffffffffffffffffffffffffffff1603611751576040517f08c379a000000000000000000000000000000000000000000000000000000000815260040161174890614e6c565b60405180910390fd5b8061175a612177565b60010160003373ffffffffffffffffffffffffffffffffffffffff1673ffffffffffffffffffffffffffffffffffffffff16815260200190815260200160002060008473ffffffffffffffffffffffffffffffffffffffff1673ffffffffffffffffffffffffffffffffffffffff16815260200190815260200160002060006101000a81548160ff0219169083151502179055508173ffffffffffffffffffffffffffffffffffffffff163373ffffffffffffffffffffffffffffffffffffffff167f17307eab39ab6107e8899845ad3d59bd9653f200f220920489ca2b5937696c318360405161184b9190613898565b60405180910390a35050565b600080611862611f78565b6001016000858152602001908152602001600020905060008160030154036118bf576040517f08c379a00000000000000000000000000000000000000000000000000000000081526004016118b690614cba565b60405180910390fd5b6119088160070160008573ffffffffffffffffffffffffffffffffffffffff1673ffffffffffffffffffffffffffffffffffffffff168152602001908152602001600020611fa5565b91505092915050565b600061191b611fb3565b60040160009054906101000a900473ffffffffffffffffffffffffffffffffffffffff16905090565b600061194e612111565b6000016000838152602001908152602001600020549050919050565b600080878761197991906144ae565b116119b9576040517f08c379a00000000000000000000000000000000000000000000000000000000081526004016119b090614ed8565b60405180910390fd5b60648311156119fd576040517f08c379a00000000000000000000000000000000000000000000000000000000081526004016119f490614f44565b60405180910390fd5b60008411611a40576040517f08c379a0000000000000000000000000000000000000000000000000000000008152600401611a3790614fb0565b60405180910390fd5b6000611a4a611fb3565b90506000611a56611f3c565b90506000611a6382610e73565b905060008b8b8b8b8b8b8888604051602001611a86989796959493929190614fd0565b60405160208183030381529060405290506000611abb87611aad8480519060200120611fe0565b61201090919063ffffffff16565b90508460000160009054906101000a900473ffffffffffffffffffffffffffffffffffffffff1673ffffffffffffffffffffffffffffffffffffffff168173ffffffffffffffffffffffffffffffffffffffff1614611b4f576040517f08c379a0000000000000000000000000000000000000000000000000000000008152600401611b4690614783565b60405180910390fd5b611b5b85600201611fa5565b9550611b67868e6121ed565b611b7385600201612037565b611bbc8560030160008673ffffffffffffffffffffffffffffffffffffffff1673ffffffffffffffffffffffffffffffffffffffff168152602001908152602001600020612037565b6000611bc6611f78565b600101600088815260200190815260200160002090508c81600001819055508b81600101819055508a8160020181905550898160030181905550888160040181905550848160050160006101000a81548173ffffffffffffffffffffffffffffffffffffffff021916908373ffffffffffffffffffffffffffffffffffffffff160217905550868573ffffffffffffffffffffffffffffffffffffffff167f4011446e11141f68f741bffe55d700b48cbc73fb927148a01c8f4664c3be014260405160405180910390a3505050505050979650505050505050565b6000611cab612177565b60010160008473ffffffffffffffffffffffffffffffffffffffff1673ffffffffffffffffffffffffffffffffffffffff16815260200190815260200160002060008373ffffffffffffffffffffffffffffffffffffffff1673ffffffffffffffffffffffffffffffffffffffff16815260200190815260200160002060009054906101000a900460ff16905092915050565b3373ffffffffffffffffffffffffffffffffffffffff168573ffffffffffffffffffffffffffffffffffffffff161480611d7e5750611d7d8533611ca1565b5b611dbd576040517f08c379a0000000000000000000000000000000000000000000000000000000008152600401611db490614afb565b60405180910390fd5b611dcb33868686868661221b565b5050505050565b60008073ffffffffffffffffffffffffffffffffffffffff168373ffffffffffffffffffffffffffffffffffffffff1603611e42576040517f08c379a0000000000000000000000000000000000000000000000000000000008152600401611e39906150d0565b60405180910390fd5b611e4a612177565b600001600083815260200190815260200160002060008473ffffffffffffffffffffffffffffffffffffffff1673ffffffffffffffffffffffffffffffffffffffff16815260200190815260200160002054905092915050565b6000807f326d0c59a7612f6a9919e2a8ee333c80ba689d8ba2634de89c85cbb04832e70590508091505090565b6000826000016000837bffffffffffffffffffffffffffffffffffffffffffffffffffffffff19167bffffffffffffffffffffffffffffffffffffffffffffffffffffffff1916815260200190815260200160002060009054906101000a900460ff16905092915050565b60006018600036905010158015611f585750611f5733611187565b5b15611f6c57601436033560601c9050611f74565b339050611f75565b5b90565b6000807f6862122c88c20d0f389f9211fb45e4a0982f5f74838cd11cfb5e8c8b41fbe65990508091505090565b600081600001549050919050565b6000807f47dc25f21c7793543edaeb1ef19d41726ddbada967ae9a7980b9bd8a45228a5e90508091505090565b600081604051602001611ff39190615167565b604051602081830303815290604052805190602001209050919050565b600080600061201f858561223f565b9150915061202c816122c0565b819250505092915050565b6001816000016000828254019250508190555050565b6120598484848461248c565b61206833600086868686612615565b50505050565b6000807fc8fcad8db84d3cc18b4c41d551ea0ee66dd599cde068d998e57d5e09332c131c90508091505090565b6000807fa5e014e253d3b66bd348c3cdd05f38b9805fff0b6471d004b58c6ada26cae99390508091505090565b806120d16120e4565b60010190816120e09190615324565b5050565b6000807fb3408a5d8f30170919d3996b6cc182726500ad24733d17ace2f621485f6e7c8390508091505090565b6000807fb31c2c74f86ca3ce94d901f5f5bbe66f7161eec2f7b5aa0b75a86371436424ea90508091505090565b600061214c826000016127ec565b9050919050565b6121618686868686866127fd565b61216f868686868686612b08565b505050505050565b6000807f1799cf914cb0cb442ca7c7ac709ee40d0cb89e87351dc08d517fbda27d50c68b90508091505090565b60006121b38360000183612cdf565b60001c905092915050565b60006121cc826000016127ec565b9050919050565b60006121e28360000183612cdf565b60001c905092915050565b806121f66120e4565b600001600084815260200190815260200160002090816122169190615324565b505050565b612229868686868686612d53565b612237868686868686612615565b505050505050565b60008060418351036122805760008060006020860151925060408601519150606086015160001a905061227487828585612fca565b945094505050506122b9565b60408351036122b05760008060208501519150604085015190506122a58683836130d6565b9350935050506122b9565b60006002915091505b9250929050565b600060048111156122d4576122d36153f6565b5b8160048111156122e7576122e66153f6565b5b03156124895760016004811115612301576123006153f6565b5b816004811115612314576123136153f6565b5b03612354576040517f08c379a000000000000000000000000000000000000000000000000000000000815260040161234b90615471565b60405180910390fd5b60026004811115612368576123676153f6565b5b81600481111561237b5761237a6153f6565b5b036123bb576040517f08c379a00000000000000000000000000000000000000000000000000000000081526004016123b2906154dd565b60405180910390fd5b600360048111156123cf576123ce6153f6565b5b8160048111156123e2576123e16153f6565b5b03612422576040517f08c379a00000000000000000000000000000000000000000000000000000000081526004016124199061556f565b60405180910390fd5b600480811115612435576124346153f6565b5b816004811115612448576124476153f6565b5b03612488576040517f08c379a000000000000000000000000000000000000000000000000000000000815260040161247f90615601565b60405180910390fd5b5b50565b600073ffffffffffffffffffffffffffffffffffffffff168473ffffffffffffffffffffffffffffffffffffffff16036124fb576040517f08c379a00000000000000000000000000000000000000000000000000000000081526004016124f290615693565b60405180910390fd5b61251a3360008661250b87613135565b61251487613135565b866131af565b6000612524612177565b60000160008581526020019081526020016000209050828160008773ffffffffffffffffffffffffffffffffffffffff1673ffffffffffffffffffffffffffffffffffffffff168152602001908152602001600020600082825461258891906147a3565b925050819055508473ffffffffffffffffffffffffffffffffffffffff16600073ffffffffffffffffffffffffffffffffffffffff163373ffffffffffffffffffffffffffffffffffffffff167fc3d58168c5ae7397731d063d5bbf3d657854427343f4c083240f7aacaa2d0f6287876040516126069291906156b3565b60405180910390a45050505050565b6126348473ffffffffffffffffffffffffffffffffffffffff166131c5565b156127e4578373ffffffffffffffffffffffffffffffffffffffff1663f23a6e6187878686866040518663ffffffff1660e01b815260040161267a959493929190615731565b6020604051808303816000875af19250505080156126b657506040513d601f19601f820116820180604052508101906126b391906157a0565b60015b61275b576126c26157da565b806308c379a00361271e57506126d66157fc565b806126e15750612720565b806040517f08c379a00000000000000000000000000000000000000000000000000000000081526004016127159190613c55565b60405180910390fd5b505b6040517f08c379a0000000000000000000000000000000000000000000000000000000008152600401612752906158fe565b60405180910390fd5b63f23a6e6160e01b7bffffffffffffffffffffffffffffffffffffffffffffffffffffffff1916817bffffffffffffffffffffffffffffffffffffffffffffffffffffffff1916146127e2576040517f08c379a00000000000000000000000000000000000000000000000000000000081526004016127d990615990565b60405180910390fd5b505b505050505050565b600081600001805490509050919050565b600073ffffffffffffffffffffffffffffffffffffffff168473ffffffffffffffffffffffffffffffffffffffff160361286c576040517f08c379a000000000000000000000000000000000000000000000000000000000815260040161286390615a22565b60405180910390fd5b81518351146128b0576040517f08c379a00000000000000000000000000000000000000000000000000000000081526004016128a790615ab4565b60405180910390fd5b6128be8686868686866131af565b60006128c8612177565b600001905060005b8451811015612a805760008582815181106128ee576128ed614bad565b5b60200260200101519050600085838151811061290d5761290c614bad565b5b60200260200101519050600084600084815260200190815260200160002060008b73ffffffffffffffffffffffffffffffffffffffff1673ffffffffffffffffffffffffffffffffffffffff168152602001908152602001600020549050818110156129ae576040517f08c379a00000000000000000000000000000000000000000000000000000000081526004016129a590615b46565b60405180910390fd5b81810385600085815260200190815260200160002060008c73ffffffffffffffffffffffffffffffffffffffff1673ffffffffffffffffffffffffffffffffffffffff16815260200190815260200160002081905550508084600084815260200190815260200160002060008a73ffffffffffffffffffffffffffffffffffffffff1673ffffffffffffffffffffffffffffffffffffffff1681526020019081526020016000206000828254612a6491906147a3565b9250508190555050508080612a7890614cda565b9150506128d0565b508473ffffffffffffffffffffffffffffffffffffffff168673ffffffffffffffffffffffffffffffffffffffff168873ffffffffffffffffffffffffffffffffffffffff167f4a39dc06d4c0dbc64b70af90fd698a233a518aa5d07e595d983b8c0526c8f7fb8787604051612af7929190615b66565b60405180910390a450505050505050565b612b278473ffffffffffffffffffffffffffffffffffffffff166131c5565b15612cd7578373ffffffffffffffffffffffffffffffffffffffff1663bc197c8187878686866040518663ffffffff1660e01b8152600401612b6d959493929190615b9d565b6020604051808303816000875af1925050508015612ba957506040513d601f19601f82011682018060405250810190612ba691906157a0565b60015b612c4e57612bb56157da565b806308c379a003612c115750612bc96157fc565b80612bd45750612c13565b806040517f08c379a0000000000000000000000000000000000000000000000000000000008152600401612c089190613c55565b60405180910390fd5b505b6040517f08c379a0000000000000000000000000000000000000000000000000000000008152600401612c45906158fe565b60405180910390fd5b63bc197c8160e01b7bffffffffffffffffffffffffffffffffffffffffffffffffffffffff1916817bffffffffffffffffffffffffffffffffffffffffffffffffffffffff191614612cd5576040517f08c379a0000000000000000000000000000000000000000000000000000000008152600401612ccc90615990565b60405180910390fd5b505b505050505050565b600081836000018054905011612d2a576040517f08c379a0000000000000000000000000000000000000000000000000000000008152600401612d2190615c77565b60405180910390fd5b826000018281548110612d4057612d3f614bad565b5b9060005260206000200154905092915050565b600073ffffffffffffffffffffffffffffffffffffffff168473ffffffffffffffffffffffffffffffffffffffff1603612dc2576040517f08c379a0000000000000000000000000000000000000000000000000000000008152600401612db990615a22565b60405180910390fd5b612de0868686612dd187613135565b612dda87613135565b866131af565b6000612dea612177565b6000019050600081600086815260200190815260200160002060008873ffffffffffffffffffffffffffffffffffffffff1673ffffffffffffffffffffffffffffffffffffffff16815260200190815260200160002054905083811015612e86576040517f08c379a0000000000000000000000000000000000000000000000000000000008152600401612e7d90615b46565b60405180910390fd5b83810382600087815260200190815260200160002060008973ffffffffffffffffffffffffffffffffffffffff1673ffffffffffffffffffffffffffffffffffffffff16815260200190815260200160002081905550508281600086815260200190815260200160002060008773ffffffffffffffffffffffffffffffffffffffff1673ffffffffffffffffffffffffffffffffffffffff1681526020019081526020016000206000828254612f3c91906147a3565b925050819055508473ffffffffffffffffffffffffffffffffffffffff168673ffffffffffffffffffffffffffffffffffffffff168873ffffffffffffffffffffffffffffffffffffffff167fc3d58168c5ae7397731d063d5bbf3d657854427343f4c083240f7aacaa2d0f628787604051612fb99291906156b3565b60405180910390a450505050505050565b6000807f7fffffffffffffffffffffffffffffff5d576e7357a4501ddfe92f46681b20a08360001c11156130055760006003915091506130cd565b601b8560ff161415801561301d5750601c8560ff1614155b1561302f5760006004915091506130cd565b6000600187878787604051600081526020016040526040516130549493929190615cc2565b6020604051602081039080840390855afa158015613076573d6000803e3d6000fd5b505050602060405103519050600073ffffffffffffffffffffffffffffffffffffffff168173ffffffffffffffffffffffffffffffffffffffff16036130c4576000600192509250506130cd565b80600092509250505b94509492505050565b60008060007f7fffffffffffffffffffffffffffffffffffffffffffffffffffffffffffffff60001b841690506000601b60ff8660001c901c61311991906147a3565b905061312787828885612fca565b935093505050935093915050565b60606000600167ffffffffffffffff811115613154576131536138ce565b5b6040519080825280602002602001820160405280156131825781602001602082028036833780820191505090505b509050828160008151811061319a57613199614bad565b5b60200260200101818152505080915050919050565b6131bd8686868686866131d8565b505050505050565b600080823b905060008111915050919050565b6131e68686868686866131ee565b505050505050565b6131fc8686868686866134a5565b8373ffffffffffffffffffffffffffffffffffffffff168573ffffffffffffffffffffffffffffffffffffffff161461349d576000613239612111565b9050600081600101905060008260020160008973ffffffffffffffffffffffffffffffffffffffff1673ffffffffffffffffffffffffffffffffffffffff168152602001908152602001600020905060008360020160008973ffffffffffffffffffffffffffffffffffffffff1673ffffffffffffffffffffffffffffffffffffffff168152602001908152602001600020905060005b87518110156134975760008782815181106132ee576132ed614bad565b5b60200260200101519050600081111561348357600089838151811061331657613315614bad565b5b60200260200101519050600073ffffffffffffffffffffffffffffffffffffffff168c73ffffffffffffffffffffffffffffffffffffffff16036133855781876000016000838152602001908152602001600020600082825461337991906147a3565b925050819055506133d0565b816133908d83611dd2565b036133cf576133b98c8760008481526020019081526020016000206134ad90919063ffffffff16565b506133cd81866134dd90919063ffffffff16565b505b5b600073ffffffffffffffffffffffffffffffffffffffff168b73ffffffffffffffffffffffffffffffffffffffff16036134355781876000016000838152602001908152602001600020600082825461342991906144ae565b92505081905550613481565b60006134418c83611dd2565b036134805761346a8b8760008481526020019081526020016000206134f790919063ffffffff16565b5061347e818561352790919063ffffffff16565b505b5b505b50808061348f90614cda565b9150506132d0565b50505050505b505050505050565b505050505050565b60006134d5836000018373ffffffffffffffffffffffffffffffffffffffff1660001b613541565b905092915050565b60006134ef836000018360001b613541565b905092915050565b600061351f836000018373ffffffffffffffffffffffffffffffffffffffff1660001b613653565b905092915050565b6000613539836000018360001b613653565b905092915050565b6000808360010160008481526020019081526020016000205490506000811461364757600060018261357391906144ae565b90506000856000016001876000018054905061358f91906144ae565b815481106135a05761359f614bad565b5b90600052602060002001549050808660000183815481106135c4576135c3614bad565b5b90600052602060002001819055506001826135df91906147a3565b866001016000838152602001908152602001600020819055508560000180548061360c5761360b615d07565b5b60019003818190600052602060002001600090559055856001016000868152602001908152602001600020600090556001935050505061364d565b60009150505b92915050565b600061365f83836136c3565b6136b85782600001829080600181540180825580915050600190039060005260206000200160009091909190915055826000018054905083600101600084815260200190815260200160002081905550600190506136bd565b600090505b92915050565b600080836001016000848152602001908152602001600020541415905092915050565b6000604051905090565b600080fd5b600080fd5b600073ffffffffffffffffffffffffffffffffffffffff82169050919050565b6000613725826136fa565b9050919050565b6137358161371a565b811461374057600080fd5b50565b6000813590506137528161372c565b92915050565b6000819050919050565b61376b81613758565b811461377657600080fd5b50565b60008135905061378881613762565b92915050565b600080604083850312156137a5576137a46136f0565b5b60006137b385828601613743565b92505060206137c485828601613779565b9150509250929050565b6137d781613758565b82525050565b60006020820190506137f260008301846137ce565b92915050565b60007fffffffff0000000000000000000000000000000000000000000000000000000082169050919050565b61382d816137f8565b811461383857600080fd5b50565b60008135905061384a81613824565b92915050565b600060208284031215613866576138656136f0565b5b60006138748482850161383b565b91505092915050565b60008115159050919050565b6138928161387d565b82525050565b60006020820190506138ad6000830184613889565b92915050565b600080fd5b600080fd5b6000601f19601f8301169050919050565b7f4e487b7100000000000000000000000000000000000000000000000000000000600052604160045260246000fd5b613906826138bd565b810181811067ffffffffffffffff82111715613925576139246138ce565b5b80604052505050565b60006139386136e6565b905061394482826138fd565b919050565b600067ffffffffffffffff821115613964576139636138ce565b5b61396d826138bd565b9050602081019050919050565b82818337600083830152505050565b600061399c61399784613949565b61392e565b9050828152602081018484840111156139b8576139b76138b8565b5b6139c384828561397a565b509392505050565b600082601f8301126139e0576139df6138b3565b5b81356139f0848260208601613989565b91505092915050565b600080600060608486031215613a1257613a116136f0565b5b6000613a2086828701613779565b9350506020613a3186828701613779565b925050604084013567ffffffffffffffff811115613a5257613a516136f5565b5b613a5e868287016139cb565b9150509250925092565b600067ffffffffffffffff821115613a8357613a826138ce565b5b613a8c826138bd565b9050602081019050919050565b6000613aac613aa784613a68565b61392e565b905082815260208101848484011115613ac857613ac76138b8565b5b613ad384828561397a565b509392505050565b600082601f830112613af057613aef6138b3565b5b8135613b00848260208601613a99565b91505092915050565b600080600080600060a08688031215613b2557613b246136f0565b5b600086013567ffffffffffffffff811115613b4357613b426136f5565b5b613b4f88828901613adb565b9550506020613b6088828901613743565b9450506040613b7188828901613743565b9350506060613b8288828901613743565b9250506080613b9388828901613743565b9150509295509295909350565b600060208284031215613bb657613bb56136f0565b5b6000613bc484828501613779565b91505092915050565b600081519050919050565b600082825260208201905092915050565b60005b83811015613c07578082015181840152602081019050613bec565b83811115613c16576000848401525b50505050565b6000613c2782613bcd565b613c318185613bd8565b9350613c41818560208601613be9565b613c4a816138bd565b840191505092915050565b60006020820190508181036000830152613c6f8184613c1c565b905092915050565b600060208284031215613c8d57613c8c6136f0565b5b6000613c9b84828501613743565b91505092915050565b600067ffffffffffffffff821115613cbf57613cbe6138ce565b5b602082029050602081019050919050565b600080fd5b6000613ce8613ce384613ca4565b61392e565b90508083825260208201905060208402830185811115613d0b57613d0a613cd0565b5b835b81811015613d345780613d208882613779565b845260208401935050602081019050613d0d565b5050509392505050565b600082601f830112613d5357613d526138b3565b5b8135613d63848260208601613cd5565b91505092915050565b600080600080600060a08688031215613d8857613d876136f0565b5b6000613d9688828901613743565b9550506020613da788828901613743565b945050604086013567ffffffffffffffff811115613dc857613dc76136f5565b5b613dd488828901613d3e565b935050606086013567ffffffffffffffff811115613df557613df46136f5565b5b613e0188828901613d3e565b925050608086013567ffffffffffffffff811115613e2257613e216136f5565b5b613e2e888289016139cb565b9150509295509295909350565b613e448161371a565b82525050565b6000602082019050613e5f6000830184613e3b565b92915050565b600067ffffffffffffffff821115613e8057613e7f6138ce565b5b602082029050602081019050919050565b6000613ea4613e9f84613e65565b61392e565b90508083825260208201905060208402830185811115613ec757613ec6613cd0565b5b835b81811015613ef05780613edc8882613743565b845260208401935050602081019050613ec9565b5050509392505050565b600082601f830112613f0f57613f0e6138b3565b5b8135613f1f848260208601613e91565b91505092915050565b60008060408385031215613f3f57613f3e6136f0565b5b600083013567ffffffffffffffff811115613f5d57613f5c6136f5565b5b613f6985828601613efa565b925050602083013567ffffffffffffffff811115613f8a57613f896136f5565b5b613f9685828601613d3e565b9150509250929050565b600081519050919050565b600082825260208201905092915050565b6000819050602082019050919050565b613fd581613758565b82525050565b6000613fe78383613fcc565b60208301905092915050565b6000602082019050919050565b600061400b82613fa0565b6140158185613fab565b935061402083613fbc565b8060005b838110156140515781516140388882613fdb565b975061404383613ff3565b925050600181019050614024565b5085935050505092915050565b600060208201905081810360008301526140788184614000565b905092915050565b600060e082019050614095600083018a6137ce565b6140a260208301896137ce565b6140af60408301886137ce565b6140bc60608301876137ce565b6140c960808301866137ce565b6140d660a0830185613e3b565b6140e360c08301846137ce565b98975050505050505050565b600081519050919050565b600082825260208201905092915050565b6000819050602082019050919050565b6141248161371a565b82525050565b6000614136838361411b565b60208301905092915050565b6000602082019050919050565b600061415a826140ef565b61416481856140fa565b935061416f8361410b565b8060005b838110156141a0578151614187888261412a565b975061419283614142565b925050600181019050614173565b5085935050505092915050565b600060208201905081810360008301526141c7818461414f565b905092915050565b6000806000606084860312156141e8576141e76136f0565b5b60006141f686828701613743565b935050602061420786828701613779565b925050604061421886828701613779565b9150509250925092565b61422b8161387d565b811461423657600080fd5b50565b60008135905061424881614222565b92915050565b60008060408385031215614265576142646136f0565b5b600061427385828601613743565b925050602061428485828601614239565b9150509250929050565b600080604083850312156142a5576142a46136f0565b5b60006142b385828601613779565b92505060206142c485828601613743565b9150509250929050565b600080600080600080600060e0888a0312156142ed576142ec6136f0565b5b600088013567ffffffffffffffff81111561430b5761430a6136f5565b5b6143178a828b01613adb565b97505060206143288a828b01613779565b96505060406143398a828b01613779565b955050606061434a8a828b01613779565b945050608061435b8a828b01613779565b93505060a061436c8a828b01613779565b92505060c088013567ffffffffffffffff81111561438d5761438c6136f5565b5b6143998a828b016139cb565b91505092959891949750929550565b600080604083850312156143bf576143be6136f0565b5b60006143cd85828601613743565b92505060206143de85828601613743565b9150509250929050565b600080600080600060a08688031215614404576144036136f0565b5b600061441288828901613743565b955050602061442388828901613743565b945050604061443488828901613779565b935050606061444588828901613779565b925050608086013567ffffffffffffffff811115614466576144656136f5565b5b614472888289016139cb565b9150509295509295909350565b7f4e487b7100000000000000000000000000000000000000000000000000000000600052601160045260246000fd5b60006144b982613758565b91506144c483613758565b9250828210156144d7576144d661447f565b5b828203905092915050565b7f4352000000000000000000000000000000000000000000000000000000000000600082015250565b6000614518600283613bd8565b9150614523826144e2565b602082019050919050565b600060208201905081810360008301526145478161450b565b9050919050565b7f4f4f540000000000000000000000000000000000000000000000000000000000600082015250565b6000614584600383613bd8565b915061458f8261454e565b602082019050919050565b600060208201905081810360008301526145b381614577565b9050919050565b60006145c582613758565b91506145d083613758565b9250817fffffffffffffffffffffffffffffffffffffffffffffffffffffffffffffffff04831182151516156146095761460861447f565b5b828202905092915050565b7f4941000000000000000000000000000000000000000000000000000000000000600082015250565b600061464a600283613bd8565b915061465582614614565b602082019050919050565b600060208201905081810360008301526146798161463d565b9050919050565b6000819050919050565b61469b61469682613758565b614680565b82525050565b60008160601b9050919050565b60006146b9826146a1565b9050919050565b60006146cb826146ae565b9050919050565b6146e36146de8261371a565b6146c0565b82525050565b60006146f5828761468a565b602082019150614705828661468a565b60208201915061471582856146d2565b601482019150614725828461468a565b60208201915081905095945050505050565b7f4e4d000000000000000000000000000000000000000000000000000000000000600082015250565b600061476d600283613bd8565b915061477882614737565b602082019050919050565b6000602082019050818103600083015261479c81614760565b9050919050565b60006147ae82613758565b91506147b983613758565b9250827fffffffffffffffffffffffffffffffffffffffffffffffffffffffffffffffff038211156147ee576147ed61447f565b5b828201905092915050565b7f4e487b7100000000000000000000000000000000000000000000000000000000600052601260045260246000fd5b600061483382613758565b915061483e83613758565b92508261484e5761484d6147f9565b5b828204905092915050565b7f4e4f000000000000000000000000000000000000000000000000000000000000600082015250565b600061488f600283613bd8565b915061489a82614859565b602082019050919050565b600060208201905081810360008301526148be81614882565b9050919050565b7f4e487b7100000000000000000000000000000000000000000000000000000000600052602260045260246000fd5b6000600282049050600182168061490c57607f821691505b60208210810361491f5761491e6148c5565b5b50919050565b7f455243313135355552493a20746f6b656e4964206e6f74206578697374000000600082015250565b600061495b601d83613bd8565b915061496682614925565b602082019050919050565b6000602082019050818103600083015261498a8161494e565b9050919050565b600081905092915050565b60008190508160005260206000209050919050565b600081546149be816148f4565b6149c88186614991565b945060018216600081146149e357600181146149f857614a2b565b60ff1983168652811515820286019350614a2b565b614a018561499c565b60005b83811015614a2357815481890152600182019150602081019050614a04565b838801955050505b50505092915050565b6000614a3f82613bcd565b614a498185614991565b9350614a59818560208601613be9565b80840191505092915050565b6000614a7182856149b1565b9150614a7d8284614a34565b91508190509392505050565b7f455243313135353a2063616c6c6572206973206e6f74206f776e6572206e6f7260008201527f20617070726f7665640000000000000000000000000000000000000000000000602082015250565b6000614ae5602983613bd8565b9150614af082614a89565b604082019050919050565b60006020820190508181036000830152614b1481614ad8565b9050919050565b7f455243313135353a206163636f756e747320616e6420696473206c656e67746860008201527f206d69736d617463680000000000000000000000000000000000000000000000602082015250565b6000614b77602983613bd8565b9150614b8282614b1b565b604082019050919050565b60006020820190508181036000830152614ba681614b6a565b9050919050565b7f4e487b7100000000000000000000000000000000000000000000000000000000600052603260045260246000fd5b7f455243313135353a2062617463682062616c616e636520717565727920666f7260008201527f20746865207a65726f2061646472657373000000000000000000000000000000602082015250565b6000614c38603183613bd8565b9150614c4382614bdc565b604082019050919050565b60006020820190508181036000830152614c6781614c2b565b9050919050565b7f444e450000000000000000000000000000000000000000000000000000000000600082015250565b6000614ca4600383613bd8565b9150614caf82614c6e565b602082019050919050565b60006020820190508181036000830152614cd381614c97565b9050919050565b6000614ce582613758565b91507fffffffffffffffffffffffffffffffffffffffffffffffffffffffffffffffff8203614d1757614d1661447f565b5b600182019050919050565b7f4e53000000000000000000000000000000000000000000000000000000000000600082015250565b6000614d58600283613bd8565b9150614d6382614d22565b602082019050919050565b60006020820190508181036000830152614d8781614d4b565b9050919050565b7f4e54000000000000000000000000000000000000000000000000000000000000600082015250565b6000614dc4600283613bd8565b9150614dcf82614d8e565b602082019050919050565b60006020820190508181036000830152614df381614db7565b9050919050565b7f455243313135353a2073657474696e6720617070726f76616c2073746174757360008201527f20666f722073656c660000000000000000000000000000000000000000000000602082015250565b6000614e56602983613bd8565b9150614e6182614dfa565b604082019050919050565b60006020820190508181036000830152614e8581614e49565b9050919050565b7f4954000000000000000000000000000000000000000000000000000000000000600082015250565b6000614ec2600283613bd8565b9150614ecd82614e8c565b602082019050919050565b60006020820190508181036000830152614ef181614eb5565b9050919050565b7f49534f0000000000000000000000000000000000000000000000000000000000600082015250565b6000614f2e600383613bd8565b9150614f3982614ef8565b602082019050919050565b60006020820190508181036000830152614f5d81614f21565b9050919050565b7f4941430000000000000000000000000000000000000000000000000000000000600082015250565b6000614f9a600383613bd8565b9150614fa582614f64565b602082019050919050565b60006020820190508181036000830152614fc981614f8d565b9050919050565b6000614fdc828b614a34565b9150614fe8828a61468a565b602082019150614ff8828961468a565b602082019150615008828861468a565b602082019150615018828761468a565b602082019150615028828661468a565b60208201915061503882856146d2565b601482019150615048828461468a565b6020820191508190509998505050505050505050565b7f455243313135353a2062616c616e636520717565727920666f7220746865207a60008201527f65726f2061646472657373000000000000000000000000000000000000000000602082015250565b60006150ba602b83613bd8565b91506150c58261505e565b604082019050919050565b600060208201905081810360008301526150e9816150ad565b9050919050565b7f19457468657265756d205369676e6564204d6573736167653a0a333200000000600082015250565b6000615126601c83614991565b9150615131826150f0565b601c82019050919050565b6000819050919050565b6000819050919050565b61516161515c8261513c565b615146565b82525050565b600061517282615119565b915061517e8284615150565b60208201915081905092915050565b60006020601f8301049050919050565b600082821b905092915050565b6000600883026151da7fffffffffffffffffffffffffffffffffffffffffffffffffffffffffffffffff8261519d565b6151e4868361519d565b95508019841693508086168417925050509392505050565b6000819050919050565b600061522161521c61521784613758565b6151fc565b613758565b9050919050565b6000819050919050565b61523b83615206565b61524f61524782615228565b8484546151aa565b825550505050565b600090565b615264615257565b61526f818484615232565b505050565b5b818110156152935761528860008261525c565b600181019050615275565b5050565b601f8211156152d8576152a98161499c565b6152b28461518d565b810160208510156152c1578190505b6152d56152cd8561518d565b830182615274565b50505b505050565b600082821c905092915050565b60006152fb600019846008026152dd565b1980831691505092915050565b600061531483836152ea565b9150826002028217905092915050565b61532d82613bcd565b67ffffffffffffffff811115615346576153456138ce565b5b61535082546148f4565b61535b828285615297565b600060209050601f83116001811461538e576000841561537c578287015190505b6153868582615308565b8655506153ee565b601f19841661539c8661499c565b60005b828110156153c45784890151825560018201915060208501945060208101905061539f565b868310156153e157848901516153dd601f8916826152ea565b8355505b6001600288020188555050505b505050505050565b7f4e487b7100000000000000000000000000000000000000000000000000000000600052602160045260246000fd5b7f45434453413a20696e76616c6964207369676e61747572650000000000000000600082015250565b600061545b601883613bd8565b915061546682615425565b602082019050919050565b6000602082019050818103600083015261548a8161544e565b9050919050565b7f45434453413a20696e76616c6964207369676e6174757265206c656e67746800600082015250565b60006154c7601f83613bd8565b91506154d282615491565b602082019050919050565b600060208201905081810360008301526154f6816154ba565b9050919050565b7f45434453413a20696e76616c6964207369676e6174757265202773272076616c60008201527f7565000000000000000000000000000000000000000000000000000000000000602082015250565b6000615559602283613bd8565b9150615564826154fd565b604082019050919050565b600060208201905081810360008301526155888161554c565b9050919050565b7f45434453413a20696e76616c6964207369676e6174757265202776272076616c60008201527f7565000000000000000000000000000000000000000000000000000000000000602082015250565b60006155eb602283613bd8565b91506155f68261558f565b604082019050919050565b6000602082019050818103600083015261561a816155de565b9050919050565b7f455243313135353a206d696e7420746f20746865207a65726f2061646472657360008201527f7300000000000000000000000000000000000000000000000000000000000000602082015250565b600061567d602183613bd8565b915061568882615621565b604082019050919050565b600060208201905081810360008301526156ac81615670565b9050919050565b60006040820190506156c860008301856137ce565b6156d560208301846137ce565b9392505050565b600081519050919050565b600082825260208201905092915050565b6000615703826156dc565b61570d81856156e7565b935061571d818560208601613be9565b615726816138bd565b840191505092915050565b600060a0820190506157466000830188613e3b565b6157536020830187613e3b565b61576060408301866137ce565b61576d60608301856137ce565b818103608083015261577f81846156f8565b90509695505050505050565b60008151905061579a81613824565b92915050565b6000602082840312156157b6576157b56136f0565b5b60006157c48482850161578b565b91505092915050565b60008160e01c9050919050565b600060033d11156157f95760046000803e6157f66000516157cd565b90505b90565b600060443d106158895761580e6136e6565b60043d036004823e80513d602482011167ffffffffffffffff82111715615836575050615889565b808201805167ffffffffffffffff8111156158545750505050615889565b80602083010160043d038501811115615871575050505050615889565b615880826020018501866138fd565b82955050505050505b90565b7f455243313135353a207472616e7366657220746f206e6f6e204552433131353560008201527f526563656976657220696d706c656d656e746572000000000000000000000000602082015250565b60006158e8603483613bd8565b91506158f38261588c565b604082019050919050565b60006020820190508181036000830152615917816158db565b9050919050565b7f455243313135353a204552433131353552656365697665722072656a6563746560008201527f6420746f6b656e73000000000000000000000000000000000000000000000000602082015250565b600061597a602883613bd8565b91506159858261591e565b604082019050919050565b600060208201905081810360008301526159a98161596d565b9050919050565b7f455243313135353a207472616e7366657220746f20746865207a65726f20616460008201527f6472657373000000000000000000000000000000000000000000000000000000602082015250565b6000615a0c602583613bd8565b9150615a17826159b0565b604082019050919050565b60006020820190508181036000830152615a3b816159ff565b9050919050565b7f455243313135353a2069647320616e6420616d6f756e7473206c656e6774682060008201527f6d69736d61746368000000000000000000000000000000000000000000000000602082015250565b6000615a9e602883613bd8565b9150615aa982615a42565b604082019050919050565b60006020820190508181036000830152615acd81615a91565b9050919050565b7f455243313135353a20696e73756666696369656e742062616c616e636573206660008201527f6f72207472616e73666572000000000000000000000000000000000000000000602082015250565b6000615b30602b83613bd8565b9150615b3b82615ad4565b604082019050919050565b60006020820190508181036000830152615b5f81615b23565b9050919050565b60006040820190508181036000830152615b808185614000565b90508181036020830152615b948184614000565b90509392505050565b600060a082019050615bb26000830188613e3b565b615bbf6020830187613e3b565b8181036040830152615bd18186614000565b90508181036060830152615be58185614000565b90508181036080830152615bf981846156f8565b90509695505050505050565b7f456e756d657261626c655365743a20696e646578206f7574206f6620626f756e60008201527f6473000000000000000000000000000000000000000000000000000000000000602082015250565b6000615c61602283613bd8565b9150615c6c82615c05565b604082019050919050565b60006020820190508181036000830152615c9081615c54565b9050919050565b615ca08161513c565b82525050565b600060ff82169050919050565b615cbc81615ca6565b82525050565b6000608082019050615cd76000830187615c97565b615ce46020830186615cb3565b615cf16040830185615c97565b615cfe6060830184615c97565b95945050505050565b7f4e487b7100000000000000000000000000000000000000000000000000000000600052603160045260246000fdfea264697066735822122081f57474524fe95c36cf02452ce49874aa592f148f9fbb549616e1f4bdea211664736f6c634300080f0033",
  "devdoc": {
    "kind": "dev",
    "methods": {
      "accountsByToken(uint256)": {
        "params": {
          "id": "token id to query"
        },
        "returns": {
          "_0": "list of holder addresses"
        }
      },
      "balanceOf(address,uint256)": {
        "params": {
          "account": "address to query",
          "id": "token to query"
        },
        "returns": {
          "_0": "token balance"
        }
      },
      "balanceOfBatch(address[],uint256[])": {
        "params": {
          "accounts": "addresss to query",
          "ids": "tokens to query"
        },
        "returns": {
          "_0": "token balances"
        }
      },
      "isApprovedForAll(address,address)": {
        "params": {
          "account": "address to query for approval granted",
          "operator": "address to query for approval received"
        },
        "returns": {
          "_0": "whether operator is approved to spend tokens held by account"
        }
      },
      "safeBatchTransferFrom(address,address,uint256[],uint256[],bytes)": {
        "params": {
          "amounts": "list of quantities of tokens to transfer",
          "data": "data payload",
          "from": "sender of tokens",
          "ids": "list of token IDs",
          "to": "receiver of tokens"
        }
      },
      "safeTransferFrom(address,address,uint256,uint256,bytes)": {
        "params": {
          "amount": "quantity of tokens to transfer",
          "data": "data payload",
          "from": "sender of tokens",
          "id": "token ID",
          "to": "receiver of tokens"
        }
      },
      "setApprovalForAll(address,bool)": {
        "params": {
          "operator": "address whose approval status to update",
          "status": "whether operator should be considered approved"
        }
      },
      "supportsInterface(bytes4)": {
        "params": {
          "interfaceId": "interface id"
        },
        "returns": {
          "_0": "bool whether interface is supported"
        }
      },
      "tokensByAccount(address)": {
        "params": {
          "account": "address to query"
        },
        "returns": {
          "_0": "list of token ids"
        }
      },
      "totalHolders(uint256)": {
        "params": {
          "id": "token id to query"
        },
        "returns": {
          "_0": "quantity of holders"
        }
      },
      "totalSupply(uint256)": {
        "params": {
          "id": "token id to query"
        },
        "returns": {
          "_0": "token supply"
        }
      }
    },
    "version": 1
  },
  "userdoc": {
    "kind": "user",
    "methods": {
      "accountsByToken(uint256)": {
        "notice": "query holders of given token"
      },
      "balanceOf(address,uint256)": {
        "notice": "query the balance of given token held by given address"
      },
      "balanceOfBatch(address[],uint256[])": {
        "notice": "query the balances of given tokens held by given addresses"
      },
      "isApprovedForAll(address,address)": {
        "notice": "query approval status of given operator with respect to given address"
      },
      "safeBatchTransferFrom(address,address,uint256[],uint256[],bytes)": {
        "notice": "transfer batch of tokens between given addresses, checking for ERC1155Receiver implementation if applicable"
      },
      "safeTransferFrom(address,address,uint256,uint256,bytes)": {
        "notice": "transfer tokens between given addresses, checking for ERC1155Receiver implementation if applicable"
      },
      "setApprovalForAll(address,bool)": {
        "notice": "grant approval to or revoke approval from given operator to spend held tokens"
      },
      "supportsInterface(bytes4)": {
        "notice": "query whether contract has registered support for given interface"
      },
      "tokensByAccount(address)": {
        "notice": "query tokens held by given address"
      },
      "totalHolders(uint256)": {
        "notice": "query total number of holders for given token"
      },
      "totalSupply(uint256)": {
        "notice": "query total minted supply of given token"
      }
    },
    "version": 1
  },
  "storageLayout": {
    "storage": [],
    "types": null
  }
}