{
  "address": "0x8Daa33B1C103Cc46f4fBDF035083A627cE4e64FA",
  "abi": [
    {
      "anonymous": false,
      "inputs": [
        {
          "indexed": true,
          "internalType": "address",
          "name": "account",
          "type": "address"
        },
        {
          "indexed": true,
          "internalType": "address",
          "name": "operator",
          "type": "address"
        },
        {
          "indexed": false,
          "internalType": "bool",
          "name": "approved",
          "type": "bool"
        }
      ],
      "name": "ApprovalForAll",
      "type": "event"
    },
    {
      "anonymous": false,
      "inputs": [
        {
          "indexed": true,
          "internalType": "address",
          "name": "account",
          "type": "address"
        },
        {
          "indexed": true,
          "internalType": "uint256",
          "name": "tokenId",
          "type": "uint256"
        }
      ],
      "name": "DropCreated",
      "type": "event"
    },
    {
      "anonymous": false,
      "inputs": [
        {
          "indexed": true,
          "internalType": "address",
          "name": "account",
          "type": "address"
        },
        {
          "indexed": true,
          "internalType": "uint256",
          "name": "tokenId",
          "type": "uint256"
        },
        {
          "indexed": true,
          "internalType": "uint256",
          "name": "amount",
          "type": "uint256"
        }
      ],
      "name": "Minted",
      "type": "event"
    },
    {
      "anonymous": false,
      "inputs": [
        {
          "indexed": true,
          "internalType": "address",
          "name": "operator",
          "type": "address"
        },
        {
          "indexed": true,
          "internalType": "address",
          "name": "from",
          "type": "address"
        },
        {
          "indexed": true,
          "internalType": "address",
          "name": "to",
          "type": "address"
        },
        {
          "indexed": false,
          "internalType": "uint256[]",
          "name": "ids",
          "type": "uint256[]"
        },
        {
          "indexed": false,
          "internalType": "uint256[]",
          "name": "values",
          "type": "uint256[]"
        }
      ],
      "name": "TransferBatch",
      "type": "event"
    },
    {
      "anonymous": false,
      "inputs": [
        {
          "indexed": true,
          "internalType": "address",
          "name": "operator",
          "type": "address"
        },
        {
          "indexed": true,
          "internalType": "address",
          "name": "from",
          "type": "address"
        },
        {
          "indexed": true,
          "internalType": "address",
          "name": "to",
          "type": "address"
        },
        {
          "indexed": false,
          "internalType": "uint256",
          "name": "id",
          "type": "uint256"
        },
        {
          "indexed": false,
          "internalType": "uint256",
          "name": "value",
          "type": "uint256"
        }
      ],
      "name": "TransferSingle",
      "type": "event"
    },
    {
      "anonymous": false,
      "inputs": [
        {
          "indexed": false,
          "internalType": "string",
          "name": "value",
          "type": "string"
        },
        {
          "indexed": true,
          "internalType": "uint256",
          "name": "tokenId",
          "type": "uint256"
        }
      ],
      "name": "URI",
      "type": "event"
    },
    {
      "inputs": [
        {
          "internalType": "uint256",
          "name": "id",
          "type": "uint256"
        }
      ],
      "name": "accountsByToken",
      "outputs": [
        {
          "internalType": "address[]",
          "name": "",
          "type": "address[]"
        }
      ],
      "stateMutability": "view",
      "type": "function"
    },
    {
      "inputs": [
        {
          "internalType": "address",
          "name": "account",
          "type": "address"
        },
        {
          "internalType": "uint256",
          "name": "id",
          "type": "uint256"
        }
      ],
      "name": "balanceOf",
      "outputs": [
        {
          "internalType": "uint256",
          "name": "",
          "type": "uint256"
        }
      ],
      "stateMutability": "view",
      "type": "function"
    },
    {
      "inputs": [
        {
          "internalType": "address[]",
          "name": "accounts",
          "type": "address[]"
        },
        {
          "internalType": "uint256[]",
          "name": "ids",
          "type": "uint256[]"
        }
      ],
      "name": "balanceOfBatch",
      "outputs": [
        {
          "internalType": "uint256[]",
          "name": "",
          "type": "uint256[]"
        }
      ],
      "stateMutability": "view",
      "type": "function"
    },
    {
      "inputs": [
        {
          "internalType": "uint256",
          "name": "amount",
          "type": "uint256"
        }
      ],
      "name": "burnTransfer",
      "outputs": [],
      "stateMutability": "nonpayable",
      "type": "function"
    },
    {
      "inputs": [
        {
          "internalType": "string",
          "name": "_uri",
          "type": "string"
        },
        {
          "internalType": "uint256",
          "name": "_timeStart",
          "type": "uint256"
        },
        {
          "internalType": "uint256",
          "name": "_timeEnd",
          "type": "uint256"
        },
        {
          "internalType": "uint256",
          "name": "_price",
          "type": "uint256"
        },
        {
          "internalType": "uint256",
          "name": "_amountCap",
          "type": "uint256"
        },
        {
          "internalType": "uint256",
          "name": "_shareCyber",
          "type": "uint256"
        },
        {
          "internalType": "bytes",
          "name": "_signature",
          "type": "bytes"
        }
      ],
      "name": "createDrop",
      "outputs": [
        {
          "internalType": "uint256",
          "name": "tokenId",
          "type": "uint256"
        }
      ],
      "stateMutability": "nonpayable",
      "type": "function"
    },
    {
      "inputs": [
        {
          "internalType": "uint256",
          "name": "_tokenId",
          "type": "uint256"
        },
        {
          "internalType": "address",
          "name": "_minter",
          "type": "address"
        }
      ],
      "name": "dropMintCounter",
      "outputs": [
        {
          "internalType": "uint256",
          "name": "",
          "type": "uint256"
        }
      ],
      "stateMutability": "view",
      "type": "function"
    },
    {
      "inputs": [
        {
          "internalType": "uint256",
          "name": "_tokenId",
          "type": "uint256"
        }
      ],
      "name": "getDrop",
      "outputs": [
        {
          "internalType": "uint256",
          "name": "timeStart",
          "type": "uint256"
        },
        {
          "internalType": "uint256",
          "name": "timeEnd",
          "type": "uint256"
        },
        {
          "internalType": "uint256",
          "name": "price",
          "type": "uint256"
        },
        {
          "internalType": "uint256",
          "name": "amountCap",
          "type": "uint256"
        },
        {
          "internalType": "uint256",
          "name": "shareCyber",
          "type": "uint256"
        },
        {
          "internalType": "address",
          "name": "creator",
          "type": "address"
        },
        {
          "internalType": "uint256",
          "name": "minted",
          "type": "uint256"
        }
      ],
      "stateMutability": "view",
      "type": "function"
    },
    {
      "inputs": [
        {
          "internalType": "string",
          "name": "_uri",
          "type": "string"
        },
        {
          "internalType": "address",
          "name": "_manager",
          "type": "address"
        },
        {
          "internalType": "address",
          "name": "_trustedForwarder",
          "type": "address"
        },
        {
          "internalType": "address",
          "name": "_opensea",
          "type": "address"
        },
        {
          "internalType": "address",
          "name": "_oncyber",
          "type": "address"
        }
      ],
      "name": "initialize",
      "outputs": [],
      "stateMutability": "nonpayable",
      "type": "function"
    },
    {
      "inputs": [
        {
          "internalType": "address",
          "name": "account",
          "type": "address"
        },
        {
          "internalType": "address",
          "name": "operator",
          "type": "address"
        }
      ],
      "name": "isApprovedForAll",
      "outputs": [
        {
          "internalType": "bool",
          "name": "",
          "type": "bool"
        }
      ],
      "stateMutability": "view",
      "type": "function"
    },
    {
      "inputs": [
        {
          "internalType": "address",
          "name": "forwarder",
          "type": "address"
        }
      ],
      "name": "isTrustedForwarder",
      "outputs": [
        {
          "internalType": "bool",
          "name": "",
          "type": "bool"
        }
      ],
      "stateMutability": "view",
      "type": "function"
    },
    {
      "inputs": [],
      "name": "manager",
      "outputs": [
        {
          "internalType": "address",
          "name": "",
          "type": "address"
        }
      ],
      "stateMutability": "view",
      "type": "function"
    },
    {
      "inputs": [
        {
          "internalType": "uint256",
          "name": "_tokenId",
          "type": "uint256"
        },
        {
          "internalType": "uint256",
          "name": "_quantity",
          "type": "uint256"
        },
        {
          "internalType": "bytes",
          "name": "_signature",
          "type": "bytes"
        }
      ],
      "name": "mint",
      "outputs": [
        {
          "internalType": "bool",
          "name": "success",
          "type": "bool"
        }
      ],
      "stateMutability": "payable",
      "type": "function"
    },
    {
      "inputs": [
        {
          "internalType": "address",
          "name": "_minter",
          "type": "address"
        }
      ],
      "name": "minterNonce",
      "outputs": [
        {
          "internalType": "uint256",
          "name": "",
          "type": "uint256"
        }
      ],
      "stateMutability": "view",
      "type": "function"
    },
    {
      "inputs": [],
      "name": "oncyber",
      "outputs": [
        {
          "internalType": "address",
          "name": "",
          "type": "address"
        }
      ],
      "stateMutability": "view",
      "type": "function"
    },
    {
      "inputs": [
        {
          "internalType": "address",
          "name": "from",
          "type": "address"
        },
        {
          "internalType": "address",
          "name": "to",
          "type": "address"
        },
        {
          "internalType": "uint256[]",
          "name": "ids",
          "type": "uint256[]"
        },
        {
          "internalType": "uint256[]",
          "name": "amounts",
          "type": "uint256[]"
        },
        {
          "internalType": "bytes",
          "name": "data",
          "type": "bytes"
        }
      ],
      "name": "safeBatchTransferFrom",
      "outputs": [],
      "stateMutability": "nonpayable",
      "type": "function"
    },
    {
      "inputs": [
        {
          "internalType": "address",
          "name": "from",
          "type": "address"
        },
        {
          "internalType": "address",
          "name": "to",
          "type": "address"
        },
        {
          "internalType": "uint256",
          "name": "id",
          "type": "uint256"
        },
        {
          "internalType": "uint256",
          "name": "amount",
          "type": "uint256"
        },
        {
          "internalType": "bytes",
          "name": "data",
          "type": "bytes"
        }
      ],
      "name": "safeTransferFrom",
      "outputs": [],
      "stateMutability": "nonpayable",
      "type": "function"
    },
    {
      "inputs": [
        {
          "internalType": "address",
          "name": "operator",
          "type": "address"
        },
        {
          "internalType": "bool",
          "name": "status",
          "type": "bool"
        }
      ],
      "name": "setApprovalForAll",
      "outputs": [],
      "stateMutability": "nonpayable",
      "type": "function"
    },
    {
      "inputs": [
        {
          "internalType": "bytes4",
          "name": "interfaceId",
          "type": "bytes4"
        }
      ],
      "name": "supportsInterface",
      "outputs": [
        {
          "internalType": "bool",
          "name": "",
          "type": "bool"
        }
      ],
      "stateMutability": "view",
      "type": "function"
    },
    {
      "inputs": [
        {
          "internalType": "address",
          "name": "account",
          "type": "address"
        }
      ],
      "name": "tokensByAccount",
      "outputs": [
        {
          "internalType": "uint256[]",
          "name": "",
          "type": "uint256[]"
        }
      ],
      "stateMutability": "view",
      "type": "function"
    },
    {
      "inputs": [
        {
          "internalType": "uint256",
          "name": "id",
          "type": "uint256"
        }
      ],
      "name": "totalHolders",
      "outputs": [
        {
          "internalType": "uint256",
          "name": "",
          "type": "uint256"
        }
      ],
      "stateMutability": "view",
      "type": "function"
    },
    {
      "inputs": [],
      "name": "totalSupply",
      "outputs": [
        {
          "internalType": "uint256",
          "name": "",
          "type": "uint256"
        }
      ],
      "stateMutability": "view",
      "type": "function"
    },
    {
      "inputs": [
        {
          "internalType": "uint256",
          "name": "id",
          "type": "uint256"
        }
      ],
      "name": "totalSupply",
      "outputs": [
        {
          "internalType": "uint256",
          "name": "",
          "type": "uint256"
        }
      ],
      "stateMutability": "view",
      "type": "function"
    },
    {
      "inputs": [
        {
          "internalType": "uint256",
          "name": "_tokenId",
          "type": "uint256"
        }
      ],
      "name": "uri",
      "outputs": [
        {
          "internalType": "string",
          "name": "",
          "type": "string"
        }
      ],
      "stateMutability": "view",
      "type": "function"
    }
  ],
  "transactionHash": "0xa4ad38c2473f683c069ceb37f0bc536a268d00c019497d00739c405825dd3213",
  "args": [],
  "solcInputHash": "030078b044a1e032064fd2339cc65b55",
  "bytecode": "0x608060405234801561001057600080fd5b50613b27806100206000396000f3fe60806040526004361061017f5760003560e01c8063572b6c05116100d6578063bc01188e1161007f578063e751c98111610059578063e751c9811461053d578063e985e9c51461055d578063f242432a146105c557600080fd5b8063bc01188e14610494578063bd85b039146104d1578063e4a59a541461051d57600080fd5b806385bff2e7116100b057806385bff2e714610434578063a22cb46514610454578063b3a721d11461047457600080fd5b8063572b6c051461035b5780636787d449146103a95780636dcfd8411461040757600080fd5b806313ba55df116101385780632eb2c2d6116101125780632eb2c2d6146102bd578063481c6a75146102dd5780634e1273f41461032e57600080fd5b806313ba55df1461024957806318160ddd146102695780631b0239471461029d57600080fd5b806308dc9f421161016957806308dc9f42146101e75780630b885ac3146101fa5780630e89341c1461021c57600080fd5b8062fdd58e1461018457806301ffc9a7146101b7575b600080fd5b34801561019057600080fd5b506101a461019f366004612f8b565b6105e5565b6040519081526020015b60405180910390f35b3480156101c357600080fd5b506101d76101d2366004612fcb565b6105fa565b60405190151581526020016101ae565b6101d76101f53660046130a6565b61063b565b34801561020657600080fd5b5061021a6102153660046130f6565b610a29565b005b34801561022857600080fd5b5061023c610237366004613176565b610c12565b6040516101ae91906131e7565b34801561025557600080fd5b506101a4610264366004613176565b610d6a565b34801561027557600080fd5b507f47dc25f21c7793543edaeb1ef19d41726ddbada967ae9a7980b9bd8a45228a60546101a4565b3480156102a957600080fd5b506101a46102b83660046131fa565b610da0565b3480156102c957600080fd5b5061021a6102d83660046132aa565b610ddd565b3480156102e957600080fd5b507f47dc25f21c7793543edaeb1ef19d41726ddbada967ae9a7980b9bd8a45228a5e546001600160a01b03165b6040516001600160a01b0390911681526020016101ae565b34801561033a57600080fd5b5061034e610349366004613354565b610ea9565b6040516101ae919061345a565b34801561036757600080fd5b506101d76103763660046131fa565b7fa5e014e253d3b66bd348c3cdd05f38b9805fff0b6471d004b58c6ada26cae993546001600160a01b0390811691161490565b3480156103b557600080fd5b506103c96103c4366004613176565b6110d0565b60408051978852602088019690965294860193909352606085019190915260808401526001600160a01b031660a083015260c082015260e0016101ae565b34801561041357600080fd5b50610427610422366004613176565b611183565b6040516101ae919061346d565b34801561044057600080fd5b5061034e61044f3660046131fa565b611261565b34801561046057600080fd5b5061021a61046f3660046134ba565b611334565b34801561048057600080fd5b506101a461048f3660046134f6565b61143d565b3480156104a057600080fd5b507f47dc25f21c7793543edaeb1ef19d41726ddbada967ae9a7980b9bd8a45228a62546001600160a01b0316610316565b3480156104dd57600080fd5b506101a46104ec366004613176565b60009081527fb31c2c74f86ca3ce94d901f5f5bbe66f7161eec2f7b5aa0b75a86371436424ea602052604090205490565b34801561052957600080fd5b5061021a610538366004613176565b6114c6565b34801561054957600080fd5b506101a4610558366004613522565b61179d565b34801561056957600080fd5b506101d76105783660046135b6565b6001600160a01b0391821660009081527f1799cf914cb0cb442ca7c7ac709ee40d0cb89e87351dc08d517fbda27d50c68c6020908152604080832093909416825291909152205460ff1690565b3480156105d157600080fd5b5061021a6105e03660046135e0565b611ac5565b60006105f18383611b8a565b90505b92915050565b6001600160e01b0319811660009081527f326d0c59a7612f6a9919e2a8ee333c80ba689d8ba2634de89c85cbb04832e705602052604081205460ff166105f4565b600080610646611c4f565b60008681527f6862122c88c20d0f389f9211fb45e4a0982f5f74838cd11cfb5e8c8b41fbe65a60205260409020600681015460038201549293509091869161068d9161365b565b10156106e05760405162461bcd60e51b815260206004820152600260248201527f435200000000000000000000000000000000000000000000000000000000000060448201526064015b60405180910390fd5b8054421180156106f4575080600101544211155b6107405760405162461bcd60e51b815260206004820152600360248201527f4f4f54000000000000000000000000000000000000000000000000000000000060448201526064016106d7565b8481600201546107509190613672565b341461079e5760405162461bcd60e51b815260206004820152600260248201527f494100000000000000000000000000000000000000000000000000000000000060448201526064016106d7565b6001600160a01b038216600090815260078201602090815260408083205481519283018a9052908201889052606085811b6bffffffffffffffffffffffff191690830152607482018190529190609401604051602081830303815290604052905060006108287f47dc25f21c7793543edaeb1ef19d41726ddbada967ae9a7980b9bd8a45228a5e90565b905060006108948861088e85805190602001206040517f19457468657265756d205369676e6564204d6573736167653a0a3332000000006020820152603c8101829052600090605c01604051602081830303815290604052805190602001209050919050565b90611ca5565b82549091506001600160a01b038083169116146108d85760405162461bcd60e51b81526020600482015260026024820152614e4d60f01b60448201526064016106d7565b888560060160008282546108ec9190613691565b90915550506001600160a01b038616600090815260078601602052604090208054600101905561092d868b8b60405180602001604052806000815250611cc1565b6002850154156109e1576000606486600401543461094b9190613672565b61095591906136a9565b90506000610963823461365b565b60058801546040519192506001600160a01b03169082156108fc029083906000818181858888f193505050501580156109a0573d6000803e3d6000fd5b5060048401546040516001600160a01b039091169083156108fc029084906000818181858888f193505050501580156109dd573d6000803e3d6000fd5b5050505b888a876001600160a01b03167f25b428dfde728ccfaddad7e29e4ac23c24ed7fd1a6e3e3f91894a9a073f5dfff60405160405180910390a45060019998505050505050505050565b7fc8fcad8db84d3cc18b4c41d551ea0ee66dd599cde068d998e57d5e09332c1320546001600160a01b03163314610aa25760405162461bcd60e51b815260206004820152600260248201527f4e4f00000000000000000000000000000000000000000000000000000000000060448201526064016106d7565b7fa5e014e253d3b66bd348c3cdd05f38b9805fff0b6471d004b58c6ada26cae993805473ffffffffffffffffffffffffffffffffffffffff19166001600160a01b0385161790557fd9b67a26000000000000000000000000000000000000000000000000000000006000527fc8fcad8db84d3cc18b4c41d551ea0ee66dd599cde068d998e57d5e09332c131f6020527f845f7f8d885943dffdc1524acbd9538b2923f93aad26d306df3b8982c7f0632d805460ff19166001179055610b6685611ce2565b7f47dc25f21c7793543edaeb1ef19d41726ddbada967ae9a7980b9bd8a45228a5e80546001600160a01b0395861673ffffffffffffffffffffffffffffffffffffffff19918216179091557f47dc25f21c7793543edaeb1ef19d41726ddbada967ae9a7980b9bd8a45228a5f8054938616938216939093179092557f47dc25f21c7793543edaeb1ef19d41726ddbada967ae9a7980b9bd8a45228a628054919094169116179091555050565b60008181527fb3408a5d8f30170919d3996b6cc182726500ad24733d17ace2f621485f6e7c836020526040812080546060929190610c4f906136cb565b80601f0160208091040260200160405190810160405280929190818152602001828054610c7b906136cb565b8015610cc85780601f10610c9d57610100808354040283529160200191610cc8565b820191906000526020600020905b815481529060010190602001808311610cab57829003601f168201915b505050505090508051600003610d205760405162461bcd60e51b815260206004820152601d60248201527f455243313135355552493a20746f6b656e4964206e6f7420657869737400000060448201526064016106d7565b604051610d53907fb3408a5d8f30170919d3996b6cc182726500ad24733d17ace2f621485f6e7c84908390602001613705565b604051602081830303815290604052915050919050565b60008181527fb31c2c74f86ca3ce94d901f5f5bbe66f7161eec2f7b5aa0b75a86371436424eb602052604081206105f490611d11565b6001600160a01b03811660009081527f47dc25f21c7793543edaeb1ef19d41726ddbada967ae9a7980b9bd8a45228a6160205260408120546105f4565b6001600160a01b038516331480610e3657506001600160a01b03851660009081527f1799cf914cb0cb442ca7c7ac709ee40d0cb89e87351dc08d517fbda27d50c68c6020908152604080832033845290915290205460ff165b610e945760405162461bcd60e51b815260206004820152602960248201527f455243313135353a2063616c6c6572206973206e6f74206f776e6572206e6f7260448201526808185c1c1c9bdd995960ba1b60648201526084016106d7565b610ea2338686868686611d1b565b5050505050565b60608151835114610f225760405162461bcd60e51b815260206004820152602960248201527f455243313135353a206163636f756e747320616e6420696473206c656e67746860448201527f206d69736d61746368000000000000000000000000000000000000000000000060648201526084016106d7565b82517f1799cf914cb0cb442ca7c7ac709ee40d0cb89e87351dc08d517fbda27d50c68b9060009067ffffffffffffffff811115610f6157610f61612fef565b604051908082528060200260200182016040528015610f8a578160200160208202803683370190505b50905060005b85518110156110c75760006001600160a01b0316868281518110610fb657610fb661378c565b60200260200101516001600160a01b03160361103a5760405162461bcd60e51b815260206004820152603160248201527f455243313135353a2062617463682062616c616e636520717565727920666f7260448201527f20746865207a65726f206164647265737300000000000000000000000000000060648201526084016106d7565b82600086838151811061104f5761104f61378c565b6020026020010151815260200190815260200160002060008783815181106110795761107961378c565b60200260200101516001600160a01b03166001600160a01b03168152602001908152602001600020548282815181106110b4576110b461378c565b6020908102919091010152600101610f90565b50949350505050565b60008181527f6862122c88c20d0f389f9211fb45e4a0982f5f74838cd11cfb5e8c8b41fbe65a60205260408120600381015482918291829182918291829182036111425760405162461bcd60e51b8152602060048201526003602482015262444e4560e81b60448201526064016106d7565b805460018201546002830154600384015460048501546005860154600690960154949e939d50919b50995097506001600160a01b0390921695509350915050565b60008181527fb31c2c74f86ca3ce94d901f5f5bbe66f7161eec2f7b5aa0b75a86371436424eb602052604081206060916111bc82611d11565b67ffffffffffffffff8111156111d4576111d4612fef565b6040519080825280602002602001820160405280156111fd578160200160208202803683370190505b50905060005b61120c83611d11565b8110156112595761121d8382611d3f565b82828151811061122f5761122f61378c565b6001600160a01b039092166020928302919091019091015280611251816137a2565b915050611203565b509392505050565b6001600160a01b03811660009081527fb31c2c74f86ca3ce94d901f5f5bbe66f7161eec2f7b5aa0b75a86371436424ec602052604081206060916112a482611d11565b67ffffffffffffffff8111156112bc576112bc612fef565b6040519080825280602002602001820160405280156112e5578160200160208202803683370190505b50905060005b6112f483611d11565b811015611259576113058382611d3f565b8282815181106113175761131761378c565b60209081029190910101528061132c816137a2565b9150506112eb565b6001600160a01b03821633036113b25760405162461bcd60e51b815260206004820152602960248201527f455243313135353a2073657474696e6720617070726f76616c2073746174757360448201527f20666f722073656c66000000000000000000000000000000000000000000000060648201526084016106d7565b3360008181527f1799cf914cb0cb442ca7c7ac709ee40d0cb89e87351dc08d517fbda27d50c68c602090815260408083206001600160a01b03871680855290835292819020805460ff191686151590811790915590519081529192917f17307eab39ab6107e8899845ad3d59bd9653f200f220920489ca2b5937696c31910160405180910390a35050565b60008281527f6862122c88c20d0f389f9211fb45e4a0982f5f74838cd11cfb5e8c8b41fbe65a60205260408120600381015482036114a35760405162461bcd60e51b8152602060048201526003602482015262444e4560e81b60448201526064016106d7565b6001600160a01b0383166000908152600782016020526040902054949350505050565b6014811460028214806114d65750805b6115225760405162461bcd60e51b815260206004820152600260248201527f574100000000000000000000000000000000000000000000000000000000000060448201526064016106d7565b6040517efdd58e00000000000000000000000000000000000000000000000000000000815233600482015260016024820152733e96436b51b49d6f4da8d4a0bd4817cd1f1719e0908390829062fdd58e90604401602060405180830381865afa158015611593573d6000803e3d6000fd5b505050506040513d601f19601f820116820180604052508101906115b791906137bb565b10156116055760405162461bcd60e51b815260206004820152600260248201527f4e5200000000000000000000000000000000000000000000000000000000000060448201526064016106d7565b826116113360016105e5565b101561165f5760405162461bcd60e51b815260206004820152600260248201527f4e5300000000000000000000000000000000000000000000000000000000000060448201526064016106d7565b61166b33600185611d4b565b6040517ff242432a00000000000000000000000000000000000000000000000000000000815233600482015261dead6024820152600160448201526064810184905260a06084820152600060a48201526001600160a01b0382169063f242432a9060c401600060405180830381600087803b1580156116e957600080fd5b505af11580156116fd573d6000803e3d6000fd5b5073f763db874f2a6014440d0f87f39d8a2b38801a31925082915063156e29f69050338561172c57600161172f565b60025b6040516001600160e01b031960e085901b1681526001600160a01b03909216600483015260ff16602482015260016044820152606401600060405180830381600087803b15801561177f57600080fd5b505af1158015611793573d6000803e3d6000fd5b5050505050505050565b6000806117aa888861365b565b116117f75760405162461bcd60e51b815260206004820152600260248201527f495400000000000000000000000000000000000000000000000000000000000060448201526064016106d7565b60648311156118485760405162461bcd60e51b815260206004820152600360248201527f49534f000000000000000000000000000000000000000000000000000000000060448201526064016106d7565b600084116118985760405162461bcd60e51b815260206004820152600360248201527f494143000000000000000000000000000000000000000000000000000000000060448201526064016106d7565b7f47dc25f21c7793543edaeb1ef19d41726ddbada967ae9a7980b9bd8a45228a5e60006118c3611c4f565b905060006118d082610da0565b905060008b8b8b8b8b8b88886040516020016118f39897969594939291906137d4565b604051602081830303815290604052905060006119688761088e84805190602001206040517f19457468657265756d205369676e6564204d6573736167653a0a3332000000006020820152603c8101829052600090605c01604051602081830303815290604052805190602001209050919050565b85549091506001600160a01b038083169116146119ac5760405162461bcd60e51b81526020600482015260026024820152614e4d60f01b60448201526064016106d7565b600285015495506119bd868e611f0f565b6119cd8560020180546001019055565b6001600160a01b038416600090815260038601602052604090208054600101905560007f6862122c88c20d0f389f9211fb45e4a0982f5f74838cd11cfb5e8c8b41fbe659600101600088815260200190815260200160002090508c81600001819055508b81600101819055508a8160020181905550898160030181905550888160040181905550848160050160006101000a8154816001600160a01b0302191690836001600160a01b0316021790555086856001600160a01b03167f4011446e11141f68f741bffe55d700b48cbc73fb927148a01c8f4664c3be014260405160405180910390a3505050505050979650505050505050565b6001600160a01b038516331480611b1e57506001600160a01b03851660009081527f1799cf914cb0cb442ca7c7ac709ee40d0cb89e87351dc08d517fbda27d50c68c6020908152604080832033845290915290205460ff165b611b7c5760405162461bcd60e51b815260206004820152602960248201527f455243313135353a2063616c6c6572206973206e6f74206f776e6572206e6f7260448201526808185c1c1c9bdd995960ba1b60648201526084016106d7565b610ea2338686868686611f4b565b60006001600160a01b038316611c085760405162461bcd60e51b815260206004820152602b60248201527f455243313135353a2062616c616e636520717565727920666f7220746865207a60448201527f65726f206164647265737300000000000000000000000000000000000000000060648201526084016106d7565b7f1799cf914cb0cb442ca7c7ac709ee40d0cb89e87351dc08d517fbda27d50c68b6000928352602090815260408084206001600160a01b0395909516845293905250205490565b600060183610801590611c8b57507fa5e014e253d3b66bd348c3cdd05f38b9805fff0b6471d004b58c6ada26cae993546001600160a01b031633145b15611c9d575060131936013560601c90565b503390565b90565b6000806000611cb48585611f67565b9150915061125981611fd5565b611ccd8484848461218e565b611cdc336000868686866122d1565b50505050565b7fb3408a5d8f30170919d3996b6cc182726500ad24733d17ace2f621485f6e7c84611d0d8282613874565b5050565b60006105f4825490565b611d2986868686868661247f565b611d37868686868686612717565b505050505050565b60006105f18383612813565b6001600160a01b038316611dc75760405162461bcd60e51b815260206004820152602360248201527f455243313135353a206275726e2066726f6d20746865207a65726f206164647260448201527f657373000000000000000000000000000000000000000000000000000000000060648201526084016106d7565b611df533846000611dd7866128b4565b611de0866128b4565b604051806020016040528060008152506128ff565b60008281527f1799cf914cb0cb442ca7c7ac709ee40d0cb89e87351dc08d517fbda27d50c68b602090815260408083206001600160a01b03871684529182905290912054821115611eae5760405162461bcd60e51b815260206004820152602560248201527f455243313135353a206275726e20616d6f756e7420657863656564732062616c60448201527f616e63657300000000000000000000000000000000000000000000000000000060648201526084016106d7565b6001600160a01b03841660008181526020838152604080832080548790039055805187815291820186905291929133917fc3d58168c5ae7397731d063d5bbf3d657854427343f4c083240f7aacaa2d0f62910160405180910390a450505050565b60008281527fb3408a5d8f30170919d3996b6cc182726500ad24733d17ace2f621485f6e7c8360205260409020611f468282613874565b505050565b611f5986868686868661290d565b611d378686868686866122d1565b6000808251604103611f9d5760208301516040840151606085015160001a611f9187828585612ab5565b94509450505050611fce565b8251604003611fc65760208301516040840151611fbb868383612ba2565b935093505050611fce565b506000905060025b9250929050565b6000816004811115611fe957611fe9613934565b03611ff15750565b600181600481111561200557612005613934565b036120525760405162461bcd60e51b815260206004820152601860248201527f45434453413a20696e76616c6964207369676e6174757265000000000000000060448201526064016106d7565b600281600481111561206657612066613934565b036120b35760405162461bcd60e51b815260206004820152601f60248201527f45434453413a20696e76616c6964207369676e6174757265206c656e6774680060448201526064016106d7565b60038160048111156120c7576120c7613934565b0361211f5760405162461bcd60e51b815260206004820152602260248201527f45434453413a20696e76616c6964207369676e6174757265202773272076616c604482015261756560f01b60648201526084016106d7565b600481600481111561213357612133613934565b0361218b5760405162461bcd60e51b815260206004820152602260248201527f45434453413a20696e76616c6964207369676e6174757265202776272076616c604482015261756560f01b60648201526084016106d7565b50565b6001600160a01b03841661220a5760405162461bcd60e51b815260206004820152602160248201527f455243313135353a206d696e7420746f20746865207a65726f2061646472657360448201527f730000000000000000000000000000000000000000000000000000000000000060648201526084016106d7565b6122293360008661221a876128b4565b612223876128b4565b866128ff565b60008381527f1799cf914cb0cb442ca7c7ac709ee40d0cb89e87351dc08d517fbda27d50c68b602090815260408083206001600160a01b038816845291829052822080549192859261227c908490613691565b909155505060408051858152602081018590526001600160a01b0387169160009133917fc3d58168c5ae7397731d063d5bbf3d657854427343f4c083240f7aacaa2d0f62910160405180910390a45050505050565b6001600160a01b0384163b15611d375760405163f23a6e6160e01b81526001600160a01b0385169063f23a6e6190612315908990899088908890889060040161394a565b6020604051808303816000875af1925050508015612350575060408051601f3d908101601f1916820190925261234d9181019061398d565b60015b6124055761235c6139aa565b806308c379a00361239557506123706139c5565b8061237b5750612397565b8060405162461bcd60e51b81526004016106d791906131e7565b505b60405162461bcd60e51b815260206004820152603460248201527f455243313135353a207472616e7366657220746f206e6f6e204552433131353560448201527f526563656976657220696d706c656d656e74657200000000000000000000000060648201526084016106d7565b6001600160e01b0319811663f23a6e6160e01b146124765760405162461bcd60e51b815260206004820152602860248201527f455243313135353a204552433131353552656365697665722072656a656374656044820152676420746f6b656e7360c01b60648201526084016106d7565b50505050505050565b6001600160a01b0384166124e35760405162461bcd60e51b815260206004820152602560248201527f455243313135353a207472616e7366657220746f20746865207a65726f206164604482015264647265737360d81b60648201526084016106d7565b815183511461255a5760405162461bcd60e51b815260206004820152602860248201527f455243313135353a2069647320616e6420616d6f756e7473206c656e6774682060448201527f6d69736d6174636800000000000000000000000000000000000000000000000060648201526084016106d7565b6125688686868686866128ff565b7f1799cf914cb0cb442ca7c7ac709ee40d0cb89e87351dc08d517fbda27d50c68b60005b84518110156126b65760008582815181106125a9576125a961378c565b6020026020010151905060008583815181106125c7576125c761378c565b602090810291909101810151600084815286835260408082206001600160a01b038e16835290935291909120549091508181101561265b5760405162461bcd60e51b815260206004820152602b60248201527f455243313135353a20696e73756666696369656e742062616c616e636573206660448201526a37b9103a3930b739b332b960a91b60648201526084016106d7565b6000838152602086815260408083206001600160a01b038e811685529252808320938590039093558a168152908120805483929061269a908490613691565b92505081905550505080806126ae906137a2565b91505061258c565b50846001600160a01b0316866001600160a01b0316886001600160a01b03167f4a39dc06d4c0dbc64b70af90fd698a233a518aa5d07e595d983b8c0526c8f7fb8787604051612706929190613a4f565b60405180910390a450505050505050565b6001600160a01b0384163b15611d375760405163bc197c8160e01b81526001600160a01b0385169063bc197c819061275b9089908990889088908890600401613a7d565b6020604051808303816000875af1925050508015612796575060408051601f3d908101601f191682019092526127939181019061398d565b60015b6127a25761235c6139aa565b6001600160e01b0319811663bc197c8160e01b146124765760405162461bcd60e51b815260206004820152602860248201527f455243313135353a204552433131353552656365697665722072656a656374656044820152676420746f6b656e7360c01b60648201526084016106d7565b8154600090821061288c5760405162461bcd60e51b815260206004820152602260248201527f456e756d657261626c655365743a20696e646578206f7574206f6620626f756e60448201527f647300000000000000000000000000000000000000000000000000000000000060648201526084016106d7565b8260000182815481106128a1576128a161378c565b9060005260206000200154905092915050565b604080516001808252818301909252606091600091906020808301908036833701905050905082816000815181106128ee576128ee61378c565b602090810291909101015292915050565b611d37868686868686612bf4565b6001600160a01b0384166129715760405162461bcd60e51b815260206004820152602560248201527f455243313135353a207472616e7366657220746f20746865207a65726f206164604482015264647265737360d81b60648201526084016106d7565b61298086868661221a876128b4565b60008381527f1799cf914cb0cb442ca7c7ac709ee40d0cb89e87351dc08d517fbda27d50c68b602081815260408084206001600160a01b038a1685529091529091205483811015612a275760405162461bcd60e51b815260206004820152602b60248201527f455243313135353a20696e73756666696369656e742062616c616e636573206660448201526a37b9103a3930b739b332b960a91b60648201526084016106d7565b6000858152602083815260408083206001600160a01b038b81168552925280832093879003909355871681529081208054859290612a66908490613691565b909155505060408051858152602081018590526001600160a01b038088169289821692918b16917fc3d58168c5ae7397731d063d5bbf3d657854427343f4c083240f7aacaa2d0f629101612706565b6000807f7fffffffffffffffffffffffffffffff5d576e7357a4501ddfe92f46681b20a0831115612aec5750600090506003612b99565b8460ff16601b14158015612b0457508460ff16601c14155b15612b155750600090506004612b99565b6040805160008082526020820180845289905260ff881692820192909252606081018690526080810185905260019060a0016020604051602081039080840390855afa158015612b69573d6000803e3d6000fd5b5050604051601f1901519150506001600160a01b038116612b9257600060019250925050612b99565b9150600090505b94509492505050565b6000807f7fffffffffffffffffffffffffffffffffffffffffffffffffffffffffffffff831681612bd860ff86901c601b613691565b9050612be687828885612ab5565b935093505050935093915050565b611d37868686868686836001600160a01b0316856001600160a01b031614611d37576001600160a01b0385811660009081527fb31c2c74f86ca3ce94d901f5f5bbe66f7161eec2f7b5aa0b75a86371436424ec6020526040808220928716825281207fb31c2c74f86ca3ce94d901f5f5bbe66f7161eec2f7b5aa0b75a86371436424ea927fb31c2c74f86ca3ce94d901f5f5bbe66f7161eec2f7b5aa0b75a86371436424eb929091905b8751811015612de6576000878281518110612cbb57612cbb61378c565b602002602001015190506000811115612dd3576000898381518110612ce257612ce261378c565b6020026020010151905060006001600160a01b03168c6001600160a01b031603612d2f5760008181526020889052604081208054849290612d24908490613691565b90915550612d649050565b81612d3a8d83611b8a565b03612d64576000818152602087905260409020612d57908d612df3565b50612d628582612e08565b505b6001600160a01b038b16612d9b5760008181526020889052604081208054849290612d9090849061365b565b90915550612dd19050565b612da58b82611b8a565b600003612dd1576000818152602087905260409020612dc4908c612e14565b50612dcf8482612e29565b505b505b5080612dde816137a2565b915050612c9e565b5050505050505050505050565b60006105f1836001600160a01b038416612e35565b60006105f18383612e35565b60006105f1836001600160a01b038416612f20565b60006105f18383612f20565b60008181526001830160205260408120548015612f16576000612e5960018361365b565b85549091506000908690612e6f9060019061365b565b81548110612e7f57612e7f61378c565b9060005260206000200154905080866000018381548110612ea257612ea261378c565b600091825260209091200155612eb9826001613691565b60008281526001880160205260409020558554869080612edb57612edb613adb565b6001900381819060005260206000200160009055905585600101600086815260200190815260200160002060009055600193505050506105f4565b60009150506105f4565b6000818152600183016020526040812054612f67575081546001818101845560008481526020808220909301849055845484825282860190935260409020919091556105f4565b5060006105f4565b80356001600160a01b0381168114612f8657600080fd5b919050565b60008060408385031215612f9e57600080fd5b612fa783612f6f565b946020939093013593505050565b6001600160e01b03198116811461218b57600080fd5b600060208284031215612fdd57600080fd5b8135612fe881612fb5565b9392505050565b634e487b7160e01b600052604160045260246000fd5b601f8201601f1916810167ffffffffffffffff8111828210171561302b5761302b612fef565b6040525050565b600082601f83011261304357600080fd5b813567ffffffffffffffff81111561305d5761305d612fef565b604051613074601f8301601f191660200182613005565b81815284602083860101111561308957600080fd5b816020850160208301376000918101602001919091529392505050565b6000806000606084860312156130bb57600080fd5b8335925060208401359150604084013567ffffffffffffffff8111156130e057600080fd5b6130ec86828701613032565b9150509250925092565b600080600080600060a0868803121561310e57600080fd5b853567ffffffffffffffff81111561312557600080fd5b61313188828901613032565b95505061314060208701612f6f565b935061314e60408701612f6f565b925061315c60608701612f6f565b915061316a60808701612f6f565b90509295509295909350565b60006020828403121561318857600080fd5b5035919050565b60005b838110156131aa578181015183820152602001613192565b83811115611cdc5750506000910152565b600081518084526131d381602086016020860161318f565b601f01601f19169290920160200192915050565b6020815260006105f160208301846131bb565b60006020828403121561320c57600080fd5b6105f182612f6f565b600067ffffffffffffffff82111561322f5761322f612fef565b5060051b60200190565b600082601f83011261324a57600080fd5b8135602061325782613215565b6040516132648282613005565b83815260059390931b850182019282810191508684111561328457600080fd5b8286015b8481101561329f5780358352918301918301613288565b509695505050505050565b600080600080600060a086880312156132c257600080fd5b6132cb86612f6f565b94506132d960208701612f6f565b9350604086013567ffffffffffffffff808211156132f657600080fd5b61330289838a01613239565b9450606088013591508082111561331857600080fd5b61332489838a01613239565b9350608088013591508082111561333a57600080fd5b5061334788828901613032565b9150509295509295909350565b6000806040838503121561336757600080fd5b823567ffffffffffffffff8082111561337f57600080fd5b818501915085601f83011261339357600080fd5b813560206133a082613215565b6040516133ad8282613005565b83815260059390931b85018201928281019150898411156133cd57600080fd5b948201945b838610156133f2576133e386612f6f565b825294820194908201906133d2565b9650508601359250508082111561340857600080fd5b5061341585828601613239565b9150509250929050565b600081518084526020808501945080840160005b8381101561344f57815187529582019590820190600101613433565b509495945050505050565b6020815260006105f1602083018461341f565b6020808252825182820181905260009190848201906040850190845b818110156134ae5783516001600160a01b031683529284019291840191600101613489565b50909695505050505050565b600080604083850312156134cd57600080fd5b6134d683612f6f565b9150602083013580151581146134eb57600080fd5b809150509250929050565b6000806040838503121561350957600080fd5b8235915061351960208401612f6f565b90509250929050565b600080600080600080600060e0888a03121561353d57600080fd5b873567ffffffffffffffff8082111561355557600080fd5b6135618b838c01613032565b985060208a0135975060408a0135965060608a0135955060808a0135945060a08a0135935060c08a013591508082111561359a57600080fd5b506135a78a828b01613032565b91505092959891949750929550565b600080604083850312156135c957600080fd5b6135d283612f6f565b915061351960208401612f6f565b600080600080600060a086880312156135f857600080fd5b61360186612f6f565b945061360f60208701612f6f565b93506040860135925060608601359150608086013567ffffffffffffffff81111561363957600080fd5b61334788828901613032565b634e487b7160e01b600052601160045260246000fd5b60008282101561366d5761366d613645565b500390565b600081600019048311821515161561368c5761368c613645565b500290565b600082198211156136a4576136a4613645565b500190565b6000826136c657634e487b7160e01b600052601260045260246000fd5b500490565b600181811c908216806136df57607f821691505b6020821081036136ff57634e487b7160e01b600052602260045260246000fd5b50919050565b6000808454613713816136cb565b6001828116801561372b57600181146137405761376f565b60ff198416875282151583028701945061376f565b8860005260208060002060005b858110156137665781548a82015290840190820161374d565b50505082870194505b50505050835161378381836020880161318f565b01949350505050565b634e487b7160e01b600052603260045260246000fd5b6000600182016137b4576137b4613645565b5060010190565b6000602082840312156137cd57600080fd5b5051919050565b600089516137e6818460208e0161318f565b91909101978852506020870195909552604086019390935260608086019290925260808501521b6bffffffffffffffffffffffff191660a083015260b482015260d401919050565b601f821115611f4657600081815260208120601f850160051c810160208610156138555750805b601f850160051c820191505b81811015611d3757828155600101613861565b815167ffffffffffffffff81111561388e5761388e612fef565b6138a28161389c84546136cb565b8461382e565b602080601f8311600181146138d757600084156138bf5750858301515b600019600386901b1c1916600185901b178555611d37565b600085815260208120601f198616915b82811015613906578886015182559484019460019091019084016138e7565b50858210156139245787850151600019600388901b60f8161c191681555b5050505050600190811b01905550565b634e487b7160e01b600052602160045260246000fd5b60006001600160a01b03808816835280871660208401525084604083015283606083015260a0608083015261398260a08301846131bb565b979650505050505050565b60006020828403121561399f57600080fd5b8151612fe881612fb5565b600060033d1115611ca25760046000803e5060005160e01c90565b600060443d10156139d35790565b6040516003193d81016004833e81513d67ffffffffffffffff8160248401118184111715613a0357505050505090565b8285019150815181811115613a1b5750505050505090565b843d8701016020828501011115613a355750505050505090565b613a4460208286010187613005565b509095945050505050565b604081526000613a62604083018561341f565b8281036020840152613a74818561341f565b95945050505050565b60006001600160a01b03808816835280871660208401525060a06040830152613aa960a083018661341f565b8281036060840152613abb818661341f565b90508281036080840152613acf81856131bb565b98975050505050505050565b634e487b7160e01b600052603160045260246000fdfea264697066735822122076705ab666ed54810ce6c6fa54b334a9d4d48d012d2af407b2c326215a7e75ab64736f6c634300080f0033",
  "devdoc": {
    "kind": "dev",
    "methods": {
      "accountsByToken(uint256)": {
        "params": {
          "id": "token id to query"
        },
        "returns": {
          "_0": "list of holder addresses"
        }
      },
      "balanceOf(address,uint256)": {
        "params": {
          "account": "address to query",
          "id": "token to query"
        },
        "returns": {
          "_0": "token balance"
        }
      },
      "balanceOfBatch(address[],uint256[])": {
        "params": {
          "accounts": "addresss to query",
          "ids": "tokens to query"
        },
        "returns": {
          "_0": "token balances"
        }
      },
      "isApprovedForAll(address,address)": {
        "params": {
          "account": "address to query for approval granted",
          "operator": "address to query for approval received"
        },
        "returns": {
          "_0": "whether operator is approved to spend tokens held by account"
        }
      },
      "safeBatchTransferFrom(address,address,uint256[],uint256[],bytes)": {
        "params": {
          "amounts": "list of quantities of tokens to transfer",
          "data": "data payload",
          "from": "sender of tokens",
          "ids": "list of token IDs",
          "to": "receiver of tokens"
        }
      },
      "safeTransferFrom(address,address,uint256,uint256,bytes)": {
        "params": {
          "amount": "quantity of tokens to transfer",
          "data": "data payload",
          "from": "sender of tokens",
          "id": "token ID",
          "to": "receiver of tokens"
        }
      },
      "setApprovalForAll(address,bool)": {
        "params": {
          "operator": "address whose approval status to update",
          "status": "whether operator should be considered approved"
        }
      },
      "supportsInterface(bytes4)": {
        "params": {
          "interfaceId": "interface id"
        },
        "returns": {
          "_0": "bool whether interface is supported"
        }
      },
      "tokensByAccount(address)": {
        "params": {
          "account": "address to query"
        },
        "returns": {
          "_0": "list of token ids"
        }
      },
      "totalHolders(uint256)": {
        "params": {
          "id": "token id to query"
        },
        "returns": {
          "_0": "quantity of holders"
        }
      },
      "totalSupply(uint256)": {
        "params": {
          "id": "token id to query"
        },
        "returns": {
          "_0": "token supply"
        }
      }
    },
    "version": 1
  },
  "userdoc": {
    "kind": "user",
    "methods": {
      "accountsByToken(uint256)": {
        "notice": "query holders of given token"
      },
      "balanceOf(address,uint256)": {
        "notice": "query the balance of given token held by given address"
      },
      "balanceOfBatch(address[],uint256[])": {
        "notice": "query the balances of given tokens held by given addresses"
      },
      "isApprovedForAll(address,address)": {
        "notice": "query approval status of given operator with respect to given address"
      },
      "safeBatchTransferFrom(address,address,uint256[],uint256[],bytes)": {
        "notice": "transfer batch of tokens between given addresses, checking for ERC1155Receiver implementation if applicable"
      },
      "safeTransferFrom(address,address,uint256,uint256,bytes)": {
        "notice": "transfer tokens between given addresses, checking for ERC1155Receiver implementation if applicable"
      },
      "setApprovalForAll(address,bool)": {
        "notice": "grant approval to or revoke approval from given operator to spend held tokens"
      },
      "supportsInterface(bytes4)": {
        "notice": "query whether contract has registered support for given interface"
      },
      "tokensByAccount(address)": {
        "notice": "query tokens held by given address"
      },
      "totalHolders(uint256)": {
        "notice": "query total number of holders for given token"
      },
      "totalSupply(uint256)": {
        "notice": "query total minted supply of given token"
      }
    },
    "version": 1
  },
  "storageLayout": {
    "storage": [],
    "types": null
  }
}