{
  "address": "0x81bD21Fb95D0F8C3b38098f371e0FAdC3E5f8E6B",
  "abi": [
    {
      "anonymous": false,
      "inputs": [
        {
          "indexed": true,
          "internalType": "address",
          "name": "account",
          "type": "address"
        },
        {
          "indexed": true,
          "internalType": "address",
          "name": "operator",
          "type": "address"
        },
        {
          "indexed": false,
          "internalType": "bool",
          "name": "approved",
          "type": "bool"
        }
      ],
      "name": "ApprovalForAll",
      "type": "event"
    },
    {
      "anonymous": false,
      "inputs": [
        {
          "indexed": true,
          "internalType": "address",
          "name": "account",
          "type": "address"
        },
        {
          "indexed": true,
          "internalType": "uint256",
          "name": "tokenId",
          "type": "uint256"
        }
      ],
      "name": "DropCreated",
      "type": "event"
    },
    {
      "anonymous": false,
      "inputs": [
        {
          "indexed": true,
          "internalType": "address",
          "name": "account",
          "type": "address"
        },
        {
          "indexed": true,
          "internalType": "uint256",
          "name": "tokenId",
          "type": "uint256"
        },
        {
          "indexed": true,
          "internalType": "uint256",
          "name": "amount",
          "type": "uint256"
        }
      ],
      "name": "Minted",
      "type": "event"
    },
    {
      "anonymous": false,
      "inputs": [
        {
          "indexed": true,
          "internalType": "address",
          "name": "operator",
          "type": "address"
        },
        {
          "indexed": true,
          "internalType": "address",
          "name": "from",
          "type": "address"
        },
        {
          "indexed": true,
          "internalType": "address",
          "name": "to",
          "type": "address"
        },
        {
          "indexed": false,
          "internalType": "uint256[]",
          "name": "ids",
          "type": "uint256[]"
        },
        {
          "indexed": false,
          "internalType": "uint256[]",
          "name": "values",
          "type": "uint256[]"
        }
      ],
      "name": "TransferBatch",
      "type": "event"
    },
    {
      "anonymous": false,
      "inputs": [
        {
          "indexed": true,
          "internalType": "address",
          "name": "operator",
          "type": "address"
        },
        {
          "indexed": true,
          "internalType": "address",
          "name": "from",
          "type": "address"
        },
        {
          "indexed": true,
          "internalType": "address",
          "name": "to",
          "type": "address"
        },
        {
          "indexed": false,
          "internalType": "uint256",
          "name": "id",
          "type": "uint256"
        },
        {
          "indexed": false,
          "internalType": "uint256",
          "name": "value",
          "type": "uint256"
        }
      ],
      "name": "TransferSingle",
      "type": "event"
    },
    {
      "anonymous": false,
      "inputs": [
        {
          "indexed": false,
          "internalType": "string",
          "name": "value",
          "type": "string"
        },
        {
          "indexed": true,
          "internalType": "uint256",
          "name": "tokenId",
          "type": "uint256"
        }
      ],
      "name": "URI",
      "type": "event"
    },
    {
      "inputs": [
        {
          "internalType": "uint256",
          "name": "id",
          "type": "uint256"
        }
      ],
      "name": "accountsByToken",
      "outputs": [
        {
          "internalType": "address[]",
          "name": "",
          "type": "address[]"
        }
      ],
      "stateMutability": "view",
      "type": "function"
    },
    {
      "inputs": [
        {
          "internalType": "address",
          "name": "account",
          "type": "address"
        },
        {
          "internalType": "uint256",
          "name": "id",
          "type": "uint256"
        }
      ],
      "name": "balanceOf",
      "outputs": [
        {
          "internalType": "uint256",
          "name": "",
          "type": "uint256"
        }
      ],
      "stateMutability": "view",
      "type": "function"
    },
    {
      "inputs": [
        {
          "internalType": "address[]",
          "name": "accounts",
          "type": "address[]"
        },
        {
          "internalType": "uint256[]",
          "name": "ids",
          "type": "uint256[]"
        }
      ],
      "name": "balanceOfBatch",
      "outputs": [
        {
          "internalType": "uint256[]",
          "name": "",
          "type": "uint256[]"
        }
      ],
      "stateMutability": "view",
      "type": "function"
    },
    {
      "inputs": [
        {
          "internalType": "string",
          "name": "_uri",
          "type": "string"
        },
        {
          "internalType": "uint256",
          "name": "_timeStart",
          "type": "uint256"
        },
        {
          "internalType": "uint256",
          "name": "_timeEnd",
          "type": "uint256"
        },
        {
          "internalType": "uint256",
          "name": "_price",
          "type": "uint256"
        },
        {
          "internalType": "uint256",
          "name": "_amountCap",
          "type": "uint256"
        },
        {
          "internalType": "uint256",
          "name": "_shareCyber",
          "type": "uint256"
        },
        {
          "internalType": "bytes",
          "name": "_signature",
          "type": "bytes"
        }
      ],
      "name": "createDrop",
      "outputs": [
        {
          "internalType": "uint256",
          "name": "tokenId",
          "type": "uint256"
        }
      ],
      "stateMutability": "nonpayable",
      "type": "function"
    },
    {
      "inputs": [
        {
          "internalType": "uint256",
          "name": "_tokenId",
          "type": "uint256"
        },
        {
          "internalType": "address",
          "name": "_minter",
          "type": "address"
        }
      ],
      "name": "dropMintCounter",
      "outputs": [
        {
          "internalType": "uint256",
          "name": "",
          "type": "uint256"
        }
      ],
      "stateMutability": "view",
      "type": "function"
    },
    {
      "inputs": [
        {
          "internalType": "uint256",
          "name": "_tokenId",
          "type": "uint256"
        }
      ],
      "name": "getDrop",
      "outputs": [
        {
          "internalType": "uint256",
          "name": "timeStart",
          "type": "uint256"
        },
        {
          "internalType": "uint256",
          "name": "timeEnd",
          "type": "uint256"
        },
        {
          "internalType": "uint256",
          "name": "price",
          "type": "uint256"
        },
        {
          "internalType": "uint256",
          "name": "amountCap",
          "type": "uint256"
        },
        {
          "internalType": "uint256",
          "name": "shareCyber",
          "type": "uint256"
        },
        {
          "internalType": "address",
          "name": "creator",
          "type": "address"
        },
        {
          "internalType": "uint256",
          "name": "minted",
          "type": "uint256"
        }
      ],
      "stateMutability": "view",
      "type": "function"
    },
    {
      "inputs": [
        {
          "internalType": "string",
          "name": "_uri",
          "type": "string"
        },
        {
          "internalType": "address",
          "name": "_manager",
          "type": "address"
        },
        {
          "internalType": "address",
          "name": "_trustedForwarder",
          "type": "address"
        },
        {
          "internalType": "address",
          "name": "_opensea",
          "type": "address"
        },
        {
          "internalType": "address",
          "name": "_oncyber",
          "type": "address"
        }
      ],
      "name": "initialize",
      "outputs": [],
      "stateMutability": "nonpayable",
      "type": "function"
    },
    {
      "inputs": [
        {
          "internalType": "address",
          "name": "account",
          "type": "address"
        },
        {
          "internalType": "address",
          "name": "operator",
          "type": "address"
        }
      ],
      "name": "isApprovedForAll",
      "outputs": [
        {
          "internalType": "bool",
          "name": "",
          "type": "bool"
        }
      ],
      "stateMutability": "view",
      "type": "function"
    },
    {
      "inputs": [
        {
          "internalType": "address",
          "name": "forwarder",
          "type": "address"
        }
      ],
      "name": "isTrustedForwarder",
      "outputs": [
        {
          "internalType": "bool",
          "name": "",
          "type": "bool"
        }
      ],
      "stateMutability": "view",
      "type": "function"
    },
    {
      "inputs": [],
      "name": "manager",
      "outputs": [
        {
          "internalType": "address",
          "name": "",
          "type": "address"
        }
      ],
      "stateMutability": "view",
      "type": "function"
    },
    {
      "inputs": [
        {
          "internalType": "uint256",
          "name": "_tokenId",
          "type": "uint256"
        },
        {
          "internalType": "uint256",
          "name": "_quantity",
          "type": "uint256"
        },
        {
          "internalType": "bytes",
          "name": "_signature",
          "type": "bytes"
        }
      ],
      "name": "mint",
      "outputs": [
        {
          "internalType": "bool",
          "name": "success",
          "type": "bool"
        }
      ],
      "stateMutability": "payable",
      "type": "function"
    },
    {
      "inputs": [
        {
          "internalType": "address",
          "name": "to",
          "type": "address"
        },
        {
          "internalType": "uint256",
          "name": "id",
          "type": "uint256"
        },
        {
          "internalType": "uint256",
          "name": "amount",
          "type": "uint256"
        }
      ],
      "name": "mintTransfer",
      "outputs": [],
      "stateMutability": "nonpayable",
      "type": "function"
    },
    {
      "inputs": [
        {
          "internalType": "address",
          "name": "_minter",
          "type": "address"
        }
      ],
      "name": "minterNonce",
      "outputs": [
        {
          "internalType": "uint256",
          "name": "",
          "type": "uint256"
        }
      ],
      "stateMutability": "view",
      "type": "function"
    },
    {
      "inputs": [],
      "name": "oncyber",
      "outputs": [
        {
          "internalType": "address",
          "name": "",
          "type": "address"
        }
      ],
      "stateMutability": "view",
      "type": "function"
    },
    {
      "inputs": [
        {
          "internalType": "address",
          "name": "from",
          "type": "address"
        },
        {
          "internalType": "address",
          "name": "to",
          "type": "address"
        },
        {
          "internalType": "uint256[]",
          "name": "ids",
          "type": "uint256[]"
        },
        {
          "internalType": "uint256[]",
          "name": "amounts",
          "type": "uint256[]"
        },
        {
          "internalType": "bytes",
          "name": "data",
          "type": "bytes"
        }
      ],
      "name": "safeBatchTransferFrom",
      "outputs": [],
      "stateMutability": "nonpayable",
      "type": "function"
    },
    {
      "inputs": [
        {
          "internalType": "address",
          "name": "from",
          "type": "address"
        },
        {
          "internalType": "address",
          "name": "to",
          "type": "address"
        },
        {
          "internalType": "uint256",
          "name": "id",
          "type": "uint256"
        },
        {
          "internalType": "uint256",
          "name": "amount",
          "type": "uint256"
        },
        {
          "internalType": "bytes",
          "name": "data",
          "type": "bytes"
        }
      ],
      "name": "safeTransferFrom",
      "outputs": [],
      "stateMutability": "nonpayable",
      "type": "function"
    },
    {
      "inputs": [
        {
          "internalType": "address",
          "name": "operator",
          "type": "address"
        },
        {
          "internalType": "bool",
          "name": "status",
          "type": "bool"
        }
      ],
      "name": "setApprovalForAll",
      "outputs": [],
      "stateMutability": "nonpayable",
      "type": "function"
    },
    {
      "inputs": [
        {
          "internalType": "bytes4",
          "name": "interfaceId",
          "type": "bytes4"
        }
      ],
      "name": "supportsInterface",
      "outputs": [
        {
          "internalType": "bool",
          "name": "",
          "type": "bool"
        }
      ],
      "stateMutability": "view",
      "type": "function"
    },
    {
      "inputs": [
        {
          "internalType": "address",
          "name": "account",
          "type": "address"
        }
      ],
      "name": "tokensByAccount",
      "outputs": [
        {
          "internalType": "uint256[]",
          "name": "",
          "type": "uint256[]"
        }
      ],
      "stateMutability": "view",
      "type": "function"
    },
    {
      "inputs": [
        {
          "internalType": "uint256",
          "name": "id",
          "type": "uint256"
        }
      ],
      "name": "totalHolders",
      "outputs": [
        {
          "internalType": "uint256",
          "name": "",
          "type": "uint256"
        }
      ],
      "stateMutability": "view",
      "type": "function"
    },
    {
      "inputs": [],
      "name": "totalSupply",
      "outputs": [
        {
          "internalType": "uint256",
          "name": "",
          "type": "uint256"
        }
      ],
      "stateMutability": "view",
      "type": "function"
    },
    {
      "inputs": [
        {
          "internalType": "uint256",
          "name": "id",
          "type": "uint256"
        }
      ],
      "name": "totalSupply",
      "outputs": [
        {
          "internalType": "uint256",
          "name": "",
          "type": "uint256"
        }
      ],
      "stateMutability": "view",
      "type": "function"
    },
    {
      "inputs": [
        {
          "internalType": "uint256",
          "name": "_tokenId",
          "type": "uint256"
        }
      ],
      "name": "uri",
      "outputs": [
        {
          "internalType": "string",
          "name": "",
          "type": "string"
        }
      ],
      "stateMutability": "view",
      "type": "function"
    }
  ],
  "transactionHash": "0xd0f4074bcfe9b72c3a4bf43bf239ea7460da649f379b7a9fab33afc21b2ceb19",
  "args": [],
  "solcInputHash": "ea26adbb07545802b15de7d9cf64a5d5",
  "bytecode": "0x608060405234801561001057600080fd5b50615deb80620000216000396000f3fe60806040526004361061013f5760003560e01c8063572b6c05116100b6578063b3a721d11161006f578063b3a721d1146104d6578063bc01188e14610513578063bd85b0391461053e578063e751c9811461057b578063e985e9c5146105b8578063f242432a146105f55761013f565b8063572b6c051461038a5780636787d449146103c75780636dcfd8411461040a57806385bff2e71461044757806396f33ef514610484578063a22cb465146104ad5761013f565b806313ba55df1161010857806313ba55df1461025457806318160ddd146102915780631b023947146102bc5780632eb2c2d6146102f9578063481c6a75146103225780634e1273f41461034d5761013f565b8062fdd58e1461014457806301ffc9a71461018157806308dc9f42146101be5780630b885ac3146101ee5780630e89341c14610217575b600080fd5b34801561015057600080fd5b5061016b6004803603810190610166919061380d565b61061e565b604051610178919061385c565b60405180910390f35b34801561018d57600080fd5b506101a860048036038101906101a391906138cf565b610632565b6040516101b59190613917565b60405180910390f35b6101d860048036038101906101d39190613a78565b610655565b6040516101e59190613917565b60405180910390f35b3480156101fa57600080fd5b5061021560048036038101906102109190613b88565b610aa5565b005b34801561022357600080fd5b5061023e60048036038101906102399190613c1f565b610d09565b60405161024b9190613cd4565b60405180910390f35b34801561026057600080fd5b5061027b60048036038101906102769190613c1f565b610e2c565b604051610288919061385c565b60405180910390f35b34801561029d57600080fd5b506102a6610e59565b6040516102b3919061385c565b60405180910390f35b3480156102c857600080fd5b506102e360048036038101906102de9190613cf6565b610e73565b6040516102f0919061385c565b60405180910390f35b34801561030557600080fd5b50610320600480360381019061031b9190613deb565b610ecc565b005b34801561032e57600080fd5b50610337610f60565b6040516103449190613ec9565b60405180910390f35b34801561035957600080fd5b50610374600480360381019061036f9190613fa7565b610f93565b60405161038191906140dd565b60405180910390f35b34801561039657600080fd5b506103b160048036038101906103ac9190613cf6565b611187565b6040516103be9190613917565b60405180910390f35b3480156103d357600080fd5b506103ee60048036038101906103e99190613c1f565b6111ea565b60405161040197969594939291906140ff565b60405180910390f35b34801561041657600080fd5b50610431600480360381019061042c9190613c1f565b6112b8565b60405161043e919061422c565b60405180910390f35b34801561045357600080fd5b5061046e60048036038101906104699190613cf6565b6113c0565b60405161047b91906140dd565b60405180910390f35b34801561049057600080fd5b506104ab60048036038101906104a6919061424e565b6114c6565b005b3480156104b957600080fd5b506104d460048036038101906104cf91906142cd565b611762565b005b3480156104e257600080fd5b506104fd60048036038101906104f8919061430d565b6118d6565b60405161050a919061385c565b60405180910390f35b34801561051f57600080fd5b50610528611990565b6040516105359190613ec9565b60405180910390f35b34801561054a57600080fd5b5061056560048036038101906105609190613c1f565b6119c3565b604051610572919061385c565b60405180910390f35b34801561058757600080fd5b506105a2600480360381019061059d919061434d565b6119e9565b6040516105af919061385c565b60405180910390f35b3480156105c457600080fd5b506105df60048036038101906105da9190614427565b611d20565b6040516105ec9190613917565b60405180910390f35b34801561060157600080fd5b5061061c60048036038101906106179190614467565b611dbd565b005b600061062a8383611e51565b905092915050565b600061064e82610640611f23565b611f5090919063ffffffff16565b9050919050565b600080610660611fbb565b9050600061066c611ff7565b600101600087815260200190815260200160002090508481600601548260030154610697919061452d565b10156106d8576040517f08c379a00000000000000000000000000000000000000000000000000000000081526004016106cf906145ad565b60405180910390fd5b8060000154421180156106ef575080600101544211155b61072e576040517f08c379a000000000000000000000000000000000000000000000000000000000815260040161072590614619565b60405180910390fd5b84816002015461073e9190614639565b341461077f576040517f08c379a0000000000000000000000000000000000000000000000000000000008152600401610776906146df565b60405180910390fd5b60006107ca8260070160008573ffffffffffffffffffffffffffffffffffffffff1673ffffffffffffffffffffffffffffffffffffffff168152602001908152602001600020612024565b90506000878785846040516020016107e59493929190614768565b60405160208183030381529060405290506000610800612032565b9050600061082688610818858051906020012061205f565b61208f90919063ffffffff16565b90508160000160009054906101000a900473ffffffffffffffffffffffffffffffffffffffff1673ffffffffffffffffffffffffffffffffffffffff168173ffffffffffffffffffffffffffffffffffffffff16146108ba576040517f08c379a00000000000000000000000000000000000000000000000000000000081526004016108b190614802565b60405180910390fd5b888560060160008282546108ce9190614822565b9250508190555061091e8560070160008873ffffffffffffffffffffffffffffffffffffffff1673ffffffffffffffffffffffffffffffffffffffff1681526020019081526020016000206120b6565b610939868b8b604051806020016040528060008152506120cc565b600085600201541115610a4f576000606486600401543461095a9190614639565b61096491906148a7565b905060008134610974919061452d565b90508660050160009054906101000a900473ffffffffffffffffffffffffffffffffffffffff1673ffffffffffffffffffffffffffffffffffffffff166108fc829081150290604051600060405180830381858888f193505050501580156109e0573d6000803e3d6000fd5b508360040160009054906101000a900473ffffffffffffffffffffffffffffffffffffffff1673ffffffffffffffffffffffffffffffffffffffff166108fc839081150290604051600060405180830381858888f19350505050158015610a4b573d6000803e3d6000fd5b5050505b888a8773ffffffffffffffffffffffffffffffffffffffff167f25b428dfde728ccfaddad7e29e4ac23c24ed7fd1a6e3e3f91894a9a073f5dfff60405160405180910390a4600196505050505050509392505050565b3373ffffffffffffffffffffffffffffffffffffffff16610ac46120ed565b60040160009054906101000a900473ffffffffffffffffffffffffffffffffffffffff1673ffffffffffffffffffffffffffffffffffffffff1614610b3e576040517f08c379a0000000000000000000000000000000000000000000000000000000008152600401610b3590614924565b60405180910390fd5b82610b4761211a565b60000160006101000a81548173ffffffffffffffffffffffffffffffffffffffff021916908373ffffffffffffffffffffffffffffffffffffffff1602179055506001610b926120ed565b60030160007fd9b67a26000000000000000000000000000000000000000000000000000000007bffffffffffffffffffffffffffffffffffffffffffffffffffffffff19167bffffffffffffffffffffffffffffffffffffffffffffffffffffffff1916815260200190815260200160002060006101000a81548160ff021916908315150217905550610c2485612147565b83610c2d612032565b60000160006101000a81548173ffffffffffffffffffffffffffffffffffffffff021916908373ffffffffffffffffffffffffffffffffffffffff16021790555081610c77612032565b60010160006101000a81548173ffffffffffffffffffffffffffffffffffffffff021916908373ffffffffffffffffffffffffffffffffffffffff16021790555080610cc1612032565b60040160006101000a81548173ffffffffffffffffffffffffffffffffffffffff021916908373ffffffffffffffffffffffffffffffffffffffff1602179055505050505050565b60606000610d15612163565b60000160008481526020019081526020016000208054610d3490614973565b80601f0160208091040260200160405190810160405280929190818152602001828054610d6090614973565b8015610dad5780601f10610d8257610100808354040283529160200191610dad565b820191906000526020600020905b815481529060010190602001808311610d9057829003601f168201915b505050505090506000815103610df8576040517f08c379a0000000000000000000000000000000000000000000000000000000008152600401610def906149f0565b60405180910390fd5b610e00612163565b60010181604051602001610e15929190614ae4565b604051602081830303815290604052915050919050565b6000610e52610e39612190565b60010160008481526020019081526020016000206121bd565b9050919050565b6000610e6e610e66612032565b600201612024565b905090565b6000610ec5610e80612032565b60030160008473ffffffffffffffffffffffffffffffffffffffff1673ffffffffffffffffffffffffffffffffffffffff168152602001908152602001600020612024565b9050919050565b3373ffffffffffffffffffffffffffffffffffffffff168573ffffffffffffffffffffffffffffffffffffffff161480610f0c5750610f0b8533611d20565b5b610f4b576040517f08c379a0000000000000000000000000000000000000000000000000000000008152600401610f4290614b7a565b60405180910390fd5b610f593386868686866121d2565b5050505050565b6000610f6a612032565b60000160009054906101000a900473ffffffffffffffffffffffffffffffffffffffff16905090565b60608151835114610fd9576040517f08c379a0000000000000000000000000000000000000000000000000000000008152600401610fd090614c0c565b60405180910390fd5b6000610fe36121f6565b60000190506000845167ffffffffffffffff8111156110055761100461394d565b5b6040519080825280602002602001820160405280156110335781602001602082028036833780820191505090505b50905060005b855181101561117b57600073ffffffffffffffffffffffffffffffffffffffff1686828151811061106d5761106c614c2c565b5b602002602001015173ffffffffffffffffffffffffffffffffffffffff16036110cb576040517f08c379a00000000000000000000000000000000000000000000000000000000081526004016110c290614ccd565b60405180910390fd5b8260008683815181106110e1576110e0614c2c565b5b60200260200101518152602001908152602001600020600087838151811061110c5761110b614c2c565b5b602002602001015173ffffffffffffffffffffffffffffffffffffffff1673ffffffffffffffffffffffffffffffffffffffff1681526020019081526020016000205482828151811061116257611161614c2c565b5b6020026020010181815250508080600101915050611039565b50809250505092915050565b600061119161211a565b60000160009054906101000a900473ffffffffffffffffffffffffffffffffffffffff1673ffffffffffffffffffffffffffffffffffffffff168273ffffffffffffffffffffffffffffffffffffffff16149050919050565b6000806000806000806000806111fe611ff7565b60010160008a81526020019081526020016000209050600081600301540361125b576040517f08c379a000000000000000000000000000000000000000000000000000000000815260040161125290614d39565b60405180910390fd5b806000015481600101548260020154836003015484600401548560050160009054906101000a900473ffffffffffffffffffffffffffffffffffffffff168660060154975097509750975097509750975050919395979092949650565b606060006112c4612190565b6001016000848152602001908152602001600020905060006112e5826121bd565b67ffffffffffffffff8111156112fe576112fd61394d565b5b60405190808252806020026020018201604052801561132c5781602001602082028036833780820191505090505b50905060005b61133b836121bd565b8110156113b557611355818461222390919063ffffffff16565b82828151811061136857611367614c2c565b5b602002602001019073ffffffffffffffffffffffffffffffffffffffff16908173ffffffffffffffffffffffffffffffffffffffff168152505080806113ad90614d59565b915050611332565b508092505050919050565b606060006113cc612190565b60020160008473ffffffffffffffffffffffffffffffffffffffff1673ffffffffffffffffffffffffffffffffffffffff168152602001908152602001600020905060006114198261223d565b67ffffffffffffffff8111156114325761143161394d565b5b6040519080825280602002602001820160405280156114605781602001602082028036833780820191505090505b50905060005b61146f8361223d565b8110156114bb57611489818461225290919063ffffffff16565b82828151811061149c5761149b614c2c565b5b60200260200101818152505080806114b390614d59565b915050611466565b508092505050919050565b6000600e836114d59190614822565b905060008314806114e65750600183145b80156114fd5750600e8114806114fc5750600f81145b5b61153c576040517f08c379a000000000000000000000000000000000000000000000000000000000815260040161153390614ded565b60405180910390fd5b6000611546611fbb565b905073bf0562b81ef8e52316bdaf6f36948fd8be82fcc873ffffffffffffffffffffffffffffffffffffffff168173ffffffffffffffffffffffffffffffffffffffff16146115ca576040517f08c379a00000000000000000000000000000000000000000000000000000000081526004016115c190614e59565b60405180910390fd5b60006115d4611ff7565b6001016000848152602001908152602001600020905083816006015482600301546115ff919061452d565b1015611640576040517f08c379a0000000000000000000000000000000000000000000000000000000008152600401611637906145ad565b60405180910390fd5b806000015442118015611657575080600101544211155b611696576040517f08c379a000000000000000000000000000000000000000000000000000000000815260040161168d90614619565b60405180910390fd5b838160060160008282546116aa9190614822565b925050819055506116fa8160070160008873ffffffffffffffffffffffffffffffffffffffff1673ffffffffffffffffffffffffffffffffffffffff1681526020019081526020016000206120b6565b611715868486604051806020016040528060008152506120cc565b83838773ffffffffffffffffffffffffffffffffffffffff167f25b428dfde728ccfaddad7e29e4ac23c24ed7fd1a6e3e3f91894a9a073f5dfff60405160405180910390a4505050505050565b8173ffffffffffffffffffffffffffffffffffffffff163373ffffffffffffffffffffffffffffffffffffffff16036117d0576040517f08c379a00000000000000000000000000000000000000000000000000000000081526004016117c790614eeb565b60405180910390fd5b806117d96121f6565b60010160003373ffffffffffffffffffffffffffffffffffffffff1673ffffffffffffffffffffffffffffffffffffffff16815260200190815260200160002060008473ffffffffffffffffffffffffffffffffffffffff1673ffffffffffffffffffffffffffffffffffffffff16815260200190815260200160002060006101000a81548160ff0219169083151502179055508173ffffffffffffffffffffffffffffffffffffffff163373ffffffffffffffffffffffffffffffffffffffff167f17307eab39ab6107e8899845ad3d59bd9653f200f220920489ca2b5937696c31836040516118ca9190613917565b60405180910390a35050565b6000806118e1611ff7565b60010160008581526020019081526020016000209050600081600301540361193e576040517f08c379a000000000000000000000000000000000000000000000000000000000815260040161193590614d39565b60405180910390fd5b6119878160070160008573ffffffffffffffffffffffffffffffffffffffff1673ffffffffffffffffffffffffffffffffffffffff168152602001908152602001600020612024565b91505092915050565b600061199a612032565b60040160009054906101000a900473ffffffffffffffffffffffffffffffffffffffff16905090565b60006119cd612190565b6000016000838152602001908152602001600020549050919050565b60008087876119f8919061452d565b11611a38576040517f08c379a0000000000000000000000000000000000000000000000000000000008152600401611a2f90614f57565b60405180910390fd5b6064831115611a7c576040517f08c379a0000000000000000000000000000000000000000000000000000000008152600401611a7390614fc3565b60405180910390fd5b60008411611abf576040517f08c379a0000000000000000000000000000000000000000000000000000000008152600401611ab69061502f565b60405180910390fd5b6000611ac9612032565b90506000611ad5611fbb565b90506000611ae282610e73565b905060008b8b8b8b8b8b8888604051602001611b0598979695949392919061504f565b60405160208183030381529060405290506000611b3a87611b2c848051906020012061205f565b61208f90919063ffffffff16565b90508460000160009054906101000a900473ffffffffffffffffffffffffffffffffffffffff1673ffffffffffffffffffffffffffffffffffffffff168173ffffffffffffffffffffffffffffffffffffffff1614611bce576040517f08c379a0000000000000000000000000000000000000000000000000000000008152600401611bc590614802565b60405180910390fd5b611bda85600201612024565b9550611be6868e61226c565b611bf2856002016120b6565b611c3b8560030160008673ffffffffffffffffffffffffffffffffffffffff1673ffffffffffffffffffffffffffffffffffffffff1681526020019081526020016000206120b6565b6000611c45611ff7565b600101600088815260200190815260200160002090508c81600001819055508b81600101819055508a8160020181905550898160030181905550888160040181905550848160050160006101000a81548173ffffffffffffffffffffffffffffffffffffffff021916908373ffffffffffffffffffffffffffffffffffffffff160217905550868573ffffffffffffffffffffffffffffffffffffffff167f4011446e11141f68f741bffe55d700b48cbc73fb927148a01c8f4664c3be014260405160405180910390a3505050505050979650505050505050565b6000611d2a6121f6565b60010160008473ffffffffffffffffffffffffffffffffffffffff1673ffffffffffffffffffffffffffffffffffffffff16815260200190815260200160002060008373ffffffffffffffffffffffffffffffffffffffff1673ffffffffffffffffffffffffffffffffffffffff16815260200190815260200160002060009054906101000a900460ff16905092915050565b3373ffffffffffffffffffffffffffffffffffffffff168573ffffffffffffffffffffffffffffffffffffffff161480611dfd5750611dfc8533611d20565b5b611e3c576040517f08c379a0000000000000000000000000000000000000000000000000000000008152600401611e3390614b7a565b60405180910390fd5b611e4a33868686868661229a565b5050505050565b60008073ffffffffffffffffffffffffffffffffffffffff168373ffffffffffffffffffffffffffffffffffffffff1603611ec1576040517f08c379a0000000000000000000000000000000000000000000000000000000008152600401611eb89061514f565b60405180910390fd5b611ec96121f6565b600001600083815260200190815260200160002060008473ffffffffffffffffffffffffffffffffffffffff1673ffffffffffffffffffffffffffffffffffffffff16815260200190815260200160002054905092915050565b6000807f326d0c59a7612f6a9919e2a8ee333c80ba689d8ba2634de89c85cbb04832e70590508091505090565b6000826000016000837bffffffffffffffffffffffffffffffffffffffffffffffffffffffff19167bffffffffffffffffffffffffffffffffffffffffffffffffffffffff1916815260200190815260200160002060009054906101000a900460ff16905092915050565b60006018600036905010158015611fd75750611fd633611187565b5b15611feb57601436033560601c9050611ff3565b339050611ff4565b5b90565b6000807f6862122c88c20d0f389f9211fb45e4a0982f5f74838cd11cfb5e8c8b41fbe65990508091505090565b600081600001549050919050565b6000807f47dc25f21c7793543edaeb1ef19d41726ddbada967ae9a7980b9bd8a45228a5e90508091505090565b60008160405160200161207291906151e6565b604051602081830303815290604052805190602001209050919050565b600080600061209e85856122be565b915091506120ab8161233f565b819250505092915050565b6001816000016000828254019250508190555050565b6120d88484848461250b565b6120e733600086868686612694565b50505050565b6000807fc8fcad8db84d3cc18b4c41d551ea0ee66dd599cde068d998e57d5e09332c131c90508091505090565b6000807fa5e014e253d3b66bd348c3cdd05f38b9805fff0b6471d004b58c6ada26cae99390508091505090565b80612150612163565b600101908161215f91906153a3565b5050565b6000807fb3408a5d8f30170919d3996b6cc182726500ad24733d17ace2f621485f6e7c8390508091505090565b6000807fb31c2c74f86ca3ce94d901f5f5bbe66f7161eec2f7b5aa0b75a86371436424ea90508091505090565b60006121cb8260000161286b565b9050919050565b6121e086868686868661287c565b6121ee868686868686612b87565b505050505050565b6000807f1799cf914cb0cb442ca7c7ac709ee40d0cb89e87351dc08d517fbda27d50c68b90508091505090565b60006122328360000183612d5e565b60001c905092915050565b600061224b8260000161286b565b9050919050565b60006122618360000183612d5e565b60001c905092915050565b80612275612163565b6000016000848152602001908152602001600020908161229591906153a3565b505050565b6122a8868686868686612dd2565b6122b6868686868686612694565b505050505050565b60008060418351036122ff5760008060006020860151925060408601519150606086015160001a90506122f387828585613049565b94509450505050612338565b604083510361232f576000806020850151915060408501519050612324868383613155565b935093505050612338565b60006002915091505b9250929050565b6000600481111561235357612352615475565b5b81600481111561236657612365615475565b5b031561250857600160048111156123805761237f615475565b5b81600481111561239357612392615475565b5b036123d3576040517f08c379a00000000000000000000000000000000000000000000000000000000081526004016123ca906154f0565b60405180910390fd5b600260048111156123e7576123e6615475565b5b8160048111156123fa576123f9615475565b5b0361243a576040517f08c379a00000000000000000000000000000000000000000000000000000000081526004016124319061555c565b60405180910390fd5b6003600481111561244e5761244d615475565b5b81600481111561246157612460615475565b5b036124a1576040517f08c379a0000000000000000000000000000000000000000000000000000000008152600401612498906155ee565b60405180910390fd5b6004808111156124b4576124b3615475565b5b8160048111156124c7576124c6615475565b5b03612507576040517f08c379a00000000000000000000000000000000000000000000000000000000081526004016124fe90615680565b60405180910390fd5b5b50565b600073ffffffffffffffffffffffffffffffffffffffff168473ffffffffffffffffffffffffffffffffffffffff160361257a576040517f08c379a000000000000000000000000000000000000000000000000000000000815260040161257190615712565b60405180910390fd5b6125993360008661258a876131b4565b612593876131b4565b8661322e565b60006125a36121f6565b60000160008581526020019081526020016000209050828160008773ffffffffffffffffffffffffffffffffffffffff1673ffffffffffffffffffffffffffffffffffffffff16815260200190815260200160002060008282546126079190614822565b925050819055508473ffffffffffffffffffffffffffffffffffffffff16600073ffffffffffffffffffffffffffffffffffffffff163373ffffffffffffffffffffffffffffffffffffffff167fc3d58168c5ae7397731d063d5bbf3d657854427343f4c083240f7aacaa2d0f628787604051612685929190615732565b60405180910390a45050505050565b6126b38473ffffffffffffffffffffffffffffffffffffffff16613244565b15612863578373ffffffffffffffffffffffffffffffffffffffff1663f23a6e6187878686866040518663ffffffff1660e01b81526004016126f99594939291906157b0565b6020604051808303816000875af192505050801561273557506040513d601f19601f82011682018060405250810190612732919061581f565b60015b6127da57612741615859565b806308c379a00361279d575061275561587b565b80612760575061279f565b806040517f08c379a00000000000000000000000000000000000000000000000000000000081526004016127949190613cd4565b60405180910390fd5b505b6040517f08c379a00000000000000000000000000000000000000000000000000000000081526004016127d19061597d565b60405180910390fd5b63f23a6e6160e01b7bffffffffffffffffffffffffffffffffffffffffffffffffffffffff1916817bffffffffffffffffffffffffffffffffffffffffffffffffffffffff191614612861576040517f08c379a000000000000000000000000000000000000000000000000000000000815260040161285890615a0f565b60405180910390fd5b505b505050505050565b600081600001805490509050919050565b600073ffffffffffffffffffffffffffffffffffffffff168473ffffffffffffffffffffffffffffffffffffffff16036128eb576040517f08c379a00000000000000000000000000000000000000000000000000000000081526004016128e290615aa1565b60405180910390fd5b815183511461292f576040517f08c379a000000000000000000000000000000000000000000000000000000000815260040161292690615b33565b60405180910390fd5b61293d86868686868661322e565b60006129476121f6565b600001905060005b8451811015612aff57600085828151811061296d5761296c614c2c565b5b60200260200101519050600085838151811061298c5761298b614c2c565b5b60200260200101519050600084600084815260200190815260200160002060008b73ffffffffffffffffffffffffffffffffffffffff1673ffffffffffffffffffffffffffffffffffffffff16815260200190815260200160002054905081811015612a2d576040517f08c379a0000000000000000000000000000000000000000000000000000000008152600401612a2490615bc5565b60405180910390fd5b81810385600085815260200190815260200160002060008c73ffffffffffffffffffffffffffffffffffffffff1673ffffffffffffffffffffffffffffffffffffffff16815260200190815260200160002081905550508084600084815260200190815260200160002060008a73ffffffffffffffffffffffffffffffffffffffff1673ffffffffffffffffffffffffffffffffffffffff1681526020019081526020016000206000828254612ae39190614822565b9250508190555050508080612af790614d59565b91505061294f565b508473ffffffffffffffffffffffffffffffffffffffff168673ffffffffffffffffffffffffffffffffffffffff168873ffffffffffffffffffffffffffffffffffffffff167f4a39dc06d4c0dbc64b70af90fd698a233a518aa5d07e595d983b8c0526c8f7fb8787604051612b76929190615be5565b60405180910390a450505050505050565b612ba68473ffffffffffffffffffffffffffffffffffffffff16613244565b15612d56578373ffffffffffffffffffffffffffffffffffffffff1663bc197c8187878686866040518663ffffffff1660e01b8152600401612bec959493929190615c1c565b6020604051808303816000875af1925050508015612c2857506040513d601f19601f82011682018060405250810190612c25919061581f565b60015b612ccd57612c34615859565b806308c379a003612c905750612c4861587b565b80612c535750612c92565b806040517f08c379a0000000000000000000000000000000000000000000000000000000008152600401612c879190613cd4565b60405180910390fd5b505b6040517f08c379a0000000000000000000000000000000000000000000000000000000008152600401612cc49061597d565b60405180910390fd5b63bc197c8160e01b7bffffffffffffffffffffffffffffffffffffffffffffffffffffffff1916817bffffffffffffffffffffffffffffffffffffffffffffffffffffffff191614612d54576040517f08c379a0000000000000000000000000000000000000000000000000000000008152600401612d4b90615a0f565b60405180910390fd5b505b505050505050565b600081836000018054905011612da9576040517f08c379a0000000000000000000000000000000000000000000000000000000008152600401612da090615cf6565b60405180910390fd5b826000018281548110612dbf57612dbe614c2c565b5b9060005260206000200154905092915050565b600073ffffffffffffffffffffffffffffffffffffffff168473ffffffffffffffffffffffffffffffffffffffff1603612e41576040517f08c379a0000000000000000000000000000000000000000000000000000000008152600401612e3890615aa1565b60405180910390fd5b612e5f868686612e50876131b4565b612e59876131b4565b8661322e565b6000612e696121f6565b6000019050600081600086815260200190815260200160002060008873ffffffffffffffffffffffffffffffffffffffff1673ffffffffffffffffffffffffffffffffffffffff16815260200190815260200160002054905083811015612f05576040517f08c379a0000000000000000000000000000000000000000000000000000000008152600401612efc90615bc5565b60405180910390fd5b83810382600087815260200190815260200160002060008973ffffffffffffffffffffffffffffffffffffffff1673ffffffffffffffffffffffffffffffffffffffff16815260200190815260200160002081905550508281600086815260200190815260200160002060008773ffffffffffffffffffffffffffffffffffffffff1673ffffffffffffffffffffffffffffffffffffffff1681526020019081526020016000206000828254612fbb9190614822565b925050819055508473ffffffffffffffffffffffffffffffffffffffff168673ffffffffffffffffffffffffffffffffffffffff168873ffffffffffffffffffffffffffffffffffffffff167fc3d58168c5ae7397731d063d5bbf3d657854427343f4c083240f7aacaa2d0f628787604051613038929190615732565b60405180910390a450505050505050565b6000807f7fffffffffffffffffffffffffffffff5d576e7357a4501ddfe92f46681b20a08360001c111561308457600060039150915061314c565b601b8560ff161415801561309c5750601c8560ff1614155b156130ae57600060049150915061314c565b6000600187878787604051600081526020016040526040516130d39493929190615d41565b6020604051602081039080840390855afa1580156130f5573d6000803e3d6000fd5b505050602060405103519050600073ffffffffffffffffffffffffffffffffffffffff168173ffffffffffffffffffffffffffffffffffffffff16036131435760006001925092505061314c565b80600092509250505b94509492505050565b60008060007f7fffffffffffffffffffffffffffffffffffffffffffffffffffffffffffffff60001b841690506000601b60ff8660001c901c6131989190614822565b90506131a687828885613049565b935093505050935093915050565b60606000600167ffffffffffffffff8111156131d3576131d261394d565b5b6040519080825280602002602001820160405280156132015781602001602082028036833780820191505090505b509050828160008151811061321957613218614c2c565b5b60200260200101818152505080915050919050565b61323c868686868686613257565b505050505050565b600080823b905060008111915050919050565b61326586868686868661326d565b505050505050565b61327b868686868686613524565b8373ffffffffffffffffffffffffffffffffffffffff168573ffffffffffffffffffffffffffffffffffffffff161461351c5760006132b8612190565b9050600081600101905060008260020160008973ffffffffffffffffffffffffffffffffffffffff1673ffffffffffffffffffffffffffffffffffffffff168152602001908152602001600020905060008360020160008973ffffffffffffffffffffffffffffffffffffffff1673ffffffffffffffffffffffffffffffffffffffff168152602001908152602001600020905060005b875181101561351657600087828151811061336d5761336c614c2c565b5b60200260200101519050600081111561350257600089838151811061339557613394614c2c565b5b60200260200101519050600073ffffffffffffffffffffffffffffffffffffffff168c73ffffffffffffffffffffffffffffffffffffffff1603613404578187600001600083815260200190815260200160002060008282546133f89190614822565b9250508190555061344f565b8161340f8d83611e51565b0361344e576134388c87600084815260200190815260200160002061352c90919063ffffffff16565b5061344c818661355c90919063ffffffff16565b505b5b600073ffffffffffffffffffffffffffffffffffffffff168b73ffffffffffffffffffffffffffffffffffffffff16036134b4578187600001600083815260200190815260200160002060008282546134a8919061452d565b92505081905550613500565b60006134c08c83611e51565b036134ff576134e98b87600084815260200190815260200160002061357690919063ffffffff16565b506134fd81856135a690919063ffffffff16565b505b5b505b50808061350e90614d59565b91505061334f565b50505050505b505050505050565b505050505050565b6000613554836000018373ffffffffffffffffffffffffffffffffffffffff1660001b6135c0565b905092915050565b600061356e836000018360001b6135c0565b905092915050565b600061359e836000018373ffffffffffffffffffffffffffffffffffffffff1660001b6136d2565b905092915050565b60006135b8836000018360001b6136d2565b905092915050565b600080836001016000848152602001908152602001600020549050600081146136c65760006001826135f2919061452d565b90506000856000016001876000018054905061360e919061452d565b8154811061361f5761361e614c2c565b5b906000526020600020015490508086600001838154811061364357613642614c2c565b5b906000526020600020018190555060018261365e9190614822565b866001016000838152602001908152602001600020819055508560000180548061368b5761368a615d86565b5b6001900381819060005260206000200160009055905585600101600086815260200190815260200160002060009055600193505050506136cc565b60009150505b92915050565b60006136de8383613742565b61373757826000018290806001815401808255809150506001900390600052602060002001600090919091909150558260000180549050836001016000848152602001908152602001600020819055506001905061373c565b600090505b92915050565b600080836001016000848152602001908152602001600020541415905092915050565b6000604051905090565b600080fd5b600080fd5b600073ffffffffffffffffffffffffffffffffffffffff82169050919050565b60006137a482613779565b9050919050565b6137b481613799565b81146137bf57600080fd5b50565b6000813590506137d1816137ab565b92915050565b6000819050919050565b6137ea816137d7565b81146137f557600080fd5b50565b600081359050613807816137e1565b92915050565b600080604083850312156138245761382361376f565b5b6000613832858286016137c2565b9250506020613843858286016137f8565b9150509250929050565b613856816137d7565b82525050565b6000602082019050613871600083018461384d565b92915050565b60007fffffffff0000000000000000000000000000000000000000000000000000000082169050919050565b6138ac81613877565b81146138b757600080fd5b50565b6000813590506138c9816138a3565b92915050565b6000602082840312156138e5576138e461376f565b5b60006138f3848285016138ba565b91505092915050565b60008115159050919050565b613911816138fc565b82525050565b600060208201905061392c6000830184613908565b92915050565b600080fd5b600080fd5b6000601f19601f8301169050919050565b7f4e487b7100000000000000000000000000000000000000000000000000000000600052604160045260246000fd5b6139858261393c565b810181811067ffffffffffffffff821117156139a4576139a361394d565b5b80604052505050565b60006139b7613765565b90506139c3828261397c565b919050565b600067ffffffffffffffff8211156139e3576139e261394d565b5b6139ec8261393c565b9050602081019050919050565b82818337600083830152505050565b6000613a1b613a16846139c8565b6139ad565b905082815260208101848484011115613a3757613a36613937565b5b613a428482856139f9565b509392505050565b600082601f830112613a5f57613a5e613932565b5b8135613a6f848260208601613a08565b91505092915050565b600080600060608486031215613a9157613a9061376f565b5b6000613a9f868287016137f8565b9350506020613ab0868287016137f8565b925050604084013567ffffffffffffffff811115613ad157613ad0613774565b5b613add86828701613a4a565b9150509250925092565b600067ffffffffffffffff821115613b0257613b0161394d565b5b613b0b8261393c565b9050602081019050919050565b6000613b2b613b2684613ae7565b6139ad565b905082815260208101848484011115613b4757613b46613937565b5b613b528482856139f9565b509392505050565b600082601f830112613b6f57613b6e613932565b5b8135613b7f848260208601613b18565b91505092915050565b600080600080600060a08688031215613ba457613ba361376f565b5b600086013567ffffffffffffffff811115613bc257613bc1613774565b5b613bce88828901613b5a565b9550506020613bdf888289016137c2565b9450506040613bf0888289016137c2565b9350506060613c01888289016137c2565b9250506080613c12888289016137c2565b9150509295509295909350565b600060208284031215613c3557613c3461376f565b5b6000613c43848285016137f8565b91505092915050565b600081519050919050565b600082825260208201905092915050565b60005b83811015613c86578082015181840152602081019050613c6b565b83811115613c95576000848401525b50505050565b6000613ca682613c4c565b613cb08185613c57565b9350613cc0818560208601613c68565b613cc98161393c565b840191505092915050565b60006020820190508181036000830152613cee8184613c9b565b905092915050565b600060208284031215613d0c57613d0b61376f565b5b6000613d1a848285016137c2565b91505092915050565b600067ffffffffffffffff821115613d3e57613d3d61394d565b5b602082029050602081019050919050565b600080fd5b6000613d67613d6284613d23565b6139ad565b90508083825260208201905060208402830185811115613d8a57613d89613d4f565b5b835b81811015613db35780613d9f88826137f8565b845260208401935050602081019050613d8c565b5050509392505050565b600082601f830112613dd257613dd1613932565b5b8135613de2848260208601613d54565b91505092915050565b600080600080600060a08688031215613e0757613e0661376f565b5b6000613e15888289016137c2565b9550506020613e26888289016137c2565b945050604086013567ffffffffffffffff811115613e4757613e46613774565b5b613e5388828901613dbd565b935050606086013567ffffffffffffffff811115613e7457613e73613774565b5b613e8088828901613dbd565b925050608086013567ffffffffffffffff811115613ea157613ea0613774565b5b613ead88828901613a4a565b9150509295509295909350565b613ec381613799565b82525050565b6000602082019050613ede6000830184613eba565b92915050565b600067ffffffffffffffff821115613eff57613efe61394d565b5b602082029050602081019050919050565b6000613f23613f1e84613ee4565b6139ad565b90508083825260208201905060208402830185811115613f4657613f45613d4f565b5b835b81811015613f6f5780613f5b88826137c2565b845260208401935050602081019050613f48565b5050509392505050565b600082601f830112613f8e57613f8d613932565b5b8135613f9e848260208601613f10565b91505092915050565b60008060408385031215613fbe57613fbd61376f565b5b600083013567ffffffffffffffff811115613fdc57613fdb613774565b5b613fe885828601613f79565b925050602083013567ffffffffffffffff81111561400957614008613774565b5b61401585828601613dbd565b9150509250929050565b600081519050919050565b600082825260208201905092915050565b6000819050602082019050919050565b614054816137d7565b82525050565b6000614066838361404b565b60208301905092915050565b6000602082019050919050565b600061408a8261401f565b614094818561402a565b935061409f8361403b565b8060005b838110156140d05781516140b7888261405a565b97506140c283614072565b9250506001810190506140a3565b5085935050505092915050565b600060208201905081810360008301526140f7818461407f565b905092915050565b600060e082019050614114600083018a61384d565b614121602083018961384d565b61412e604083018861384d565b61413b606083018761384d565b614148608083018661384d565b61415560a0830185613eba565b61416260c083018461384d565b98975050505050505050565b600081519050919050565b600082825260208201905092915050565b6000819050602082019050919050565b6141a381613799565b82525050565b60006141b5838361419a565b60208301905092915050565b6000602082019050919050565b60006141d98261416e565b6141e38185614179565b93506141ee8361418a565b8060005b8381101561421f57815161420688826141a9565b9750614211836141c1565b9250506001810190506141f2565b5085935050505092915050565b6000602082019050818103600083015261424681846141ce565b905092915050565b6000806000606084860312156142675761426661376f565b5b6000614275868287016137c2565b9350506020614286868287016137f8565b9250506040614297868287016137f8565b9150509250925092565b6142aa816138fc565b81146142b557600080fd5b50565b6000813590506142c7816142a1565b92915050565b600080604083850312156142e4576142e361376f565b5b60006142f2858286016137c2565b9250506020614303858286016142b8565b9150509250929050565b600080604083850312156143245761432361376f565b5b6000614332858286016137f8565b9250506020614343858286016137c2565b9150509250929050565b600080600080600080600060e0888a03121561436c5761436b61376f565b5b600088013567ffffffffffffffff81111561438a57614389613774565b5b6143968a828b01613b5a565b97505060206143a78a828b016137f8565b96505060406143b88a828b016137f8565b95505060606143c98a828b016137f8565b94505060806143da8a828b016137f8565b93505060a06143eb8a828b016137f8565b92505060c088013567ffffffffffffffff81111561440c5761440b613774565b5b6144188a828b01613a4a565b91505092959891949750929550565b6000806040838503121561443e5761443d61376f565b5b600061444c858286016137c2565b925050602061445d858286016137c2565b9150509250929050565b600080600080600060a086880312156144835761448261376f565b5b6000614491888289016137c2565b95505060206144a2888289016137c2565b94505060406144b3888289016137f8565b93505060606144c4888289016137f8565b925050608086013567ffffffffffffffff8111156144e5576144e4613774565b5b6144f188828901613a4a565b9150509295509295909350565b7f4e487b7100000000000000000000000000000000000000000000000000000000600052601160045260246000fd5b6000614538826137d7565b9150614543836137d7565b925082821015614556576145556144fe565b5b828203905092915050565b7f4352000000000000000000000000000000000000000000000000000000000000600082015250565b6000614597600283613c57565b91506145a282614561565b602082019050919050565b600060208201905081810360008301526145c68161458a565b9050919050565b7f4f4f540000000000000000000000000000000000000000000000000000000000600082015250565b6000614603600383613c57565b915061460e826145cd565b602082019050919050565b60006020820190508181036000830152614632816145f6565b9050919050565b6000614644826137d7565b915061464f836137d7565b9250817fffffffffffffffffffffffffffffffffffffffffffffffffffffffffffffffff0483118215151615614688576146876144fe565b5b828202905092915050565b7f4941000000000000000000000000000000000000000000000000000000000000600082015250565b60006146c9600283613c57565b91506146d482614693565b602082019050919050565b600060208201905081810360008301526146f8816146bc565b9050919050565b6000819050919050565b61471a614715826137d7565b6146ff565b82525050565b60008160601b9050919050565b600061473882614720565b9050919050565b600061474a8261472d565b9050919050565b61476261475d82613799565b61473f565b82525050565b60006147748287614709565b6020820191506147848286614709565b6020820191506147948285614751565b6014820191506147a48284614709565b60208201915081905095945050505050565b7f4e4d000000000000000000000000000000000000000000000000000000000000600082015250565b60006147ec600283613c57565b91506147f7826147b6565b602082019050919050565b6000602082019050818103600083015261481b816147df565b9050919050565b600061482d826137d7565b9150614838836137d7565b9250827fffffffffffffffffffffffffffffffffffffffffffffffffffffffffffffffff0382111561486d5761486c6144fe565b5b828201905092915050565b7f4e487b7100000000000000000000000000000000000000000000000000000000600052601260045260246000fd5b60006148b2826137d7565b91506148bd836137d7565b9250826148cd576148cc614878565b5b828204905092915050565b7f4e4f000000000000000000000000000000000000000000000000000000000000600082015250565b600061490e600283613c57565b9150614919826148d8565b602082019050919050565b6000602082019050818103600083015261493d81614901565b9050919050565b7f4e487b7100000000000000000000000000000000000000000000000000000000600052602260045260246000fd5b6000600282049050600182168061498b57607f821691505b60208210810361499e5761499d614944565b5b50919050565b7f455243313135355552493a20746f6b656e4964206e6f74206578697374000000600082015250565b60006149da601d83613c57565b91506149e5826149a4565b602082019050919050565b60006020820190508181036000830152614a09816149cd565b9050919050565b600081905092915050565b60008190508160005260206000209050919050565b60008154614a3d81614973565b614a478186614a10565b94506001821660008114614a625760018114614a7757614aaa565b60ff1983168652811515820286019350614aaa565b614a8085614a1b565b60005b83811015614aa257815481890152600182019150602081019050614a83565b838801955050505b50505092915050565b6000614abe82613c4c565b614ac88185614a10565b9350614ad8818560208601613c68565b80840191505092915050565b6000614af08285614a30565b9150614afc8284614ab3565b91508190509392505050565b7f455243313135353a2063616c6c6572206973206e6f74206f776e6572206e6f7260008201527f20617070726f7665640000000000000000000000000000000000000000000000602082015250565b6000614b64602983613c57565b9150614b6f82614b08565b604082019050919050565b60006020820190508181036000830152614b9381614b57565b9050919050565b7f455243313135353a206163636f756e747320616e6420696473206c656e67746860008201527f206d69736d617463680000000000000000000000000000000000000000000000602082015250565b6000614bf6602983613c57565b9150614c0182614b9a565b604082019050919050565b60006020820190508181036000830152614c2581614be9565b9050919050565b7f4e487b7100000000000000000000000000000000000000000000000000000000600052603260045260246000fd5b7f455243313135353a2062617463682062616c616e636520717565727920666f7260008201527f20746865207a65726f2061646472657373000000000000000000000000000000602082015250565b6000614cb7603183613c57565b9150614cc282614c5b565b604082019050919050565b60006020820190508181036000830152614ce681614caa565b9050919050565b7f444e450000000000000000000000000000000000000000000000000000000000600082015250565b6000614d23600383613c57565b9150614d2e82614ced565b602082019050919050565b60006020820190508181036000830152614d5281614d16565b9050919050565b6000614d64826137d7565b91507fffffffffffffffffffffffffffffffffffffffffffffffffffffffffffffffff8203614d9657614d956144fe565b5b600182019050919050565b7f4e54000000000000000000000000000000000000000000000000000000000000600082015250565b6000614dd7600283613c57565b9150614de282614da1565b602082019050919050565b60006020820190508181036000830152614e0681614dca565b9050919050565b7f4e53000000000000000000000000000000000000000000000000000000000000600082015250565b6000614e43600283613c57565b9150614e4e82614e0d565b602082019050919050565b60006020820190508181036000830152614e7281614e36565b9050919050565b7f455243313135353a2073657474696e6720617070726f76616c2073746174757360008201527f20666f722073656c660000000000000000000000000000000000000000000000602082015250565b6000614ed5602983613c57565b9150614ee082614e79565b604082019050919050565b60006020820190508181036000830152614f0481614ec8565b9050919050565b7f4954000000000000000000000000000000000000000000000000000000000000600082015250565b6000614f41600283613c57565b9150614f4c82614f0b565b602082019050919050565b60006020820190508181036000830152614f7081614f34565b9050919050565b7f49534f0000000000000000000000000000000000000000000000000000000000600082015250565b6000614fad600383613c57565b9150614fb882614f77565b602082019050919050565b60006020820190508181036000830152614fdc81614fa0565b9050919050565b7f4941430000000000000000000000000000000000000000000000000000000000600082015250565b6000615019600383613c57565b915061502482614fe3565b602082019050919050565b600060208201905081810360008301526150488161500c565b9050919050565b600061505b828b614ab3565b9150615067828a614709565b6020820191506150778289614709565b6020820191506150878288614709565b6020820191506150978287614709565b6020820191506150a78286614709565b6020820191506150b78285614751565b6014820191506150c78284614709565b6020820191508190509998505050505050505050565b7f455243313135353a2062616c616e636520717565727920666f7220746865207a60008201527f65726f2061646472657373000000000000000000000000000000000000000000602082015250565b6000615139602b83613c57565b9150615144826150dd565b604082019050919050565b600060208201905081810360008301526151688161512c565b9050919050565b7f19457468657265756d205369676e6564204d6573736167653a0a333200000000600082015250565b60006151a5601c83614a10565b91506151b08261516f565b601c82019050919050565b6000819050919050565b6000819050919050565b6151e06151db826151bb565b6151c5565b82525050565b60006151f182615198565b91506151fd82846151cf565b60208201915081905092915050565b60006020601f8301049050919050565b600082821b905092915050565b6000600883026152597fffffffffffffffffffffffffffffffffffffffffffffffffffffffffffffffff8261521c565b615263868361521c565b95508019841693508086168417925050509392505050565b6000819050919050565b60006152a061529b615296846137d7565b61527b565b6137d7565b9050919050565b6000819050919050565b6152ba83615285565b6152ce6152c6826152a7565b848454615229565b825550505050565b600090565b6152e36152d6565b6152ee8184846152b1565b505050565b5b81811015615312576153076000826152db565b6001810190506152f4565b5050565b601f8211156153575761532881614a1b565b6153318461520c565b81016020851015615340578190505b61535461534c8561520c565b8301826152f3565b50505b505050565b600082821c905092915050565b600061537a6000198460080261535c565b1980831691505092915050565b60006153938383615369565b9150826002028217905092915050565b6153ac82613c4c565b67ffffffffffffffff8111156153c5576153c461394d565b5b6153cf8254614973565b6153da828285615316565b600060209050601f83116001811461540d57600084156153fb578287015190505b6154058582615387565b86555061546d565b601f19841661541b86614a1b565b60005b828110156154435784890151825560018201915060208501945060208101905061541e565b86831015615460578489015161545c601f891682615369565b8355505b6001600288020188555050505b505050505050565b7f4e487b7100000000000000000000000000000000000000000000000000000000600052602160045260246000fd5b7f45434453413a20696e76616c6964207369676e61747572650000000000000000600082015250565b60006154da601883613c57565b91506154e5826154a4565b602082019050919050565b60006020820190508181036000830152615509816154cd565b9050919050565b7f45434453413a20696e76616c6964207369676e6174757265206c656e67746800600082015250565b6000615546601f83613c57565b915061555182615510565b602082019050919050565b6000602082019050818103600083015261557581615539565b9050919050565b7f45434453413a20696e76616c6964207369676e6174757265202773272076616c60008201527f7565000000000000000000000000000000000000000000000000000000000000602082015250565b60006155d8602283613c57565b91506155e38261557c565b604082019050919050565b60006020820190508181036000830152615607816155cb565b9050919050565b7f45434453413a20696e76616c6964207369676e6174757265202776272076616c60008201527f7565000000000000000000000000000000000000000000000000000000000000602082015250565b600061566a602283613c57565b91506156758261560e565b604082019050919050565b600060208201905081810360008301526156998161565d565b9050919050565b7f455243313135353a206d696e7420746f20746865207a65726f2061646472657360008201527f7300000000000000000000000000000000000000000000000000000000000000602082015250565b60006156fc602183613c57565b9150615707826156a0565b604082019050919050565b6000602082019050818103600083015261572b816156ef565b9050919050565b6000604082019050615747600083018561384d565b615754602083018461384d565b9392505050565b600081519050919050565b600082825260208201905092915050565b60006157828261575b565b61578c8185615766565b935061579c818560208601613c68565b6157a58161393c565b840191505092915050565b600060a0820190506157c56000830188613eba565b6157d26020830187613eba565b6157df604083018661384d565b6157ec606083018561384d565b81810360808301526157fe8184615777565b90509695505050505050565b600081519050615819816138a3565b92915050565b6000602082840312156158355761583461376f565b5b60006158438482850161580a565b91505092915050565b60008160e01c9050919050565b600060033d11156158785760046000803e61587560005161584c565b90505b90565b600060443d106159085761588d613765565b60043d036004823e80513d602482011167ffffffffffffffff821117156158b5575050615908565b808201805167ffffffffffffffff8111156158d35750505050615908565b80602083010160043d0385018111156158f0575050505050615908565b6158ff8260200185018661397c565b82955050505050505b90565b7f455243313135353a207472616e7366657220746f206e6f6e204552433131353560008201527f526563656976657220696d706c656d656e746572000000000000000000000000602082015250565b6000615967603483613c57565b91506159728261590b565b604082019050919050565b600060208201905081810360008301526159968161595a565b9050919050565b7f455243313135353a204552433131353552656365697665722072656a6563746560008201527f6420746f6b656e73000000000000000000000000000000000000000000000000602082015250565b60006159f9602883613c57565b9150615a048261599d565b604082019050919050565b60006020820190508181036000830152615a28816159ec565b9050919050565b7f455243313135353a207472616e7366657220746f20746865207a65726f20616460008201527f6472657373000000000000000000000000000000000000000000000000000000602082015250565b6000615a8b602583613c57565b9150615a9682615a2f565b604082019050919050565b60006020820190508181036000830152615aba81615a7e565b9050919050565b7f455243313135353a2069647320616e6420616d6f756e7473206c656e6774682060008201527f6d69736d61746368000000000000000000000000000000000000000000000000602082015250565b6000615b1d602883613c57565b9150615b2882615ac1565b604082019050919050565b60006020820190508181036000830152615b4c81615b10565b9050919050565b7f455243313135353a20696e73756666696369656e742062616c616e636573206660008201527f6f72207472616e73666572000000000000000000000000000000000000000000602082015250565b6000615baf602b83613c57565b9150615bba82615b53565b604082019050919050565b60006020820190508181036000830152615bde81615ba2565b9050919050565b60006040820190508181036000830152615bff818561407f565b90508181036020830152615c13818461407f565b90509392505050565b600060a082019050615c316000830188613eba565b615c3e6020830187613eba565b8181036040830152615c50818661407f565b90508181036060830152615c64818561407f565b90508181036080830152615c788184615777565b90509695505050505050565b7f456e756d657261626c655365743a20696e646578206f7574206f6620626f756e60008201527f6473000000000000000000000000000000000000000000000000000000000000602082015250565b6000615ce0602283613c57565b9150615ceb82615c84565b604082019050919050565b60006020820190508181036000830152615d0f81615cd3565b9050919050565b615d1f816151bb565b82525050565b600060ff82169050919050565b615d3b81615d25565b82525050565b6000608082019050615d566000830187615d16565b615d636020830186615d32565b615d706040830185615d16565b615d7d6060830184615d16565b95945050505050565b7f4e487b7100000000000000000000000000000000000000000000000000000000600052603160045260246000fdfea26469706673582212204651932fa3339a75db262fe9128bf7d726aa41d59efbb89e6fbad1070600150764736f6c634300080f0033",
  "devdoc": {
    "kind": "dev",
    "methods": {
      "accountsByToken(uint256)": {
        "params": {
          "id": "token id to query"
        },
        "returns": {
          "_0": "list of holder addresses"
        }
      },
      "balanceOf(address,uint256)": {
        "params": {
          "account": "address to query",
          "id": "token to query"
        },
        "returns": {
          "_0": "token balance"
        }
      },
      "balanceOfBatch(address[],uint256[])": {
        "params": {
          "accounts": "addresss to query",
          "ids": "tokens to query"
        },
        "returns": {
          "_0": "token balances"
        }
      },
      "isApprovedForAll(address,address)": {
        "params": {
          "account": "address to query for approval granted",
          "operator": "address to query for approval received"
        },
        "returns": {
          "_0": "whether operator is approved to spend tokens held by account"
        }
      },
      "safeBatchTransferFrom(address,address,uint256[],uint256[],bytes)": {
        "params": {
          "amounts": "list of quantities of tokens to transfer",
          "data": "data payload",
          "from": "sender of tokens",
          "ids": "list of token IDs",
          "to": "receiver of tokens"
        }
      },
      "safeTransferFrom(address,address,uint256,uint256,bytes)": {
        "params": {
          "amount": "quantity of tokens to transfer",
          "data": "data payload",
          "from": "sender of tokens",
          "id": "token ID",
          "to": "receiver of tokens"
        }
      },
      "setApprovalForAll(address,bool)": {
        "params": {
          "operator": "address whose approval status to update",
          "status": "whether operator should be considered approved"
        }
      },
      "supportsInterface(bytes4)": {
        "params": {
          "interfaceId": "interface id"
        },
        "returns": {
          "_0": "bool whether interface is supported"
        }
      },
      "tokensByAccount(address)": {
        "params": {
          "account": "address to query"
        },
        "returns": {
          "_0": "list of token ids"
        }
      },
      "totalHolders(uint256)": {
        "params": {
          "id": "token id to query"
        },
        "returns": {
          "_0": "quantity of holders"
        }
      },
      "totalSupply(uint256)": {
        "params": {
          "id": "token id to query"
        },
        "returns": {
          "_0": "token supply"
        }
      }
    },
    "version": 1
  },
  "userdoc": {
    "kind": "user",
    "methods": {
      "accountsByToken(uint256)": {
        "notice": "query holders of given token"
      },
      "balanceOf(address,uint256)": {
        "notice": "query the balance of given token held by given address"
      },
      "balanceOfBatch(address[],uint256[])": {
        "notice": "query the balances of given tokens held by given addresses"
      },
      "isApprovedForAll(address,address)": {
        "notice": "query approval status of given operator with respect to given address"
      },
      "safeBatchTransferFrom(address,address,uint256[],uint256[],bytes)": {
        "notice": "transfer batch of tokens between given addresses, checking for ERC1155Receiver implementation if applicable"
      },
      "safeTransferFrom(address,address,uint256,uint256,bytes)": {
        "notice": "transfer tokens between given addresses, checking for ERC1155Receiver implementation if applicable"
      },
      "setApprovalForAll(address,bool)": {
        "notice": "grant approval to or revoke approval from given operator to spend held tokens"
      },
      "supportsInterface(bytes4)": {
        "notice": "query whether contract has registered support for given interface"
      },
      "tokensByAccount(address)": {
        "notice": "query tokens held by given address"
      },
      "totalHolders(uint256)": {
        "notice": "query total number of holders for given token"
      },
      "totalSupply(uint256)": {
        "notice": "query total minted supply of given token"
      }
    },
    "version": 1
  },
  "storageLayout": {
    "storage": [],
    "types": null
  }
}