{
  "address": "0xc6B6EB8E73B402942F0129AdD75EAe38D3c57031",
  "abi": [
    {
      "anonymous": false,
      "inputs": [
        {
          "indexed": true,
          "internalType": "address",
          "name": "account",
          "type": "address"
        },
        {
          "indexed": true,
          "internalType": "address",
          "name": "operator",
          "type": "address"
        },
        {
          "indexed": false,
          "internalType": "bool",
          "name": "approved",
          "type": "bool"
        }
      ],
      "name": "ApprovalForAll",
      "type": "event"
    },
    {
      "anonymous": false,
      "inputs": [
        {
          "indexed": true,
          "internalType": "address",
          "name": "account",
          "type": "address"
        },
        {
          "indexed": true,
          "internalType": "uint256",
          "name": "tokenId",
          "type": "uint256"
        },
        {
          "indexed": true,
          "internalType": "uint256",
          "name": "amount",
          "type": "uint256"
        }
      ],
      "name": "Minted",
      "type": "event"
    },
    {
      "anonymous": false,
      "inputs": [
        {
          "indexed": true,
          "internalType": "address",
          "name": "operator",
          "type": "address"
        },
        {
          "indexed": true,
          "internalType": "address",
          "name": "from",
          "type": "address"
        },
        {
          "indexed": true,
          "internalType": "address",
          "name": "to",
          "type": "address"
        },
        {
          "indexed": false,
          "internalType": "uint256[]",
          "name": "ids",
          "type": "uint256[]"
        },
        {
          "indexed": false,
          "internalType": "uint256[]",
          "name": "values",
          "type": "uint256[]"
        }
      ],
      "name": "TransferBatch",
      "type": "event"
    },
    {
      "anonymous": false,
      "inputs": [
        {
          "indexed": true,
          "internalType": "address",
          "name": "operator",
          "type": "address"
        },
        {
          "indexed": true,
          "internalType": "address",
          "name": "from",
          "type": "address"
        },
        {
          "indexed": true,
          "internalType": "address",
          "name": "to",
          "type": "address"
        },
        {
          "indexed": false,
          "internalType": "uint256",
          "name": "id",
          "type": "uint256"
        },
        {
          "indexed": false,
          "internalType": "uint256",
          "name": "value",
          "type": "uint256"
        }
      ],
      "name": "TransferSingle",
      "type": "event"
    },
    {
      "anonymous": false,
      "inputs": [
        {
          "indexed": false,
          "internalType": "string",
          "name": "value",
          "type": "string"
        },
        {
          "indexed": true,
          "internalType": "uint256",
          "name": "id",
          "type": "uint256"
        }
      ],
      "name": "URI",
      "type": "event"
    },
    {
      "inputs": [
        {
          "internalType": "address",
          "name": "account",
          "type": "address"
        },
        {
          "internalType": "uint256",
          "name": "id",
          "type": "uint256"
        }
      ],
      "name": "balanceOf",
      "outputs": [
        {
          "internalType": "uint256",
          "name": "",
          "type": "uint256"
        }
      ],
      "stateMutability": "view",
      "type": "function"
    },
    {
      "inputs": [
        {
          "internalType": "address[]",
          "name": "accounts",
          "type": "address[]"
        },
        {
          "internalType": "uint256[]",
          "name": "ids",
          "type": "uint256[]"
        }
      ],
      "name": "balanceOfBatch",
      "outputs": [
        {
          "internalType": "uint256[]",
          "name": "",
          "type": "uint256[]"
        }
      ],
      "stateMutability": "view",
      "type": "function"
    },
    {
      "inputs": [
        {
          "internalType": "string",
          "name": "_uri",
          "type": "string"
        },
        {
          "internalType": "address",
          "name": "_manager",
          "type": "address"
        },
        {
          "internalType": "address",
          "name": "_trustedForwarder",
          "type": "address"
        },
        {
          "internalType": "address",
          "name": "_opensea",
          "type": "address"
        }
      ],
      "name": "initialize",
      "outputs": [],
      "stateMutability": "nonpayable",
      "type": "function"
    },
    {
      "inputs": [
        {
          "internalType": "address",
          "name": "account",
          "type": "address"
        },
        {
          "internalType": "address",
          "name": "operator",
          "type": "address"
        }
      ],
      "name": "isApprovedForAll",
      "outputs": [
        {
          "internalType": "bool",
          "name": "",
          "type": "bool"
        }
      ],
      "stateMutability": "view",
      "type": "function"
    },
    {
      "inputs": [
        {
          "internalType": "address",
          "name": "forwarder",
          "type": "address"
        }
      ],
      "name": "isTrustedForwarder",
      "outputs": [
        {
          "internalType": "bool",
          "name": "",
          "type": "bool"
        }
      ],
      "stateMutability": "view",
      "type": "function"
    },
    {
      "inputs": [],
      "name": "manager",
      "outputs": [
        {
          "internalType": "address",
          "name": "",
          "type": "address"
        }
      ],
      "stateMutability": "view",
      "type": "function"
    },
    {
      "inputs": [
        {
          "internalType": "string",
          "name": "_uri",
          "type": "string"
        },
        {
          "internalType": "uint256",
          "name": "_amount",
          "type": "uint256"
        },
        {
          "internalType": "bytes",
          "name": "_signature",
          "type": "bytes"
        }
      ],
      "name": "mint",
      "outputs": [
        {
          "internalType": "uint256",
          "name": "_tokenId",
          "type": "uint256"
        }
      ],
      "stateMutability": "nonpayable",
      "type": "function"
    },
    {
      "inputs": [
        {
          "internalType": "address",
          "name": "_minter",
          "type": "address"
        }
      ],
      "name": "minterNonce",
      "outputs": [
        {
          "internalType": "uint256",
          "name": "",
          "type": "uint256"
        }
      ],
      "stateMutability": "view",
      "type": "function"
    },
    {
      "inputs": [
        {
          "internalType": "address",
          "name": "from",
          "type": "address"
        },
        {
          "internalType": "address",
          "name": "to",
          "type": "address"
        },
        {
          "internalType": "uint256[]",
          "name": "ids",
          "type": "uint256[]"
        },
        {
          "internalType": "uint256[]",
          "name": "amounts",
          "type": "uint256[]"
        },
        {
          "internalType": "bytes",
          "name": "data",
          "type": "bytes"
        }
      ],
      "name": "safeBatchTransferFrom",
      "outputs": [],
      "stateMutability": "nonpayable",
      "type": "function"
    },
    {
      "inputs": [
        {
          "internalType": "address",
          "name": "from",
          "type": "address"
        },
        {
          "internalType": "address",
          "name": "to",
          "type": "address"
        },
        {
          "internalType": "uint256",
          "name": "id",
          "type": "uint256"
        },
        {
          "internalType": "uint256",
          "name": "amount",
          "type": "uint256"
        },
        {
          "internalType": "bytes",
          "name": "data",
          "type": "bytes"
        }
      ],
      "name": "safeTransferFrom",
      "outputs": [],
      "stateMutability": "nonpayable",
      "type": "function"
    },
    {
      "inputs": [
        {
          "internalType": "address",
          "name": "operator",
          "type": "address"
        },
        {
          "internalType": "bool",
          "name": "approved",
          "type": "bool"
        }
      ],
      "name": "setApprovalForAll",
      "outputs": [],
      "stateMutability": "nonpayable",
      "type": "function"
    },
    {
      "inputs": [],
      "name": "totalSupply",
      "outputs": [
        {
          "internalType": "uint256",
          "name": "",
          "type": "uint256"
        }
      ],
      "stateMutability": "view",
      "type": "function"
    },
    {
      "inputs": [
        {
          "internalType": "uint256",
          "name": "_tokenId",
          "type": "uint256"
        }
      ],
      "name": "uri",
      "outputs": [
        {
          "internalType": "string",
          "name": "",
          "type": "string"
        }
      ],
      "stateMutability": "view",
      "type": "function"
    }
  ],
  "transactionHash": "0x595e4bf643fecdfbabf387e704a89b03f602ed9202ee82ef761c95f573230207",
  "args": [],
  "solcInputHash": "dd18f5515459f5fc9a13bf90db35295c",
  "bytecode": "0x608060405234801561001057600080fd5b50611f19806100206000396000f3fe608060405234801561001057600080fd5b50600436106100ce5760003560e01c8063481c6a751161008c578063a22cb46511610066578063a22cb465146101df578063e985e9c5146101f2578063f242432a1461022e578063f34822b41461024157600080fd5b8063481c6a75146101725780634e1273f41461018d578063572b6c05146101ad57600080fd5b8062fdd58e146100d35780630e89341c146100f957806310662e911461011957806318160ddd1461012c5780631b023947146101345780632eb2c2d61461015d575b600080fd5b6100e66100e136600461186a565b610254565b6040519081526020015b60405180910390f35b61010c610107366004611a5d565b6102eb565b6040516100f09190611c26565b6100e66101273660046119f3565b61041a565b6100e6610606565b6100e66101423660046116d4565b6001600160a01b031660009081526007602052604090205490565b61017061016b366004611727565b610616565b005b6004546040516001600160a01b0390911681526020016100f0565b6101a061019b366004611893565b610900565b6040516100f09190611bee565b6101cf6101bb3660046116d4565b6008546001600160a01b0391821691161490565b60405190151581526020016100f0565b6101706101ed366004611830565b610a62565b6101cf6102003660046116f5565b6001600160a01b03918216600090815260016020908152604080832093909416825291909152205460ff1690565b61017061023c3660046117cd565b610b76565b61017061024f366004611986565b610d43565b60006001600160a01b0383166102c55760405162461bcd60e51b815260206004820152602b60248201527f455243313135353a2062616c616e636520717565727920666f7220746865207a60448201526a65726f206164647265737360a81b60648201526084015b60405180910390fd5b506000908152602081815260408083206001600160a01b03949094168352929052205490565b60008181526003602052604081208054606092919061030990611d93565b80601f016020809104026020016040519081016040528092919081815260200182805461033590611d93565b80156103825780601f1061035757610100808354040283529160200191610382565b820191906000526020600020905b81548152906001019060200180831161036557829003601f168201915b505050505090508051600014156103e75760405162461bcd60e51b8152602060048201526024808201527f4552433131353555524953746f726167653a20746f6b656e4964206e6f7420656044820152631e1a5cdd60e21b60648201526084016102bc565b6103f16000610e30565b81604051602001610403929190611adb565b604051602081830303815290604052915050919050565b600080610425610ec7565b90506000610448826001600160a01b031660009081526007602052604090205490565b90506000868683856040516020016104639493929190611b0a565b604051602081830303815290604052905060006104de866104d884805190602001206040517f19457468657265756d205369676e6564204d6573736167653a0a3332000000006020820152603c8101829052600090605c01604051602081830303815290604052805190602001209050919050565b90610ed1565b6004549091506001600160a01b038083169116146105235760405162461bcd60e51b81526020600482015260026024820152614e4d60f01b60448201526064016102bc565b60065494506105328589610f87565b610540600680546001019055565b6001600160a01b03841660009081526007602052604090208054600101905561057a84868960405180602001604052806000815250610fab565b8685856001600160a01b03167f25b428dfde728ccfaddad7e29e4ac23c24ed7fd1a6e3e3f91894a9a073f5dfff60405160405180910390a46005546001600160a01b03808616600090815260016020908152604080832093909416825291909152205460ff166105fb576005546105fb906001600160a01b03166001610a62565b505050509392505050565b600061061160065490565b905090565b81518351146106785760405162461bcd60e51b815260206004820152602860248201527f455243313135353a2069647320616e6420616d6f756e7473206c656e677468206044820152670dad2e6dac2e8c6d60c31b60648201526084016102bc565b6001600160a01b03841661069e5760405162461bcd60e51b81526004016102bc90611c81565b6106a6610ec7565b6001600160a01b0316856001600160a01b031614806106cc57506106cc85610200610ec7565b6107335760405162461bcd60e51b815260206004820152603260248201527f455243313135353a207472616e736665722063616c6c6572206973206e6f74206044820152711bdddb995c881b9bdc88185c1c1c9bdd995960721b60648201526084016102bc565b600061073d610ec7565b905060005b845181101561089257600085828151811061076d57634e487b7160e01b600052603260045260246000fd5b60200260200101519050600085838151811061079957634e487b7160e01b600052603260045260246000fd5b602090810291909101810151600084815280835260408082206001600160a01b038e1683529093529190912054909150818110156107e95760405162461bcd60e51b81526004016102bc90611cc6565b6107f38282611d4c565b60008001600085815260200190815260200160002060008c6001600160a01b03166001600160a01b03168152602001908152602001600020819055508160008001600085815260200190815260200160002060008b6001600160a01b03166001600160a01b0316815260200190815260200160002060008282546108779190611d34565b925050819055505050508061088b90611dfb565b9050610742565b50846001600160a01b0316866001600160a01b0316826001600160a01b03167f4a39dc06d4c0dbc64b70af90fd698a233a518aa5d07e595d983b8c0526c8f7fb87876040516108e2929190611c01565b60405180910390a46108f88187878787876110b7565b505050505050565b606081518351146109655760405162461bcd60e51b815260206004820152602960248201527f455243313135353a206163636f756e747320616e6420696473206c656e677468604482015268040dad2e6dac2e8c6d60bb1b60648201526084016102bc565b6000835167ffffffffffffffff81111561098f57634e487b7160e01b600052604160045260246000fd5b6040519080825280602002602001820160405280156109b8578160200160208202803683370190505b50905060005b8451811015610a5a57610a1f8582815181106109ea57634e487b7160e01b600052603260045260246000fd5b6020026020010151858381518110610a1257634e487b7160e01b600052603260045260246000fd5b6020026020010151610254565b828281518110610a3f57634e487b7160e01b600052603260045260246000fd5b6020908102919091010152610a5381611dfb565b90506109be565b509392505050565b816001600160a01b0316610a74610ec7565b6001600160a01b03161415610add5760405162461bcd60e51b815260206004820152602960248201527f455243313135353a2073657474696e6720617070726f76616c20737461747573604482015268103337b91039b2b63360b91b60648201526084016102bc565b8060016000610aea610ec7565b6001600160a01b03908116825260208083019390935260409182016000908120918716808252919093529120805460ff191692151592909217909155610b2e610ec7565b6001600160a01b03167f17307eab39ab6107e8899845ad3d59bd9653f200f220920489ca2b5937696c3183604051610b6a911515815260200190565b60405180910390a35050565b6001600160a01b038416610b9c5760405162461bcd60e51b81526004016102bc90611c81565b610ba4610ec7565b6001600160a01b0316856001600160a01b03161480610bca5750610bca85610200610ec7565b610c285760405162461bcd60e51b815260206004820152602960248201527f455243313135353a2063616c6c6572206973206e6f74206f776e6572206e6f7260448201526808185c1c1c9bdd995960ba1b60648201526084016102bc565b6000610c32610ec7565b9050610c53818787610c4388611222565b610c4c88611222565b5050505050565b6000848152602081815260408083206001600160a01b038a16845290915290205483811015610c945760405162461bcd60e51b81526004016102bc90611cc6565b610c9e8482611d4c565b6000868152602081815260408083206001600160a01b038c81168552925280832093909355881681529081208054869290610cda908490611d34565b909155505060408051868152602081018690526001600160a01b03808916928a821692918616917fc3d58168c5ae7397731d063d5bbf3d657854427343f4c083240f7aacaa2d0f62910160405180910390a4610d3a82888888888861127b565b50505050505050565b7fc8fcad8db84d3cc18b4c41d551ea0ee66dd599cde068d998e57d5e09332c1320547fc8fcad8db84d3cc18b4c41d551ea0ee66dd599cde068d998e57d5e09332c131c906001600160a01b03163314610dc35760405162461bcd60e51b81526020600482015260026024820152614e4f60f01b60448201526064016102bc565b636cdb3d1360e11b60009081526003820160205260409020805460ff19166001179055610def85611345565b50600480546001600160a01b039485166001600160a01b03199182161790915560088054938516938216939093179092556005805491909316911617905550565b606060006002018054610e4290611d93565b80601f0160208091040260200160405190810160405280929190818152602001828054610e6e90611d93565b8015610ebb5780601f10610e9057610100808354040283529160200191610ebb565b820191906000526020600020905b815481529060010190602001808311610e9e57829003601f168201915b50505050509050919050565b600061061161135c565b600080600080845160411415610efb5750505060208201516040830151606084015160001a610f71565b845160401415610f295750505060408201516020830151906001600160ff1b0381169060ff1c601b01610f71565b60405162461bcd60e51b815260206004820152601f60248201527f45434453413a20696e76616c6964207369676e6174757265206c656e6774680060448201526064016102bc565b610f7d86828585611393565b9695505050505050565b60008281526003602090815260409091208251610fa69284019061153c565b505050565b6001600160a01b03841661100b5760405162461bcd60e51b815260206004820152602160248201527f455243313135353a206d696e7420746f20746865207a65726f206164647265736044820152607360f81b60648201526084016102bc565b6000611015610ec7565b905061102781600087610c4388611222565b6000848152602081815260408083206001600160a01b038916845290915281208054859290611057908490611d34565b909155505060408051858152602081018590526001600160a01b0380881692600092918516917fc3d58168c5ae7397731d063d5bbf3d657854427343f4c083240f7aacaa2d0f62910160405180910390a4610c4c8160008787878761127b565b6001600160a01b0384163b156108f85760405163bc197c8160e01b81526001600160a01b0385169063bc197c81906110fb9089908990889088908890600401611b4b565b602060405180830381600087803b15801561111557600080fd5b505af1925050508015611145575060408051601f3d908101601f191682019092526111429181019061195e565b60015b6111f257611151611e42565b806308c379a0141561118b5750611166611e59565b80611171575061118d565b8060405162461bcd60e51b81526004016102bc9190611c26565b505b60405162461bcd60e51b815260206004820152603460248201527f455243313135353a207472616e7366657220746f206e6f6e20455243313135356044820152732932b1b2b4bb32b91034b6b83632b6b2b73a32b960611b60648201526084016102bc565b6001600160e01b0319811663bc197c8160e01b14610d3a5760405162461bcd60e51b81526004016102bc90611c39565b6040805160018082528183019092526060916000919060208083019080368337019050509050828160008151811061126a57634e487b7160e01b600052603260045260246000fd5b602090810291909101015292915050565b6001600160a01b0384163b156108f85760405163f23a6e6160e01b81526001600160a01b0385169063f23a6e61906112bf9089908990889088908890600401611ba9565b602060405180830381600087803b1580156112d957600080fd5b505af1925050508015611309575060408051601f3d908101601f191682019092526113069181019061195e565b60015b61131557611151611e42565b6001600160e01b0319811663f23a6e6160e01b14610d3a5760405162461bcd60e51b81526004016102bc90611c39565b805161135890600290602084019061153c565b5050565b60006018361080159061137957506008546001600160a01b031633145b1561138b575060131936013560601c90565b503390565b90565b60007f7fffffffffffffffffffffffffffffff5d576e7357a4501ddfe92f46681b20a08211156114105760405162461bcd60e51b815260206004820152602260248201527f45434453413a20696e76616c6964207369676e6174757265202773272076616c604482015261756560f01b60648201526084016102bc565b8360ff16601b148061142557508360ff16601c145b61147c5760405162461bcd60e51b815260206004820152602260248201527f45434453413a20696e76616c6964207369676e6174757265202776272076616c604482015261756560f01b60648201526084016102bc565b6040805160008082526020820180845288905260ff871692820192909252606081018590526080810184905260019060a0016020604051602081039080840390855afa1580156114d0573d6000803e3d6000fd5b5050604051601f1901519150506001600160a01b0381166115335760405162461bcd60e51b815260206004820152601860248201527f45434453413a20696e76616c6964207369676e6174757265000000000000000060448201526064016102bc565b95945050505050565b82805461154890611d93565b90600052602060002090601f01602090048101928261156a57600085556115b0565b82601f1061158357805160ff19168380011785556115b0565b828001600101855582156115b0579182015b828111156115b0578251825591602001919060010190611595565b506115bc9291506115c0565b5090565b5b808211156115bc57600081556001016115c1565b80356001600160a01b03811681146115ec57600080fd5b919050565b600082601f830112611601578081fd5b8135602061160e82611d10565b60405161161b8282611dce565b8381528281019150858301600585901b8701840188101561163a578586fd5b855b858110156116585781358452928401929084019060010161163c565b5090979650505050505050565b600082601f830112611675578081fd5b813567ffffffffffffffff81111561168f5761168f611e2c565b6040516116a6601f8301601f191660200182611dce565b8181528460208386010111156116ba578283fd5b816020850160208301379081016020019190915292915050565b6000602082840312156116e5578081fd5b6116ee826115d5565b9392505050565b60008060408385031215611707578081fd5b611710836115d5565b915061171e602084016115d5565b90509250929050565b600080600080600060a0868803121561173e578081fd5b611747866115d5565b9450611755602087016115d5565b9350604086013567ffffffffffffffff80821115611771578283fd5b61177d89838a016115f1565b94506060880135915080821115611792578283fd5b61179e89838a016115f1565b935060808801359150808211156117b3578283fd5b506117c088828901611665565b9150509295509295909350565b600080600080600060a086880312156117e4578081fd5b6117ed866115d5565b94506117fb602087016115d5565b93506040860135925060608601359150608086013567ffffffffffffffff811115611824578182fd5b6117c088828901611665565b60008060408385031215611842578182fd5b61184b836115d5565b91506020830135801515811461185f578182fd5b809150509250929050565b6000806040838503121561187c578182fd5b611885836115d5565b946020939093013593505050565b600080604083850312156118a5578182fd5b823567ffffffffffffffff808211156118bc578384fd5b818501915085601f8301126118cf578384fd5b813560206118dc82611d10565b6040516118e98282611dce565b8381528281019150858301600585901b870184018b1015611908578889fd5b8896505b848710156119315761191d816115d5565b83526001969096019591830191830161190c565b5096505086013592505080821115611947578283fd5b50611954858286016115f1565b9150509250929050565b60006020828403121561196f578081fd5b81516001600160e01b0319811681146116ee578182fd5b6000806000806080858703121561199b578081fd5b843567ffffffffffffffff8111156119b1578182fd5b6119bd87828801611665565b9450506119cc602086016115d5565b92506119da604086016115d5565b91506119e8606086016115d5565b905092959194509250565b600080600060608486031215611a07578081fd5b833567ffffffffffffffff80821115611a1e578283fd5b611a2a87838801611665565b9450602086013593506040860135915080821115611a46578283fd5b50611a5386828701611665565b9150509250925092565b600060208284031215611a6e578081fd5b5035919050565b6000815180845260208085019450808401835b83811015611aa457815187529582019590820190600101611a88565b509495945050505050565b60008151808452611ac7816020860160208601611d63565b601f01601f19169290920160200192915050565b60008351611aed818460208801611d63565b835190830190611b01818360208801611d63565b01949350505050565b60008551611b1c818460208a01611d63565b9190910193845250602083019190915260601b6bffffffffffffffffffffffff19166040820152605401919050565b6001600160a01b0386811682528516602082015260a060408201819052600090611b7790830186611a75565b8281036060840152611b898186611a75565b90508281036080840152611b9d8185611aaf565b98975050505050505050565b6001600160a01b03868116825285166020820152604081018490526060810183905260a060808201819052600090611be390830184611aaf565b979650505050505050565b6020815260006116ee6020830184611a75565b604081526000611c146040830185611a75565b82810360208401526115338185611a75565b6020815260006116ee6020830184611aaf565b60208082526028908201527f455243313135353a204552433131353552656365697665722072656a656374656040820152676420746f6b656e7360c01b606082015260800190565b60208082526025908201527f455243313135353a207472616e7366657220746f20746865207a65726f206164604082015264647265737360d81b606082015260800190565b6020808252602a908201527f455243313135353a20696e73756666696369656e742062616c616e636520666f60408201526939103a3930b739b332b960b11b606082015260800190565b600067ffffffffffffffff821115611d2a57611d2a611e2c565b5060051b60200190565b60008219821115611d4757611d47611e16565b500190565b600082821015611d5e57611d5e611e16565b500390565b60005b83811015611d7e578181015183820152602001611d66565b83811115611d8d576000848401525b50505050565b600181811c90821680611da757607f821691505b60208210811415611dc857634e487b7160e01b600052602260045260246000fd5b50919050565b601f8201601f1916810167ffffffffffffffff81118282101715611df457611df4611e2c565b6040525050565b6000600019821415611e0f57611e0f611e16565b5060010190565b634e487b7160e01b600052601160045260246000fd5b634e487b7160e01b600052604160045260246000fd5b600060033d111561139057600481823e5160e01c90565b600060443d1015611e675790565b6040516003193d81016004833e81513d67ffffffffffffffff8160248401118184111715611e9757505050505090565b8285019150815181811115611eaf5750505050505090565b843d8701016020828501011115611ec95750505050505090565b611ed860208286010187611dce565b50909594505050505056fea264697066735822122037b2beb6287c2eb04514d8c3f14d9bff0e743abb439c1263de9938cecff1893564736f6c63430008040033",
  "devdoc": {
    "kind": "dev",
    "methods": {
      "balanceOf(address,uint256)": {
        "details": "See {IERC1155-balanceOf}. Requirements: - `account` cannot be the zero address."
      },
      "balanceOfBatch(address[],uint256[])": {
        "details": "See {IERC1155-balanceOfBatch}. Requirements: - `accounts` and `ids` must have the same length."
      },
      "isApprovedForAll(address,address)": {
        "details": "See {IERC1155-isApprovedForAll}."
      },
      "safeBatchTransferFrom(address,address,uint256[],uint256[],bytes)": {
        "details": "See {IERC1155-safeBatchTransferFrom}."
      },
      "safeTransferFrom(address,address,uint256,uint256,bytes)": {
        "details": "See {IERC1155-safeTransferFrom}."
      },
      "setApprovalForAll(address,bool)": {
        "details": "See {IERC1155-setApprovalForAll}."
      }
    },
    "version": 1
  },
  "userdoc": {
    "kind": "user",
    "methods": {},
    "version": 1
  },
  "storageLayout": {
    "storage": [
      {
        "astId": 663,
        "contract": "contracts/OnCyberScenesFacet.sol:OnCyberScenesFacet",
        "label": "s",
        "offset": 0,
        "slot": "0",
        "type": "t_struct(AppStorage)1950_storage"
      }
    ],
    "types": {
      "t_address": {
        "encoding": "inplace",
        "label": "address",
        "numberOfBytes": "20"
      },
      "t_bool": {
        "encoding": "inplace",
        "label": "bool",
        "numberOfBytes": "1"
      },
      "t_mapping(t_address,t_bool)": {
        "encoding": "mapping",
        "key": "t_address",
        "label": "mapping(address => bool)",
        "numberOfBytes": "32",
        "value": "t_bool"
      },
      "t_mapping(t_address,t_mapping(t_address,t_bool))": {
        "encoding": "mapping",
        "key": "t_address",
        "label": "mapping(address => mapping(address => bool))",
        "numberOfBytes": "32",
        "value": "t_mapping(t_address,t_bool)"
      },
      "t_mapping(t_address,t_struct(Counter)446_storage)": {
        "encoding": "mapping",
        "key": "t_address",
        "label": "mapping(address => struct Counters.Counter)",
        "numberOfBytes": "32",
        "value": "t_struct(Counter)446_storage"
      },
      "t_mapping(t_address,t_uint256)": {
        "encoding": "mapping",
        "key": "t_address",
        "label": "mapping(address => uint256)",
        "numberOfBytes": "32",
        "value": "t_uint256"
      },
      "t_mapping(t_uint256,t_mapping(t_address,t_uint256))": {
        "encoding": "mapping",
        "key": "t_uint256",
        "label": "mapping(uint256 => mapping(address => uint256))",
        "numberOfBytes": "32",
        "value": "t_mapping(t_address,t_uint256)"
      },
      "t_mapping(t_uint256,t_string_storage)": {
        "encoding": "mapping",
        "key": "t_uint256",
        "label": "mapping(uint256 => string)",
        "numberOfBytes": "32",
        "value": "t_string_storage"
      },
      "t_string_storage": {
        "encoding": "bytes",
        "label": "string",
        "numberOfBytes": "32"
      },
      "t_struct(AppStorage)1950_storage": {
        "encoding": "inplace",
        "label": "struct AppStorage",
        "members": [
          {
            "astId": 1923,
            "contract": "contracts/OnCyberScenesFacet.sol:OnCyberScenesFacet",
            "label": "_balances",
            "offset": 0,
            "slot": "0",
            "type": "t_mapping(t_uint256,t_mapping(t_address,t_uint256))"
          },
          {
            "astId": 1929,
            "contract": "contracts/OnCyberScenesFacet.sol:OnCyberScenesFacet",
            "label": "_operatorApprovals",
            "offset": 0,
            "slot": "1",
            "type": "t_mapping(t_address,t_mapping(t_address,t_bool))"
          },
          {
            "astId": 1931,
            "contract": "contracts/OnCyberScenesFacet.sol:OnCyberScenesFacet",
            "label": "_uri",
            "offset": 0,
            "slot": "2",
            "type": "t_string_storage"
          },
          {
            "astId": 1935,
            "contract": "contracts/OnCyberScenesFacet.sol:OnCyberScenesFacet",
            "label": "_tokenURIs",
            "offset": 0,
            "slot": "3",
            "type": "t_mapping(t_uint256,t_string_storage)"
          },
          {
            "astId": 1937,
            "contract": "contracts/OnCyberScenesFacet.sol:OnCyberScenesFacet",
            "label": "manager",
            "offset": 0,
            "slot": "4",
            "type": "t_address"
          },
          {
            "astId": 1939,
            "contract": "contracts/OnCyberScenesFacet.sol:OnCyberScenesFacet",
            "label": "opensea",
            "offset": 0,
            "slot": "5",
            "type": "t_address"
          },
          {
            "astId": 1942,
            "contract": "contracts/OnCyberScenesFacet.sol:OnCyberScenesFacet",
            "label": "totalSupply",
            "offset": 0,
            "slot": "6",
            "type": "t_struct(Counter)446_storage"
          },
          {
            "astId": 1947,
            "contract": "contracts/OnCyberScenesFacet.sol:OnCyberScenesFacet",
            "label": "minterNonce",
            "offset": 0,
            "slot": "7",
            "type": "t_mapping(t_address,t_struct(Counter)446_storage)"
          },
          {
            "astId": 1949,
            "contract": "contracts/OnCyberScenesFacet.sol:OnCyberScenesFacet",
            "label": "trustedForwarder",
            "offset": 0,
            "slot": "8",
            "type": "t_address"
          }
        ],
        "numberOfBytes": "288"
      },
      "t_struct(Counter)446_storage": {
        "encoding": "inplace",
        "label": "struct Counters.Counter",
        "members": [
          {
            "astId": 445,
            "contract": "contracts/OnCyberScenesFacet.sol:OnCyberScenesFacet",
            "label": "_value",
            "offset": 0,
            "slot": "0",
            "type": "t_uint256"
          }
        ],
        "numberOfBytes": "32"
      },
      "t_uint256": {
        "encoding": "inplace",
        "label": "uint256",
        "numberOfBytes": "32"
      }
    }
  }
}