{
  "address": "0x5FbDB2315678afecb367f032d93F642f64180aa3",
  "abi": [
    {
      "anonymous": false,
      "inputs": [
        {
          "indexed": true,
          "internalType": "address",
          "name": "account",
          "type": "address"
        },
        {
          "indexed": true,
          "internalType": "address",
          "name": "operator",
          "type": "address"
        },
        {
          "indexed": false,
          "internalType": "bool",
          "name": "approved",
          "type": "bool"
        }
      ],
      "name": "ApprovalForAll",
      "type": "event"
    },
    {
      "anonymous": false,
      "inputs": [
        {
          "indexed": true,
          "internalType": "address",
          "name": "account",
          "type": "address"
        },
        {
          "indexed": true,
          "internalType": "uint256",
          "name": "tokenId",
          "type": "uint256"
        }
      ],
      "name": "DestinationMinted",
      "type": "event"
    },
    {
      "anonymous": false,
      "inputs": [
        {
          "indexed": true,
          "internalType": "address",
          "name": "account",
          "type": "address"
        },
        {
          "indexed": true,
          "internalType": "uint256",
          "name": "tokenId",
          "type": "uint256"
        },
        {
          "indexed": true,
          "internalType": "uint256",
          "name": "amount",
          "type": "uint256"
        }
      ],
      "name": "Minted",
      "type": "event"
    },
    {
      "anonymous": false,
      "inputs": [
        {
          "indexed": true,
          "internalType": "address",
          "name": "operator",
          "type": "address"
        },
        {
          "indexed": true,
          "internalType": "address",
          "name": "from",
          "type": "address"
        },
        {
          "indexed": true,
          "internalType": "address",
          "name": "to",
          "type": "address"
        },
        {
          "indexed": false,
          "internalType": "uint256[]",
          "name": "ids",
          "type": "uint256[]"
        },
        {
          "indexed": false,
          "internalType": "uint256[]",
          "name": "values",
          "type": "uint256[]"
        }
      ],
      "name": "TransferBatch",
      "type": "event"
    },
    {
      "anonymous": false,
      "inputs": [
        {
          "indexed": true,
          "internalType": "address",
          "name": "operator",
          "type": "address"
        },
        {
          "indexed": true,
          "internalType": "address",
          "name": "from",
          "type": "address"
        },
        {
          "indexed": true,
          "internalType": "address",
          "name": "to",
          "type": "address"
        },
        {
          "indexed": false,
          "internalType": "uint256",
          "name": "id",
          "type": "uint256"
        },
        {
          "indexed": false,
          "internalType": "uint256",
          "name": "value",
          "type": "uint256"
        }
      ],
      "name": "TransferSingle",
      "type": "event"
    },
    {
      "anonymous": false,
      "inputs": [
        {
          "indexed": false,
          "internalType": "string",
          "name": "value",
          "type": "string"
        },
        {
          "indexed": true,
          "internalType": "uint256",
          "name": "tokenId",
          "type": "uint256"
        }
      ],
      "name": "URI",
      "type": "event"
    },
    {
      "inputs": [
        {
          "internalType": "uint256",
          "name": "id",
          "type": "uint256"
        }
      ],
      "name": "accountsByToken",
      "outputs": [
        {
          "internalType": "address[]",
          "name": "",
          "type": "address[]"
        }
      ],
      "stateMutability": "view",
      "type": "function"
    },
    {
      "inputs": [
        {
          "internalType": "address",
          "name": "account",
          "type": "address"
        },
        {
          "internalType": "uint256",
          "name": "id",
          "type": "uint256"
        }
      ],
      "name": "balanceOf",
      "outputs": [
        {
          "internalType": "uint256",
          "name": "",
          "type": "uint256"
        }
      ],
      "stateMutability": "view",
      "type": "function"
    },
    {
      "inputs": [
        {
          "internalType": "address[]",
          "name": "accounts",
          "type": "address[]"
        },
        {
          "internalType": "uint256[]",
          "name": "ids",
          "type": "uint256[]"
        }
      ],
      "name": "balanceOfBatch",
      "outputs": [
        {
          "internalType": "uint256[]",
          "name": "",
          "type": "uint256[]"
        }
      ],
      "stateMutability": "view",
      "type": "function"
    },
    {
      "inputs": [
        {
          "internalType": "string",
          "name": "_uri",
          "type": "string"
        },
        {
          "internalType": "uint256",
          "name": "_timeStart",
          "type": "uint256"
        },
        {
          "internalType": "uint256",
          "name": "_timeEnd",
          "type": "uint256"
        },
        {
          "internalType": "uint256",
          "name": "_priceStart",
          "type": "uint256"
        },
        {
          "internalType": "uint256",
          "name": "_priceEnd",
          "type": "uint256"
        },
        {
          "internalType": "uint256",
          "name": "_stepDuration",
          "type": "uint256"
        },
        {
          "internalType": "uint256",
          "name": "_amountCap",
          "type": "uint256"
        },
        {
          "internalType": "uint256",
          "name": "_shareCyber",
          "type": "uint256"
        },
        {
          "internalType": "bytes",
          "name": "_signature",
          "type": "bytes"
        }
      ],
      "name": "createDrop",
      "outputs": [
        {
          "internalType": "uint256",
          "name": "_tokenId",
          "type": "uint256"
        }
      ],
      "stateMutability": "nonpayable",
      "type": "function"
    },
    {
      "inputs": [
        {
          "internalType": "uint256",
          "name": "_tokenId",
          "type": "uint256"
        }
      ],
      "name": "getDrop",
      "outputs": [
        {
          "components": [
            {
              "internalType": "uint256",
              "name": "timeStart",
              "type": "uint256"
            },
            {
              "internalType": "uint256",
              "name": "timeEnd",
              "type": "uint256"
            },
            {
              "internalType": "uint256",
              "name": "priceStart",
              "type": "uint256"
            },
            {
              "internalType": "uint256",
              "name": "priceEnd",
              "type": "uint256"
            },
            {
              "internalType": "uint256",
              "name": "stepDuration",
              "type": "uint256"
            },
            {
              "internalType": "uint256",
              "name": "amountCap",
              "type": "uint256"
            },
            {
              "internalType": "uint256",
              "name": "shareCyber",
              "type": "uint256"
            },
            {
              "internalType": "address payable",
              "name": "creator",
              "type": "address"
            },
            {
              "internalType": "uint256",
              "name": "minted",
              "type": "uint256"
            }
          ],
          "internalType": "struct LibDropStorage.Drop",
          "name": "",
          "type": "tuple"
        }
      ],
      "stateMutability": "view",
      "type": "function"
    },
    {
      "inputs": [
        {
          "components": [
            {
              "internalType": "uint256",
              "name": "timeStart",
              "type": "uint256"
            },
            {
              "internalType": "uint256",
              "name": "timeEnd",
              "type": "uint256"
            },
            {
              "internalType": "uint256",
              "name": "priceStart",
              "type": "uint256"
            },
            {
              "internalType": "uint256",
              "name": "priceEnd",
              "type": "uint256"
            },
            {
              "internalType": "uint256",
              "name": "stepDuration",
              "type": "uint256"
            },
            {
              "internalType": "uint256",
              "name": "amountCap",
              "type": "uint256"
            },
            {
              "internalType": "uint256",
              "name": "shareCyber",
              "type": "uint256"
            },
            {
              "internalType": "address payable",
              "name": "creator",
              "type": "address"
            },
            {
              "internalType": "uint256",
              "name": "minted",
              "type": "uint256"
            }
          ],
          "internalType": "struct LibDropStorage.Drop",
          "name": "drop",
          "type": "tuple"
        }
      ],
      "name": "getMintPriceForDrop",
      "outputs": [
        {
          "internalType": "uint256",
          "name": "",
          "type": "uint256"
        }
      ],
      "stateMutability": "view",
      "type": "function"
    },
    {
      "inputs": [
        {
          "internalType": "uint256",
          "name": "_tokenId",
          "type": "uint256"
        }
      ],
      "name": "getMintPriceForToken",
      "outputs": [
        {
          "internalType": "uint256",
          "name": "",
          "type": "uint256"
        }
      ],
      "stateMutability": "view",
      "type": "function"
    },
    {
      "inputs": [
        {
          "internalType": "uint256",
          "name": "_timeSpent",
          "type": "uint256"
        },
        {
          "internalType": "uint256",
          "name": "_duration",
          "type": "uint256"
        },
        {
          "internalType": "uint256",
          "name": "_priceStart",
          "type": "uint256"
        },
        {
          "internalType": "uint256",
          "name": "_priceEnd",
          "type": "uint256"
        },
        {
          "internalType": "uint256",
          "name": "_stepDuration",
          "type": "uint256"
        }
      ],
      "name": "getPriceFor",
      "outputs": [
        {
          "internalType": "uint256",
          "name": "",
          "type": "uint256"
        }
      ],
      "stateMutability": "pure",
      "type": "function"
    },
    {
      "inputs": [
        {
          "internalType": "string",
          "name": "_uri",
          "type": "string"
        },
        {
          "internalType": "address",
          "name": "_manager",
          "type": "address"
        },
        {
          "internalType": "address",
          "name": "_trustedForwarder",
          "type": "address"
        },
        {
          "internalType": "address",
          "name": "_opensea",
          "type": "address"
        },
        {
          "internalType": "address",
          "name": "_oncyber",
          "type": "address"
        }
      ],
      "name": "initialize",
      "outputs": [],
      "stateMutability": "nonpayable",
      "type": "function"
    },
    {
      "inputs": [
        {
          "internalType": "address",
          "name": "account",
          "type": "address"
        },
        {
          "internalType": "address",
          "name": "operator",
          "type": "address"
        }
      ],
      "name": "isApprovedForAll",
      "outputs": [
        {
          "internalType": "bool",
          "name": "",
          "type": "bool"
        }
      ],
      "stateMutability": "view",
      "type": "function"
    },
    {
      "inputs": [
        {
          "internalType": "address",
          "name": "forwarder",
          "type": "address"
        }
      ],
      "name": "isTrustedForwarder",
      "outputs": [
        {
          "internalType": "bool",
          "name": "",
          "type": "bool"
        }
      ],
      "stateMutability": "view",
      "type": "function"
    },
    {
      "inputs": [],
      "name": "manager",
      "outputs": [
        {
          "internalType": "address",
          "name": "",
          "type": "address"
        }
      ],
      "stateMutability": "view",
      "type": "function"
    },
    {
      "inputs": [
        {
          "internalType": "uint256",
          "name": "_tokenId",
          "type": "uint256"
        }
      ],
      "name": "mint",
      "outputs": [
        {
          "internalType": "bool",
          "name": "",
          "type": "bool"
        }
      ],
      "stateMutability": "payable",
      "type": "function"
    },
    {
      "inputs": [
        {
          "internalType": "address",
          "name": "_minter",
          "type": "address"
        }
      ],
      "name": "minterNonce",
      "outputs": [
        {
          "internalType": "uint256",
          "name": "",
          "type": "uint256"
        }
      ],
      "stateMutability": "view",
      "type": "function"
    },
    {
      "inputs": [],
      "name": "oncyber",
      "outputs": [
        {
          "internalType": "address",
          "name": "",
          "type": "address"
        }
      ],
      "stateMutability": "view",
      "type": "function"
    },
    {
      "inputs": [
        {
          "internalType": "address",
          "name": "from",
          "type": "address"
        },
        {
          "internalType": "address",
          "name": "to",
          "type": "address"
        },
        {
          "internalType": "uint256[]",
          "name": "ids",
          "type": "uint256[]"
        },
        {
          "internalType": "uint256[]",
          "name": "amounts",
          "type": "uint256[]"
        },
        {
          "internalType": "bytes",
          "name": "data",
          "type": "bytes"
        }
      ],
      "name": "safeBatchTransferFrom",
      "outputs": [],
      "stateMutability": "nonpayable",
      "type": "function"
    },
    {
      "inputs": [
        {
          "internalType": "address",
          "name": "from",
          "type": "address"
        },
        {
          "internalType": "address",
          "name": "to",
          "type": "address"
        },
        {
          "internalType": "uint256",
          "name": "id",
          "type": "uint256"
        },
        {
          "internalType": "uint256",
          "name": "amount",
          "type": "uint256"
        },
        {
          "internalType": "bytes",
          "name": "data",
          "type": "bytes"
        }
      ],
      "name": "safeTransferFrom",
      "outputs": [],
      "stateMutability": "nonpayable",
      "type": "function"
    },
    {
      "inputs": [
        {
          "internalType": "address",
          "name": "operator",
          "type": "address"
        },
        {
          "internalType": "bool",
          "name": "status",
          "type": "bool"
        }
      ],
      "name": "setApprovalForAll",
      "outputs": [],
      "stateMutability": "nonpayable",
      "type": "function"
    },
    {
      "inputs": [
        {
          "internalType": "bytes4",
          "name": "interfaceId",
          "type": "bytes4"
        }
      ],
      "name": "supportsInterface",
      "outputs": [
        {
          "internalType": "bool",
          "name": "",
          "type": "bool"
        }
      ],
      "stateMutability": "view",
      "type": "function"
    },
    {
      "inputs": [
        {
          "internalType": "address",
          "name": "account",
          "type": "address"
        }
      ],
      "name": "tokensByAccount",
      "outputs": [
        {
          "internalType": "uint256[]",
          "name": "",
          "type": "uint256[]"
        }
      ],
      "stateMutability": "view",
      "type": "function"
    },
    {
      "inputs": [
        {
          "internalType": "uint256",
          "name": "id",
          "type": "uint256"
        }
      ],
      "name": "totalHolders",
      "outputs": [
        {
          "internalType": "uint256",
          "name": "",
          "type": "uint256"
        }
      ],
      "stateMutability": "view",
      "type": "function"
    },
    {
      "inputs": [],
      "name": "totalSupply",
      "outputs": [
        {
          "internalType": "uint256",
          "name": "",
          "type": "uint256"
        }
      ],
      "stateMutability": "view",
      "type": "function"
    },
    {
      "inputs": [
        {
          "internalType": "uint256",
          "name": "id",
          "type": "uint256"
        }
      ],
      "name": "totalSupply",
      "outputs": [
        {
          "internalType": "uint256",
          "name": "",
          "type": "uint256"
        }
      ],
      "stateMutability": "view",
      "type": "function"
    },
    {
      "inputs": [
        {
          "internalType": "uint256",
          "name": "_tokenId",
          "type": "uint256"
        }
      ],
      "name": "uri",
      "outputs": [
        {
          "internalType": "string",
          "name": "",
          "type": "string"
        }
      ],
      "stateMutability": "view",
      "type": "function"
    }
  ],
  "transactionHash": "0x6ed92bceadb231521bb96756e2d439b33ec1af4c89bd4a8a962e9ef9175f6494",
  "args": [],
  "solcInputHash": "ce34d5a2687e25d717c1fe1e46c9ac5d",
  "bytecode": "0x608060405234801561001057600080fd5b50615cc980620000216000396000f3fe60806040526004361061014a5760003560e01c80635c5ed16d116100b6578063a22cb4651161006f578063a22cb46514610540578063bc01188e14610569578063bd85b03914610594578063d61b0c82146105d1578063e985e9c51461060e578063f242432a1461064b5761014a565b80635c5ed16d146103df5780635e28bc541461041c5780636787d449146104595780636dcfd8411461049657806385bff2e7146104d3578063a0712d68146105105761014a565b806318160ddd1161010857806318160ddd146102a95780631b023947146102d45780632eb2c2d614610311578063481c6a751461033a5780634e1273f414610365578063572b6c05146103a25761014a565b8062fdd58e1461014f57806301ffc9a71461018c578063081cdf12146101c95780630b885ac3146102065780630e89341c1461022f57806313ba55df1461026c575b600080fd5b34801561015b57600080fd5b50610176600480360381019061017191906138be565b610674565b604051610183919061390d565b60405180910390f35b34801561019857600080fd5b506101b360048036038101906101ae9190613980565b610688565b6040516101c091906139c8565b60405180910390f35b3480156101d557600080fd5b506101f060048036038101906101eb9190613bca565b6106ab565b6040516101fd919061390d565b60405180910390f35b34801561021257600080fd5b5061022d60048036038101906102289190613ccc565b610a87565b005b34801561023b57600080fd5b5061025660048036038101906102519190613d63565b610ceb565b6040516102639190613e18565b60405180910390f35b34801561027857600080fd5b50610293600480360381019061028e9190613d63565b610e0f565b6040516102a0919061390d565b60405180910390f35b3480156102b557600080fd5b506102be610e3c565b6040516102cb919061390d565b60405180910390f35b3480156102e057600080fd5b506102fb60048036038101906102f69190613e3a565b610e56565b604051610308919061390d565b60405180910390f35b34801561031d57600080fd5b5061033860048036038101906103339190613f2f565b610eaf565b005b34801561034657600080fd5b5061034f610f43565b60405161035c919061400d565b60405180910390f35b34801561037157600080fd5b5061038c600480360381019061038791906140eb565b610f76565b6040516103999190614221565b60405180910390f35b3480156103ae57600080fd5b506103c960048036038101906103c49190613e3a565b61116b565b6040516103d691906139c8565b60405180910390f35b3480156103eb57600080fd5b5061040660048036038101906104019190613d63565b6111ce565b604051610413919061390d565b60405180910390f35b34801561042857600080fd5b50610443600480360381019061043e9190614366565b61135f565b604051610450919061390d565b60405180910390f35b34801561046557600080fd5b50610480600480360381019061047b9190613d63565b6113ae565b60405161048d919061445a565b60405180910390f35b3480156104a257600080fd5b506104bd60048036038101906104b89190613d63565b6114d9565b6040516104ca9190614534565b60405180910390f35b3480156104df57600080fd5b506104fa60048036038101906104f59190613e3a565b6115e1565b6040516105079190614221565b60405180910390f35b61052a60048036038101906105259190613d63565b6116e7565b60405161053791906139c8565b60405180910390f35b34801561054c57600080fd5b5061056760048036038101906105629190614582565b611a5c565b005b34801561057557600080fd5b5061057e611bd1565b60405161058b919061400d565b60405180910390f35b3480156105a057600080fd5b506105bb60048036038101906105b69190613d63565b611c04565b6040516105c8919061390d565b60405180910390f35b3480156105dd57600080fd5b506105f860048036038101906105f391906145c2565b611c2a565b604051610605919061390d565b60405180910390f35b34801561061a57600080fd5b506106356004803603810190610630919061463d565b611c9b565b60405161064291906139c8565b60405180910390f35b34801561065757600080fd5b50610672600480360381019061066d919061467d565b611d38565b005b60006106808383611dcc565b905092915050565b60006106a482610696611e9f565b611ecc90919063ffffffff16565b9050919050565b60008489896106ba9190614743565b101580156106c85750600085115b610707576040517f08c379a00000000000000000000000000000000000000000000000000000000081526004016106fe906147c3565b60405180910390fd5b8587101561074a576040517f08c379a00000000000000000000000000000000000000000000000000000000081526004016107419061482f565b60405180910390fd5b606483111561078e576040517f08c379a00000000000000000000000000000000000000000000000000000000081526004016107859061489b565b60405180910390fd5b6000610798611f37565b905060006107a582610e56565b905060008c8c8c8c8c8c8c8c8a8a6040516020016107cc9a99989796959493929190614960565b60405160208183030381529060405290506000610801866107f38480519060200120611f73565b611fa390919063ffffffff16565b905061080b611fca565b60000160009054906101000a900473ffffffffffffffffffffffffffffffffffffffff1673ffffffffffffffffffffffffffffffffffffffff168173ffffffffffffffffffffffffffffffffffffffff161461089c576040517f08c379a000000000000000000000000000000000000000000000000000000000815260040161089390614a5c565b60405180910390fd5b6108af6108a7611fca565b600201611ff7565b94506108bb858f612005565b6108ce6108c6611fca565b60020161203a565b61091e6108d9611fca565b60030160008673ffffffffffffffffffffffffffffffffffffffff1673ffffffffffffffffffffffffffffffffffffffff16815260200190815260200160002061203a565b60006040518061012001604052808f81526020018e81526020018d81526020018c81526020018b81526020018a81526020018981526020018673ffffffffffffffffffffffffffffffffffffffff1681526020016000815250905080610982612050565b6000016000888152602001908152602001600020600082015181600001556020820151816001015560408201518160020155606082015181600301556080820151816004015560a0820151816005015560c0820151816006015560e08201518160070160006101000a81548173ffffffffffffffffffffffffffffffffffffffff021916908373ffffffffffffffffffffffffffffffffffffffff1602179055506101008201518160080155905050858573ffffffffffffffffffffffffffffffffffffffff167f889de1a576ddf6ed9570e1a2354ffe87302c20bd8af57b5bd4e3bbc84240e7f660405160405180910390a350505050509998505050505050505050565b3373ffffffffffffffffffffffffffffffffffffffff16610aa661207d565b60040160009054906101000a900473ffffffffffffffffffffffffffffffffffffffff1673ffffffffffffffffffffffffffffffffffffffff1614610b20576040517f08c379a0000000000000000000000000000000000000000000000000000000008152600401610b1790614ac8565b60405180910390fd5b82610b296120aa565b60000160006101000a81548173ffffffffffffffffffffffffffffffffffffffff021916908373ffffffffffffffffffffffffffffffffffffffff1602179055506001610b7461207d565b60030160007fd9b67a26000000000000000000000000000000000000000000000000000000007bffffffffffffffffffffffffffffffffffffffffffffffffffffffff19167bffffffffffffffffffffffffffffffffffffffffffffffffffffffff1916815260200190815260200160002060006101000a81548160ff021916908315150217905550610c06856120d7565b83610c0f611fca565b60000160006101000a81548173ffffffffffffffffffffffffffffffffffffffff021916908373ffffffffffffffffffffffffffffffffffffffff16021790555081610c59611fca565b60010160006101000a81548173ffffffffffffffffffffffffffffffffffffffff021916908373ffffffffffffffffffffffffffffffffffffffff16021790555080610ca3611fca565b60040160006101000a81548173ffffffffffffffffffffffffffffffffffffffff021916908373ffffffffffffffffffffffffffffffffffffffff1602179055505050505050565b60606000610cf76120fa565b60000160008481526020019081526020016000208054610d1690614b17565b80601f0160208091040260200160405190810160405280929190818152602001828054610d4290614b17565b8015610d8f5780601f10610d6457610100808354040283529160200191610d8f565b820191906000526020600020905b815481529060010190602001808311610d7257829003601f168201915b50505050509050600081511415610ddb576040517f08c379a0000000000000000000000000000000000000000000000000000000008152600401610dd290614b95565b60405180910390fd5b610de36120fa565b60010181604051602001610df8929190614c49565b604051602081830303815290604052915050919050565b6000610e35610e1c612127565b6001016000848152602001908152602001600020612154565b9050919050565b6000610e51610e49611fca565b600201611ff7565b905090565b6000610ea8610e63611fca565b60030160008473ffffffffffffffffffffffffffffffffffffffff1673ffffffffffffffffffffffffffffffffffffffff168152602001908152602001600020611ff7565b9050919050565b3373ffffffffffffffffffffffffffffffffffffffff168573ffffffffffffffffffffffffffffffffffffffff161480610eef5750610eee8533611c9b565b5b610f2e576040517f08c379a0000000000000000000000000000000000000000000000000000000008152600401610f2590614cdf565b60405180910390fd5b610f3c338686868686612169565b5050505050565b6000610f4d611fca565b60000160009054906101000a900473ffffffffffffffffffffffffffffffffffffffff16905090565b60608151835114610fbc576040517f08c379a0000000000000000000000000000000000000000000000000000000008152600401610fb390614d71565b60405180910390fd5b6000610fc661218d565b60000190506000845167ffffffffffffffff811115610fe857610fe76139fe565b5b6040519080825280602002602001820160405280156110165781602001602082028036833780820191505090505b50905060005b855181101561115f57600073ffffffffffffffffffffffffffffffffffffffff168682815181106110505761104f614d91565b5b602002602001015173ffffffffffffffffffffffffffffffffffffffff1614156110af576040517f08c379a00000000000000000000000000000000000000000000000000000000081526004016110a690614e32565b60405180910390fd5b8260008683815181106110c5576110c4614d91565b5b6020026020010151815260200190815260200160002060008783815181106110f0576110ef614d91565b5b602002602001015173ffffffffffffffffffffffffffffffffffffffff1673ffffffffffffffffffffffffffffffffffffffff1681526020019081526020016000205482828151811061114657611145614d91565b5b602002602001018181525050808060010191505061101c565b50809250505092915050565b60006111756120aa565b60000160009054906101000a900473ffffffffffffffffffffffffffffffffffffffff1673ffffffffffffffffffffffffffffffffffffffff168273ffffffffffffffffffffffffffffffffffffffff16149050919050565b6000806111d9612050565b60000160008481526020019081526020016000209050806000015442118015611206575080600101544211155b611245576040517f08c379a000000000000000000000000000000000000000000000000000000000815260040161123c90614e9e565b60405180910390fd5b600081600501541461129c57806005015481600801541061129b576040517f08c379a000000000000000000000000000000000000000000000000000000000815260040161129290614f0a565b60405180910390fd5b5b6113578160405180610120016040529081600082015481526020016001820154815260200160028201548152602001600382015481526020016004820154815260200160058201548152602001600682015481526020016007820160009054906101000a900473ffffffffffffffffffffffffffffffffffffffff1673ffffffffffffffffffffffffffffffffffffffff1673ffffffffffffffffffffffffffffffffffffffff16815260200160088201548152505061135f565b915050919050565b6000808260000151426113729190614743565b905060008360000151846020015161138a9190614743565b90506113a58282866040015187606001518860800151611c2a565b92505050919050565b6113b6613711565b60006113c0612050565b600001600084815260200190815260200160002060405180610120016040529081600082015481526020016001820154815260200160028201548152602001600382015481526020016004820154815260200160058201548152602001600682015481526020016007820160009054906101000a900473ffffffffffffffffffffffffffffffffffffffff1673ffffffffffffffffffffffffffffffffffffffff1673ffffffffffffffffffffffffffffffffffffffff16815260200160088201548152505090506000816000015114156114d0576040517f08c379a00000000000000000000000000000000000000000000000000000000081526004016114c790614f76565b60405180910390fd5b80915050919050565b606060006114e5612127565b60010160008481526020019081526020016000209050600061150682612154565b67ffffffffffffffff81111561151f5761151e6139fe565b5b60405190808252806020026020018201604052801561154d5781602001602082028036833780820191505090505b50905060005b61155c83612154565b8110156115d65761157681846121ba90919063ffffffff16565b82828151811061158957611588614d91565b5b602002602001019073ffffffffffffffffffffffffffffffffffffffff16908173ffffffffffffffffffffffffffffffffffffffff168152505080806115ce90614f96565b915050611553565b508092505050919050565b606060006115ed612127565b60020160008473ffffffffffffffffffffffffffffffffffffffff1673ffffffffffffffffffffffffffffffffffffffff1681526020019081526020016000209050600061163a826121d4565b67ffffffffffffffff811115611653576116526139fe565b5b6040519080825280602002602001820160405280156116815781602001602082028036833780820191505090505b50905060005b611690836121d4565b8110156116dc576116aa81846121e990919063ffffffff16565b8282815181106116bd576116bc614d91565b5b60200260200101818152505080806116d490614f96565b915050611687565b508092505050919050565b6000806116f2611f37565b905060006116fe612050565b6000016000858152602001908152602001600020905080600001544211801561172b575080600101544211155b61176a576040517f08c379a000000000000000000000000000000000000000000000000000000000815260040161176190614e9e565b60405180910390fd5b60008160050154146117c15780600501548160080154106117c0576040517f08c379a00000000000000000000000000000000000000000000000000000000081526004016117b790614f0a565b60405180910390fd5b5b600061187e8260405180610120016040529081600082015481526020016001820154815260200160028201548152602001600382015481526020016004820154815260200160058201548152602001600682015481526020016007820160009054906101000a900473ffffffffffffffffffffffffffffffffffffffff1673ffffffffffffffffffffffffffffffffffffffff1673ffffffffffffffffffffffffffffffffffffffff16815260200160088201548152505061135f565b9050803410156118c3576040517f08c379a00000000000000000000000000000000000000000000000000000000081526004016118ba9061502b565b60405180910390fd5b6118df8386600160405180602001604052806000815250612203565b60018260080160008282546118f4919061504b565b925050819055506001858473ffffffffffffffffffffffffffffffffffffffff167f25b428dfde728ccfaddad7e29e4ac23c24ed7fd1a6e3e3f91894a9a073f5dfff60405160405180910390a46000606483600601543461195591906150a1565b61195f919061512a565b90506000813461196f9190614743565b90508360070160009054906101000a900473ffffffffffffffffffffffffffffffffffffffff1673ffffffffffffffffffffffffffffffffffffffff166108fc829081150290604051600060405180830381858888f193505050501580156119db573d6000803e3d6000fd5b506119e4611fca565b60040160009054906101000a900473ffffffffffffffffffffffffffffffffffffffff1673ffffffffffffffffffffffffffffffffffffffff166108fc839081150290604051600060405180830381858888f19350505050158015611a4d573d6000803e3d6000fd5b50600195505050505050919050565b8173ffffffffffffffffffffffffffffffffffffffff163373ffffffffffffffffffffffffffffffffffffffff161415611acb576040517f08c379a0000000000000000000000000000000000000000000000000000000008152600401611ac2906151cd565b60405180910390fd5b80611ad461218d565b60010160003373ffffffffffffffffffffffffffffffffffffffff1673ffffffffffffffffffffffffffffffffffffffff16815260200190815260200160002060008473ffffffffffffffffffffffffffffffffffffffff1673ffffffffffffffffffffffffffffffffffffffff16815260200190815260200160002060006101000a81548160ff0219169083151502179055508173ffffffffffffffffffffffffffffffffffffffff163373ffffffffffffffffffffffffffffffffffffffff167f17307eab39ab6107e8899845ad3d59bd9653f200f220920489ca2b5937696c3183604051611bc591906139c8565b60405180910390a35050565b6000611bdb611fca565b60040160009054906101000a900473ffffffffffffffffffffffffffffffffffffffff16905090565b6000611c0e612127565b6000016000838152602001908152602001600020549050919050565b6000848385611c399190614743565b87611c4491906150a1565b8486611c509190614743565b8489611c5c91906151ed565b611c6691906150a1565b8688611c7291906150a1565b611c7c919061504b565b611c869190614743565b611c90919061512a565b905095945050505050565b6000611ca561218d565b60010160008473ffffffffffffffffffffffffffffffffffffffff1673ffffffffffffffffffffffffffffffffffffffff16815260200190815260200160002060008373ffffffffffffffffffffffffffffffffffffffff1673ffffffffffffffffffffffffffffffffffffffff16815260200190815260200160002060009054906101000a900460ff16905092915050565b3373ffffffffffffffffffffffffffffffffffffffff168573ffffffffffffffffffffffffffffffffffffffff161480611d785750611d778533611c9b565b5b611db7576040517f08c379a0000000000000000000000000000000000000000000000000000000008152600401611dae90614cdf565b60405180910390fd5b611dc5338686868686612224565b5050505050565b60008073ffffffffffffffffffffffffffffffffffffffff168373ffffffffffffffffffffffffffffffffffffffff161415611e3d576040517f08c379a0000000000000000000000000000000000000000000000000000000008152600401611e3490615290565b60405180910390fd5b611e4561218d565b600001600083815260200190815260200160002060008473ffffffffffffffffffffffffffffffffffffffff1673ffffffffffffffffffffffffffffffffffffffff16815260200190815260200160002054905092915050565b6000807f326d0c59a7612f6a9919e2a8ee333c80ba689d8ba2634de89c85cbb04832e70590508091505090565b6000826000016000837bffffffffffffffffffffffffffffffffffffffffffffffffffffffff19167bffffffffffffffffffffffffffffffffffffffffffffffffffffffff1916815260200190815260200160002060009054906101000a900460ff16905092915050565b60006018600036905010158015611f535750611f523361116b565b5b15611f6757601436033560601c9050611f6f565b339050611f70565b5b90565b600081604051602001611f869190615327565b604051602081830303815290604052805190602001209050919050565b6000806000611fb28585612248565b91509150611fbf816122cb565b819250505092915050565b6000807f47dc25f21c7793543edaeb1ef19d41726ddbada967ae9a7980b9bd8a45228a5e90508091505090565b600081600001549050919050565b8061200e6120fa565b60000160008481526020019081526020016000209080519060200190612035929190613773565b505050565b6001816000016000828254019250508190555050565b6000807f6862122c88c20d0f389f9211fb45e4a0982f5f74838cd11cfb5e8c8b41fbe65990508091505090565b6000807fc8fcad8db84d3cc18b4c41d551ea0ee66dd599cde068d998e57d5e09332c131c90508091505090565b6000807fa5e014e253d3b66bd348c3cdd05f38b9805fff0b6471d004b58c6ada26cae99390508091505090565b806120e06120fa565b60010190805190602001906120f6929190613773565b5050565b6000807fb3408a5d8f30170919d3996b6cc182726500ad24733d17ace2f621485f6e7c8390508091505090565b6000807fb31c2c74f86ca3ce94d901f5f5bbe66f7161eec2f7b5aa0b75a86371436424ea90508091505090565b6000612162826000016124a0565b9050919050565b6121778686868686866124b1565b612185868686868686612698565b505050505050565b6000807f1799cf914cb0cb442ca7c7ac709ee40d0cb89e87351dc08d517fbda27d50c68b90508091505090565b60006121c983600001836129a4565b60001c905092915050565b60006121e2826000016124a0565b9050919050565b60006121f883600001836129a4565b60001c905092915050565b61221233600086868686612a18565b61221e84848484612bff565b50505050565b612232868686868686612a18565b612240868686868686612d89565b505050505050565b60008060418351141561228a5760008060006020860151925060408601519150606086015160001a905061227e87828585613001565b945094505050506122c4565b6040835114156122bb5760008060208501519150604085015190506122b086838361310e565b9350935050506122c4565b60006002915091505b9250929050565b600060048111156122df576122de61534d565b5b8160048111156122f2576122f161534d565b5b14156122fd5761249d565b600160048111156123115761231061534d565b5b8160048111156123245761232361534d565b5b1415612365576040517f08c379a000000000000000000000000000000000000000000000000000000000815260040161235c906153c8565b60405180910390fd5b600260048111156123795761237861534d565b5b81600481111561238c5761238b61534d565b5b14156123cd576040517f08c379a00000000000000000000000000000000000000000000000000000000081526004016123c490615434565b60405180910390fd5b600360048111156123e1576123e061534d565b5b8160048111156123f4576123f361534d565b5b1415612435576040517f08c379a000000000000000000000000000000000000000000000000000000000815260040161242c906154c6565b60405180910390fd5b6004808111156124485761244761534d565b5b81600481111561245b5761245a61534d565b5b141561249c576040517f08c379a000000000000000000000000000000000000000000000000000000000815260040161249390615558565b60405180910390fd5b5b50565b600081600001805490509050919050565b6124d08473ffffffffffffffffffffffffffffffffffffffff1661315c565b15612690578373ffffffffffffffffffffffffffffffffffffffff1663bc197c8187878686866040518663ffffffff1660e01b81526004016125169594939291906155cd565b602060405180830381600087803b15801561253057600080fd5b505af192505050801561256157506040513d601f19601f8201168201806040525081019061255e919061564a565b60015b6126075761256d615684565b806308c379a014156125ca57506125826156a6565b8061258d57506125cc565b806040517f08c379a00000000000000000000000000000000000000000000000000000000081526004016125c19190613e18565b60405180910390fd5b505b6040517f08c379a00000000000000000000000000000000000000000000000000000000081526004016125fe906157ae565b60405180910390fd5b63bc197c8160e01b7bffffffffffffffffffffffffffffffffffffffffffffffffffffffff1916817bffffffffffffffffffffffffffffffffffffffffffffffffffffffff19161461268e576040517f08c379a000000000000000000000000000000000000000000000000000000000815260040161268590615840565b60405180910390fd5b505b505050505050565b600073ffffffffffffffffffffffffffffffffffffffff168473ffffffffffffffffffffffffffffffffffffffff161415612708576040517f08c379a00000000000000000000000000000000000000000000000000000000081526004016126ff906158d2565b60405180910390fd5b815183511461274c576040517f08c379a000000000000000000000000000000000000000000000000000000000815260040161274390615964565b60405180910390fd5b61275a86868686868661316f565b600061276461218d565b600001905060005b845181101561291c57600085828151811061278a57612789614d91565b5b6020026020010151905060008583815181106127a9576127a8614d91565b5b60200260200101519050600084600084815260200190815260200160002060008b73ffffffffffffffffffffffffffffffffffffffff1673ffffffffffffffffffffffffffffffffffffffff1681526020019081526020016000205490508181101561284a576040517f08c379a0000000000000000000000000000000000000000000000000000000008152600401612841906159f6565b60405180910390fd5b81810385600085815260200190815260200160002060008c73ffffffffffffffffffffffffffffffffffffffff1673ffffffffffffffffffffffffffffffffffffffff16815260200190815260200160002081905550508084600084815260200190815260200160002060008a73ffffffffffffffffffffffffffffffffffffffff1673ffffffffffffffffffffffffffffffffffffffff1681526020019081526020016000206000828254612900919061504b565b925050819055505050808061291490614f96565b91505061276c565b508473ffffffffffffffffffffffffffffffffffffffff168673ffffffffffffffffffffffffffffffffffffffff168873ffffffffffffffffffffffffffffffffffffffff167f4a39dc06d4c0dbc64b70af90fd698a233a518aa5d07e595d983b8c0526c8f7fb8787604051612993929190615a16565b60405180910390a450505050505050565b6000818360000180549050116129ef576040517f08c379a00000000000000000000000000000000000000000000000000000000081526004016129e690615abf565b60405180910390fd5b826000018281548110612a0557612a04614d91565b5b9060005260206000200154905092915050565b612a378473ffffffffffffffffffffffffffffffffffffffff1661315c565b15612bf7578373ffffffffffffffffffffffffffffffffffffffff1663f23a6e6187878686866040518663ffffffff1660e01b8152600401612a7d959493929190615adf565b602060405180830381600087803b158015612a9757600080fd5b505af1925050508015612ac857506040513d601f19601f82011682018060405250810190612ac5919061564a565b60015b612b6e57612ad4615684565b806308c379a01415612b315750612ae96156a6565b80612af45750612b33565b806040517f08c379a0000000000000000000000000000000000000000000000000000000008152600401612b289190613e18565b60405180910390fd5b505b6040517f08c379a0000000000000000000000000000000000000000000000000000000008152600401612b65906157ae565b60405180910390fd5b63f23a6e6160e01b7bffffffffffffffffffffffffffffffffffffffffffffffffffffffff1916817bffffffffffffffffffffffffffffffffffffffffffffffffffffffff191614612bf5576040517f08c379a0000000000000000000000000000000000000000000000000000000008152600401612bec90615840565b60405180910390fd5b505b505050505050565b600073ffffffffffffffffffffffffffffffffffffffff168473ffffffffffffffffffffffffffffffffffffffff161415612c6f576040517f08c379a0000000000000000000000000000000000000000000000000000000008152600401612c6690615bab565b60405180910390fd5b612c8e33600086612c7f87613185565b612c8887613185565b8661316f565b6000612c9861218d565b60000160008581526020019081526020016000209050828160008773ffffffffffffffffffffffffffffffffffffffff1673ffffffffffffffffffffffffffffffffffffffff1681526020019081526020016000206000828254612cfc919061504b565b925050819055508473ffffffffffffffffffffffffffffffffffffffff16600073ffffffffffffffffffffffffffffffffffffffff163373ffffffffffffffffffffffffffffffffffffffff167fc3d58168c5ae7397731d063d5bbf3d657854427343f4c083240f7aacaa2d0f628787604051612d7a929190615bcb565b60405180910390a45050505050565b600073ffffffffffffffffffffffffffffffffffffffff168473ffffffffffffffffffffffffffffffffffffffff161415612df9576040517f08c379a0000000000000000000000000000000000000000000000000000000008152600401612df0906158d2565b60405180910390fd5b612e17868686612e0887613185565b612e1187613185565b8661316f565b6000612e2161218d565b6000019050600081600086815260200190815260200160002060008873ffffffffffffffffffffffffffffffffffffffff1673ffffffffffffffffffffffffffffffffffffffff16815260200190815260200160002054905083811015612ebd576040517f08c379a0000000000000000000000000000000000000000000000000000000008152600401612eb4906159f6565b60405180910390fd5b83810382600087815260200190815260200160002060008973ffffffffffffffffffffffffffffffffffffffff1673ffffffffffffffffffffffffffffffffffffffff16815260200190815260200160002081905550508281600086815260200190815260200160002060008773ffffffffffffffffffffffffffffffffffffffff1673ffffffffffffffffffffffffffffffffffffffff1681526020019081526020016000206000828254612f73919061504b565b925050819055508473ffffffffffffffffffffffffffffffffffffffff168673ffffffffffffffffffffffffffffffffffffffff168873ffffffffffffffffffffffffffffffffffffffff167fc3d58168c5ae7397731d063d5bbf3d657854427343f4c083240f7aacaa2d0f628787604051612ff0929190615bcb565b60405180910390a450505050505050565b6000807f7fffffffffffffffffffffffffffffff5d576e7357a4501ddfe92f46681b20a08360001c111561303c576000600391509150613105565b601b8560ff16141580156130545750601c8560ff1614155b15613066576000600491509150613105565b60006001878787876040516000815260200160405260405161308b9493929190615c1f565b6020604051602081039080840390855afa1580156130ad573d6000803e3d6000fd5b505050602060405103519050600073ffffffffffffffffffffffffffffffffffffffff168173ffffffffffffffffffffffffffffffffffffffff1614156130fc57600060019250925050613105565b80600092509250505b94509492505050565b6000806000807f7fffffffffffffffffffffffffffffffffffffffffffffffffffffffffffffff85169150601b8560ff1c01905061314e87828885613001565b935093505050935093915050565b600080823b905060008111915050919050565b61317d8686868686866131ff565b505050505050565b60606000600167ffffffffffffffff8111156131a4576131a36139fe565b5b6040519080825280602002602001820160405280156131d25781602001602082028036833780820191505090505b50905082816000815181106131ea576131e9614d91565b5b60200260200101818152505080915050919050565b61320d868686868686613215565b505050505050565b6132238686868686866134d0565b8373ffffffffffffffffffffffffffffffffffffffff168573ffffffffffffffffffffffffffffffffffffffff16146134c8576000613260612127565b9050600081600101905060008260020160008973ffffffffffffffffffffffffffffffffffffffff1673ffffffffffffffffffffffffffffffffffffffff168152602001908152602001600020905060008360020160008973ffffffffffffffffffffffffffffffffffffffff1673ffffffffffffffffffffffffffffffffffffffff168152602001908152602001600020905060005b87518110156134c257600087828151811061331557613314614d91565b5b6020026020010151905060008111156134ae57600089838151811061333d5761333c614d91565b5b60200260200101519050600073ffffffffffffffffffffffffffffffffffffffff168c73ffffffffffffffffffffffffffffffffffffffff1614156133ad578187600001600083815260200190815260200160002060008282546133a1919061504b565b925050819055506133f9565b816133b88d83611dcc565b14156133f8576133e28c8760008481526020019081526020016000206134d890919063ffffffff16565b506133f6818661350890919063ffffffff16565b505b5b600073ffffffffffffffffffffffffffffffffffffffff168b73ffffffffffffffffffffffffffffffffffffffff16141561345f578187600001600083815260200190815260200160002060008282546134539190614743565b925050819055506134ac565b600061346b8c83611dcc565b14156134ab576134958b87600084815260200190815260200160002061352290919063ffffffff16565b506134a9818561355290919063ffffffff16565b505b5b505b5080806134ba90614f96565b9150506132f7565b50505050505b505050505050565b505050505050565b6000613500836000018373ffffffffffffffffffffffffffffffffffffffff1660001b61356c565b905092915050565b600061351a836000018360001b61356c565b905092915050565b600061354a836000018373ffffffffffffffffffffffffffffffffffffffff1660001b61367e565b905092915050565b6000613564836000018360001b61367e565b905092915050565b6000808360010160008481526020019081526020016000205490506000811461367257600060018261359e9190614743565b9050600085600001600187600001805490506135ba9190614743565b815481106135cb576135ca614d91565b5b90600052602060002001549050808660000183815481106135ef576135ee614d91565b5b906000526020600020018190555060018261360a919061504b565b866001016000838152602001908152602001600020819055508560000180548061363757613636615c64565b5b600190038181906000526020600020016000905590558560010160008681526020019081526020016000206000905560019350505050613678565b60009150505b92915050565b600061368a83836136ee565b6136e35782600001829080600181540180825580915050600190039060005260206000200160009091909190915055826000018054905083600101600084815260200190815260200160002081905550600190506136e8565b600090505b92915050565b600080836001016000848152602001908152602001600020541415905092915050565b60405180610120016040528060008152602001600081526020016000815260200160008152602001600081526020016000815260200160008152602001600073ffffffffffffffffffffffffffffffffffffffff168152602001600081525090565b82805461377f90614b17565b90600052602060002090601f0160209004810192826137a157600085556137e8565b82601f106137ba57805160ff19168380011785556137e8565b828001600101855582156137e8579182015b828111156137e75782518255916020019190600101906137cc565b5b5090506137f591906137f9565b5090565b5b808211156138125760008160009055506001016137fa565b5090565b6000604051905090565b600080fd5b600080fd5b600073ffffffffffffffffffffffffffffffffffffffff82169050919050565b60006138558261382a565b9050919050565b6138658161384a565b811461387057600080fd5b50565b6000813590506138828161385c565b92915050565b6000819050919050565b61389b81613888565b81146138a657600080fd5b50565b6000813590506138b881613892565b92915050565b600080604083850312156138d5576138d4613820565b5b60006138e385828601613873565b92505060206138f4858286016138a9565b9150509250929050565b61390781613888565b82525050565b600060208201905061392260008301846138fe565b92915050565b60007fffffffff0000000000000000000000000000000000000000000000000000000082169050919050565b61395d81613928565b811461396857600080fd5b50565b60008135905061397a81613954565b92915050565b60006020828403121561399657613995613820565b5b60006139a48482850161396b565b91505092915050565b60008115159050919050565b6139c2816139ad565b82525050565b60006020820190506139dd60008301846139b9565b92915050565b600080fd5b600080fd5b6000601f19601f8301169050919050565b7f4e487b7100000000000000000000000000000000000000000000000000000000600052604160045260246000fd5b613a36826139ed565b810181811067ffffffffffffffff82111715613a5557613a546139fe565b5b80604052505050565b6000613a68613816565b9050613a748282613a2d565b919050565b600067ffffffffffffffff821115613a9457613a936139fe565b5b613a9d826139ed565b9050602081019050919050565b82818337600083830152505050565b6000613acc613ac784613a79565b613a5e565b905082815260208101848484011115613ae857613ae76139e8565b5b613af3848285613aaa565b509392505050565b600082601f830112613b1057613b0f6139e3565b5b8135613b20848260208601613ab9565b91505092915050565b600067ffffffffffffffff821115613b4457613b436139fe565b5b613b4d826139ed565b9050602081019050919050565b6000613b6d613b6884613b29565b613a5e565b905082815260208101848484011115613b8957613b886139e8565b5b613b94848285613aaa565b509392505050565b600082601f830112613bb157613bb06139e3565b5b8135613bc1848260208601613b5a565b91505092915050565b60008060008060008060008060006101208a8c031215613bed57613bec613820565b5b60008a013567ffffffffffffffff811115613c0b57613c0a613825565b5b613c178c828d01613afb565b9950506020613c288c828d016138a9565b9850506040613c398c828d016138a9565b9750506060613c4a8c828d016138a9565b9650506080613c5b8c828d016138a9565b95505060a0613c6c8c828d016138a9565b94505060c0613c7d8c828d016138a9565b93505060e0613c8e8c828d016138a9565b9250506101008a013567ffffffffffffffff811115613cb057613caf613825565b5b613cbc8c828d01613b9c565b9150509295985092959850929598565b600080600080600060a08688031215613ce857613ce7613820565b5b600086013567ffffffffffffffff811115613d0657613d05613825565b5b613d1288828901613afb565b9550506020613d2388828901613873565b9450506040613d3488828901613873565b9350506060613d4588828901613873565b9250506080613d5688828901613873565b9150509295509295909350565b600060208284031215613d7957613d78613820565b5b6000613d87848285016138a9565b91505092915050565b600081519050919050565b600082825260208201905092915050565b60005b83811015613dca578082015181840152602081019050613daf565b83811115613dd9576000848401525b50505050565b6000613dea82613d90565b613df48185613d9b565b9350613e04818560208601613dac565b613e0d816139ed565b840191505092915050565b60006020820190508181036000830152613e328184613ddf565b905092915050565b600060208284031215613e5057613e4f613820565b5b6000613e5e84828501613873565b91505092915050565b600067ffffffffffffffff821115613e8257613e816139fe565b5b602082029050602081019050919050565b600080fd5b6000613eab613ea684613e67565b613a5e565b90508083825260208201905060208402830185811115613ece57613ecd613e93565b5b835b81811015613ef75780613ee388826138a9565b845260208401935050602081019050613ed0565b5050509392505050565b600082601f830112613f1657613f156139e3565b5b8135613f26848260208601613e98565b91505092915050565b600080600080600060a08688031215613f4b57613f4a613820565b5b6000613f5988828901613873565b9550506020613f6a88828901613873565b945050604086013567ffffffffffffffff811115613f8b57613f8a613825565b5b613f9788828901613f01565b935050606086013567ffffffffffffffff811115613fb857613fb7613825565b5b613fc488828901613f01565b925050608086013567ffffffffffffffff811115613fe557613fe4613825565b5b613ff188828901613b9c565b9150509295509295909350565b6140078161384a565b82525050565b60006020820190506140226000830184613ffe565b92915050565b600067ffffffffffffffff821115614043576140426139fe565b5b602082029050602081019050919050565b600061406761406284614028565b613a5e565b9050808382526020820190506020840283018581111561408a57614089613e93565b5b835b818110156140b3578061409f8882613873565b84526020840193505060208101905061408c565b5050509392505050565b600082601f8301126140d2576140d16139e3565b5b81356140e2848260208601614054565b91505092915050565b6000806040838503121561410257614101613820565b5b600083013567ffffffffffffffff8111156141205761411f613825565b5b61412c858286016140bd565b925050602083013567ffffffffffffffff81111561414d5761414c613825565b5b61415985828601613f01565b9150509250929050565b600081519050919050565b600082825260208201905092915050565b6000819050602082019050919050565b61419881613888565b82525050565b60006141aa838361418f565b60208301905092915050565b6000602082019050919050565b60006141ce82614163565b6141d8818561416e565b93506141e38361417f565b8060005b838110156142145781516141fb888261419e565b9750614206836141b6565b9250506001810190506141e7565b5085935050505092915050565b6000602082019050818103600083015261423b81846141c3565b905092915050565b600080fd5b60006142538261382a565b9050919050565b61426381614248565b811461426e57600080fd5b50565b6000813590506142808161425a565b92915050565b6000610120828403121561429d5761429c614243565b5b6142a8610120613a5e565b905060006142b8848285016138a9565b60008301525060206142cc848285016138a9565b60208301525060406142e0848285016138a9565b60408301525060606142f4848285016138a9565b6060830152506080614308848285016138a9565b60808301525060a061431c848285016138a9565b60a08301525060c0614330848285016138a9565b60c08301525060e061434484828501614271565b60e083015250610100614359848285016138a9565b6101008301525092915050565b6000610120828403121561437d5761437c613820565b5b600061438b84828501614286565b91505092915050565b61439d81614248565b82525050565b610120820160008201516143ba600085018261418f565b5060208201516143cd602085018261418f565b5060408201516143e0604085018261418f565b5060608201516143f3606085018261418f565b506080820151614406608085018261418f565b5060a082015161441960a085018261418f565b5060c082015161442c60c085018261418f565b5060e082015161443f60e0850182614394565b5061010082015161445461010085018261418f565b50505050565b60006101208201905061447060008301846143a3565b92915050565b600081519050919050565b600082825260208201905092915050565b6000819050602082019050919050565b6144ab8161384a565b82525050565b60006144bd83836144a2565b60208301905092915050565b6000602082019050919050565b60006144e182614476565b6144eb8185614481565b93506144f683614492565b8060005b8381101561452757815161450e88826144b1565b9750614519836144c9565b9250506001810190506144fa565b5085935050505092915050565b6000602082019050818103600083015261454e81846144d6565b905092915050565b61455f816139ad565b811461456a57600080fd5b50565b60008135905061457c81614556565b92915050565b6000806040838503121561459957614598613820565b5b60006145a785828601613873565b92505060206145b88582860161456d565b9150509250929050565b600080600080600060a086880312156145de576145dd613820565b5b60006145ec888289016138a9565b95505060206145fd888289016138a9565b945050604061460e888289016138a9565b935050606061461f888289016138a9565b9250506080614630888289016138a9565b9150509295509295909350565b6000806040838503121561465457614653613820565b5b600061466285828601613873565b925050602061467385828601613873565b9150509250929050565b600080600080600060a0868803121561469957614698613820565b5b60006146a788828901613873565b95505060206146b888828901613873565b94505060406146c9888289016138a9565b93505060606146da888289016138a9565b925050608086013567ffffffffffffffff8111156146fb576146fa613825565b5b61470788828901613b9c565b9150509295509295909350565b7f4e487b7100000000000000000000000000000000000000000000000000000000600052601160045260246000fd5b600061474e82613888565b915061475983613888565b92508282101561476c5761476b614714565b5b828203905092915050565b7f4954000000000000000000000000000000000000000000000000000000000000600082015250565b60006147ad600283613d9b565b91506147b882614777565b602082019050919050565b600060208201905081810360008301526147dc816147a0565b9050919050565b7f4950000000000000000000000000000000000000000000000000000000000000600082015250565b6000614819600283613d9b565b9150614824826147e3565b602082019050919050565b600060208201905081810360008301526148488161480c565b9050919050565b7f49534f0000000000000000000000000000000000000000000000000000000000600082015250565b6000614885600383613d9b565b91506148908261484f565b602082019050919050565b600060208201905081810360008301526148b481614878565b9050919050565b600081905092915050565b60006148d182613d90565b6148db81856148bb565b93506148eb818560208601613dac565b80840191505092915050565b6000819050919050565b61491261490d82613888565b6148f7565b82525050565b60008160601b9050919050565b600061493082614918565b9050919050565b600061494282614925565b9050919050565b61495a6149558261384a565b614937565b82525050565b600061496c828d6148c6565b9150614978828c614901565b602082019150614988828b614901565b602082019150614998828a614901565b6020820191506149a88289614901565b6020820191506149b88288614901565b6020820191506149c88287614901565b6020820191506149d88286614901565b6020820191506149e88285614949565b6014820191506149f88284614901565b6020820191508190509b9a5050505050505050505050565b7f4e4d000000000000000000000000000000000000000000000000000000000000600082015250565b6000614a46600283613d9b565b9150614a5182614a10565b602082019050919050565b60006020820190508181036000830152614a7581614a39565b9050919050565b7f4e4f000000000000000000000000000000000000000000000000000000000000600082015250565b6000614ab2600283613d9b565b9150614abd82614a7c565b602082019050919050565b60006020820190508181036000830152614ae181614aa5565b9050919050565b7f4e487b7100000000000000000000000000000000000000000000000000000000600052602260045260246000fd5b60006002820490506001821680614b2f57607f821691505b60208210811415614b4357614b42614ae8565b5b50919050565b7f455243313135355552493a20746f6b656e4964206e6f74206578697374000000600082015250565b6000614b7f601d83613d9b565b9150614b8a82614b49565b602082019050919050565b60006020820190508181036000830152614bae81614b72565b9050919050565b60008190508160005260206000209050919050565b60008154614bd781614b17565b614be181866148bb565b94506001821660008114614bfc5760018114614c0d57614c40565b60ff19831686528186019350614c40565b614c1685614bb5565b60005b83811015614c3857815481890152600182019150602081019050614c19565b838801955050505b50505092915050565b6000614c558285614bca565b9150614c6182846148c6565b91508190509392505050565b7f455243313135353a2063616c6c6572206973206e6f74206f776e6572206e6f7260008201527f20617070726f7665640000000000000000000000000000000000000000000000602082015250565b6000614cc9602983613d9b565b9150614cd482614c6d565b604082019050919050565b60006020820190508181036000830152614cf881614cbc565b9050919050565b7f455243313135353a206163636f756e747320616e6420696473206c656e67746860008201527f206d69736d617463680000000000000000000000000000000000000000000000602082015250565b6000614d5b602983613d9b565b9150614d6682614cff565b604082019050919050565b60006020820190508181036000830152614d8a81614d4e565b9050919050565b7f4e487b7100000000000000000000000000000000000000000000000000000000600052603260045260246000fd5b7f455243313135353a2062617463682062616c616e636520717565727920666f7260008201527f20746865207a65726f2061646472657373000000000000000000000000000000602082015250565b6000614e1c603183613d9b565b9150614e2782614dc0565b604082019050919050565b60006020820190508181036000830152614e4b81614e0f565b9050919050565b7f4f4f540000000000000000000000000000000000000000000000000000000000600082015250565b6000614e88600383613d9b565b9150614e9382614e52565b602082019050919050565b60006020820190508181036000830152614eb781614e7b565b9050919050565b7f4352000000000000000000000000000000000000000000000000000000000000600082015250565b6000614ef4600283613d9b565b9150614eff82614ebe565b602082019050919050565b60006020820190508181036000830152614f2381614ee7565b9050919050565b7f444e450000000000000000000000000000000000000000000000000000000000600082015250565b6000614f60600383613d9b565b9150614f6b82614f2a565b602082019050919050565b60006020820190508181036000830152614f8f81614f53565b9050919050565b6000614fa182613888565b91507fffffffffffffffffffffffffffffffffffffffffffffffffffffffffffffffff821415614fd457614fd3614714565b5b600182019050919050565b7f4941000000000000000000000000000000000000000000000000000000000000600082015250565b6000615015600283613d9b565b915061502082614fdf565b602082019050919050565b6000602082019050818103600083015261504481615008565b9050919050565b600061505682613888565b915061506183613888565b9250827fffffffffffffffffffffffffffffffffffffffffffffffffffffffffffffffff0382111561509657615095614714565b5b828201905092915050565b60006150ac82613888565b91506150b783613888565b9250817fffffffffffffffffffffffffffffffffffffffffffffffffffffffffffffffff04831182151516156150f0576150ef614714565b5b828202905092915050565b7f4e487b7100000000000000000000000000000000000000000000000000000000600052601260045260246000fd5b600061513582613888565b915061514083613888565b9250826151505761514f6150fb565b5b828204905092915050565b7f455243313135353a2073657474696e6720617070726f76616c2073746174757360008201527f20666f722073656c660000000000000000000000000000000000000000000000602082015250565b60006151b7602983613d9b565b91506151c28261515b565b604082019050919050565b600060208201905081810360008301526151e6816151aa565b9050919050565b60006151f882613888565b915061520383613888565b925082615213576152126150fb565b5b828206905092915050565b7f455243313135353a2062616c616e636520717565727920666f7220746865207a60008201527f65726f2061646472657373000000000000000000000000000000000000000000602082015250565b600061527a602b83613d9b565b91506152858261521e565b604082019050919050565b600060208201905081810360008301526152a98161526d565b9050919050565b7f19457468657265756d205369676e6564204d6573736167653a0a333200000000600082015250565b60006152e6601c836148bb565b91506152f1826152b0565b601c82019050919050565b6000819050919050565b6000819050919050565b61532161531c826152fc565b615306565b82525050565b6000615332826152d9565b915061533e8284615310565b60208201915081905092915050565b7f4e487b7100000000000000000000000000000000000000000000000000000000600052602160045260246000fd5b7f45434453413a20696e76616c6964207369676e61747572650000000000000000600082015250565b60006153b2601883613d9b565b91506153bd8261537c565b602082019050919050565b600060208201905081810360008301526153e1816153a5565b9050919050565b7f45434453413a20696e76616c6964207369676e6174757265206c656e67746800600082015250565b600061541e601f83613d9b565b9150615429826153e8565b602082019050919050565b6000602082019050818103600083015261544d81615411565b9050919050565b7f45434453413a20696e76616c6964207369676e6174757265202773272076616c60008201527f7565000000000000000000000000000000000000000000000000000000000000602082015250565b60006154b0602283613d9b565b91506154bb82615454565b604082019050919050565b600060208201905081810360008301526154df816154a3565b9050919050565b7f45434453413a20696e76616c6964207369676e6174757265202776272076616c60008201527f7565000000000000000000000000000000000000000000000000000000000000602082015250565b6000615542602283613d9b565b915061554d826154e6565b604082019050919050565b6000602082019050818103600083015261557181615535565b9050919050565b600081519050919050565b600082825260208201905092915050565b600061559f82615578565b6155a98185615583565b93506155b9818560208601613dac565b6155c2816139ed565b840191505092915050565b600060a0820190506155e26000830188613ffe565b6155ef6020830187613ffe565b818103604083015261560181866141c3565b9050818103606083015261561581856141c3565b905081810360808301526156298184615594565b90509695505050505050565b60008151905061564481613954565b92915050565b6000602082840312156156605761565f613820565b5b600061566e84828501615635565b91505092915050565b60008160e01c9050919050565b600060033d11156156a35760046000803e6156a0600051615677565b90505b90565b600060443d10156156b657615739565b6156be613816565b60043d036004823e80513d602482011167ffffffffffffffff821117156156e6575050615739565b808201805167ffffffffffffffff8111156157045750505050615739565b80602083010160043d038501811115615721575050505050615739565b61573082602001850186613a2d565b82955050505050505b90565b7f455243313135353a207472616e7366657220746f206e6f6e204552433131353560008201527f526563656976657220696d706c656d656e746572000000000000000000000000602082015250565b6000615798603483613d9b565b91506157a38261573c565b604082019050919050565b600060208201905081810360008301526157c78161578b565b9050919050565b7f455243313135353a204552433131353552656365697665722072656a6563746560008201527f6420746f6b656e73000000000000000000000000000000000000000000000000602082015250565b600061582a602883613d9b565b9150615835826157ce565b604082019050919050565b600060208201905081810360008301526158598161581d565b9050919050565b7f455243313135353a207472616e7366657220746f20746865207a65726f20616460008201527f6472657373000000000000000000000000000000000000000000000000000000602082015250565b60006158bc602583613d9b565b91506158c782615860565b604082019050919050565b600060208201905081810360008301526158eb816158af565b9050919050565b7f455243313135353a2069647320616e6420616d6f756e7473206c656e6774682060008201527f6d69736d61746368000000000000000000000000000000000000000000000000602082015250565b600061594e602883613d9b565b9150615959826158f2565b604082019050919050565b6000602082019050818103600083015261597d81615941565b9050919050565b7f455243313135353a20696e73756666696369656e742062616c616e636573206660008201527f6f72207472616e73666572000000000000000000000000000000000000000000602082015250565b60006159e0602b83613d9b565b91506159eb82615984565b604082019050919050565b60006020820190508181036000830152615a0f816159d3565b9050919050565b60006040820190508181036000830152615a3081856141c3565b90508181036020830152615a4481846141c3565b90509392505050565b7f456e756d657261626c655365743a20696e646578206f7574206f6620626f756e60008201527f6473000000000000000000000000000000000000000000000000000000000000602082015250565b6000615aa9602283613d9b565b9150615ab482615a4d565b604082019050919050565b60006020820190508181036000830152615ad881615a9c565b9050919050565b600060a082019050615af46000830188613ffe565b615b016020830187613ffe565b615b0e60408301866138fe565b615b1b60608301856138fe565b8181036080830152615b2d8184615594565b90509695505050505050565b7f455243313135353a206d696e7420746f20746865207a65726f2061646472657360008201527f7300000000000000000000000000000000000000000000000000000000000000602082015250565b6000615b95602183613d9b565b9150615ba082615b39565b604082019050919050565b60006020820190508181036000830152615bc481615b88565b9050919050565b6000604082019050615be060008301856138fe565b615bed60208301846138fe565b9392505050565b615bfd816152fc565b82525050565b600060ff82169050919050565b615c1981615c03565b82525050565b6000608082019050615c346000830187615bf4565b615c416020830186615c10565b615c4e6040830185615bf4565b615c5b6060830184615bf4565b95945050505050565b7f4e487b7100000000000000000000000000000000000000000000000000000000600052603160045260246000fdfea264697066735822122073d70f29f5ae13dd4277a9fa75700bd3c9a264ebe2b4f97ca4c9d36639faf56764736f6c63430008090033",
  "devdoc": {
    "kind": "dev",
    "methods": {
      "accountsByToken(uint256)": {
        "params": {
          "id": "token id to query"
        },
        "returns": {
          "_0": "list of holder addresses"
        }
      },
      "balanceOf(address,uint256)": {
        "params": {
          "account": "address to query",
          "id": "token to query"
        },
        "returns": {
          "_0": "token balance"
        }
      },
      "balanceOfBatch(address[],uint256[])": {
        "params": {
          "accounts": "addresss to query",
          "ids": "tokens to query"
        },
        "returns": {
          "_0": "token balances"
        }
      },
      "isApprovedForAll(address,address)": {
        "params": {
          "account": "address to query for approval granted",
          "operator": "address to query for approval received"
        },
        "returns": {
          "_0": "whether operator is approved to spend tokens held by account"
        }
      },
      "safeBatchTransferFrom(address,address,uint256[],uint256[],bytes)": {
        "params": {
          "amounts": "list of quantities of tokens to transfer",
          "data": "data payload",
          "from": "sender of tokens",
          "ids": "list of token IDs",
          "to": "receiver of tokens"
        }
      },
      "safeTransferFrom(address,address,uint256,uint256,bytes)": {
        "params": {
          "amount": "quantity of tokens to transfer",
          "data": "data payload",
          "from": "sender of tokens",
          "id": "token ID",
          "to": "receiver of tokens"
        }
      },
      "setApprovalForAll(address,bool)": {
        "params": {
          "operator": "address whose approval status to update",
          "status": "whether operator should be considered approved"
        }
      },
      "supportsInterface(bytes4)": {
        "params": {
          "interfaceId": "interface id"
        },
        "returns": {
          "_0": "bool whether interface is supported"
        }
      },
      "tokensByAccount(address)": {
        "params": {
          "account": "address to query"
        },
        "returns": {
          "_0": "list of token ids"
        }
      },
      "totalHolders(uint256)": {
        "params": {
          "id": "token id to query"
        },
        "returns": {
          "_0": "quantity of holders"
        }
      },
      "totalSupply(uint256)": {
        "params": {
          "id": "token id to query"
        },
        "returns": {
          "_0": "token supply"
        }
      }
    },
    "version": 1
  },
  "userdoc": {
    "kind": "user",
    "methods": {
      "accountsByToken(uint256)": {
        "notice": "query holders of given token"
      },
      "balanceOf(address,uint256)": {
        "notice": "query the balance of given token held by given address"
      },
      "balanceOfBatch(address[],uint256[])": {
        "notice": "query the balances of given tokens held by given addresses"
      },
      "isApprovedForAll(address,address)": {
        "notice": "query approval status of given operator with respect to given address"
      },
      "safeBatchTransferFrom(address,address,uint256[],uint256[],bytes)": {
        "notice": "transfer batch of tokens between given addresses, checking for ERC1155Receiver implementation if applicable"
      },
      "safeTransferFrom(address,address,uint256,uint256,bytes)": {
        "notice": "transfer tokens between given addresses, checking for ERC1155Receiver implementation if applicable"
      },
      "setApprovalForAll(address,bool)": {
        "notice": "grant approval to or revoke approval from given operator to spend held tokens"
      },
      "supportsInterface(bytes4)": {
        "notice": "query whether contract has registered support for given interface"
      },
      "tokensByAccount(address)": {
        "notice": "query tokens held by given address"
      },
      "totalHolders(uint256)": {
        "notice": "query total number of holders for given token"
      },
      "totalSupply(uint256)": {
        "notice": "query total minted supply of given token"
      }
    },
    "version": 1
  },
  "storageLayout": {
    "storage": [],
    "types": null
  }
}