{
  "address": "0xb55A26Dfa387cDcCACA0d3bc2A9A148d1d6EEFFd",
  "abi": [
    {
      "anonymous": false,
      "inputs": [
        {
          "indexed": true,
          "internalType": "address",
          "name": "account",
          "type": "address"
        },
        {
          "indexed": true,
          "internalType": "address",
          "name": "operator",
          "type": "address"
        },
        {
          "indexed": false,
          "internalType": "bool",
          "name": "approved",
          "type": "bool"
        }
      ],
      "name": "ApprovalForAll",
      "type": "event"
    },
    {
      "anonymous": false,
      "inputs": [
        {
          "indexed": true,
          "internalType": "address",
          "name": "account",
          "type": "address"
        },
        {
          "indexed": true,
          "internalType": "uint256",
          "name": "tokenId",
          "type": "uint256"
        },
        {
          "indexed": true,
          "internalType": "uint256",
          "name": "amount",
          "type": "uint256"
        }
      ],
      "name": "DestinationMinted",
      "type": "event"
    },
    {
      "anonymous": false,
      "inputs": [
        {
          "indexed": true,
          "internalType": "address",
          "name": "account",
          "type": "address"
        },
        {
          "indexed": true,
          "internalType": "uint256",
          "name": "tokenId",
          "type": "uint256"
        },
        {
          "indexed": true,
          "internalType": "uint256",
          "name": "amount",
          "type": "uint256"
        }
      ],
      "name": "Minted",
      "type": "event"
    },
    {
      "anonymous": false,
      "inputs": [
        {
          "indexed": true,
          "internalType": "address",
          "name": "operator",
          "type": "address"
        },
        {
          "indexed": true,
          "internalType": "address",
          "name": "from",
          "type": "address"
        },
        {
          "indexed": true,
          "internalType": "address",
          "name": "to",
          "type": "address"
        },
        {
          "indexed": false,
          "internalType": "uint256[]",
          "name": "ids",
          "type": "uint256[]"
        },
        {
          "indexed": false,
          "internalType": "uint256[]",
          "name": "values",
          "type": "uint256[]"
        }
      ],
      "name": "TransferBatch",
      "type": "event"
    },
    {
      "anonymous": false,
      "inputs": [
        {
          "indexed": true,
          "internalType": "address",
          "name": "operator",
          "type": "address"
        },
        {
          "indexed": true,
          "internalType": "address",
          "name": "from",
          "type": "address"
        },
        {
          "indexed": true,
          "internalType": "address",
          "name": "to",
          "type": "address"
        },
        {
          "indexed": false,
          "internalType": "uint256",
          "name": "id",
          "type": "uint256"
        },
        {
          "indexed": false,
          "internalType": "uint256",
          "name": "value",
          "type": "uint256"
        }
      ],
      "name": "TransferSingle",
      "type": "event"
    },
    {
      "anonymous": false,
      "inputs": [
        {
          "indexed": false,
          "internalType": "string",
          "name": "value",
          "type": "string"
        },
        {
          "indexed": true,
          "internalType": "uint256",
          "name": "id",
          "type": "uint256"
        }
      ],
      "name": "URI",
      "type": "event"
    },
    {
      "inputs": [
        {
          "internalType": "address",
          "name": "account",
          "type": "address"
        },
        {
          "internalType": "uint256",
          "name": "id",
          "type": "uint256"
        }
      ],
      "name": "balanceOf",
      "outputs": [
        {
          "internalType": "uint256",
          "name": "",
          "type": "uint256"
        }
      ],
      "stateMutability": "view",
      "type": "function"
    },
    {
      "inputs": [
        {
          "internalType": "address[]",
          "name": "accounts",
          "type": "address[]"
        },
        {
          "internalType": "uint256[]",
          "name": "ids",
          "type": "uint256[]"
        }
      ],
      "name": "balanceOfBatch",
      "outputs": [
        {
          "internalType": "uint256[]",
          "name": "",
          "type": "uint256[]"
        }
      ],
      "stateMutability": "view",
      "type": "function"
    },
    {
      "inputs": [
        {
          "internalType": "uint256",
          "name": "_tokenId",
          "type": "uint256"
        }
      ],
      "name": "getDrop",
      "outputs": [
        {
          "components": [
            {
              "internalType": "uint256",
              "name": "timeStart",
              "type": "uint256"
            },
            {
              "internalType": "uint256",
              "name": "timeEnd",
              "type": "uint256"
            },
            {
              "internalType": "uint256",
              "name": "shareOncyber",
              "type": "uint256"
            },
            {
              "internalType": "uint256",
              "name": "price",
              "type": "uint256"
            },
            {
              "internalType": "uint256",
              "name": "amountCap",
              "type": "uint256"
            },
            {
              "internalType": "uint256",
              "name": "minted",
              "type": "uint256"
            },
            {
              "internalType": "address payable",
              "name": "creator",
              "type": "address"
            }
          ],
          "internalType": "struct LibUtilityStorage.Drop",
          "name": "",
          "type": "tuple"
        }
      ],
      "stateMutability": "view",
      "type": "function"
    },
    {
      "inputs": [
        {
          "internalType": "string",
          "name": "_uri",
          "type": "string"
        },
        {
          "internalType": "address",
          "name": "_manager",
          "type": "address"
        },
        {
          "internalType": "address",
          "name": "_trustedForwarder",
          "type": "address"
        },
        {
          "internalType": "address",
          "name": "_opensea",
          "type": "address"
        },
        {
          "internalType": "address",
          "name": "_oncyber",
          "type": "address"
        }
      ],
      "name": "initialize",
      "outputs": [],
      "stateMutability": "nonpayable",
      "type": "function"
    },
    {
      "inputs": [
        {
          "internalType": "address",
          "name": "account",
          "type": "address"
        },
        {
          "internalType": "address",
          "name": "operator",
          "type": "address"
        }
      ],
      "name": "isApprovedForAll",
      "outputs": [
        {
          "internalType": "bool",
          "name": "",
          "type": "bool"
        }
      ],
      "stateMutability": "view",
      "type": "function"
    },
    {
      "inputs": [
        {
          "internalType": "address",
          "name": "forwarder",
          "type": "address"
        }
      ],
      "name": "isTrustedForwarder",
      "outputs": [
        {
          "internalType": "bool",
          "name": "",
          "type": "bool"
        }
      ],
      "stateMutability": "view",
      "type": "function"
    },
    {
      "inputs": [],
      "name": "manager",
      "outputs": [
        {
          "internalType": "address",
          "name": "",
          "type": "address"
        }
      ],
      "stateMutability": "view",
      "type": "function"
    },
    {
      "inputs": [
        {
          "internalType": "string",
          "name": "_uri",
          "type": "string"
        },
        {
          "internalType": "uint256",
          "name": "_timeStart",
          "type": "uint256"
        },
        {
          "internalType": "uint256",
          "name": "_timeEnd",
          "type": "uint256"
        },
        {
          "internalType": "uint256",
          "name": "_price",
          "type": "uint256"
        },
        {
          "internalType": "uint256",
          "name": "_amountCap",
          "type": "uint256"
        },
        {
          "internalType": "uint256",
          "name": "_shareOncyber",
          "type": "uint256"
        },
        {
          "internalType": "bytes",
          "name": "_signature",
          "type": "bytes"
        }
      ],
      "name": "mint",
      "outputs": [
        {
          "internalType": "uint256",
          "name": "_tokenId",
          "type": "uint256"
        }
      ],
      "stateMutability": "nonpayable",
      "type": "function"
    },
    {
      "inputs": [
        {
          "internalType": "uint256",
          "name": "_tokenId",
          "type": "uint256"
        }
      ],
      "name": "mintEdition",
      "outputs": [
        {
          "internalType": "bool",
          "name": "",
          "type": "bool"
        }
      ],
      "stateMutability": "payable",
      "type": "function"
    },
    {
      "inputs": [
        {
          "internalType": "address",
          "name": "_minter",
          "type": "address"
        }
      ],
      "name": "minterNonce",
      "outputs": [
        {
          "internalType": "uint256",
          "name": "",
          "type": "uint256"
        }
      ],
      "stateMutability": "view",
      "type": "function"
    },
    {
      "inputs": [],
      "name": "oncyber",
      "outputs": [
        {
          "internalType": "address",
          "name": "",
          "type": "address"
        }
      ],
      "stateMutability": "view",
      "type": "function"
    },
    {
      "inputs": [
        {
          "internalType": "address",
          "name": "from",
          "type": "address"
        },
        {
          "internalType": "address",
          "name": "to",
          "type": "address"
        },
        {
          "internalType": "uint256[]",
          "name": "ids",
          "type": "uint256[]"
        },
        {
          "internalType": "uint256[]",
          "name": "amounts",
          "type": "uint256[]"
        },
        {
          "internalType": "bytes",
          "name": "data",
          "type": "bytes"
        }
      ],
      "name": "safeBatchTransferFrom",
      "outputs": [],
      "stateMutability": "nonpayable",
      "type": "function"
    },
    {
      "inputs": [
        {
          "internalType": "address",
          "name": "from",
          "type": "address"
        },
        {
          "internalType": "address",
          "name": "to",
          "type": "address"
        },
        {
          "internalType": "uint256",
          "name": "id",
          "type": "uint256"
        },
        {
          "internalType": "uint256",
          "name": "amount",
          "type": "uint256"
        },
        {
          "internalType": "bytes",
          "name": "data",
          "type": "bytes"
        }
      ],
      "name": "safeTransferFrom",
      "outputs": [],
      "stateMutability": "nonpayable",
      "type": "function"
    },
    {
      "inputs": [
        {
          "internalType": "address",
          "name": "operator",
          "type": "address"
        },
        {
          "internalType": "bool",
          "name": "status",
          "type": "bool"
        }
      ],
      "name": "setApprovalForAll",
      "outputs": [],
      "stateMutability": "nonpayable",
      "type": "function"
    },
    {
      "inputs": [
        {
          "internalType": "bytes4",
          "name": "interfaceId",
          "type": "bytes4"
        }
      ],
      "name": "supportsInterface",
      "outputs": [
        {
          "internalType": "bool",
          "name": "",
          "type": "bool"
        }
      ],
      "stateMutability": "view",
      "type": "function"
    },
    {
      "inputs": [],
      "name": "totalSupply",
      "outputs": [
        {
          "internalType": "uint256",
          "name": "",
          "type": "uint256"
        }
      ],
      "stateMutability": "view",
      "type": "function"
    },
    {
      "inputs": [
        {
          "internalType": "uint256",
          "name": "_tokenId",
          "type": "uint256"
        }
      ],
      "name": "uri",
      "outputs": [
        {
          "internalType": "string",
          "name": "",
          "type": "string"
        }
      ],
      "stateMutability": "view",
      "type": "function"
    }
  ],
  "transactionHash": "0xe5548f294c64b5c09568d6a505300af4160431b57d4ae4b6f40f724c7085d92e",
  "args": [],
  "solcInputHash": "61a20360c3b057bf8c396e37e838fcf7",
  "bytecode": "0x608060405234801561001057600080fd5b50612980806100206000396000f3fe6080604052600436106100fd5760003560e01c8063481c6a7511610095578063a22cb46511610064578063a22cb46514610350578063bc01188e14610370578063dcf2cad4146103ad578063e985e9c5146103cd578063f242432a146103ed57600080fd5b8063481c6a751461021c5780634e1273f41461025b578063572b6c05146102885780636787d449146102d657600080fd5b80630e89341c116100d15780630e89341c1461019a57806318160ddd146101c75780631b023947146101dc5780632eb2c2d6146101fc57600080fd5b8062fdd58e1461010257806301ffc9a71461013557806305322b74146101655780630b885ac314610178575b600080fd5b34801561010e57600080fd5b5061012261011d3660046120bc565b61040d565b6040519081526020015b60405180910390f35b34801561014157600080fd5b506101556101503660046121b7565b610420565b604051901515815260200161012c565b610155610173366004612305565b610463565b34801561018457600080fd5b506101986101933660046121f1565b6106aa565b005b3480156101a657600080fd5b506101ba6101b5366004612305565b610833565b60405161012c9190612580565b3480156101d357600080fd5b5061012261098c565b3480156101e857600080fd5b506101226101f7366004611f23565b6109ad565b34801561020857600080fd5b50610198610217366004611f71565b6109ea565b34801561022857600080fd5b5060008051602061290b833981519152546001600160a01b03165b6040516001600160a01b03909116815260200161012c565b34801561026757600080fd5b5061027b6102763660046120e6565b610a37565b60405161012c9190612548565b34801561029457600080fd5b506101556102a3366004611f23565b7fa5e014e253d3b66bd348c3cdd05f38b9805fff0b6471d004b58c6ada26cae993546001600160a01b0390811691161490565b3480156102e257600080fd5b506102f66102f1366004612305565b610c2d565b60405161012c9190815181526020808301519082015260408083015190820152606080830151908201526080808301519082015260a0808301519082015260c0918201516001600160a01b03169181019190915260e00190565b34801561035c57600080fd5b5061019861036b366004612080565b610d2e565b34801561037c57600080fd5b507f47dc25f21c7793543edaeb1ef19d41726ddbada967ae9a7980b9bd8a45228a62546001600160a01b0316610243565b3480156103b957600080fd5b506101226103c8366004612271565b610e24565b3480156103d957600080fd5b506101556103e8366004611f3e565b611124565b3480156103f957600080fd5b5061019861040836600461201b565b611171565b600061041983836111b7565b9392505050565b6001600160e01b0319811660009081527f326d0c59a7612f6a9919e2a8ee333c80ba689d8ba2634de89c85cbb04832e705602052604081205460ff165b92915050565b60008061046e611258565b60008481527f75bce7b27cc8f04e7a4282e725010cbd105f602d082c4b02f7d958135d62562e6020526040902080549192509042108015906104b4575080600101544211155b6104eb5760405162461bcd60e51b815260206004820152600360248201526213d3d560ea1b60448201526064015b60405180910390fd5b806003015434146105235760405162461bcd60e51b8152602060048201526002602482015261494160f01b60448201526064016104e2565b6004810154156105695780600401548160050154106105695760405162461bcd60e51b815260206004820152600260248201526121a960f11b60448201526064016104e2565b600181600501600082825461057e91906126d8565b925050819055506105a182856001604051806020016040528060008152506112ae565b600184836001600160a01b03167f25b428dfde728ccfaddad7e29e4ac23c24ed7fd1a6e3e3f91894a9a073f5dfff60405160405180910390a4600060648260020154346105ee9190612712565b6105f891906126f0565b905060006106068234612731565b60068401546040519192506001600160a01b03169082156108fc029083906000818181858888f19350505050158015610643573d6000803e3d6000fd5b507f47dc25f21c7793543edaeb1ef19d41726ddbada967ae9a7980b9bd8a45228a62546040516001600160a01b03909116906108fc8415029084906000818181858888f1935050505015801561069d573d6000803e3d6000fd5b5060019695505050505050565b7fc8fcad8db84d3cc18b4c41d551ea0ee66dd599cde068d998e57d5e09332c1320546001600160a01b031633146107085760405162461bcd60e51b81526020600482015260026024820152614e4f60f01b60448201526064016104e2565b7fa5e014e253d3b66bd348c3cdd05f38b9805fff0b6471d004b58c6ada26cae99380546001600160a01b0319166001600160a01b038516179055636cdb3d1360e11b6000527fc8fcad8db84d3cc18b4c41d551ea0ee66dd599cde068d998e57d5e09332c131f6020527f845f7f8d885943dffdc1524acbd9538b2923f93aad26d306df3b8982c7f0632d805460ff191660011790556107a6856112cf565b60008051602061290b83398151915280546001600160a01b039586166001600160a01b0319918216179091557f47dc25f21c7793543edaeb1ef19d41726ddbada967ae9a7980b9bd8a45228a5f8054938616938216939093179092557f47dc25f21c7793543edaeb1ef19d41726ddbada967ae9a7980b9bd8a45228a628054919094169116179091555050565b60008181527fb3408a5d8f30170919d3996b6cc182726500ad24733d17ace2f621485f6e7c83602052604081208054606092919061087090612774565b80601f016020809104026020016040519081016040528092919081815260200182805461089c90612774565b80156108e95780601f106108be576101008083540402835291602001916108e9565b820191906000526020600020905b8154815290600101906020018083116108cc57829003601f168201915b505050505090508051600014156109425760405162461bcd60e51b815260206004820152601d60248201527f455243313135355552493a20746f6b656e4964206e6f7420657869737400000060448201526064016104e2565b604051610975907fb3408a5d8f30170919d3996b6cc182726500ad24733d17ace2f621485f6e7c849083906020016123fe565b604051602081830303815290604052915050919050565b60006109a860008051602061290b8339815191525b6002015490565b905090565b6001600160a01b03811660009081527f47dc25f21c7793543edaeb1ef19d41726ddbada967ae9a7980b9bd8a45228a61602052604081205461045d565b6001600160a01b038516331480610a065750610a068533611124565b610a225760405162461bcd60e51b81526004016104e290612626565b610a30338686868686611305565b5050505050565b60608151835114610a9c5760405162461bcd60e51b815260206004820152602960248201527f455243313135353a206163636f756e747320616e6420696473206c656e677468604482015268040dad2e6dac2e8c6d60bb1b60648201526084016104e2565b825160008051602061292b8339815191529060009067ffffffffffffffff811115610ac957610ac9612839565b604051908082528060200260200182016040528015610af2578160200160208202803683370190505b50905060005b8551811015610c245760006001600160a01b0316868281518110610b1e57610b1e612823565b60200260200101516001600160a01b03161415610b975760405162461bcd60e51b815260206004820152603160248201527f455243313135353a2062617463682062616c616e636520717565727920666f7260448201527020746865207a65726f206164647265737360781b60648201526084016104e2565b826000868381518110610bac57610bac612823565b602002602001015181526020019081526020016000206000878381518110610bd657610bd6612823565b60200260200101516001600160a01b03166001600160a01b0316815260200190815260200160002054828281518110610c1157610c11612823565b6020908102919091010152600101610af8565b50949350505050565b610c766040518060e0016040528060008152602001600081526020016000815260200160008152602001600081526020016000815260200160006001600160a01b031681525090565b60008281527f75bce7b27cc8f04e7a4282e725010cbd105f602d082c4b02f7d958135d62562e6020908152604091829020825160e08101845281548082526001830154938201939093526002820154938101939093526003810154606084015260048101546080840152600581015460a0840152600601546001600160a01b031660c083015261045d5760405162461bcd60e51b8152602060048201526003602482015262444e4560e81b60448201526064016104e2565b336001600160a01b0383161415610d995760405162461bcd60e51b815260206004820152602960248201527f455243313135353a2073657474696e6720617070726f76616c20737461747573604482015268103337b91039b2b63360b91b60648201526084016104e2565b3360008181527f1799cf914cb0cb442ca7c7ac709ee40d0cb89e87351dc08d517fbda27d50c68c602090815260408083206001600160a01b03871680855290835292819020805460ff191686151590811790915590519081529192917f17307eab39ab6107e8899845ad3d59bd9653f200f220920489ca2b5937696c31910160405180910390a35050565b600080610e2f611258565b90506000610e3c826109ad565b90506064851115610e755760405162461bcd60e51b815260206004820152600360248201526249534f60e81b60448201526064016104e2565b878910610ea95760405162461bcd60e51b8152602060048201526002602482015261125560f21b60448201526064016104e2565b60008a8a8a8a8a8a8789604051602001610eca9897969594939291906123a1565b60405160208183030381529060405290506000610f4586610f3f84805190602001206040517f19457468657265756d205369676e6564204d6573736167653a0a3332000000006020820152603c8101829052600090605c01604051602081830303815290604052805190602001209050919050565b90611329565b905060008051602061290b833981519152546001600160a01b03828116911614610f965760405162461bcd60e51b81526020600482015260026024820152614e4d60f01b60448201526064016104e2565b610fad60008051602061290b8339815191526109a1565b9450610fb9858d61134d565b7f47dc25f21c7793543edaeb1ef19d41726ddbada967ae9a7980b9bd8a45228a60805460010190556001600160a01b03841660009081527f47dc25f21c7793543edaeb1ef19d41726ddbada967ae9a7980b9bd8a45228a6160205260409020805460010190556040805160e0810182528c8152602081018c9052908101889052606081018a905260808101899052600060a08201526001600160a01b03851660c0820152807f75bce7b27cc8f04e7a4282e725010cbd105f602d082c4b02f7d958135d62562e6000888152602091825260408082208451815592840151600180850191909155848201516002850155606085015160038501556080850151600485015560a0850151600585015560c090940151600690930180546001600160a01b0319166001600160a01b039485161790555189928916917f8e0d870e0d51502a61148f92b82e740ea3ee64ea6f094269cf3668143363598291a45050505050979650505050505050565b6001600160a01b0391821660009081527f1799cf914cb0cb442ca7c7ac709ee40d0cb89e87351dc08d517fbda27d50c68c6020908152604080832093909416825291909152205460ff1690565b6001600160a01b03851633148061118d575061118d8533611124565b6111a95760405162461bcd60e51b81526004016104e290612626565b610a30338686868686611390565b60006001600160a01b0383166112235760405162461bcd60e51b815260206004820152602b60248201527f455243313135353a2062616c616e636520717565727920666f7220746865207a60448201526a65726f206164647265737360a81b60648201526084016104e2565b60008051602061292b8339815191526000928352602090815260408084206001600160a01b0395909516845293905250205490565b60006018361080159061129457507fa5e014e253d3b66bd348c3cdd05f38b9805fff0b6471d004b58c6ada26cae993546001600160a01b031633145b156112a6575060131936013560601c90565b503390565b90565b6112bd336000868686866113ac565b6112c984848484611520565b50505050565b8051611301907fb3408a5d8f30170919d3996b6cc182726500ad24733d17ace2f621485f6e7c84906020840190611d83565b5050565b61131386868686868661162f565b6113218686868686866116f9565b505050505050565b600080600061133885856118da565b915091506113458161194a565b509392505050565b60008281527fb3408a5d8f30170919d3996b6cc182726500ad24733d17ace2f621485f6e7c8360209081526040909120825161138b92840190611d83565b505050565b61139e8686868686866113ac565b611321868686868686611b08565b6001600160a01b0384163b156113215760405163f23a6e6160e01b81526001600160a01b0385169063f23a6e61906113f09089908990889088908890600401612503565b602060405180830381600087803b15801561140a57600080fd5b505af192505050801561143a575060408051601f3d908101601f19168201909252611437918101906121d4565b60015b6114e75761144661284f565b806308c379a01415611480575061145b61286a565b806114665750611482565b8060405162461bcd60e51b81526004016104e29190612580565b505b60405162461bcd60e51b815260206004820152603460248201527f455243313135353a207472616e7366657220746f206e6f6e20455243313135356044820152732932b1b2b4bb32b91034b6b83632b6b2b73a32b960611b60648201526084016104e2565b6001600160e01b0319811663f23a6e6160e01b146115175760405162461bcd60e51b81526004016104e290612593565b50505050505050565b6001600160a01b0384166115805760405162461bcd60e51b815260206004820152602160248201527f455243313135353a206d696e7420746f20746865207a65726f206164647265736044820152607360f81b60648201526084016104e2565b6115993360008661159087611c1c565b610a3087611c1c565b600083815260008051602061292b833981519152602090815260408083206001600160a01b03881684529182905282208054919285926115da9084906126d8565b909155505060408051858152602081018590526001600160a01b0387169160009133917fc3d58168c5ae7397731d063d5bbf3d657854427343f4c083240f7aacaa2d0f62910160405180910390a45050505050565b6001600160a01b0384163b156113215760405163bc197c8160e01b81526001600160a01b0385169063bc197c819061167390899089908890889088906004016124a5565b602060405180830381600087803b15801561168d57600080fd5b505af19250505080156116bd575060408051601f3d908101601f191682019092526116ba918101906121d4565b60015b6116c95761144661284f565b6001600160e01b0319811663bc197c8160e01b146115175760405162461bcd60e51b81526004016104e290612593565b6001600160a01b03841661171f5760405162461bcd60e51b81526004016104e29061266f565b81518351146117815760405162461bcd60e51b815260206004820152602860248201527f455243313135353a2069647320616e6420616d6f756e7473206c656e677468206044820152670dad2e6dac2e8c6d60c31b60648201526084016104e2565b60008051602061292b83398151915260005b84518110156118795760008582815181106117b0576117b0612823565b6020026020010151905060008583815181106117ce576117ce612823565b602090810291909101810151600084815286835260408082206001600160a01b038e16835290935291909120549091508181101561181e5760405162461bcd60e51b81526004016104e2906125db565b6000838152602086815260408083206001600160a01b038e811685529252808320938590039093558a168152908120805483929061185d9084906126d8565b9250508190555050508080611871906127dc565b915050611793565b50846001600160a01b0316866001600160a01b0316886001600160a01b03167f4a39dc06d4c0dbc64b70af90fd698a233a518aa5d07e595d983b8c0526c8f7fb87876040516118c992919061255b565b60405180910390a450505050505050565b6000808251604114156119115760208301516040840151606085015160001a61190587828585611c67565b94509450505050611943565b82516040141561193b5760208301516040840151611930868383611d54565b935093505050611943565b506000905060025b9250929050565b600081600481111561195e5761195e61280d565b14156119675750565b600181600481111561197b5761197b61280d565b14156119c95760405162461bcd60e51b815260206004820152601860248201527f45434453413a20696e76616c6964207369676e6174757265000000000000000060448201526064016104e2565b60028160048111156119dd576119dd61280d565b1415611a2b5760405162461bcd60e51b815260206004820152601f60248201527f45434453413a20696e76616c6964207369676e6174757265206c656e6774680060448201526064016104e2565b6003816004811115611a3f57611a3f61280d565b1415611a985760405162461bcd60e51b815260206004820152602260248201527f45434453413a20696e76616c6964207369676e6174757265202773272076616c604482015261756560f01b60648201526084016104e2565b6004816004811115611aac57611aac61280d565b1415611b055760405162461bcd60e51b815260206004820152602260248201527f45434453413a20696e76616c6964207369676e6174757265202776272076616c604482015261756560f01b60648201526084016104e2565b50565b6001600160a01b038416611b2e5760405162461bcd60e51b81526004016104e29061266f565b611b3d86868661159087611c1c565b600083815260008051602061292b833981519152602081815260408084206001600160a01b038a1685529091529091205483811015611b8e5760405162461bcd60e51b81526004016104e2906125db565b6000858152602083815260408083206001600160a01b038b81168552925280832093879003909355871681529081208054859290611bcd9084906126d8565b909155505060408051858152602081018590526001600160a01b038088169289821692918b16917fc3d58168c5ae7397731d063d5bbf3d657854427343f4c083240f7aacaa2d0f6291016118c9565b60408051600180825281830190925260609160009190602080830190803683370190505090508281600081518110611c5657611c56612823565b602090810291909101015292915050565b6000807f7fffffffffffffffffffffffffffffff5d576e7357a4501ddfe92f46681b20a0831115611c9e5750600090506003611d4b565b8460ff16601b14158015611cb657508460ff16601c14155b15611cc75750600090506004611d4b565b6040805160008082526020820180845289905260ff881692820192909252606081018690526080810185905260019060a0016020604051602081039080840390855afa158015611d1b573d6000803e3d6000fd5b5050604051601f1901519150506001600160a01b038116611d4457600060019250925050611d4b565b9150600090505b94509492505050565b6000806001600160ff1b03831660ff84901c601b01611d7587828885611c67565b935093505050935093915050565b828054611d8f90612774565b90600052602060002090601f016020900481019282611db15760008555611df7565b82601f10611dca57805160ff1916838001178555611df7565b82800160010185558215611df7579182015b82811115611df7578251825591602001919060010190611ddc565b50611e03929150611e07565b5090565b5b80821115611e035760008155600101611e08565b80356001600160a01b0381168114611e3357600080fd5b919050565b600082601f830112611e4957600080fd5b81356020611e56826126b4565b604051611e6382826127af565b8381528281019150858301600585901b87018401881015611e8357600080fd5b60005b85811015611ea257813584529284019290840190600101611e86565b5090979650505050505050565b600082601f830112611ec057600080fd5b813567ffffffffffffffff811115611eda57611eda612839565b604051611ef1601f8301601f1916602001826127af565b818152846020838601011115611f0657600080fd5b816020850160208301376000918101602001919091529392505050565b600060208284031215611f3557600080fd5b61041982611e1c565b60008060408385031215611f5157600080fd5b611f5a83611e1c565b9150611f6860208401611e1c565b90509250929050565b600080600080600060a08688031215611f8957600080fd5b611f9286611e1c565b9450611fa060208701611e1c565b9350604086013567ffffffffffffffff80821115611fbd57600080fd5b611fc989838a01611e38565b94506060880135915080821115611fdf57600080fd5b611feb89838a01611e38565b9350608088013591508082111561200157600080fd5b5061200e88828901611eaf565b9150509295509295909350565b600080600080600060a0868803121561203357600080fd5b61203c86611e1c565b945061204a60208701611e1c565b93506040860135925060608601359150608086013567ffffffffffffffff81111561207457600080fd5b61200e88828901611eaf565b6000806040838503121561209357600080fd5b61209c83611e1c565b9150602083013580151581146120b157600080fd5b809150509250929050565b600080604083850312156120cf57600080fd5b6120d883611e1c565b946020939093013593505050565b600080604083850312156120f957600080fd5b823567ffffffffffffffff8082111561211157600080fd5b818501915085601f83011261212557600080fd5b81356020612132826126b4565b60405161213f82826127af565b8381528281019150858301600585901b870184018b101561215f57600080fd5b600096505b848710156121895761217581611e1c565b835260019690960195918301918301612164565b50965050860135925050808211156121a057600080fd5b506121ad85828601611e38565b9150509250929050565b6000602082840312156121c957600080fd5b8135610419816128f4565b6000602082840312156121e657600080fd5b8151610419816128f4565b600080600080600060a0868803121561220957600080fd5b853567ffffffffffffffff81111561222057600080fd5b61222c88828901611eaf565b95505061223b60208701611e1c565b935061224960408701611e1c565b925061225760608701611e1c565b915061226560808701611e1c565b90509295509295909350565b600080600080600080600060e0888a03121561228c57600080fd5b873567ffffffffffffffff808211156122a457600080fd5b6122b08b838c01611eaf565b985060208a0135975060408a0135965060608a0135955060808a0135945060a08a0135935060c08a01359150808211156122e957600080fd5b506122f68a828b01611eaf565b91505092959891949750929550565b60006020828403121561231757600080fd5b5035919050565b600081518084526020808501945080840160005b8381101561234e57815187529582019590820190600101612332565b509495945050505050565b60008151808452612371816020860160208601612748565b601f01601f19169290920160200192915050565b60008151612397818560208601612748565b9290920192915050565b600089516123b3818460208e01612748565b919091019788525060208701959095526040860193909352606080860192909252608085015260a08401919091521b6bffffffffffffffffffffffff191660c082015260d401919050565b600080845481600182811c91508083168061241a57607f831692505b602080841082141561243a57634e487b7160e01b86526022600452602486fd5b81801561244e576001811461245f5761248c565b60ff1986168952848901965061248c565b60008b81526020902060005b868110156124845781548b82015290850190830161246b565b505084890196505b50505050505061249c8185612385565b95945050505050565b6001600160a01b0386811682528516602082015260a0604082018190526000906124d19083018661231e565b82810360608401526124e3818661231e565b905082810360808401526124f78185612359565b98975050505050505050565b6001600160a01b03868116825285166020820152604081018490526060810183905260a06080820181905260009061253d90830184612359565b979650505050505050565b602081526000610419602083018461231e565b60408152600061256e604083018561231e565b828103602084015261249c818561231e565b6020815260006104196020830184612359565b60208082526028908201527f455243313135353a204552433131353552656365697665722072656a656374656040820152676420746f6b656e7360c01b606082015260800190565b6020808252602b908201527f455243313135353a20696e73756666696369656e742062616c616e636573206660408201526a37b9103a3930b739b332b960a91b606082015260800190565b60208082526029908201527f455243313135353a2063616c6c6572206973206e6f74206f776e6572206e6f7260408201526808185c1c1c9bdd995960ba1b606082015260800190565b60208082526025908201527f455243313135353a207472616e7366657220746f20746865207a65726f206164604082015264647265737360d81b606082015260800190565b600067ffffffffffffffff8211156126ce576126ce612839565b5060051b60200190565b600082198211156126eb576126eb6127f7565b500190565b60008261270d57634e487b7160e01b600052601260045260246000fd5b500490565b600081600019048311821515161561272c5761272c6127f7565b500290565b600082821015612743576127436127f7565b500390565b60005b8381101561276357818101518382015260200161274b565b838111156112c95750506000910152565b600181811c9082168061278857607f821691505b602082108114156127a957634e487b7160e01b600052602260045260246000fd5b50919050565b601f8201601f1916810167ffffffffffffffff811182821017156127d5576127d5612839565b6040525050565b60006000198214156127f0576127f06127f7565b5060010190565b634e487b7160e01b600052601160045260246000fd5b634e487b7160e01b600052602160045260246000fd5b634e487b7160e01b600052603260045260246000fd5b634e487b7160e01b600052604160045260246000fd5b600060033d11156112ab5760046000803e5060005160e01c90565b600060443d10156128785790565b6040516003193d81016004833e81513d67ffffffffffffffff81602484011181841117156128a857505050505090565b82850191508151818111156128c05750505050505090565b843d87010160208285010111156128da5750505050505090565b6128e9602082860101876127af565b509095945050505050565b6001600160e01b031981168114611b0557600080fdfe47dc25f21c7793543edaeb1ef19d41726ddbada967ae9a7980b9bd8a45228a5e1799cf914cb0cb442ca7c7ac709ee40d0cb89e87351dc08d517fbda27d50c68ba2646970667358221220c4583d54d909fde27a327555196ec1b816748473a7f2d141b982d98ea02b9e3464736f6c63430008070033",
  "devdoc": {
    "kind": "dev",
    "methods": {
      "balanceOf(address,uint256)": {
        "params": {
          "account": "address to query",
          "id": "token to query"
        },
        "returns": {
          "_0": "token balance"
        }
      },
      "balanceOfBatch(address[],uint256[])": {
        "params": {
          "accounts": "addresss to query",
          "ids": "tokens to query"
        },
        "returns": {
          "_0": "token balances"
        }
      },
      "isApprovedForAll(address,address)": {
        "params": {
          "account": "address to query for approval granted",
          "operator": "address to query for approval received"
        },
        "returns": {
          "_0": "whether operator is approved to spend tokens held by account"
        }
      },
      "safeBatchTransferFrom(address,address,uint256[],uint256[],bytes)": {
        "params": {
          "amounts": "list of quantities of tokens to transfer",
          "data": "data payload",
          "from": "sender of tokens",
          "ids": "list of token IDs",
          "to": "receiver of tokens"
        }
      },
      "safeTransferFrom(address,address,uint256,uint256,bytes)": {
        "params": {
          "amount": "quantity of tokens to transfer",
          "data": "data payload",
          "from": "sender of tokens",
          "id": "token ID",
          "to": "receiver of tokens"
        }
      },
      "setApprovalForAll(address,bool)": {
        "params": {
          "operator": "address whose approval status to update",
          "status": "whether operator should be considered approved"
        }
      },
      "supportsInterface(bytes4)": {
        "params": {
          "interfaceId": "interface id"
        },
        "returns": {
          "_0": "bool whether interface is supported"
        }
      }
    },
    "version": 1
  },
  "userdoc": {
    "kind": "user",
    "methods": {
      "balanceOf(address,uint256)": {
        "notice": "query the balance of given token held by given address"
      },
      "balanceOfBatch(address[],uint256[])": {
        "notice": "query the balances of given tokens held by given addresses"
      },
      "isApprovedForAll(address,address)": {
        "notice": "query approval status of given operator with respect to given address"
      },
      "safeBatchTransferFrom(address,address,uint256[],uint256[],bytes)": {
        "notice": "transfer batch of tokens between given addresses, checking for ERC1155Receiver implementation if applicable"
      },
      "safeTransferFrom(address,address,uint256,uint256,bytes)": {
        "notice": "transfer tokens between given addresses, checking for ERC1155Receiver implementation if applicable"
      },
      "setApprovalForAll(address,bool)": {
        "notice": "grant approval to or revoke approval from given operator to spend held tokens"
      },
      "supportsInterface(bytes4)": {
        "notice": "query whether contract has registered support for given interface"
      }
    },
    "version": 1
  },
  "storageLayout": {
    "storage": [],
    "types": null
  }
}