{
  "address": "0x2f097e9f8Fca71536e3785736Bb7082A4072C00C",
  "abi": [
    {
      "anonymous": false,
      "inputs": [
        {
          "indexed": true,
          "internalType": "address",
          "name": "account",
          "type": "address"
        },
        {
          "indexed": true,
          "internalType": "address",
          "name": "operator",
          "type": "address"
        },
        {
          "indexed": false,
          "internalType": "bool",
          "name": "approved",
          "type": "bool"
        }
      ],
      "name": "ApprovalForAll",
      "type": "event"
    },
    {
      "anonymous": false,
      "inputs": [
        {
          "indexed": true,
          "internalType": "address",
          "name": "account",
          "type": "address"
        },
        {
          "indexed": true,
          "internalType": "uint256",
          "name": "tokenId",
          "type": "uint256"
        }
      ],
      "name": "DropCreated",
      "type": "event"
    },
    {
      "anonymous": false,
      "inputs": [
        {
          "indexed": true,
          "internalType": "address",
          "name": "account",
          "type": "address"
        },
        {
          "indexed": true,
          "internalType": "uint256",
          "name": "tokenId",
          "type": "uint256"
        },
        {
          "indexed": true,
          "internalType": "uint256",
          "name": "amount",
          "type": "uint256"
        }
      ],
      "name": "Minted",
      "type": "event"
    },
    {
      "anonymous": false,
      "inputs": [
        {
          "indexed": true,
          "internalType": "address",
          "name": "operator",
          "type": "address"
        },
        {
          "indexed": true,
          "internalType": "address",
          "name": "from",
          "type": "address"
        },
        {
          "indexed": true,
          "internalType": "address",
          "name": "to",
          "type": "address"
        },
        {
          "indexed": false,
          "internalType": "uint256[]",
          "name": "ids",
          "type": "uint256[]"
        },
        {
          "indexed": false,
          "internalType": "uint256[]",
          "name": "values",
          "type": "uint256[]"
        }
      ],
      "name": "TransferBatch",
      "type": "event"
    },
    {
      "anonymous": false,
      "inputs": [
        {
          "indexed": true,
          "internalType": "address",
          "name": "operator",
          "type": "address"
        },
        {
          "indexed": true,
          "internalType": "address",
          "name": "from",
          "type": "address"
        },
        {
          "indexed": true,
          "internalType": "address",
          "name": "to",
          "type": "address"
        },
        {
          "indexed": false,
          "internalType": "uint256",
          "name": "id",
          "type": "uint256"
        },
        {
          "indexed": false,
          "internalType": "uint256",
          "name": "value",
          "type": "uint256"
        }
      ],
      "name": "TransferSingle",
      "type": "event"
    },
    {
      "anonymous": false,
      "inputs": [
        {
          "indexed": false,
          "internalType": "string",
          "name": "value",
          "type": "string"
        },
        {
          "indexed": true,
          "internalType": "uint256",
          "name": "tokenId",
          "type": "uint256"
        }
      ],
      "name": "URI",
      "type": "event"
    },
    {
      "inputs": [
        {
          "internalType": "uint256",
          "name": "id",
          "type": "uint256"
        }
      ],
      "name": "accountsByToken",
      "outputs": [
        {
          "internalType": "address[]",
          "name": "",
          "type": "address[]"
        }
      ],
      "stateMutability": "view",
      "type": "function"
    },
    {
      "inputs": [
        {
          "internalType": "address",
          "name": "account",
          "type": "address"
        },
        {
          "internalType": "uint256",
          "name": "id",
          "type": "uint256"
        }
      ],
      "name": "balanceOf",
      "outputs": [
        {
          "internalType": "uint256",
          "name": "",
          "type": "uint256"
        }
      ],
      "stateMutability": "view",
      "type": "function"
    },
    {
      "inputs": [
        {
          "internalType": "address[]",
          "name": "accounts",
          "type": "address[]"
        },
        {
          "internalType": "uint256[]",
          "name": "ids",
          "type": "uint256[]"
        }
      ],
      "name": "balanceOfBatch",
      "outputs": [
        {
          "internalType": "uint256[]",
          "name": "",
          "type": "uint256[]"
        }
      ],
      "stateMutability": "view",
      "type": "function"
    },
    {
      "inputs": [
        {
          "internalType": "string",
          "name": "_uri",
          "type": "string"
        },
        {
          "internalType": "uint256",
          "name": "_timeStart",
          "type": "uint256"
        },
        {
          "internalType": "uint256",
          "name": "_timeEnd",
          "type": "uint256"
        },
        {
          "internalType": "uint256",
          "name": "_priceStart",
          "type": "uint256"
        },
        {
          "internalType": "uint256",
          "name": "_priceEnd",
          "type": "uint256"
        },
        {
          "internalType": "uint256",
          "name": "_stepDuration",
          "type": "uint256"
        },
        {
          "internalType": "uint256",
          "name": "_amountCap",
          "type": "uint256"
        },
        {
          "internalType": "uint256",
          "name": "_shareCyber",
          "type": "uint256"
        },
        {
          "internalType": "bytes",
          "name": "_signature",
          "type": "bytes"
        }
      ],
      "name": "createDrop",
      "outputs": [
        {
          "internalType": "uint256",
          "name": "tokenId",
          "type": "uint256"
        }
      ],
      "stateMutability": "nonpayable",
      "type": "function"
    },
    {
      "inputs": [
        {
          "internalType": "uint256",
          "name": "_tokenId",
          "type": "uint256"
        },
        {
          "internalType": "address",
          "name": "_minter",
          "type": "address"
        }
      ],
      "name": "dropMintCounter",
      "outputs": [
        {
          "internalType": "uint256",
          "name": "",
          "type": "uint256"
        }
      ],
      "stateMutability": "view",
      "type": "function"
    },
    {
      "inputs": [
        {
          "internalType": "uint256",
          "name": "_tokenId",
          "type": "uint256"
        }
      ],
      "name": "getDrop",
      "outputs": [
        {
          "internalType": "uint256",
          "name": "timeStart",
          "type": "uint256"
        },
        {
          "internalType": "uint256",
          "name": "timeEnd",
          "type": "uint256"
        },
        {
          "internalType": "uint256",
          "name": "priceStart",
          "type": "uint256"
        },
        {
          "internalType": "uint256",
          "name": "priceEnd",
          "type": "uint256"
        },
        {
          "internalType": "uint256",
          "name": "stepDuration",
          "type": "uint256"
        },
        {
          "internalType": "uint256",
          "name": "amountCap",
          "type": "uint256"
        },
        {
          "internalType": "uint256",
          "name": "shareCyber",
          "type": "uint256"
        },
        {
          "internalType": "address",
          "name": "creator",
          "type": "address"
        },
        {
          "internalType": "uint256",
          "name": "minted",
          "type": "uint256"
        }
      ],
      "stateMutability": "view",
      "type": "function"
    },
    {
      "inputs": [
        {
          "internalType": "uint256",
          "name": "_tokenId",
          "type": "uint256"
        }
      ],
      "name": "getMintPriceForToken",
      "outputs": [
        {
          "internalType": "uint256",
          "name": "mintPrice",
          "type": "uint256"
        }
      ],
      "stateMutability": "view",
      "type": "function"
    },
    {
      "inputs": [
        {
          "internalType": "uint256",
          "name": "_timeSpent",
          "type": "uint256"
        },
        {
          "internalType": "uint256",
          "name": "_duration",
          "type": "uint256"
        },
        {
          "internalType": "uint256",
          "name": "_priceStart",
          "type": "uint256"
        },
        {
          "internalType": "uint256",
          "name": "_priceEnd",
          "type": "uint256"
        },
        {
          "internalType": "uint256",
          "name": "_stepDuration",
          "type": "uint256"
        }
      ],
      "name": "getPriceFor",
      "outputs": [
        {
          "internalType": "uint256",
          "name": "price",
          "type": "uint256"
        }
      ],
      "stateMutability": "pure",
      "type": "function"
    },
    {
      "inputs": [
        {
          "internalType": "string",
          "name": "_uri",
          "type": "string"
        },
        {
          "internalType": "address",
          "name": "_manager",
          "type": "address"
        },
        {
          "internalType": "address",
          "name": "_trustedForwarder",
          "type": "address"
        },
        {
          "internalType": "address",
          "name": "_opensea",
          "type": "address"
        },
        {
          "internalType": "address",
          "name": "_oncyber",
          "type": "address"
        }
      ],
      "name": "initialize",
      "outputs": [],
      "stateMutability": "nonpayable",
      "type": "function"
    },
    {
      "inputs": [
        {
          "internalType": "address",
          "name": "account",
          "type": "address"
        },
        {
          "internalType": "address",
          "name": "operator",
          "type": "address"
        }
      ],
      "name": "isApprovedForAll",
      "outputs": [
        {
          "internalType": "bool",
          "name": "",
          "type": "bool"
        }
      ],
      "stateMutability": "view",
      "type": "function"
    },
    {
      "inputs": [
        {
          "internalType": "address",
          "name": "forwarder",
          "type": "address"
        }
      ],
      "name": "isTrustedForwarder",
      "outputs": [
        {
          "internalType": "bool",
          "name": "",
          "type": "bool"
        }
      ],
      "stateMutability": "view",
      "type": "function"
    },
    {
      "inputs": [],
      "name": "manager",
      "outputs": [
        {
          "internalType": "address",
          "name": "",
          "type": "address"
        }
      ],
      "stateMutability": "view",
      "type": "function"
    },
    {
      "inputs": [
        {
          "internalType": "uint256",
          "name": "_tokenId",
          "type": "uint256"
        },
        {
          "internalType": "bytes",
          "name": "_signature",
          "type": "bytes"
        }
      ],
      "name": "mint",
      "outputs": [
        {
          "internalType": "bool",
          "name": "success",
          "type": "bool"
        }
      ],
      "stateMutability": "payable",
      "type": "function"
    },
    {
      "inputs": [
        {
          "internalType": "address",
          "name": "_minter",
          "type": "address"
        }
      ],
      "name": "minterNonce",
      "outputs": [
        {
          "internalType": "uint256",
          "name": "",
          "type": "uint256"
        }
      ],
      "stateMutability": "view",
      "type": "function"
    },
    {
      "inputs": [],
      "name": "oncyber",
      "outputs": [
        {
          "internalType": "address",
          "name": "",
          "type": "address"
        }
      ],
      "stateMutability": "view",
      "type": "function"
    },
    {
      "inputs": [
        {
          "internalType": "address",
          "name": "from",
          "type": "address"
        },
        {
          "internalType": "address",
          "name": "to",
          "type": "address"
        },
        {
          "internalType": "uint256[]",
          "name": "ids",
          "type": "uint256[]"
        },
        {
          "internalType": "uint256[]",
          "name": "amounts",
          "type": "uint256[]"
        },
        {
          "internalType": "bytes",
          "name": "data",
          "type": "bytes"
        }
      ],
      "name": "safeBatchTransferFrom",
      "outputs": [],
      "stateMutability": "nonpayable",
      "type": "function"
    },
    {
      "inputs": [
        {
          "internalType": "address",
          "name": "from",
          "type": "address"
        },
        {
          "internalType": "address",
          "name": "to",
          "type": "address"
        },
        {
          "internalType": "uint256",
          "name": "id",
          "type": "uint256"
        },
        {
          "internalType": "uint256",
          "name": "amount",
          "type": "uint256"
        },
        {
          "internalType": "bytes",
          "name": "data",
          "type": "bytes"
        }
      ],
      "name": "safeTransferFrom",
      "outputs": [],
      "stateMutability": "nonpayable",
      "type": "function"
    },
    {
      "inputs": [
        {
          "internalType": "address",
          "name": "operator",
          "type": "address"
        },
        {
          "internalType": "bool",
          "name": "status",
          "type": "bool"
        }
      ],
      "name": "setApprovalForAll",
      "outputs": [],
      "stateMutability": "nonpayable",
      "type": "function"
    },
    {
      "inputs": [
        {
          "internalType": "bytes4",
          "name": "interfaceId",
          "type": "bytes4"
        }
      ],
      "name": "supportsInterface",
      "outputs": [
        {
          "internalType": "bool",
          "name": "",
          "type": "bool"
        }
      ],
      "stateMutability": "view",
      "type": "function"
    },
    {
      "inputs": [
        {
          "internalType": "address",
          "name": "account",
          "type": "address"
        }
      ],
      "name": "tokensByAccount",
      "outputs": [
        {
          "internalType": "uint256[]",
          "name": "",
          "type": "uint256[]"
        }
      ],
      "stateMutability": "view",
      "type": "function"
    },
    {
      "inputs": [
        {
          "internalType": "uint256",
          "name": "id",
          "type": "uint256"
        }
      ],
      "name": "totalHolders",
      "outputs": [
        {
          "internalType": "uint256",
          "name": "",
          "type": "uint256"
        }
      ],
      "stateMutability": "view",
      "type": "function"
    },
    {
      "inputs": [],
      "name": "totalSupply",
      "outputs": [
        {
          "internalType": "uint256",
          "name": "",
          "type": "uint256"
        }
      ],
      "stateMutability": "view",
      "type": "function"
    },
    {
      "inputs": [
        {
          "internalType": "uint256",
          "name": "id",
          "type": "uint256"
        }
      ],
      "name": "totalSupply",
      "outputs": [
        {
          "internalType": "uint256",
          "name": "",
          "type": "uint256"
        }
      ],
      "stateMutability": "view",
      "type": "function"
    },
    {
      "inputs": [
        {
          "internalType": "uint256",
          "name": "_tokenId",
          "type": "uint256"
        }
      ],
      "name": "uri",
      "outputs": [
        {
          "internalType": "string",
          "name": "",
          "type": "string"
        }
      ],
      "stateMutability": "view",
      "type": "function"
    }
  ],
  "transactionHash": "0xf4bff2c8b27393fdfd938baf9817f544dfa6ab8e612e115903cbcc33b5904b1e",
  "args": [],
  "solcInputHash": "75e6c469fcf6e2a2dbc4f43da7bfd5cd",
  "bytecode": "0x608060405234801561001057600080fd5b50615db780620000216000396000f3fe60806040526004361061014a5760003560e01c80635c5ed16d116100b6578063bc01188e1161006f578063bc01188e14610541578063bd85b0391461056c578063d61b0c82146105a9578063db7fd408146105e6578063e985e9c514610616578063f242432a146106535761014a565b80635c5ed16d146103df5780636787d4491461041c5780636dcfd8411461046157806385bff2e71461049e578063a22cb465146104db578063b3a721d1146105045761014a565b806318160ddd1161010857806318160ddd146102a95780631b023947146102d45780632eb2c2d614610311578063481c6a751461033a5780634e1273f414610365578063572b6c05146103a25761014a565b8062fdd58e1461014f57806301ffc9a71461018c578063081cdf12146101c95780630b885ac3146102065780630e89341c1461022f57806313ba55df1461026c575b600080fd5b34801561015b57600080fd5b5061017660048036038101906101719190613a79565b61067c565b6040516101839190613ac8565b60405180910390f35b34801561019857600080fd5b506101b360048036038101906101ae9190613b3b565b610690565b6040516101c09190613b83565b60405180910390f35b3480156101d557600080fd5b506101f060048036038101906101eb9190613d85565b6106b3565b6040516101fd9190613ac8565b60405180910390f35b34801561021257600080fd5b5061022d60048036038101906102289190613e87565b610bb9565b005b34801561023b57600080fd5b5061025660048036038101906102519190613f1e565b610e1d565b6040516102639190613fd3565b60405180910390f35b34801561027857600080fd5b50610293600480360381019061028e9190613f1e565b610f41565b6040516102a09190613ac8565b60405180910390f35b3480156102b557600080fd5b506102be610f6e565b6040516102cb9190613ac8565b60405180910390f35b3480156102e057600080fd5b506102fb60048036038101906102f69190613ff5565b610f88565b6040516103089190613ac8565b60405180910390f35b34801561031d57600080fd5b50610338600480360381019061033391906140ea565b610fe1565b005b34801561034657600080fd5b5061034f611075565b60405161035c91906141c8565b60405180910390f35b34801561037157600080fd5b5061038c600480360381019061038791906142a6565b6110a8565b60405161039991906143dc565b60405180910390f35b3480156103ae57600080fd5b506103c960048036038101906103c49190613ff5565b61129d565b6040516103d69190613b83565b60405180910390f35b3480156103eb57600080fd5b5061040660048036038101906104019190613f1e565b611300565b6040516104139190613ac8565b60405180910390f35b34801561042857600080fd5b50610443600480360381019061043e9190613f1e565b61146c565b604051610458999897969594939291906143fe565b60405180910390f35b34801561046d57600080fd5b5061048860048036038101906104839190613f1e565b611555565b6040516104959190614549565b60405180910390f35b3480156104aa57600080fd5b506104c560048036038101906104c09190613ff5565b61165d565b6040516104d291906143dc565b60405180910390f35b3480156104e757600080fd5b5061050260048036038101906104fd9190614597565b611763565b005b34801561051057600080fd5b5061052b600480360381019061052691906145d7565b6118d8565b6040516105389190613ac8565b60405180910390f35b34801561054d57600080fd5b50610556611993565b60405161056391906141c8565b60405180910390f35b34801561057857600080fd5b50610593600480360381019061058e9190613f1e565b6119c6565b6040516105a09190613ac8565b60405180910390f35b3480156105b557600080fd5b506105d060048036038101906105cb9190614617565b6119ec565b6040516105dd9190613ac8565b60405180910390f35b61060060048036038101906105fb9190614692565b611a5d565b60405161060d9190613b83565b60405180910390f35b34801561062257600080fd5b5061063d600480360381019061063891906146ee565b611ed6565b60405161064a9190613b83565b60405180910390f35b34801561065f57600080fd5b5061067a6004803603810190610675919061472e565b611f73565b005b60006106888383612007565b905092915050565b60006106ac8261069e6120da565b61210790919063ffffffff16565b9050919050565b60008489896106c291906147f4565b101580156106d05750600085115b61070f576040517f08c379a000000000000000000000000000000000000000000000000000000000815260040161070690614874565b60405180910390fd5b85871015801561071f5750600087115b61075e576040517f08c379a0000000000000000000000000000000000000000000000000000000008152600401610755906148e0565b60405180910390fd5b60648311156107a2576040517f08c379a00000000000000000000000000000000000000000000000000000000081526004016107999061494c565b60405180910390fd5b60006107ac612172565b905060006107b982610f88565b905060008c8c8c8c8c8c8c8c8a8a6040516020016107e09a99989796959493929190614a11565b604051602081830303815290604052905060006108158661080784805190602001206121ae565b6121de90919063ffffffff16565b905061081f612205565b60000160009054906101000a900473ffffffffffffffffffffffffffffffffffffffff1673ffffffffffffffffffffffffffffffffffffffff168173ffffffffffffffffffffffffffffffffffffffff16146108b0576040517f08c379a00000000000000000000000000000000000000000000000000000000081526004016108a790614b0d565b60405180910390fd5b6108c36108bb612205565b600201612232565b94506108cf858f612240565b6108e26108da612205565b600201612275565b6109326108ed612205565b60030160008673ffffffffffffffffffffffffffffffffffffffff1673ffffffffffffffffffffffffffffffffffffffff168152602001908152602001600020612275565b8c61093b61228b565b6000016000878152602001908152602001600020600001819055508b61095f61228b565b6000016000878152602001908152602001600020600101819055508a61098361228b565b600001600087815260200190815260200160002060020181905550896109a761228b565b600001600087815260200190815260200160002060030181905550886109cb61228b565b600001600087815260200190815260200160002060040181905550876109ef61228b565b60000160008781526020019081526020016000206005018190555086610a1361228b565b60000160008781526020019081526020016000206006018190555083610a3761228b565b600001600087815260200190815260200160002060070160006101000a81548173ffffffffffffffffffffffffffffffffffffffff021916908373ffffffffffffffffffffffffffffffffffffffff1602179055506000610a9661228b565b60000160008781526020019081526020016000209050610ab881600801612275565b610b018160090160008773ffffffffffffffffffffffffffffffffffffffff1673ffffffffffffffffffffffffffffffffffffffff168152602001908152602001600020612275565b610b1d85876001604051806020016040528060008152506122b8565b858573ffffffffffffffffffffffffffffffffffffffff167f4011446e11141f68f741bffe55d700b48cbc73fb927148a01c8f4664c3be014260405160405180910390a36001868673ffffffffffffffffffffffffffffffffffffffff167f25b428dfde728ccfaddad7e29e4ac23c24ed7fd1a6e3e3f91894a9a073f5dfff60405160405180910390a450505050509998505050505050505050565b3373ffffffffffffffffffffffffffffffffffffffff16610bd86122d9565b60040160009054906101000a900473ffffffffffffffffffffffffffffffffffffffff1673ffffffffffffffffffffffffffffffffffffffff1614610c52576040517f08c379a0000000000000000000000000000000000000000000000000000000008152600401610c4990614b79565b60405180910390fd5b82610c5b612306565b60000160006101000a81548173ffffffffffffffffffffffffffffffffffffffff021916908373ffffffffffffffffffffffffffffffffffffffff1602179055506001610ca66122d9565b60030160007fd9b67a26000000000000000000000000000000000000000000000000000000007bffffffffffffffffffffffffffffffffffffffffffffffffffffffff19167bffffffffffffffffffffffffffffffffffffffffffffffffffffffff1916815260200190815260200160002060006101000a81548160ff021916908315150217905550610d3885612333565b83610d41612205565b60000160006101000a81548173ffffffffffffffffffffffffffffffffffffffff021916908373ffffffffffffffffffffffffffffffffffffffff16021790555081610d8b612205565b60010160006101000a81548173ffffffffffffffffffffffffffffffffffffffff021916908373ffffffffffffffffffffffffffffffffffffffff16021790555080610dd5612205565b60040160006101000a81548173ffffffffffffffffffffffffffffffffffffffff021916908373ffffffffffffffffffffffffffffffffffffffff1602179055505050505050565b60606000610e29612356565b60000160008481526020019081526020016000208054610e4890614bc8565b80601f0160208091040260200160405190810160405280929190818152602001828054610e7490614bc8565b8015610ec15780601f10610e9657610100808354040283529160200191610ec1565b820191906000526020600020905b815481529060010190602001808311610ea457829003601f168201915b50505050509050600081511415610f0d576040517f08c379a0000000000000000000000000000000000000000000000000000000008152600401610f0490614c46565b60405180910390fd5b610f15612356565b60010181604051602001610f2a929190614cfa565b604051602081830303815290604052915050919050565b6000610f67610f4e612383565b60010160008481526020019081526020016000206123b0565b9050919050565b6000610f83610f7b612205565b600201612232565b905090565b6000610fda610f95612205565b60030160008473ffffffffffffffffffffffffffffffffffffffff1673ffffffffffffffffffffffffffffffffffffffff168152602001908152602001600020612232565b9050919050565b3373ffffffffffffffffffffffffffffffffffffffff168573ffffffffffffffffffffffffffffffffffffffff16148061102157506110208533611ed6565b5b611060576040517f08c379a000000000000000000000000000000000000000000000000000000000815260040161105790614d90565b60405180910390fd5b61106e3386868686866123c5565b5050505050565b600061107f612205565b60000160009054906101000a900473ffffffffffffffffffffffffffffffffffffffff16905090565b606081518351146110ee576040517f08c379a00000000000000000000000000000000000000000000000000000000081526004016110e590614e22565b60405180910390fd5b60006110f86123e9565b60000190506000845167ffffffffffffffff81111561111a57611119613bb9565b5b6040519080825280602002602001820160405280156111485781602001602082028036833780820191505090505b50905060005b855181101561129157600073ffffffffffffffffffffffffffffffffffffffff1686828151811061118257611181614e42565b5b602002602001015173ffffffffffffffffffffffffffffffffffffffff1614156111e1576040517f08c379a00000000000000000000000000000000000000000000000000000000081526004016111d890614ee3565b60405180910390fd5b8260008683815181106111f7576111f6614e42565b5b60200260200101518152602001908152602001600020600087838151811061122257611221614e42565b5b602002602001015173ffffffffffffffffffffffffffffffffffffffff1673ffffffffffffffffffffffffffffffffffffffff1681526020019081526020016000205482828151811061127857611277614e42565b5b602002602001018181525050808060010191505061114e565b50809250505092915050565b60006112a7612306565b60000160009054906101000a900473ffffffffffffffffffffffffffffffffffffffff1673ffffffffffffffffffffffffffffffffffffffff168273ffffffffffffffffffffffffffffffffffffffff16149050919050565b60008061130b61228b565b60000160008481526020019081526020016000209050600081600201541415611369576040517f08c379a000000000000000000000000000000000000000000000000000000000815260040161136090614f4f565b60405180910390fd5b60008160050154146113c757806005015461138682600801612232565b106113c6576040517f08c379a00000000000000000000000000000000000000000000000000000000081526004016113bd90614fbb565b60405180910390fd5b5b8060000154421180156113de575080600101544211155b61141d576040517f08c379a000000000000000000000000000000000000000000000000000000000815260040161141490615027565b60405180910390fd5b600081600001544261142f91906147f4565b905060008260000154836001015461144791906147f4565b905061146282828560020154866003015487600401546119ec565b9350505050919050565b60008060008060008060008060008061148361228b565b60000160008c815260200190815260200160002090506000816002015414156114e1576040517f08c379a00000000000000000000000000000000000000000000000000000000081526004016114d890614f4f565b60405180910390fd5b80600001548160010154826002015483600301548460040154856005015486600601548760070160009054906101000a900473ffffffffffffffffffffffffffffffffffffffff1661153589600801612232565b995099509950995099509950995099509950509193959799909294969850565b60606000611561612383565b600101600084815260200190815260200160002090506000611582826123b0565b67ffffffffffffffff81111561159b5761159a613bb9565b5b6040519080825280602002602001820160405280156115c95781602001602082028036833780820191505090505b50905060005b6115d8836123b0565b811015611652576115f2818461241690919063ffffffff16565b82828151811061160557611604614e42565b5b602002602001019073ffffffffffffffffffffffffffffffffffffffff16908173ffffffffffffffffffffffffffffffffffffffff1681525050808061164a90615047565b9150506115cf565b508092505050919050565b60606000611669612383565b60020160008473ffffffffffffffffffffffffffffffffffffffff1673ffffffffffffffffffffffffffffffffffffffff168152602001908152602001600020905060006116b682612430565b67ffffffffffffffff8111156116cf576116ce613bb9565b5b6040519080825280602002602001820160405280156116fd5781602001602082028036833780820191505090505b50905060005b61170c83612430565b81101561175857611726818461244590919063ffffffff16565b82828151811061173957611738614e42565b5b602002602001018181525050808061175090615047565b915050611703565b508092505050919050565b8173ffffffffffffffffffffffffffffffffffffffff163373ffffffffffffffffffffffffffffffffffffffff1614156117d2576040517f08c379a00000000000000000000000000000000000000000000000000000000081526004016117c990615102565b60405180910390fd5b806117db6123e9565b60010160003373ffffffffffffffffffffffffffffffffffffffff1673ffffffffffffffffffffffffffffffffffffffff16815260200190815260200160002060008473ffffffffffffffffffffffffffffffffffffffff1673ffffffffffffffffffffffffffffffffffffffff16815260200190815260200160002060006101000a81548160ff0219169083151502179055508173ffffffffffffffffffffffffffffffffffffffff163373ffffffffffffffffffffffffffffffffffffffff167f17307eab39ab6107e8899845ad3d59bd9653f200f220920489ca2b5937696c31836040516118cc9190613b83565b60405180910390a35050565b6000806118e361228b565b60000160008581526020019081526020016000209050600081600201541415611941576040517f08c379a000000000000000000000000000000000000000000000000000000000815260040161193890614f4f565b60405180910390fd5b61198a8160090160008573ffffffffffffffffffffffffffffffffffffffff1673ffffffffffffffffffffffffffffffffffffffff168152602001908152602001600020612232565b91505092915050565b600061199d612205565b60040160009054906101000a900473ffffffffffffffffffffffffffffffffffffffff16905090565b60006119d0612383565b6000016000838152602001908152602001600020549050919050565b60008483856119fb91906147f4565b87611a069190615122565b8486611a1291906147f4565b8489611a1e91906151ab565b611a289190615122565b8688611a349190615122565b611a3e91906151dc565b611a4891906147f4565b611a529190615232565b905095945050505050565b600080611a68612172565b90506000611a7461228b565b600001600086815260200190815260200160002090506000816005015414611ae8578060050154611aa782600801612232565b10611ae7576040517f08c379a0000000000000000000000000000000000000000000000000000000008152600401611ade90614fbb565b60405180910390fd5b5b806000015442118015611aff575080600101544211155b611b3e576040517f08c379a0000000000000000000000000000000000000000000000000000000008152600401611b3590615027565b60405180910390fd5b6000816000015442611b5091906147f4565b9050600082600001548360010154611b6891906147f4565b90506000611b8583838660020154876003015488600401546119ec565b905080341015611bca576040517f08c379a0000000000000000000000000000000000000000000000000000000008152600401611bc1906152af565b60405180910390fd5b60006064856006015434611bde9190615122565b611be89190615232565b905060008134611bf891906147f4565b90506000611c458760090160008a73ffffffffffffffffffffffffffffffffffffffff1673ffffffffffffffffffffffffffffffffffffffff168152602001908152602001600020612232565b905060008b8983604051602001611c5e939291906152cf565b60405160208183030381529060405290506000611c938c611c8584805190602001206121ae565b6121de90919063ffffffff16565b9050611c9d612205565b60000160009054906101000a900473ffffffffffffffffffffffffffffffffffffffff1673ffffffffffffffffffffffffffffffffffffffff168173ffffffffffffffffffffffffffffffffffffffff1614611d2e576040517f08c379a0000000000000000000000000000000000000000000000000000000008152600401611d2590614b0d565b60405180910390fd5b611d3a89600801612275565b611d838960090160008c73ffffffffffffffffffffffffffffffffffffffff1673ffffffffffffffffffffffffffffffffffffffff168152602001908152602001600020612275565b611d9f8a8e6001604051806020016040528060008152506122b8565b8860070160009054906101000a900473ffffffffffffffffffffffffffffffffffffffff1673ffffffffffffffffffffffffffffffffffffffff166108fc859081150290604051600060405180830381858888f19350505050158015611e09573d6000803e3d6000fd5b50611e12612205565b60040160009054906101000a900473ffffffffffffffffffffffffffffffffffffffff1673ffffffffffffffffffffffffffffffffffffffff166108fc869081150290604051600060405180830381858888f19350505050158015611e7b573d6000803e3d6000fd5b5060018d8b73ffffffffffffffffffffffffffffffffffffffff167f25b428dfde728ccfaddad7e29e4ac23c24ed7fd1a6e3e3f91894a9a073f5dfff60405160405180910390a460019a505050505050505050505092915050565b6000611ee06123e9565b60010160008473ffffffffffffffffffffffffffffffffffffffff1673ffffffffffffffffffffffffffffffffffffffff16815260200190815260200160002060008373ffffffffffffffffffffffffffffffffffffffff1673ffffffffffffffffffffffffffffffffffffffff16815260200190815260200160002060009054906101000a900460ff16905092915050565b3373ffffffffffffffffffffffffffffffffffffffff168573ffffffffffffffffffffffffffffffffffffffff161480611fb35750611fb28533611ed6565b5b611ff2576040517f08c379a0000000000000000000000000000000000000000000000000000000008152600401611fe990614d90565b60405180910390fd5b61200033868686868661245f565b5050505050565b60008073ffffffffffffffffffffffffffffffffffffffff168373ffffffffffffffffffffffffffffffffffffffff161415612078576040517f08c379a000000000000000000000000000000000000000000000000000000000815260040161206f9061537e565b60405180910390fd5b6120806123e9565b600001600083815260200190815260200160002060008473ffffffffffffffffffffffffffffffffffffffff1673ffffffffffffffffffffffffffffffffffffffff16815260200190815260200160002054905092915050565b6000807f326d0c59a7612f6a9919e2a8ee333c80ba689d8ba2634de89c85cbb04832e70590508091505090565b6000826000016000837bffffffffffffffffffffffffffffffffffffffffffffffffffffffff19167bffffffffffffffffffffffffffffffffffffffffffffffffffffffff1916815260200190815260200160002060009054906101000a900460ff16905092915050565b6000601860003690501015801561218e575061218d3361129d565b5b156121a257601436033560601c90506121aa565b3390506121ab565b5b90565b6000816040516020016121c19190615415565b604051602081830303815290604052805190602001209050919050565b60008060006121ed8585612483565b915091506121fa81612506565b819250505092915050565b6000807f47dc25f21c7793543edaeb1ef19d41726ddbada967ae9a7980b9bd8a45228a5e90508091505090565b600081600001549050919050565b80612249612356565b6000016000848152602001908152602001600020908051906020019061227092919061392e565b505050565b6001816000016000828254019250508190555050565b6000807f6862122c88c20d0f389f9211fb45e4a0982f5f74838cd11cfb5e8c8b41fbe65990508091505090565b6122c4848484846126db565b6122d333600086868686612865565b50505050565b6000807fc8fcad8db84d3cc18b4c41d551ea0ee66dd599cde068d998e57d5e09332c131c90508091505090565b6000807fa5e014e253d3b66bd348c3cdd05f38b9805fff0b6471d004b58c6ada26cae99390508091505090565b8061233c612356565b600101908051906020019061235292919061392e565b5050565b6000807fb3408a5d8f30170919d3996b6cc182726500ad24733d17ace2f621485f6e7c8390508091505090565b6000807fb31c2c74f86ca3ce94d901f5f5bbe66f7161eec2f7b5aa0b75a86371436424ea90508091505090565b60006123be82600001612a3d565b9050919050565b6123d3868686868686612a4e565b6123e1868686868686612d5a565b505050505050565b6000807f1799cf914cb0cb442ca7c7ac709ee40d0cb89e87351dc08d517fbda27d50c68b90508091505090565b60006124258360000183612f32565b60001c905092915050565b600061243e82600001612a3d565b9050919050565b60006124548360000183612f32565b60001c905092915050565b61246d868686868686612fa6565b61247b868686868686612865565b505050505050565b6000806041835114156124c55760008060006020860151925060408601519150606086015160001a90506124b98782858561321e565b945094505050506124ff565b6040835114156124f65760008060208501519150604085015190506124eb86838361332b565b9350935050506124ff565b60006002915091505b9250929050565b6000600481111561251a5761251961543b565b5b81600481111561252d5761252c61543b565b5b1415612538576126d8565b6001600481111561254c5761254b61543b565b5b81600481111561255f5761255e61543b565b5b14156125a0576040517f08c379a0000000000000000000000000000000000000000000000000000000008152600401612597906154b6565b60405180910390fd5b600260048111156125b4576125b361543b565b5b8160048111156125c7576125c661543b565b5b1415612608576040517f08c379a00000000000000000000000000000000000000000000000000000000081526004016125ff90615522565b60405180910390fd5b6003600481111561261c5761261b61543b565b5b81600481111561262f5761262e61543b565b5b1415612670576040517f08c379a0000000000000000000000000000000000000000000000000000000008152600401612667906155b4565b60405180910390fd5b6004808111156126835761268261543b565b5b8160048111156126965761269561543b565b5b14156126d7576040517f08c379a00000000000000000000000000000000000000000000000000000000081526004016126ce90615646565b60405180910390fd5b5b50565b600073ffffffffffffffffffffffffffffffffffffffff168473ffffffffffffffffffffffffffffffffffffffff16141561274b576040517f08c379a0000000000000000000000000000000000000000000000000000000008152600401612742906156d8565b60405180910390fd5b61276a3360008661275b87613379565b61276487613379565b866133f3565b60006127746123e9565b60000160008581526020019081526020016000209050828160008773ffffffffffffffffffffffffffffffffffffffff1673ffffffffffffffffffffffffffffffffffffffff16815260200190815260200160002060008282546127d891906151dc565b925050819055508473ffffffffffffffffffffffffffffffffffffffff16600073ffffffffffffffffffffffffffffffffffffffff163373ffffffffffffffffffffffffffffffffffffffff167fc3d58168c5ae7397731d063d5bbf3d657854427343f4c083240f7aacaa2d0f6287876040516128569291906156f8565b60405180910390a45050505050565b6128848473ffffffffffffffffffffffffffffffffffffffff16613409565b15612a35578373ffffffffffffffffffffffffffffffffffffffff1663f23a6e6187878686866040518663ffffffff1660e01b81526004016128ca959493929190615776565b6020604051808303816000875af192505050801561290657506040513d601f19601f8201168201806040525081019061290391906157e5565b60015b6129ac5761291261581f565b806308c379a0141561296f5750612927615841565b806129325750612971565b806040517f08c379a00000000000000000000000000000000000000000000000000000000081526004016129669190613fd3565b60405180910390fd5b505b6040517f08c379a00000000000000000000000000000000000000000000000000000000081526004016129a390615949565b60405180910390fd5b63f23a6e6160e01b7bffffffffffffffffffffffffffffffffffffffffffffffffffffffff1916817bffffffffffffffffffffffffffffffffffffffffffffffffffffffff191614612a33576040517f08c379a0000000000000000000000000000000000000000000000000000000008152600401612a2a906159db565b60405180910390fd5b505b505050505050565b600081600001805490509050919050565b600073ffffffffffffffffffffffffffffffffffffffff168473ffffffffffffffffffffffffffffffffffffffff161415612abe576040517f08c379a0000000000000000000000000000000000000000000000000000000008152600401612ab590615a6d565b60405180910390fd5b8151835114612b02576040517f08c379a0000000000000000000000000000000000000000000000000000000008152600401612af990615aff565b60405180910390fd5b612b108686868686866133f3565b6000612b1a6123e9565b600001905060005b8451811015612cd2576000858281518110612b4057612b3f614e42565b5b602002602001015190506000858381518110612b5f57612b5e614e42565b5b60200260200101519050600084600084815260200190815260200160002060008b73ffffffffffffffffffffffffffffffffffffffff1673ffffffffffffffffffffffffffffffffffffffff16815260200190815260200160002054905081811015612c00576040517f08c379a0000000000000000000000000000000000000000000000000000000008152600401612bf790615b91565b60405180910390fd5b81810385600085815260200190815260200160002060008c73ffffffffffffffffffffffffffffffffffffffff1673ffffffffffffffffffffffffffffffffffffffff16815260200190815260200160002081905550508084600084815260200190815260200160002060008a73ffffffffffffffffffffffffffffffffffffffff1673ffffffffffffffffffffffffffffffffffffffff1681526020019081526020016000206000828254612cb691906151dc565b9250508190555050508080612cca90615047565b915050612b22565b508473ffffffffffffffffffffffffffffffffffffffff168673ffffffffffffffffffffffffffffffffffffffff168873ffffffffffffffffffffffffffffffffffffffff167f4a39dc06d4c0dbc64b70af90fd698a233a518aa5d07e595d983b8c0526c8f7fb8787604051612d49929190615bb1565b60405180910390a450505050505050565b612d798473ffffffffffffffffffffffffffffffffffffffff16613409565b15612f2a578373ffffffffffffffffffffffffffffffffffffffff1663bc197c8187878686866040518663ffffffff1660e01b8152600401612dbf959493929190615be8565b6020604051808303816000875af1925050508015612dfb57506040513d601f19601f82011682018060405250810190612df891906157e5565b60015b612ea157612e0761581f565b806308c379a01415612e645750612e1c615841565b80612e275750612e66565b806040517f08c379a0000000000000000000000000000000000000000000000000000000008152600401612e5b9190613fd3565b60405180910390fd5b505b6040517f08c379a0000000000000000000000000000000000000000000000000000000008152600401612e9890615949565b60405180910390fd5b63bc197c8160e01b7bffffffffffffffffffffffffffffffffffffffffffffffffffffffff1916817bffffffffffffffffffffffffffffffffffffffffffffffffffffffff191614612f28576040517f08c379a0000000000000000000000000000000000000000000000000000000008152600401612f1f906159db565b60405180910390fd5b505b505050505050565b600081836000018054905011612f7d576040517f08c379a0000000000000000000000000000000000000000000000000000000008152600401612f7490615cc2565b60405180910390fd5b826000018281548110612f9357612f92614e42565b5b9060005260206000200154905092915050565b600073ffffffffffffffffffffffffffffffffffffffff168473ffffffffffffffffffffffffffffffffffffffff161415613016576040517f08c379a000000000000000000000000000000000000000000000000000000000815260040161300d90615a6d565b60405180910390fd5b61303486868661302587613379565b61302e87613379565b866133f3565b600061303e6123e9565b6000019050600081600086815260200190815260200160002060008873ffffffffffffffffffffffffffffffffffffffff1673ffffffffffffffffffffffffffffffffffffffff168152602001908152602001600020549050838110156130da576040517f08c379a00000000000000000000000000000000000000000000000000000000081526004016130d190615b91565b60405180910390fd5b83810382600087815260200190815260200160002060008973ffffffffffffffffffffffffffffffffffffffff1673ffffffffffffffffffffffffffffffffffffffff16815260200190815260200160002081905550508281600086815260200190815260200160002060008773ffffffffffffffffffffffffffffffffffffffff1673ffffffffffffffffffffffffffffffffffffffff168152602001908152602001600020600082825461319091906151dc565b925050819055508473ffffffffffffffffffffffffffffffffffffffff168673ffffffffffffffffffffffffffffffffffffffff168873ffffffffffffffffffffffffffffffffffffffff167fc3d58168c5ae7397731d063d5bbf3d657854427343f4c083240f7aacaa2d0f62878760405161320d9291906156f8565b60405180910390a450505050505050565b6000807f7fffffffffffffffffffffffffffffff5d576e7357a4501ddfe92f46681b20a08360001c1115613259576000600391509150613322565b601b8560ff16141580156132715750601c8560ff1614155b15613283576000600491509150613322565b6000600187878787604051600081526020016040526040516132a89493929190615d0d565b6020604051602081039080840390855afa1580156132ca573d6000803e3d6000fd5b505050602060405103519050600073ffffffffffffffffffffffffffffffffffffffff168173ffffffffffffffffffffffffffffffffffffffff16141561331957600060019250925050613322565b80600092509250505b94509492505050565b6000806000807f7fffffffffffffffffffffffffffffffffffffffffffffffffffffffffffffff85169150601b8560ff1c01905061336b8782888561321e565b935093505050935093915050565b60606000600167ffffffffffffffff81111561339857613397613bb9565b5b6040519080825280602002602001820160405280156133c65781602001602082028036833780820191505090505b50905082816000815181106133de576133dd614e42565b5b60200260200101818152505080915050919050565b61340186868686868661341c565b505050505050565b600080823b905060008111915050919050565b61342a868686868686613432565b505050505050565b6134408686868686866136ed565b8373ffffffffffffffffffffffffffffffffffffffff168573ffffffffffffffffffffffffffffffffffffffff16146136e557600061347d612383565b9050600081600101905060008260020160008973ffffffffffffffffffffffffffffffffffffffff1673ffffffffffffffffffffffffffffffffffffffff168152602001908152602001600020905060008360020160008973ffffffffffffffffffffffffffffffffffffffff1673ffffffffffffffffffffffffffffffffffffffff168152602001908152602001600020905060005b87518110156136df57600087828151811061353257613531614e42565b5b6020026020010151905060008111156136cb57600089838151811061355a57613559614e42565b5b60200260200101519050600073ffffffffffffffffffffffffffffffffffffffff168c73ffffffffffffffffffffffffffffffffffffffff1614156135ca578187600001600083815260200190815260200160002060008282546135be91906151dc565b92505081905550613616565b816135d58d83612007565b1415613615576135ff8c8760008481526020019081526020016000206136f590919063ffffffff16565b50613613818661372590919063ffffffff16565b505b5b600073ffffffffffffffffffffffffffffffffffffffff168b73ffffffffffffffffffffffffffffffffffffffff16141561367c5781876000016000838152602001908152602001600020600082825461367091906147f4565b925050819055506136c9565b60006136888c83612007565b14156136c8576136b28b87600084815260200190815260200160002061373f90919063ffffffff16565b506136c6818561376f90919063ffffffff16565b505b5b505b5080806136d790615047565b915050613514565b50505050505b505050505050565b505050505050565b600061371d836000018373ffffffffffffffffffffffffffffffffffffffff1660001b613789565b905092915050565b6000613737836000018360001b613789565b905092915050565b6000613767836000018373ffffffffffffffffffffffffffffffffffffffff1660001b61389b565b905092915050565b6000613781836000018360001b61389b565b905092915050565b6000808360010160008481526020019081526020016000205490506000811461388f5760006001826137bb91906147f4565b9050600085600001600187600001805490506137d791906147f4565b815481106137e8576137e7614e42565b5b906000526020600020015490508086600001838154811061380c5761380b614e42565b5b906000526020600020018190555060018261382791906151dc565b866001016000838152602001908152602001600020819055508560000180548061385457613853615d52565b5b600190038181906000526020600020016000905590558560010160008681526020019081526020016000206000905560019350505050613895565b60009150505b92915050565b60006138a7838361390b565b613900578260000182908060018154018082558091505060019003906000526020600020016000909190919091505582600001805490508360010160008481526020019081526020016000208190555060019050613905565b600090505b92915050565b600080836001016000848152602001908152602001600020541415905092915050565b82805461393a90614bc8565b90600052602060002090601f01602090048101928261395c57600085556139a3565b82601f1061397557805160ff19168380011785556139a3565b828001600101855582156139a3579182015b828111156139a2578251825591602001919060010190613987565b5b5090506139b091906139b4565b5090565b5b808211156139cd5760008160009055506001016139b5565b5090565b6000604051905090565b600080fd5b600080fd5b600073ffffffffffffffffffffffffffffffffffffffff82169050919050565b6000613a10826139e5565b9050919050565b613a2081613a05565b8114613a2b57600080fd5b50565b600081359050613a3d81613a17565b92915050565b6000819050919050565b613a5681613a43565b8114613a6157600080fd5b50565b600081359050613a7381613a4d565b92915050565b60008060408385031215613a9057613a8f6139db565b5b6000613a9e85828601613a2e565b9250506020613aaf85828601613a64565b9150509250929050565b613ac281613a43565b82525050565b6000602082019050613add6000830184613ab9565b92915050565b60007fffffffff0000000000000000000000000000000000000000000000000000000082169050919050565b613b1881613ae3565b8114613b2357600080fd5b50565b600081359050613b3581613b0f565b92915050565b600060208284031215613b5157613b506139db565b5b6000613b5f84828501613b26565b91505092915050565b60008115159050919050565b613b7d81613b68565b82525050565b6000602082019050613b986000830184613b74565b92915050565b600080fd5b600080fd5b6000601f19601f8301169050919050565b7f4e487b7100000000000000000000000000000000000000000000000000000000600052604160045260246000fd5b613bf182613ba8565b810181811067ffffffffffffffff82111715613c1057613c0f613bb9565b5b80604052505050565b6000613c236139d1565b9050613c2f8282613be8565b919050565b600067ffffffffffffffff821115613c4f57613c4e613bb9565b5b613c5882613ba8565b9050602081019050919050565b82818337600083830152505050565b6000613c87613c8284613c34565b613c19565b905082815260208101848484011115613ca357613ca2613ba3565b5b613cae848285613c65565b509392505050565b600082601f830112613ccb57613cca613b9e565b5b8135613cdb848260208601613c74565b91505092915050565b600067ffffffffffffffff821115613cff57613cfe613bb9565b5b613d0882613ba8565b9050602081019050919050565b6000613d28613d2384613ce4565b613c19565b905082815260208101848484011115613d4457613d43613ba3565b5b613d4f848285613c65565b509392505050565b600082601f830112613d6c57613d6b613b9e565b5b8135613d7c848260208601613d15565b91505092915050565b60008060008060008060008060006101208a8c031215613da857613da76139db565b5b60008a013567ffffffffffffffff811115613dc657613dc56139e0565b5b613dd28c828d01613cb6565b9950506020613de38c828d01613a64565b9850506040613df48c828d01613a64565b9750506060613e058c828d01613a64565b9650506080613e168c828d01613a64565b95505060a0613e278c828d01613a64565b94505060c0613e388c828d01613a64565b93505060e0613e498c828d01613a64565b9250506101008a013567ffffffffffffffff811115613e6b57613e6a6139e0565b5b613e778c828d01613d57565b9150509295985092959850929598565b600080600080600060a08688031215613ea357613ea26139db565b5b600086013567ffffffffffffffff811115613ec157613ec06139e0565b5b613ecd88828901613cb6565b9550506020613ede88828901613a2e565b9450506040613eef88828901613a2e565b9350506060613f0088828901613a2e565b9250506080613f1188828901613a2e565b9150509295509295909350565b600060208284031215613f3457613f336139db565b5b6000613f4284828501613a64565b91505092915050565b600081519050919050565b600082825260208201905092915050565b60005b83811015613f85578082015181840152602081019050613f6a565b83811115613f94576000848401525b50505050565b6000613fa582613f4b565b613faf8185613f56565b9350613fbf818560208601613f67565b613fc881613ba8565b840191505092915050565b60006020820190508181036000830152613fed8184613f9a565b905092915050565b60006020828403121561400b5761400a6139db565b5b600061401984828501613a2e565b91505092915050565b600067ffffffffffffffff82111561403d5761403c613bb9565b5b602082029050602081019050919050565b600080fd5b600061406661406184614022565b613c19565b905080838252602082019050602084028301858111156140895761408861404e565b5b835b818110156140b2578061409e8882613a64565b84526020840193505060208101905061408b565b5050509392505050565b600082601f8301126140d1576140d0613b9e565b5b81356140e1848260208601614053565b91505092915050565b600080600080600060a08688031215614106576141056139db565b5b600061411488828901613a2e565b955050602061412588828901613a2e565b945050604086013567ffffffffffffffff811115614146576141456139e0565b5b614152888289016140bc565b935050606086013567ffffffffffffffff811115614173576141726139e0565b5b61417f888289016140bc565b925050608086013567ffffffffffffffff8111156141a05761419f6139e0565b5b6141ac88828901613d57565b9150509295509295909350565b6141c281613a05565b82525050565b60006020820190506141dd60008301846141b9565b92915050565b600067ffffffffffffffff8211156141fe576141fd613bb9565b5b602082029050602081019050919050565b600061422261421d846141e3565b613c19565b905080838252602082019050602084028301858111156142455761424461404e565b5b835b8181101561426e578061425a8882613a2e565b845260208401935050602081019050614247565b5050509392505050565b600082601f83011261428d5761428c613b9e565b5b813561429d84826020860161420f565b91505092915050565b600080604083850312156142bd576142bc6139db565b5b600083013567ffffffffffffffff8111156142db576142da6139e0565b5b6142e785828601614278565b925050602083013567ffffffffffffffff811115614308576143076139e0565b5b614314858286016140bc565b9150509250929050565b600081519050919050565b600082825260208201905092915050565b6000819050602082019050919050565b61435381613a43565b82525050565b6000614365838361434a565b60208301905092915050565b6000602082019050919050565b60006143898261431e565b6143938185614329565b935061439e8361433a565b8060005b838110156143cf5781516143b68882614359565b97506143c183614371565b9250506001810190506143a2565b5085935050505092915050565b600060208201905081810360008301526143f6818461437e565b905092915050565b600061012082019050614414600083018c613ab9565b614421602083018b613ab9565b61442e604083018a613ab9565b61443b6060830189613ab9565b6144486080830188613ab9565b61445560a0830187613ab9565b61446260c0830186613ab9565b61446f60e08301856141b9565b61447d610100830184613ab9565b9a9950505050505050505050565b600081519050919050565b600082825260208201905092915050565b6000819050602082019050919050565b6144c081613a05565b82525050565b60006144d283836144b7565b60208301905092915050565b6000602082019050919050565b60006144f68261448b565b6145008185614496565b935061450b836144a7565b8060005b8381101561453c57815161452388826144c6565b975061452e836144de565b92505060018101905061450f565b5085935050505092915050565b6000602082019050818103600083015261456381846144eb565b905092915050565b61457481613b68565b811461457f57600080fd5b50565b6000813590506145918161456b565b92915050565b600080604083850312156145ae576145ad6139db565b5b60006145bc85828601613a2e565b92505060206145cd85828601614582565b9150509250929050565b600080604083850312156145ee576145ed6139db565b5b60006145fc85828601613a64565b925050602061460d85828601613a2e565b9150509250929050565b600080600080600060a08688031215614633576146326139db565b5b600061464188828901613a64565b955050602061465288828901613a64565b945050604061466388828901613a64565b935050606061467488828901613a64565b925050608061468588828901613a64565b9150509295509295909350565b600080604083850312156146a9576146a86139db565b5b60006146b785828601613a64565b925050602083013567ffffffffffffffff8111156146d8576146d76139e0565b5b6146e485828601613d57565b9150509250929050565b60008060408385031215614705576147046139db565b5b600061471385828601613a2e565b925050602061472485828601613a2e565b9150509250929050565b600080600080600060a0868803121561474a576147496139db565b5b600061475888828901613a2e565b955050602061476988828901613a2e565b945050604061477a88828901613a64565b935050606061478b88828901613a64565b925050608086013567ffffffffffffffff8111156147ac576147ab6139e0565b5b6147b888828901613d57565b9150509295509295909350565b7f4e487b7100000000000000000000000000000000000000000000000000000000600052601160045260246000fd5b60006147ff82613a43565b915061480a83613a43565b92508282101561481d5761481c6147c5565b5b828203905092915050565b7f4954000000000000000000000000000000000000000000000000000000000000600082015250565b600061485e600283613f56565b915061486982614828565b602082019050919050565b6000602082019050818103600083015261488d81614851565b9050919050565b7f4950000000000000000000000000000000000000000000000000000000000000600082015250565b60006148ca600283613f56565b91506148d582614894565b602082019050919050565b600060208201905081810360008301526148f9816148bd565b9050919050565b7f49534f0000000000000000000000000000000000000000000000000000000000600082015250565b6000614936600383613f56565b915061494182614900565b602082019050919050565b6000602082019050818103600083015261496581614929565b9050919050565b600081905092915050565b600061498282613f4b565b61498c818561496c565b935061499c818560208601613f67565b80840191505092915050565b6000819050919050565b6149c36149be82613a43565b6149a8565b82525050565b60008160601b9050919050565b60006149e1826149c9565b9050919050565b60006149f3826149d6565b9050919050565b614a0b614a0682613a05565b6149e8565b82525050565b6000614a1d828d614977565b9150614a29828c6149b2565b602082019150614a39828b6149b2565b602082019150614a49828a6149b2565b602082019150614a5982896149b2565b602082019150614a6982886149b2565b602082019150614a7982876149b2565b602082019150614a8982866149b2565b602082019150614a9982856149fa565b601482019150614aa982846149b2565b6020820191508190509b9a5050505050505050505050565b7f4e4d000000000000000000000000000000000000000000000000000000000000600082015250565b6000614af7600283613f56565b9150614b0282614ac1565b602082019050919050565b60006020820190508181036000830152614b2681614aea565b9050919050565b7f4e4f000000000000000000000000000000000000000000000000000000000000600082015250565b6000614b63600283613f56565b9150614b6e82614b2d565b602082019050919050565b60006020820190508181036000830152614b9281614b56565b9050919050565b7f4e487b7100000000000000000000000000000000000000000000000000000000600052602260045260246000fd5b60006002820490506001821680614be057607f821691505b60208210811415614bf457614bf3614b99565b5b50919050565b7f455243313135355552493a20746f6b656e4964206e6f74206578697374000000600082015250565b6000614c30601d83613f56565b9150614c3b82614bfa565b602082019050919050565b60006020820190508181036000830152614c5f81614c23565b9050919050565b60008190508160005260206000209050919050565b60008154614c8881614bc8565b614c92818661496c565b94506001821660008114614cad5760018114614cbe57614cf1565b60ff19831686528186019350614cf1565b614cc785614c66565b60005b83811015614ce957815481890152600182019150602081019050614cca565b838801955050505b50505092915050565b6000614d068285614c7b565b9150614d128284614977565b91508190509392505050565b7f455243313135353a2063616c6c6572206973206e6f74206f776e6572206e6f7260008201527f20617070726f7665640000000000000000000000000000000000000000000000602082015250565b6000614d7a602983613f56565b9150614d8582614d1e565b604082019050919050565b60006020820190508181036000830152614da981614d6d565b9050919050565b7f455243313135353a206163636f756e747320616e6420696473206c656e67746860008201527f206d69736d617463680000000000000000000000000000000000000000000000602082015250565b6000614e0c602983613f56565b9150614e1782614db0565b604082019050919050565b60006020820190508181036000830152614e3b81614dff565b9050919050565b7f4e487b7100000000000000000000000000000000000000000000000000000000600052603260045260246000fd5b7f455243313135353a2062617463682062616c616e636520717565727920666f7260008201527f20746865207a65726f2061646472657373000000000000000000000000000000602082015250565b6000614ecd603183613f56565b9150614ed882614e71565b604082019050919050565b60006020820190508181036000830152614efc81614ec0565b9050919050565b7f444e450000000000000000000000000000000000000000000000000000000000600082015250565b6000614f39600383613f56565b9150614f4482614f03565b602082019050919050565b60006020820190508181036000830152614f6881614f2c565b9050919050565b7f4352000000000000000000000000000000000000000000000000000000000000600082015250565b6000614fa5600283613f56565b9150614fb082614f6f565b602082019050919050565b60006020820190508181036000830152614fd481614f98565b9050919050565b7f4f4f540000000000000000000000000000000000000000000000000000000000600082015250565b6000615011600383613f56565b915061501c82614fdb565b602082019050919050565b6000602082019050818103600083015261504081615004565b9050919050565b600061505282613a43565b91507fffffffffffffffffffffffffffffffffffffffffffffffffffffffffffffffff821415615085576150846147c5565b5b600182019050919050565b7f455243313135353a2073657474696e6720617070726f76616c2073746174757360008201527f20666f722073656c660000000000000000000000000000000000000000000000602082015250565b60006150ec602983613f56565b91506150f782615090565b604082019050919050565b6000602082019050818103600083015261511b816150df565b9050919050565b600061512d82613a43565b915061513883613a43565b9250817fffffffffffffffffffffffffffffffffffffffffffffffffffffffffffffffff0483118215151615615171576151706147c5565b5b828202905092915050565b7f4e487b7100000000000000000000000000000000000000000000000000000000600052601260045260246000fd5b60006151b682613a43565b91506151c183613a43565b9250826151d1576151d061517c565b5b828206905092915050565b60006151e782613a43565b91506151f283613a43565b9250827fffffffffffffffffffffffffffffffffffffffffffffffffffffffffffffffff03821115615227576152266147c5565b5b828201905092915050565b600061523d82613a43565b915061524883613a43565b9250826152585761525761517c565b5b828204905092915050565b7f4941000000000000000000000000000000000000000000000000000000000000600082015250565b6000615299600283613f56565b91506152a482615263565b602082019050919050565b600060208201905081810360008301526152c88161528c565b9050919050565b60006152db82866149b2565b6020820191506152eb82856149fa565b6014820191506152fb82846149b2565b602082019150819050949350505050565b7f455243313135353a2062616c616e636520717565727920666f7220746865207a60008201527f65726f2061646472657373000000000000000000000000000000000000000000602082015250565b6000615368602b83613f56565b91506153738261530c565b604082019050919050565b600060208201905081810360008301526153978161535b565b9050919050565b7f19457468657265756d205369676e6564204d6573736167653a0a333200000000600082015250565b60006153d4601c8361496c565b91506153df8261539e565b601c82019050919050565b6000819050919050565b6000819050919050565b61540f61540a826153ea565b6153f4565b82525050565b6000615420826153c7565b915061542c82846153fe565b60208201915081905092915050565b7f4e487b7100000000000000000000000000000000000000000000000000000000600052602160045260246000fd5b7f45434453413a20696e76616c6964207369676e61747572650000000000000000600082015250565b60006154a0601883613f56565b91506154ab8261546a565b602082019050919050565b600060208201905081810360008301526154cf81615493565b9050919050565b7f45434453413a20696e76616c6964207369676e6174757265206c656e67746800600082015250565b600061550c601f83613f56565b9150615517826154d6565b602082019050919050565b6000602082019050818103600083015261553b816154ff565b9050919050565b7f45434453413a20696e76616c6964207369676e6174757265202773272076616c60008201527f7565000000000000000000000000000000000000000000000000000000000000602082015250565b600061559e602283613f56565b91506155a982615542565b604082019050919050565b600060208201905081810360008301526155cd81615591565b9050919050565b7f45434453413a20696e76616c6964207369676e6174757265202776272076616c60008201527f7565000000000000000000000000000000000000000000000000000000000000602082015250565b6000615630602283613f56565b915061563b826155d4565b604082019050919050565b6000602082019050818103600083015261565f81615623565b9050919050565b7f455243313135353a206d696e7420746f20746865207a65726f2061646472657360008201527f7300000000000000000000000000000000000000000000000000000000000000602082015250565b60006156c2602183613f56565b91506156cd82615666565b604082019050919050565b600060208201905081810360008301526156f1816156b5565b9050919050565b600060408201905061570d6000830185613ab9565b61571a6020830184613ab9565b9392505050565b600081519050919050565b600082825260208201905092915050565b600061574882615721565b615752818561572c565b9350615762818560208601613f67565b61576b81613ba8565b840191505092915050565b600060a08201905061578b60008301886141b9565b61579860208301876141b9565b6157a56040830186613ab9565b6157b26060830185613ab9565b81810360808301526157c4818461573d565b90509695505050505050565b6000815190506157df81613b0f565b92915050565b6000602082840312156157fb576157fa6139db565b5b6000615809848285016157d0565b91505092915050565b60008160e01c9050919050565b600060033d111561583e5760046000803e61583b600051615812565b90505b90565b600060443d1015615851576158d4565b6158596139d1565b60043d036004823e80513d602482011167ffffffffffffffff821117156158815750506158d4565b808201805167ffffffffffffffff81111561589f57505050506158d4565b80602083010160043d0385018111156158bc5750505050506158d4565b6158cb82602001850186613be8565b82955050505050505b90565b7f455243313135353a207472616e7366657220746f206e6f6e204552433131353560008201527f526563656976657220696d706c656d656e746572000000000000000000000000602082015250565b6000615933603483613f56565b915061593e826158d7565b604082019050919050565b6000602082019050818103600083015261596281615926565b9050919050565b7f455243313135353a204552433131353552656365697665722072656a6563746560008201527f6420746f6b656e73000000000000000000000000000000000000000000000000602082015250565b60006159c5602883613f56565b91506159d082615969565b604082019050919050565b600060208201905081810360008301526159f4816159b8565b9050919050565b7f455243313135353a207472616e7366657220746f20746865207a65726f20616460008201527f6472657373000000000000000000000000000000000000000000000000000000602082015250565b6000615a57602583613f56565b9150615a62826159fb565b604082019050919050565b60006020820190508181036000830152615a8681615a4a565b9050919050565b7f455243313135353a2069647320616e6420616d6f756e7473206c656e6774682060008201527f6d69736d61746368000000000000000000000000000000000000000000000000602082015250565b6000615ae9602883613f56565b9150615af482615a8d565b604082019050919050565b60006020820190508181036000830152615b1881615adc565b9050919050565b7f455243313135353a20696e73756666696369656e742062616c616e636573206660008201527f6f72207472616e73666572000000000000000000000000000000000000000000602082015250565b6000615b7b602b83613f56565b9150615b8682615b1f565b604082019050919050565b60006020820190508181036000830152615baa81615b6e565b9050919050565b60006040820190508181036000830152615bcb818561437e565b90508181036020830152615bdf818461437e565b90509392505050565b600060a082019050615bfd60008301886141b9565b615c0a60208301876141b9565b8181036040830152615c1c818661437e565b90508181036060830152615c30818561437e565b90508181036080830152615c44818461573d565b90509695505050505050565b7f456e756d657261626c655365743a20696e646578206f7574206f6620626f756e60008201527f6473000000000000000000000000000000000000000000000000000000000000602082015250565b6000615cac602283613f56565b9150615cb782615c50565b604082019050919050565b60006020820190508181036000830152615cdb81615c9f565b9050919050565b615ceb816153ea565b82525050565b600060ff82169050919050565b615d0781615cf1565b82525050565b6000608082019050615d226000830187615ce2565b615d2f6020830186615cfe565b615d3c6040830185615ce2565b615d496060830184615ce2565b95945050505050565b7f4e487b7100000000000000000000000000000000000000000000000000000000600052603160045260246000fdfea26469706673582212201d40441b80a9faa8a9db3551cc4acee6f4d97b316272e6312e2ba2526179e6de64736f6c634300080a0033",
  "devdoc": {
    "kind": "dev",
    "methods": {
      "accountsByToken(uint256)": {
        "params": {
          "id": "token id to query"
        },
        "returns": {
          "_0": "list of holder addresses"
        }
      },
      "balanceOf(address,uint256)": {
        "params": {
          "account": "address to query",
          "id": "token to query"
        },
        "returns": {
          "_0": "token balance"
        }
      },
      "balanceOfBatch(address[],uint256[])": {
        "params": {
          "accounts": "addresss to query",
          "ids": "tokens to query"
        },
        "returns": {
          "_0": "token balances"
        }
      },
      "isApprovedForAll(address,address)": {
        "params": {
          "account": "address to query for approval granted",
          "operator": "address to query for approval received"
        },
        "returns": {
          "_0": "whether operator is approved to spend tokens held by account"
        }
      },
      "safeBatchTransferFrom(address,address,uint256[],uint256[],bytes)": {
        "params": {
          "amounts": "list of quantities of tokens to transfer",
          "data": "data payload",
          "from": "sender of tokens",
          "ids": "list of token IDs",
          "to": "receiver of tokens"
        }
      },
      "safeTransferFrom(address,address,uint256,uint256,bytes)": {
        "params": {
          "amount": "quantity of tokens to transfer",
          "data": "data payload",
          "from": "sender of tokens",
          "id": "token ID",
          "to": "receiver of tokens"
        }
      },
      "setApprovalForAll(address,bool)": {
        "params": {
          "operator": "address whose approval status to update",
          "status": "whether operator should be considered approved"
        }
      },
      "supportsInterface(bytes4)": {
        "params": {
          "interfaceId": "interface id"
        },
        "returns": {
          "_0": "bool whether interface is supported"
        }
      },
      "tokensByAccount(address)": {
        "params": {
          "account": "address to query"
        },
        "returns": {
          "_0": "list of token ids"
        }
      },
      "totalHolders(uint256)": {
        "params": {
          "id": "token id to query"
        },
        "returns": {
          "_0": "quantity of holders"
        }
      },
      "totalSupply(uint256)": {
        "params": {
          "id": "token id to query"
        },
        "returns": {
          "_0": "token supply"
        }
      }
    },
    "version": 1
  },
  "userdoc": {
    "kind": "user",
    "methods": {
      "accountsByToken(uint256)": {
        "notice": "query holders of given token"
      },
      "balanceOf(address,uint256)": {
        "notice": "query the balance of given token held by given address"
      },
      "balanceOfBatch(address[],uint256[])": {
        "notice": "query the balances of given tokens held by given addresses"
      },
      "isApprovedForAll(address,address)": {
        "notice": "query approval status of given operator with respect to given address"
      },
      "safeBatchTransferFrom(address,address,uint256[],uint256[],bytes)": {
        "notice": "transfer batch of tokens between given addresses, checking for ERC1155Receiver implementation if applicable"
      },
      "safeTransferFrom(address,address,uint256,uint256,bytes)": {
        "notice": "transfer tokens between given addresses, checking for ERC1155Receiver implementation if applicable"
      },
      "setApprovalForAll(address,bool)": {
        "notice": "grant approval to or revoke approval from given operator to spend held tokens"
      },
      "supportsInterface(bytes4)": {
        "notice": "query whether contract has registered support for given interface"
      },
      "tokensByAccount(address)": {
        "notice": "query tokens held by given address"
      },
      "totalHolders(uint256)": {
        "notice": "query total number of holders for given token"
      },
      "totalSupply(uint256)": {
        "notice": "query total minted supply of given token"
      }
    },
    "version": 1
  },
  "storageLayout": {
    "storage": [],
    "types": null
  }
}