{
  "address": "0xeF9F6e60240ddeB14671Aa83423A87687F06D766",
  "abi": [
    {
      "anonymous": false,
      "inputs": [
        {
          "indexed": true,
          "internalType": "address",
          "name": "account",
          "type": "address"
        },
        {
          "indexed": true,
          "internalType": "address",
          "name": "operator",
          "type": "address"
        },
        {
          "indexed": false,
          "internalType": "bool",
          "name": "approved",
          "type": "bool"
        }
      ],
      "name": "ApprovalForAll",
      "type": "event"
    },
    {
      "anonymous": false,
      "inputs": [
        {
          "indexed": true,
          "internalType": "address",
          "name": "account",
          "type": "address"
        },
        {
          "indexed": true,
          "internalType": "uint256",
          "name": "tokenId",
          "type": "uint256"
        }
      ],
      "name": "DropCreated",
      "type": "event"
    },
    {
      "anonymous": false,
      "inputs": [
        {
          "indexed": true,
          "internalType": "address",
          "name": "account",
          "type": "address"
        },
        {
          "indexed": true,
          "internalType": "uint256",
          "name": "tokenId",
          "type": "uint256"
        },
        {
          "indexed": true,
          "internalType": "uint256",
          "name": "amount",
          "type": "uint256"
        }
      ],
      "name": "Minted",
      "type": "event"
    },
    {
      "anonymous": false,
      "inputs": [
        {
          "indexed": true,
          "internalType": "address",
          "name": "operator",
          "type": "address"
        },
        {
          "indexed": true,
          "internalType": "address",
          "name": "from",
          "type": "address"
        },
        {
          "indexed": true,
          "internalType": "address",
          "name": "to",
          "type": "address"
        },
        {
          "indexed": false,
          "internalType": "uint256[]",
          "name": "ids",
          "type": "uint256[]"
        },
        {
          "indexed": false,
          "internalType": "uint256[]",
          "name": "values",
          "type": "uint256[]"
        }
      ],
      "name": "TransferBatch",
      "type": "event"
    },
    {
      "anonymous": false,
      "inputs": [
        {
          "indexed": true,
          "internalType": "address",
          "name": "operator",
          "type": "address"
        },
        {
          "indexed": true,
          "internalType": "address",
          "name": "from",
          "type": "address"
        },
        {
          "indexed": true,
          "internalType": "address",
          "name": "to",
          "type": "address"
        },
        {
          "indexed": false,
          "internalType": "uint256",
          "name": "id",
          "type": "uint256"
        },
        {
          "indexed": false,
          "internalType": "uint256",
          "name": "value",
          "type": "uint256"
        }
      ],
      "name": "TransferSingle",
      "type": "event"
    },
    {
      "anonymous": false,
      "inputs": [
        {
          "indexed": false,
          "internalType": "string",
          "name": "value",
          "type": "string"
        },
        {
          "indexed": true,
          "internalType": "uint256",
          "name": "tokenId",
          "type": "uint256"
        }
      ],
      "name": "URI",
      "type": "event"
    },
    {
      "inputs": [
        {
          "internalType": "uint256",
          "name": "id",
          "type": "uint256"
        }
      ],
      "name": "accountsByToken",
      "outputs": [
        {
          "internalType": "address[]",
          "name": "",
          "type": "address[]"
        }
      ],
      "stateMutability": "view",
      "type": "function"
    },
    {
      "inputs": [
        {
          "internalType": "address",
          "name": "account",
          "type": "address"
        },
        {
          "internalType": "uint256",
          "name": "id",
          "type": "uint256"
        }
      ],
      "name": "balanceOf",
      "outputs": [
        {
          "internalType": "uint256",
          "name": "",
          "type": "uint256"
        }
      ],
      "stateMutability": "view",
      "type": "function"
    },
    {
      "inputs": [
        {
          "internalType": "address[]",
          "name": "accounts",
          "type": "address[]"
        },
        {
          "internalType": "uint256[]",
          "name": "ids",
          "type": "uint256[]"
        }
      ],
      "name": "balanceOfBatch",
      "outputs": [
        {
          "internalType": "uint256[]",
          "name": "",
          "type": "uint256[]"
        }
      ],
      "stateMutability": "view",
      "type": "function"
    },
    {
      "inputs": [
        {
          "internalType": "string",
          "name": "_uri",
          "type": "string"
        },
        {
          "internalType": "uint256",
          "name": "_amount",
          "type": "uint256"
        },
        {
          "internalType": "bytes",
          "name": "_signature",
          "type": "bytes"
        }
      ],
      "name": "batchMint",
      "outputs": [
        {
          "internalType": "uint256",
          "name": "tokenId",
          "type": "uint256"
        }
      ],
      "stateMutability": "nonpayable",
      "type": "function"
    },
    {
      "inputs": [
        {
          "internalType": "string",
          "name": "_uri",
          "type": "string"
        },
        {
          "internalType": "uint256",
          "name": "_timeStart",
          "type": "uint256"
        },
        {
          "internalType": "uint256",
          "name": "_timeEnd",
          "type": "uint256"
        },
        {
          "internalType": "uint256",
          "name": "_priceStart",
          "type": "uint256"
        },
        {
          "internalType": "uint256",
          "name": "_priceEnd",
          "type": "uint256"
        },
        {
          "internalType": "uint256",
          "name": "_stepDuration",
          "type": "uint256"
        },
        {
          "internalType": "uint256",
          "name": "_amountCap",
          "type": "uint256"
        },
        {
          "internalType": "uint256",
          "name": "_shareCyber",
          "type": "uint256"
        },
        {
          "internalType": "bytes",
          "name": "_signature",
          "type": "bytes"
        }
      ],
      "name": "createDrop",
      "outputs": [
        {
          "internalType": "uint256",
          "name": "tokenId",
          "type": "uint256"
        }
      ],
      "stateMutability": "nonpayable",
      "type": "function"
    },
    {
      "inputs": [
        {
          "internalType": "uint256",
          "name": "_tokenId",
          "type": "uint256"
        },
        {
          "internalType": "address",
          "name": "_minter",
          "type": "address"
        }
      ],
      "name": "dropMintCounter",
      "outputs": [
        {
          "internalType": "uint256",
          "name": "",
          "type": "uint256"
        }
      ],
      "stateMutability": "view",
      "type": "function"
    },
    {
      "inputs": [
        {
          "internalType": "uint256",
          "name": "_tokenId",
          "type": "uint256"
        }
      ],
      "name": "getDrop",
      "outputs": [
        {
          "internalType": "uint256",
          "name": "timeStart",
          "type": "uint256"
        },
        {
          "internalType": "uint256",
          "name": "timeEnd",
          "type": "uint256"
        },
        {
          "internalType": "uint256",
          "name": "priceStart",
          "type": "uint256"
        },
        {
          "internalType": "uint256",
          "name": "priceEnd",
          "type": "uint256"
        },
        {
          "internalType": "uint256",
          "name": "stepDuration",
          "type": "uint256"
        },
        {
          "internalType": "uint256",
          "name": "amountCap",
          "type": "uint256"
        },
        {
          "internalType": "uint256",
          "name": "shareCyber",
          "type": "uint256"
        },
        {
          "internalType": "address",
          "name": "creator",
          "type": "address"
        },
        {
          "internalType": "uint256",
          "name": "minted",
          "type": "uint256"
        }
      ],
      "stateMutability": "view",
      "type": "function"
    },
    {
      "inputs": [
        {
          "internalType": "uint256",
          "name": "_tokenId",
          "type": "uint256"
        }
      ],
      "name": "getMintPriceForToken",
      "outputs": [
        {
          "internalType": "uint256",
          "name": "mintPrice",
          "type": "uint256"
        }
      ],
      "stateMutability": "view",
      "type": "function"
    },
    {
      "inputs": [
        {
          "internalType": "string",
          "name": "_uri",
          "type": "string"
        },
        {
          "internalType": "address",
          "name": "_manager",
          "type": "address"
        },
        {
          "internalType": "address",
          "name": "_trustedForwarder",
          "type": "address"
        },
        {
          "internalType": "address",
          "name": "_opensea",
          "type": "address"
        },
        {
          "internalType": "address",
          "name": "_oncyber",
          "type": "address"
        }
      ],
      "name": "initialize",
      "outputs": [],
      "stateMutability": "nonpayable",
      "type": "function"
    },
    {
      "inputs": [
        {
          "internalType": "address",
          "name": "account",
          "type": "address"
        },
        {
          "internalType": "address",
          "name": "operator",
          "type": "address"
        }
      ],
      "name": "isApprovedForAll",
      "outputs": [
        {
          "internalType": "bool",
          "name": "",
          "type": "bool"
        }
      ],
      "stateMutability": "view",
      "type": "function"
    },
    {
      "inputs": [
        {
          "internalType": "address",
          "name": "forwarder",
          "type": "address"
        }
      ],
      "name": "isTrustedForwarder",
      "outputs": [
        {
          "internalType": "bool",
          "name": "",
          "type": "bool"
        }
      ],
      "stateMutability": "view",
      "type": "function"
    },
    {
      "inputs": [],
      "name": "manager",
      "outputs": [
        {
          "internalType": "address",
          "name": "",
          "type": "address"
        }
      ],
      "stateMutability": "view",
      "type": "function"
    },
    {
      "inputs": [
        {
          "internalType": "uint256",
          "name": "_tokenId",
          "type": "uint256"
        },
        {
          "internalType": "bytes",
          "name": "_signature",
          "type": "bytes"
        }
      ],
      "name": "mint",
      "outputs": [
        {
          "internalType": "bool",
          "name": "success",
          "type": "bool"
        }
      ],
      "stateMutability": "payable",
      "type": "function"
    },
    {
      "inputs": [
        {
          "internalType": "address",
          "name": "_minter",
          "type": "address"
        }
      ],
      "name": "minterNonce",
      "outputs": [
        {
          "internalType": "uint256",
          "name": "",
          "type": "uint256"
        }
      ],
      "stateMutability": "view",
      "type": "function"
    },
    {
      "inputs": [],
      "name": "oncyber",
      "outputs": [
        {
          "internalType": "address",
          "name": "",
          "type": "address"
        }
      ],
      "stateMutability": "view",
      "type": "function"
    },
    {
      "inputs": [
        {
          "internalType": "address",
          "name": "from",
          "type": "address"
        },
        {
          "internalType": "address",
          "name": "to",
          "type": "address"
        },
        {
          "internalType": "uint256[]",
          "name": "ids",
          "type": "uint256[]"
        },
        {
          "internalType": "uint256[]",
          "name": "amounts",
          "type": "uint256[]"
        },
        {
          "internalType": "bytes",
          "name": "data",
          "type": "bytes"
        }
      ],
      "name": "safeBatchTransferFrom",
      "outputs": [],
      "stateMutability": "nonpayable",
      "type": "function"
    },
    {
      "inputs": [
        {
          "internalType": "address",
          "name": "from",
          "type": "address"
        },
        {
          "internalType": "address",
          "name": "to",
          "type": "address"
        },
        {
          "internalType": "uint256",
          "name": "id",
          "type": "uint256"
        },
        {
          "internalType": "uint256",
          "name": "amount",
          "type": "uint256"
        },
        {
          "internalType": "bytes",
          "name": "data",
          "type": "bytes"
        }
      ],
      "name": "safeTransferFrom",
      "outputs": [],
      "stateMutability": "nonpayable",
      "type": "function"
    },
    {
      "inputs": [
        {
          "internalType": "address",
          "name": "operator",
          "type": "address"
        },
        {
          "internalType": "bool",
          "name": "status",
          "type": "bool"
        }
      ],
      "name": "setApprovalForAll",
      "outputs": [],
      "stateMutability": "nonpayable",
      "type": "function"
    },
    {
      "inputs": [
        {
          "internalType": "bytes4",
          "name": "interfaceId",
          "type": "bytes4"
        }
      ],
      "name": "supportsInterface",
      "outputs": [
        {
          "internalType": "bool",
          "name": "",
          "type": "bool"
        }
      ],
      "stateMutability": "view",
      "type": "function"
    },
    {
      "inputs": [
        {
          "internalType": "address",
          "name": "account",
          "type": "address"
        }
      ],
      "name": "tokensByAccount",
      "outputs": [
        {
          "internalType": "uint256[]",
          "name": "",
          "type": "uint256[]"
        }
      ],
      "stateMutability": "view",
      "type": "function"
    },
    {
      "inputs": [
        {
          "internalType": "uint256",
          "name": "id",
          "type": "uint256"
        }
      ],
      "name": "totalHolders",
      "outputs": [
        {
          "internalType": "uint256",
          "name": "",
          "type": "uint256"
        }
      ],
      "stateMutability": "view",
      "type": "function"
    },
    {
      "inputs": [],
      "name": "totalSupply",
      "outputs": [
        {
          "internalType": "uint256",
          "name": "",
          "type": "uint256"
        }
      ],
      "stateMutability": "view",
      "type": "function"
    },
    {
      "inputs": [
        {
          "internalType": "uint256",
          "name": "id",
          "type": "uint256"
        }
      ],
      "name": "totalSupply",
      "outputs": [
        {
          "internalType": "uint256",
          "name": "",
          "type": "uint256"
        }
      ],
      "stateMutability": "view",
      "type": "function"
    },
    {
      "inputs": [
        {
          "internalType": "uint256",
          "name": "_tokenId",
          "type": "uint256"
        }
      ],
      "name": "uri",
      "outputs": [
        {
          "internalType": "string",
          "name": "",
          "type": "string"
        }
      ],
      "stateMutability": "view",
      "type": "function"
    }
  ],
  "transactionHash": "0x3d0f207b7b6f1e392a1be3e99679653d7ba24cda9ae39c3fbdbce924d1504142",
  "args": [],
  "solcInputHash": "8f14fa7679918a022bd3e6b23f3761d9",
  "bytecode": "0x608060405234801561001057600080fd5b50615f6180620000216000396000f3fe60806040526004361061014a5760003560e01c80635c5ed16d116100b6578063bc01188e1161006f578063bc01188e14610541578063bd85b0391461056c578063db7fd408146105a9578063e985e9c5146105d9578063f242432a14610616578063f44192b41461063f5761014a565b80635c5ed16d146103df5780636787d4491461041c5780636dcfd8411461046157806385bff2e71461049e578063a22cb465146104db578063b3a721d1146105045761014a565b806318160ddd1161010857806318160ddd146102a95780631b023947146102d45780632eb2c2d614610311578063481c6a751461033a5780634e1273f414610365578063572b6c05146103a25761014a565b8062fdd58e1461014f57806301ffc9a71461018c578063081cdf12146101c95780630b885ac3146102065780630e89341c1461022f57806313ba55df1461026c575b600080fd5b34801561015b57600080fd5b5061017660048036038101906101719190613bfa565b61067c565b6040516101839190613c49565b60405180910390f35b34801561019857600080fd5b506101b360048036038101906101ae9190613cbc565b610690565b6040516101c09190613d04565b60405180910390f35b3480156101d557600080fd5b506101f060048036038101906101eb9190613f06565b6106b3565b6040516101fd9190613c49565b60405180910390f35b34801561021257600080fd5b5061022d60048036038101906102289190614008565b610bce565b005b34801561023b57600080fd5b506102566004803603810190610251919061409f565b610e32565b6040516102639190614154565b60405180910390f35b34801561027857600080fd5b50610293600480360381019061028e919061409f565b610f56565b6040516102a09190613c49565b60405180910390f35b3480156102b557600080fd5b506102be610f83565b6040516102cb9190613c49565b60405180910390f35b3480156102e057600080fd5b506102fb60048036038101906102f69190614176565b610f9d565b6040516103089190613c49565b60405180910390f35b34801561031d57600080fd5b506103386004803603810190610333919061426b565b610ff6565b005b34801561034657600080fd5b5061034f61108a565b60405161035c9190614349565b60405180910390f35b34801561037157600080fd5b5061038c60048036038101906103879190614427565b6110bd565b604051610399919061455d565b60405180910390f35b3480156103ae57600080fd5b506103c960048036038101906103c49190614176565b6112b2565b6040516103d69190613d04565b60405180910390f35b3480156103eb57600080fd5b506104066004803603810190610401919061409f565b611315565b6040516104139190613c49565b60405180910390f35b34801561042857600080fd5b50610443600480360381019061043e919061409f565b61143f565b6040516104589998979695949392919061457f565b60405180910390f35b34801561046d57600080fd5b506104886004803603810190610483919061409f565b611528565b60405161049591906146ca565b60405180910390f35b3480156104aa57600080fd5b506104c560048036038101906104c09190614176565b611630565b6040516104d2919061455d565b60405180910390f35b3480156104e757600080fd5b5061050260048036038101906104fd9190614718565b611736565b005b34801561051057600080fd5b5061052b60048036038101906105269190614758565b6118ab565b6040516105389190613c49565b60405180910390f35b34801561054d57600080fd5b50610556611966565b6040516105639190614349565b60405180910390f35b34801561057857600080fd5b50610593600480360381019061058e919061409f565b611999565b6040516105a09190613c49565b60405180910390f35b6105c360048036038101906105be9190614798565b6119bf565b6040516105d09190613d04565b60405180910390f35b3480156105e557600080fd5b5061060060048036038101906105fb91906147f4565b611e24565b60405161060d9190613d04565b60405180910390f35b34801561062257600080fd5b5061063d60048036038101906106389190614834565b611ec1565b005b34801561064b57600080fd5b50610666600480360381019061066191906148cb565b611f55565b6040516106739190613c49565b60405180910390f35b60006106888383612188565b905092915050565b60006106ac8261069e61225b565b61228890919063ffffffff16565b9050919050565b60008489896106c29190614985565b101580156106d05750600085115b61070f576040517f08c379a000000000000000000000000000000000000000000000000000000000815260040161070690614a05565b60405180910390fd5b85871015801561071f5750600087115b61075e576040517f08c379a000000000000000000000000000000000000000000000000000000000815260040161075590614a71565b60405180910390fd5b60648311156107a2576040517f08c379a000000000000000000000000000000000000000000000000000000000815260040161079990614add565b60405180910390fd5b60006107ac6122f3565b905060006107b982610f9d565b905060008c8c8c8c8c8c8c8c8a8a6040516020016107e09a99989796959493929190614ba2565b6040516020818303038152906040529050600061081586610807848051906020012061232f565b61235f90919063ffffffff16565b905061081f612386565b60000160009054906101000a900473ffffffffffffffffffffffffffffffffffffffff1673ffffffffffffffffffffffffffffffffffffffff168173ffffffffffffffffffffffffffffffffffffffff16146108b0576040517f08c379a00000000000000000000000000000000000000000000000000000000081526004016108a790614c9e565b60405180910390fd5b6108c36108bb612386565b6002016123b3565b94506108cf858f6123c1565b6108e26108da612386565b6002016123f6565b6109326108ed612386565b60030160008673ffffffffffffffffffffffffffffffffffffffff1673ffffffffffffffffffffffffffffffffffffffff1681526020019081526020016000206123f6565b8c61093b61240c565b6000016000878152602001908152602001600020600001819055508b61095f61240c565b6000016000878152602001908152602001600020600101819055508a61098361240c565b600001600087815260200190815260200160002060020181905550896109a761240c565b600001600087815260200190815260200160002060030181905550886109cb61240c565b600001600087815260200190815260200160002060040181905550876109ef61240c565b60000160008781526020019081526020016000206005018190555086610a1361240c565b60000160008781526020019081526020016000206006018190555083610a3761240c565b600001600087815260200190815260200160002060070160006101000a81548173ffffffffffffffffffffffffffffffffffffffff021916908373ffffffffffffffffffffffffffffffffffffffff160217905550610ab3610a9761240c565b60000160008781526020019081526020016000206008016123f6565b610b17610abe61240c565b600001600087815260200190815260200160002060090160008673ffffffffffffffffffffffffffffffffffffffff1673ffffffffffffffffffffffffffffffffffffffff1681526020019081526020016000206123f6565b610b338486600160405180602001604052806000815250612439565b848473ffffffffffffffffffffffffffffffffffffffff167f4011446e11141f68f741bffe55d700b48cbc73fb927148a01c8f4664c3be014260405160405180910390a36001858573ffffffffffffffffffffffffffffffffffffffff167f25b428dfde728ccfaddad7e29e4ac23c24ed7fd1a6e3e3f91894a9a073f5dfff60405160405180910390a4505050509998505050505050505050565b3373ffffffffffffffffffffffffffffffffffffffff16610bed61245a565b60040160009054906101000a900473ffffffffffffffffffffffffffffffffffffffff1673ffffffffffffffffffffffffffffffffffffffff1614610c67576040517f08c379a0000000000000000000000000000000000000000000000000000000008152600401610c5e90614d0a565b60405180910390fd5b82610c70612487565b60000160006101000a81548173ffffffffffffffffffffffffffffffffffffffff021916908373ffffffffffffffffffffffffffffffffffffffff1602179055506001610cbb61245a565b60030160007fd9b67a26000000000000000000000000000000000000000000000000000000007bffffffffffffffffffffffffffffffffffffffffffffffffffffffff19167bffffffffffffffffffffffffffffffffffffffffffffffffffffffff1916815260200190815260200160002060006101000a81548160ff021916908315150217905550610d4d856124b4565b83610d56612386565b60000160006101000a81548173ffffffffffffffffffffffffffffffffffffffff021916908373ffffffffffffffffffffffffffffffffffffffff16021790555081610da0612386565b60010160006101000a81548173ffffffffffffffffffffffffffffffffffffffff021916908373ffffffffffffffffffffffffffffffffffffffff16021790555080610dea612386565b60040160006101000a81548173ffffffffffffffffffffffffffffffffffffffff021916908373ffffffffffffffffffffffffffffffffffffffff1602179055505050505050565b60606000610e3e6124d7565b60000160008481526020019081526020016000208054610e5d90614d59565b80601f0160208091040260200160405190810160405280929190818152602001828054610e8990614d59565b8015610ed65780601f10610eab57610100808354040283529160200191610ed6565b820191906000526020600020905b815481529060010190602001808311610eb957829003601f168201915b50505050509050600081511415610f22576040517f08c379a0000000000000000000000000000000000000000000000000000000008152600401610f1990614dd7565b60405180910390fd5b610f2a6124d7565b60010181604051602001610f3f929190614e8b565b604051602081830303815290604052915050919050565b6000610f7c610f63612504565b6001016000848152602001908152602001600020612531565b9050919050565b6000610f98610f90612386565b6002016123b3565b905090565b6000610fef610faa612386565b60030160008473ffffffffffffffffffffffffffffffffffffffff1673ffffffffffffffffffffffffffffffffffffffff1681526020019081526020016000206123b3565b9050919050565b3373ffffffffffffffffffffffffffffffffffffffff168573ffffffffffffffffffffffffffffffffffffffff16148061103657506110358533611e24565b5b611075576040517f08c379a000000000000000000000000000000000000000000000000000000000815260040161106c90614f21565b60405180910390fd5b611083338686868686612546565b5050505050565b6000611094612386565b60000160009054906101000a900473ffffffffffffffffffffffffffffffffffffffff16905090565b60608151835114611103576040517f08c379a00000000000000000000000000000000000000000000000000000000081526004016110fa90614fb3565b60405180910390fd5b600061110d61256a565b60000190506000845167ffffffffffffffff81111561112f5761112e613d3a565b5b60405190808252806020026020018201604052801561115d5781602001602082028036833780820191505090505b50905060005b85518110156112a657600073ffffffffffffffffffffffffffffffffffffffff1686828151811061119757611196614fd3565b5b602002602001015173ffffffffffffffffffffffffffffffffffffffff1614156111f6576040517f08c379a00000000000000000000000000000000000000000000000000000000081526004016111ed90615074565b60405180910390fd5b82600086838151811061120c5761120b614fd3565b5b60200260200101518152602001908152602001600020600087838151811061123757611236614fd3565b5b602002602001015173ffffffffffffffffffffffffffffffffffffffff1673ffffffffffffffffffffffffffffffffffffffff1681526020019081526020016000205482828151811061128d5761128c614fd3565b5b6020026020010181815250508080600101915050611163565b50809250505092915050565b60006112bc612487565b60000160009054906101000a900473ffffffffffffffffffffffffffffffffffffffff1673ffffffffffffffffffffffffffffffffffffffff168273ffffffffffffffffffffffffffffffffffffffff16149050919050565b60008061132061240c565b6000016000848152602001908152602001600020905060008160020154141561137e576040517f08c379a0000000000000000000000000000000000000000000000000000000008152600401611375906150e0565b60405180910390fd5b60008160050154146113dc57806005015461139b826008016123b3565b106113db576040517f08c379a00000000000000000000000000000000000000000000000000000000081526004016113d29061514c565b60405180910390fd5b5b8060000154421180156113f3575080600101544211155b611432576040517f08c379a0000000000000000000000000000000000000000000000000000000008152600401611429906151b8565b60405180910390fd5b8060020154915050919050565b60008060008060008060008060008061145661240c565b60000160008c815260200190815260200160002090506000816002015414156114b4576040517f08c379a00000000000000000000000000000000000000000000000000000000081526004016114ab906150e0565b60405180910390fd5b80600001548160010154826002015483600301548460040154856005015486600601548760070160009054906101000a900473ffffffffffffffffffffffffffffffffffffffff16611508896008016123b3565b995099509950995099509950995099509950509193959799909294969850565b60606000611534612504565b60010160008481526020019081526020016000209050600061155582612531565b67ffffffffffffffff81111561156e5761156d613d3a565b5b60405190808252806020026020018201604052801561159c5781602001602082028036833780820191505090505b50905060005b6115ab83612531565b811015611625576115c5818461259790919063ffffffff16565b8282815181106115d8576115d7614fd3565b5b602002602001019073ffffffffffffffffffffffffffffffffffffffff16908173ffffffffffffffffffffffffffffffffffffffff1681525050808061161d906151d8565b9150506115a2565b508092505050919050565b6060600061163c612504565b60020160008473ffffffffffffffffffffffffffffffffffffffff1673ffffffffffffffffffffffffffffffffffffffff16815260200190815260200160002090506000611689826125b1565b67ffffffffffffffff8111156116a2576116a1613d3a565b5b6040519080825280602002602001820160405280156116d05781602001602082028036833780820191505090505b50905060005b6116df836125b1565b81101561172b576116f981846125c690919063ffffffff16565b82828151811061170c5761170b614fd3565b5b6020026020010181815250508080611723906151d8565b9150506116d6565b508092505050919050565b8173ffffffffffffffffffffffffffffffffffffffff163373ffffffffffffffffffffffffffffffffffffffff1614156117a5576040517f08c379a000000000000000000000000000000000000000000000000000000000815260040161179c90615293565b60405180910390fd5b806117ae61256a565b60010160003373ffffffffffffffffffffffffffffffffffffffff1673ffffffffffffffffffffffffffffffffffffffff16815260200190815260200160002060008473ffffffffffffffffffffffffffffffffffffffff1673ffffffffffffffffffffffffffffffffffffffff16815260200190815260200160002060006101000a81548160ff0219169083151502179055508173ffffffffffffffffffffffffffffffffffffffff163373ffffffffffffffffffffffffffffffffffffffff167f17307eab39ab6107e8899845ad3d59bd9653f200f220920489ca2b5937696c318360405161189f9190613d04565b60405180910390a35050565b6000806118b661240c565b60000160008581526020019081526020016000209050600081600201541415611914576040517f08c379a000000000000000000000000000000000000000000000000000000000815260040161190b906150e0565b60405180910390fd5b61195d8160090160008573ffffffffffffffffffffffffffffffffffffffff1673ffffffffffffffffffffffffffffffffffffffff1681526020019081526020016000206123b3565b91505092915050565b6000611970612386565b60040160009054906101000a900473ffffffffffffffffffffffffffffffffffffffff16905090565b60006119a3612504565b6000016000838152602001908152602001600020549050919050565b6000806119ca6122f3565b905060006119d661240c565b600001600086815260200190815260200160002090506000816005015414611a4a578060050154611a09826008016123b3565b10611a49576040517f08c379a0000000000000000000000000000000000000000000000000000000008152600401611a409061514c565b60405180910390fd5b5b806000015442118015611a61575080600101544211155b611aa0576040517f08c379a0000000000000000000000000000000000000000000000000000000008152600401611a97906151b8565b60405180910390fd5b6000816000015442611ab29190614985565b9050600082600001548360010154611aca9190614985565b905060008360020154905080341015611b18576040517f08c379a0000000000000000000000000000000000000000000000000000000008152600401611b0f906152ff565b60405180910390fd5b60006064856006015434611b2c919061531f565b611b3691906153a8565b905060008134611b469190614985565b90506000611b938760090160008a73ffffffffffffffffffffffffffffffffffffffff1673ffffffffffffffffffffffffffffffffffffffff1681526020019081526020016000206123b3565b905060008b8983604051602001611bac939291906153d9565b60405160208183030381529060405290506000611be18c611bd3848051906020012061232f565b61235f90919063ffffffff16565b9050611beb612386565b60000160009054906101000a900473ffffffffffffffffffffffffffffffffffffffff1673ffffffffffffffffffffffffffffffffffffffff168173ffffffffffffffffffffffffffffffffffffffff1614611c7c576040517f08c379a0000000000000000000000000000000000000000000000000000000008152600401611c7390614c9e565b60405180910390fd5b611c88896008016123f6565b611cd18960090160008c73ffffffffffffffffffffffffffffffffffffffff1673ffffffffffffffffffffffffffffffffffffffff1681526020019081526020016000206123f6565b611ced8a8e600160405180602001604052806000815250612439565b8860070160009054906101000a900473ffffffffffffffffffffffffffffffffffffffff1673ffffffffffffffffffffffffffffffffffffffff166108fc859081150290604051600060405180830381858888f19350505050158015611d57573d6000803e3d6000fd5b50611d60612386565b60040160009054906101000a900473ffffffffffffffffffffffffffffffffffffffff1673ffffffffffffffffffffffffffffffffffffffff166108fc869081150290604051600060405180830381858888f19350505050158015611dc9573d6000803e3d6000fd5b5060018d8b73ffffffffffffffffffffffffffffffffffffffff167f25b428dfde728ccfaddad7e29e4ac23c24ed7fd1a6e3e3f91894a9a073f5dfff60405160405180910390a460019a505050505050505050505092915050565b6000611e2e61256a565b60010160008473ffffffffffffffffffffffffffffffffffffffff1673ffffffffffffffffffffffffffffffffffffffff16815260200190815260200160002060008373ffffffffffffffffffffffffffffffffffffffff1673ffffffffffffffffffffffffffffffffffffffff16815260200190815260200160002060009054906101000a900460ff16905092915050565b3373ffffffffffffffffffffffffffffffffffffffff168573ffffffffffffffffffffffffffffffffffffffff161480611f015750611f008533611e24565b5b611f40576040517f08c379a0000000000000000000000000000000000000000000000000000000008152600401611f3790614f21565b60405180910390fd5b611f4e3386868686866125e0565b5050505050565b6000808311611f99576040517f08c379a0000000000000000000000000000000000000000000000000000000008152600401611f90906152ff565b60405180910390fd5b6000611fa36122f3565b90506000611fb082610f9d565b9050600086838784604051602001611fcb9493929190615416565b6040516020818303038152906040529050600061200086611ff2848051906020012061232f565b61235f90919063ffffffff16565b905061200a612386565b60000160009054906101000a900473ffffffffffffffffffffffffffffffffffffffff1673ffffffffffffffffffffffffffffffffffffffff168173ffffffffffffffffffffffffffffffffffffffff161461209b576040517f08c379a000000000000000000000000000000000000000000000000000000000815260040161209290614c9e565b60405180910390fd5b6120ae6120a6612386565b6002016123b3565b94506121006120bb612386565b60030160008673ffffffffffffffffffffffffffffffffffffffff1673ffffffffffffffffffffffffffffffffffffffff1681526020019081526020016000206123f6565b61211361210b612386565b6002016123f6565b61211d85896123c1565b61213884868960405180602001604052806000815250612439565b86858573ffffffffffffffffffffffffffffffffffffffff167f25b428dfde728ccfaddad7e29e4ac23c24ed7fd1a6e3e3f91894a9a073f5dfff60405160405180910390a4505050509392505050565b60008073ffffffffffffffffffffffffffffffffffffffff168373ffffffffffffffffffffffffffffffffffffffff1614156121f9576040517f08c379a00000000000000000000000000000000000000000000000000000000081526004016121f0906154d2565b60405180910390fd5b61220161256a565b600001600083815260200190815260200160002060008473ffffffffffffffffffffffffffffffffffffffff1673ffffffffffffffffffffffffffffffffffffffff16815260200190815260200160002054905092915050565b6000807f326d0c59a7612f6a9919e2a8ee333c80ba689d8ba2634de89c85cbb04832e70590508091505090565b6000826000016000837bffffffffffffffffffffffffffffffffffffffffffffffffffffffff19167bffffffffffffffffffffffffffffffffffffffffffffffffffffffff1916815260200190815260200160002060009054906101000a900460ff16905092915050565b6000601860003690501015801561230f575061230e336112b2565b5b1561232357601436033560601c905061232b565b33905061232c565b5b90565b6000816040516020016123429190615569565b604051602081830303815290604052805190602001209050919050565b600080600061236e8585612604565b9150915061237b81612687565b819250505092915050565b6000807f47dc25f21c7793543edaeb1ef19d41726ddbada967ae9a7980b9bd8a45228a5e90508091505090565b600081600001549050919050565b806123ca6124d7565b600001600084815260200190815260200160002090805190602001906123f1929190613aaf565b505050565b6001816000016000828254019250508190555050565b6000807f6862122c88c20d0f389f9211fb45e4a0982f5f74838cd11cfb5e8c8b41fbe65990508091505090565b6124458484848461285c565b612454336000868686866129e6565b50505050565b6000807fc8fcad8db84d3cc18b4c41d551ea0ee66dd599cde068d998e57d5e09332c131c90508091505090565b6000807fa5e014e253d3b66bd348c3cdd05f38b9805fff0b6471d004b58c6ada26cae99390508091505090565b806124bd6124d7565b60010190805190602001906124d3929190613aaf565b5050565b6000807fb3408a5d8f30170919d3996b6cc182726500ad24733d17ace2f621485f6e7c8390508091505090565b6000807fb31c2c74f86ca3ce94d901f5f5bbe66f7161eec2f7b5aa0b75a86371436424ea90508091505090565b600061253f82600001612bbe565b9050919050565b612554868686868686612bcf565b612562868686868686612edb565b505050505050565b6000807f1799cf914cb0cb442ca7c7ac709ee40d0cb89e87351dc08d517fbda27d50c68b90508091505090565b60006125a683600001836130b3565b60001c905092915050565b60006125bf82600001612bbe565b9050919050565b60006125d583600001836130b3565b60001c905092915050565b6125ee868686868686613127565b6125fc8686868686866129e6565b505050505050565b6000806041835114156126465760008060006020860151925060408601519150606086015160001a905061263a8782858561339f565b94509450505050612680565b60408351141561267757600080602085015191506040850151905061266c8683836134ac565b935093505050612680565b60006002915091505b9250929050565b6000600481111561269b5761269a61558f565b5b8160048111156126ae576126ad61558f565b5b14156126b957612859565b600160048111156126cd576126cc61558f565b5b8160048111156126e0576126df61558f565b5b1415612721576040517f08c379a00000000000000000000000000000000000000000000000000000000081526004016127189061560a565b60405180910390fd5b600260048111156127355761273461558f565b5b8160048111156127485761274761558f565b5b1415612789576040517f08c379a000000000000000000000000000000000000000000000000000000000815260040161278090615676565b60405180910390fd5b6003600481111561279d5761279c61558f565b5b8160048111156127b0576127af61558f565b5b14156127f1576040517f08c379a00000000000000000000000000000000000000000000000000000000081526004016127e890615708565b60405180910390fd5b6004808111156128045761280361558f565b5b8160048111156128175761281661558f565b5b1415612858576040517f08c379a000000000000000000000000000000000000000000000000000000000815260040161284f9061579a565b60405180910390fd5b5b50565b600073ffffffffffffffffffffffffffffffffffffffff168473ffffffffffffffffffffffffffffffffffffffff1614156128cc576040517f08c379a00000000000000000000000000000000000000000000000000000000081526004016128c39061582c565b60405180910390fd5b6128eb336000866128dc876134fa565b6128e5876134fa565b86613574565b60006128f561256a565b60000160008581526020019081526020016000209050828160008773ffffffffffffffffffffffffffffffffffffffff1673ffffffffffffffffffffffffffffffffffffffff1681526020019081526020016000206000828254612959919061584c565b925050819055508473ffffffffffffffffffffffffffffffffffffffff16600073ffffffffffffffffffffffffffffffffffffffff163373ffffffffffffffffffffffffffffffffffffffff167fc3d58168c5ae7397731d063d5bbf3d657854427343f4c083240f7aacaa2d0f6287876040516129d79291906158a2565b60405180910390a45050505050565b612a058473ffffffffffffffffffffffffffffffffffffffff1661358a565b15612bb6578373ffffffffffffffffffffffffffffffffffffffff1663f23a6e6187878686866040518663ffffffff1660e01b8152600401612a4b959493929190615920565b6020604051808303816000875af1925050508015612a8757506040513d601f19601f82011682018060405250810190612a84919061598f565b60015b612b2d57612a936159c9565b806308c379a01415612af05750612aa86159eb565b80612ab35750612af2565b806040517f08c379a0000000000000000000000000000000000000000000000000000000008152600401612ae79190614154565b60405180910390fd5b505b6040517f08c379a0000000000000000000000000000000000000000000000000000000008152600401612b2490615af3565b60405180910390fd5b63f23a6e6160e01b7bffffffffffffffffffffffffffffffffffffffffffffffffffffffff1916817bffffffffffffffffffffffffffffffffffffffffffffffffffffffff191614612bb4576040517f08c379a0000000000000000000000000000000000000000000000000000000008152600401612bab90615b85565b60405180910390fd5b505b505050505050565b600081600001805490509050919050565b600073ffffffffffffffffffffffffffffffffffffffff168473ffffffffffffffffffffffffffffffffffffffff161415612c3f576040517f08c379a0000000000000000000000000000000000000000000000000000000008152600401612c3690615c17565b60405180910390fd5b8151835114612c83576040517f08c379a0000000000000000000000000000000000000000000000000000000008152600401612c7a90615ca9565b60405180910390fd5b612c91868686868686613574565b6000612c9b61256a565b600001905060005b8451811015612e53576000858281518110612cc157612cc0614fd3565b5b602002602001015190506000858381518110612ce057612cdf614fd3565b5b60200260200101519050600084600084815260200190815260200160002060008b73ffffffffffffffffffffffffffffffffffffffff1673ffffffffffffffffffffffffffffffffffffffff16815260200190815260200160002054905081811015612d81576040517f08c379a0000000000000000000000000000000000000000000000000000000008152600401612d7890615d3b565b60405180910390fd5b81810385600085815260200190815260200160002060008c73ffffffffffffffffffffffffffffffffffffffff1673ffffffffffffffffffffffffffffffffffffffff16815260200190815260200160002081905550508084600084815260200190815260200160002060008a73ffffffffffffffffffffffffffffffffffffffff1673ffffffffffffffffffffffffffffffffffffffff1681526020019081526020016000206000828254612e37919061584c565b9250508190555050508080612e4b906151d8565b915050612ca3565b508473ffffffffffffffffffffffffffffffffffffffff168673ffffffffffffffffffffffffffffffffffffffff168873ffffffffffffffffffffffffffffffffffffffff167f4a39dc06d4c0dbc64b70af90fd698a233a518aa5d07e595d983b8c0526c8f7fb8787604051612eca929190615d5b565b60405180910390a450505050505050565b612efa8473ffffffffffffffffffffffffffffffffffffffff1661358a565b156130ab578373ffffffffffffffffffffffffffffffffffffffff1663bc197c8187878686866040518663ffffffff1660e01b8152600401612f40959493929190615d92565b6020604051808303816000875af1925050508015612f7c57506040513d601f19601f82011682018060405250810190612f79919061598f565b60015b61302257612f886159c9565b806308c379a01415612fe55750612f9d6159eb565b80612fa85750612fe7565b806040517f08c379a0000000000000000000000000000000000000000000000000000000008152600401612fdc9190614154565b60405180910390fd5b505b6040517f08c379a000000000000000000000000000000000000000000000000000000000815260040161301990615af3565b60405180910390fd5b63bc197c8160e01b7bffffffffffffffffffffffffffffffffffffffffffffffffffffffff1916817bffffffffffffffffffffffffffffffffffffffffffffffffffffffff1916146130a9576040517f08c379a00000000000000000000000000000000000000000000000000000000081526004016130a090615b85565b60405180910390fd5b505b505050505050565b6000818360000180549050116130fe576040517f08c379a00000000000000000000000000000000000000000000000000000000081526004016130f590615e6c565b60405180910390fd5b82600001828154811061311457613113614fd3565b5b9060005260206000200154905092915050565b600073ffffffffffffffffffffffffffffffffffffffff168473ffffffffffffffffffffffffffffffffffffffff161415613197576040517f08c379a000000000000000000000000000000000000000000000000000000000815260040161318e90615c17565b60405180910390fd5b6131b58686866131a6876134fa565b6131af876134fa565b86613574565b60006131bf61256a565b6000019050600081600086815260200190815260200160002060008873ffffffffffffffffffffffffffffffffffffffff1673ffffffffffffffffffffffffffffffffffffffff1681526020019081526020016000205490508381101561325b576040517f08c379a000000000000000000000000000000000000000000000000000000000815260040161325290615d3b565b60405180910390fd5b83810382600087815260200190815260200160002060008973ffffffffffffffffffffffffffffffffffffffff1673ffffffffffffffffffffffffffffffffffffffff16815260200190815260200160002081905550508281600086815260200190815260200160002060008773ffffffffffffffffffffffffffffffffffffffff1673ffffffffffffffffffffffffffffffffffffffff1681526020019081526020016000206000828254613311919061584c565b925050819055508473ffffffffffffffffffffffffffffffffffffffff168673ffffffffffffffffffffffffffffffffffffffff168873ffffffffffffffffffffffffffffffffffffffff167fc3d58168c5ae7397731d063d5bbf3d657854427343f4c083240f7aacaa2d0f62878760405161338e9291906158a2565b60405180910390a450505050505050565b6000807f7fffffffffffffffffffffffffffffff5d576e7357a4501ddfe92f46681b20a08360001c11156133da5760006003915091506134a3565b601b8560ff16141580156133f25750601c8560ff1614155b156134045760006004915091506134a3565b6000600187878787604051600081526020016040526040516134299493929190615eb7565b6020604051602081039080840390855afa15801561344b573d6000803e3d6000fd5b505050602060405103519050600073ffffffffffffffffffffffffffffffffffffffff168173ffffffffffffffffffffffffffffffffffffffff16141561349a576000600192509250506134a3565b80600092509250505b94509492505050565b6000806000807f7fffffffffffffffffffffffffffffffffffffffffffffffffffffffffffffff85169150601b8560ff1c0190506134ec8782888561339f565b935093505050935093915050565b60606000600167ffffffffffffffff81111561351957613518613d3a565b5b6040519080825280602002602001820160405280156135475781602001602082028036833780820191505090505b509050828160008151811061355f5761355e614fd3565b5b60200260200101818152505080915050919050565b61358286868686868661359d565b505050505050565b600080823b905060008111915050919050565b6135ab8686868686866135b3565b505050505050565b6135c186868686868661386e565b8373ffffffffffffffffffffffffffffffffffffffff168573ffffffffffffffffffffffffffffffffffffffff16146138665760006135fe612504565b9050600081600101905060008260020160008973ffffffffffffffffffffffffffffffffffffffff1673ffffffffffffffffffffffffffffffffffffffff168152602001908152602001600020905060008360020160008973ffffffffffffffffffffffffffffffffffffffff1673ffffffffffffffffffffffffffffffffffffffff168152602001908152602001600020905060005b87518110156138605760008782815181106136b3576136b2614fd3565b5b60200260200101519050600081111561384c5760008983815181106136db576136da614fd3565b5b60200260200101519050600073ffffffffffffffffffffffffffffffffffffffff168c73ffffffffffffffffffffffffffffffffffffffff16141561374b5781876000016000838152602001908152602001600020600082825461373f919061584c565b92505081905550613797565b816137568d83612188565b1415613796576137808c87600084815260200190815260200160002061387690919063ffffffff16565b5061379481866138a690919063ffffffff16565b505b5b600073ffffffffffffffffffffffffffffffffffffffff168b73ffffffffffffffffffffffffffffffffffffffff1614156137fd578187600001600083815260200190815260200160002060008282546137f19190614985565b9250508190555061384a565b60006138098c83612188565b1415613849576138338b8760008481526020019081526020016000206138c090919063ffffffff16565b5061384781856138f090919063ffffffff16565b505b5b505b508080613858906151d8565b915050613695565b50505050505b505050505050565b505050505050565b600061389e836000018373ffffffffffffffffffffffffffffffffffffffff1660001b61390a565b905092915050565b60006138b8836000018360001b61390a565b905092915050565b60006138e8836000018373ffffffffffffffffffffffffffffffffffffffff1660001b613a1c565b905092915050565b6000613902836000018360001b613a1c565b905092915050565b60008083600101600084815260200190815260200160002054905060008114613a1057600060018261393c9190614985565b9050600085600001600187600001805490506139589190614985565b8154811061396957613968614fd3565b5b906000526020600020015490508086600001838154811061398d5761398c614fd3565b5b90600052602060002001819055506001826139a8919061584c565b86600101600083815260200190815260200160002081905550856000018054806139d5576139d4615efc565b5b600190038181906000526020600020016000905590558560010160008681526020019081526020016000206000905560019350505050613a16565b60009150505b92915050565b6000613a288383613a8c565b613a81578260000182908060018154018082558091505060019003906000526020600020016000909190919091505582600001805490508360010160008481526020019081526020016000208190555060019050613a86565b600090505b92915050565b600080836001016000848152602001908152602001600020541415905092915050565b828054613abb90614d59565b90600052602060002090601f016020900481019282613add5760008555613b24565b82601f10613af657805160ff1916838001178555613b24565b82800160010185558215613b24579182015b82811115613b23578251825591602001919060010190613b08565b5b509050613b319190613b35565b5090565b5b80821115613b4e576000816000905550600101613b36565b5090565b6000604051905090565b600080fd5b600080fd5b600073ffffffffffffffffffffffffffffffffffffffff82169050919050565b6000613b9182613b66565b9050919050565b613ba181613b86565b8114613bac57600080fd5b50565b600081359050613bbe81613b98565b92915050565b6000819050919050565b613bd781613bc4565b8114613be257600080fd5b50565b600081359050613bf481613bce565b92915050565b60008060408385031215613c1157613c10613b5c565b5b6000613c1f85828601613baf565b9250506020613c3085828601613be5565b9150509250929050565b613c4381613bc4565b82525050565b6000602082019050613c5e6000830184613c3a565b92915050565b60007fffffffff0000000000000000000000000000000000000000000000000000000082169050919050565b613c9981613c64565b8114613ca457600080fd5b50565b600081359050613cb681613c90565b92915050565b600060208284031215613cd257613cd1613b5c565b5b6000613ce084828501613ca7565b91505092915050565b60008115159050919050565b613cfe81613ce9565b82525050565b6000602082019050613d196000830184613cf5565b92915050565b600080fd5b600080fd5b6000601f19601f8301169050919050565b7f4e487b7100000000000000000000000000000000000000000000000000000000600052604160045260246000fd5b613d7282613d29565b810181811067ffffffffffffffff82111715613d9157613d90613d3a565b5b80604052505050565b6000613da4613b52565b9050613db08282613d69565b919050565b600067ffffffffffffffff821115613dd057613dcf613d3a565b5b613dd982613d29565b9050602081019050919050565b82818337600083830152505050565b6000613e08613e0384613db5565b613d9a565b905082815260208101848484011115613e2457613e23613d24565b5b613e2f848285613de6565b509392505050565b600082601f830112613e4c57613e4b613d1f565b5b8135613e5c848260208601613df5565b91505092915050565b600067ffffffffffffffff821115613e8057613e7f613d3a565b5b613e8982613d29565b9050602081019050919050565b6000613ea9613ea484613e65565b613d9a565b905082815260208101848484011115613ec557613ec4613d24565b5b613ed0848285613de6565b509392505050565b600082601f830112613eed57613eec613d1f565b5b8135613efd848260208601613e96565b91505092915050565b60008060008060008060008060006101208a8c031215613f2957613f28613b5c565b5b60008a013567ffffffffffffffff811115613f4757613f46613b61565b5b613f538c828d01613e37565b9950506020613f648c828d01613be5565b9850506040613f758c828d01613be5565b9750506060613f868c828d01613be5565b9650506080613f978c828d01613be5565b95505060a0613fa88c828d01613be5565b94505060c0613fb98c828d01613be5565b93505060e0613fca8c828d01613be5565b9250506101008a013567ffffffffffffffff811115613fec57613feb613b61565b5b613ff88c828d01613ed8565b9150509295985092959850929598565b600080600080600060a0868803121561402457614023613b5c565b5b600086013567ffffffffffffffff81111561404257614041613b61565b5b61404e88828901613e37565b955050602061405f88828901613baf565b945050604061407088828901613baf565b935050606061408188828901613baf565b925050608061409288828901613baf565b9150509295509295909350565b6000602082840312156140b5576140b4613b5c565b5b60006140c384828501613be5565b91505092915050565b600081519050919050565b600082825260208201905092915050565b60005b838110156141065780820151818401526020810190506140eb565b83811115614115576000848401525b50505050565b6000614126826140cc565b61413081856140d7565b93506141408185602086016140e8565b61414981613d29565b840191505092915050565b6000602082019050818103600083015261416e818461411b565b905092915050565b60006020828403121561418c5761418b613b5c565b5b600061419a84828501613baf565b91505092915050565b600067ffffffffffffffff8211156141be576141bd613d3a565b5b602082029050602081019050919050565b600080fd5b60006141e76141e2846141a3565b613d9a565b9050808382526020820190506020840283018581111561420a576142096141cf565b5b835b81811015614233578061421f8882613be5565b84526020840193505060208101905061420c565b5050509392505050565b600082601f83011261425257614251613d1f565b5b81356142628482602086016141d4565b91505092915050565b600080600080600060a0868803121561428757614286613b5c565b5b600061429588828901613baf565b95505060206142a688828901613baf565b945050604086013567ffffffffffffffff8111156142c7576142c6613b61565b5b6142d38882890161423d565b935050606086013567ffffffffffffffff8111156142f4576142f3613b61565b5b6143008882890161423d565b925050608086013567ffffffffffffffff81111561432157614320613b61565b5b61432d88828901613ed8565b9150509295509295909350565b61434381613b86565b82525050565b600060208201905061435e600083018461433a565b92915050565b600067ffffffffffffffff82111561437f5761437e613d3a565b5b602082029050602081019050919050565b60006143a361439e84614364565b613d9a565b905080838252602082019050602084028301858111156143c6576143c56141cf565b5b835b818110156143ef57806143db8882613baf565b8452602084019350506020810190506143c8565b5050509392505050565b600082601f83011261440e5761440d613d1f565b5b813561441e848260208601614390565b91505092915050565b6000806040838503121561443e5761443d613b5c565b5b600083013567ffffffffffffffff81111561445c5761445b613b61565b5b614468858286016143f9565b925050602083013567ffffffffffffffff81111561448957614488613b61565b5b6144958582860161423d565b9150509250929050565b600081519050919050565b600082825260208201905092915050565b6000819050602082019050919050565b6144d481613bc4565b82525050565b60006144e683836144cb565b60208301905092915050565b6000602082019050919050565b600061450a8261449f565b61451481856144aa565b935061451f836144bb565b8060005b8381101561455057815161453788826144da565b9750614542836144f2565b925050600181019050614523565b5085935050505092915050565b6000602082019050818103600083015261457781846144ff565b905092915050565b600061012082019050614595600083018c613c3a565b6145a2602083018b613c3a565b6145af604083018a613c3a565b6145bc6060830189613c3a565b6145c96080830188613c3a565b6145d660a0830187613c3a565b6145e360c0830186613c3a565b6145f060e083018561433a565b6145fe610100830184613c3a565b9a9950505050505050505050565b600081519050919050565b600082825260208201905092915050565b6000819050602082019050919050565b61464181613b86565b82525050565b60006146538383614638565b60208301905092915050565b6000602082019050919050565b60006146778261460c565b6146818185614617565b935061468c83614628565b8060005b838110156146bd5781516146a48882614647565b97506146af8361465f565b925050600181019050614690565b5085935050505092915050565b600060208201905081810360008301526146e4818461466c565b905092915050565b6146f581613ce9565b811461470057600080fd5b50565b600081359050614712816146ec565b92915050565b6000806040838503121561472f5761472e613b5c565b5b600061473d85828601613baf565b925050602061474e85828601614703565b9150509250929050565b6000806040838503121561476f5761476e613b5c565b5b600061477d85828601613be5565b925050602061478e85828601613baf565b9150509250929050565b600080604083850312156147af576147ae613b5c565b5b60006147bd85828601613be5565b925050602083013567ffffffffffffffff8111156147de576147dd613b61565b5b6147ea85828601613ed8565b9150509250929050565b6000806040838503121561480b5761480a613b5c565b5b600061481985828601613baf565b925050602061482a85828601613baf565b9150509250929050565b600080600080600060a086880312156148505761484f613b5c565b5b600061485e88828901613baf565b955050602061486f88828901613baf565b945050604061488088828901613be5565b935050606061489188828901613be5565b925050608086013567ffffffffffffffff8111156148b2576148b1613b61565b5b6148be88828901613ed8565b9150509295509295909350565b6000806000606084860312156148e4576148e3613b5c565b5b600084013567ffffffffffffffff81111561490257614901613b61565b5b61490e86828701613e37565b935050602061491f86828701613be5565b925050604084013567ffffffffffffffff8111156149405761493f613b61565b5b61494c86828701613ed8565b9150509250925092565b7f4e487b7100000000000000000000000000000000000000000000000000000000600052601160045260246000fd5b600061499082613bc4565b915061499b83613bc4565b9250828210156149ae576149ad614956565b5b828203905092915050565b7f4954000000000000000000000000000000000000000000000000000000000000600082015250565b60006149ef6002836140d7565b91506149fa826149b9565b602082019050919050565b60006020820190508181036000830152614a1e816149e2565b9050919050565b7f4950000000000000000000000000000000000000000000000000000000000000600082015250565b6000614a5b6002836140d7565b9150614a6682614a25565b602082019050919050565b60006020820190508181036000830152614a8a81614a4e565b9050919050565b7f49534f0000000000000000000000000000000000000000000000000000000000600082015250565b6000614ac76003836140d7565b9150614ad282614a91565b602082019050919050565b60006020820190508181036000830152614af681614aba565b9050919050565b600081905092915050565b6000614b13826140cc565b614b1d8185614afd565b9350614b2d8185602086016140e8565b80840191505092915050565b6000819050919050565b614b54614b4f82613bc4565b614b39565b82525050565b60008160601b9050919050565b6000614b7282614b5a565b9050919050565b6000614b8482614b67565b9050919050565b614b9c614b9782613b86565b614b79565b82525050565b6000614bae828d614b08565b9150614bba828c614b43565b602082019150614bca828b614b43565b602082019150614bda828a614b43565b602082019150614bea8289614b43565b602082019150614bfa8288614b43565b602082019150614c0a8287614b43565b602082019150614c1a8286614b43565b602082019150614c2a8285614b8b565b601482019150614c3a8284614b43565b6020820191508190509b9a5050505050505050505050565b7f4e4d000000000000000000000000000000000000000000000000000000000000600082015250565b6000614c886002836140d7565b9150614c9382614c52565b602082019050919050565b60006020820190508181036000830152614cb781614c7b565b9050919050565b7f4e4f000000000000000000000000000000000000000000000000000000000000600082015250565b6000614cf46002836140d7565b9150614cff82614cbe565b602082019050919050565b60006020820190508181036000830152614d2381614ce7565b9050919050565b7f4e487b7100000000000000000000000000000000000000000000000000000000600052602260045260246000fd5b60006002820490506001821680614d7157607f821691505b60208210811415614d8557614d84614d2a565b5b50919050565b7f455243313135355552493a20746f6b656e4964206e6f74206578697374000000600082015250565b6000614dc1601d836140d7565b9150614dcc82614d8b565b602082019050919050565b60006020820190508181036000830152614df081614db4565b9050919050565b60008190508160005260206000209050919050565b60008154614e1981614d59565b614e238186614afd565b94506001821660008114614e3e5760018114614e4f57614e82565b60ff19831686528186019350614e82565b614e5885614df7565b60005b83811015614e7a57815481890152600182019150602081019050614e5b565b838801955050505b50505092915050565b6000614e978285614e0c565b9150614ea38284614b08565b91508190509392505050565b7f455243313135353a2063616c6c6572206973206e6f74206f776e6572206e6f7260008201527f20617070726f7665640000000000000000000000000000000000000000000000602082015250565b6000614f0b6029836140d7565b9150614f1682614eaf565b604082019050919050565b60006020820190508181036000830152614f3a81614efe565b9050919050565b7f455243313135353a206163636f756e747320616e6420696473206c656e67746860008201527f206d69736d617463680000000000000000000000000000000000000000000000602082015250565b6000614f9d6029836140d7565b9150614fa882614f41565b604082019050919050565b60006020820190508181036000830152614fcc81614f90565b9050919050565b7f4e487b7100000000000000000000000000000000000000000000000000000000600052603260045260246000fd5b7f455243313135353a2062617463682062616c616e636520717565727920666f7260008201527f20746865207a65726f2061646472657373000000000000000000000000000000602082015250565b600061505e6031836140d7565b915061506982615002565b604082019050919050565b6000602082019050818103600083015261508d81615051565b9050919050565b7f444e450000000000000000000000000000000000000000000000000000000000600082015250565b60006150ca6003836140d7565b91506150d582615094565b602082019050919050565b600060208201905081810360008301526150f9816150bd565b9050919050565b7f4352000000000000000000000000000000000000000000000000000000000000600082015250565b60006151366002836140d7565b915061514182615100565b602082019050919050565b6000602082019050818103600083015261516581615129565b9050919050565b7f4f4f540000000000000000000000000000000000000000000000000000000000600082015250565b60006151a26003836140d7565b91506151ad8261516c565b602082019050919050565b600060208201905081810360008301526151d181615195565b9050919050565b60006151e382613bc4565b91507fffffffffffffffffffffffffffffffffffffffffffffffffffffffffffffffff82141561521657615215614956565b5b600182019050919050565b7f455243313135353a2073657474696e6720617070726f76616c2073746174757360008201527f20666f722073656c660000000000000000000000000000000000000000000000602082015250565b600061527d6029836140d7565b915061528882615221565b604082019050919050565b600060208201905081810360008301526152ac81615270565b9050919050565b7f4941000000000000000000000000000000000000000000000000000000000000600082015250565b60006152e96002836140d7565b91506152f4826152b3565b602082019050919050565b60006020820190508181036000830152615318816152dc565b9050919050565b600061532a82613bc4565b915061533583613bc4565b9250817fffffffffffffffffffffffffffffffffffffffffffffffffffffffffffffffff048311821515161561536e5761536d614956565b5b828202905092915050565b7f4e487b7100000000000000000000000000000000000000000000000000000000600052601260045260246000fd5b60006153b382613bc4565b91506153be83613bc4565b9250826153ce576153cd615379565b5b828204905092915050565b60006153e58286614b43565b6020820191506153f58285614b8b565b6014820191506154058284614b43565b602082019150819050949350505050565b60006154228287614b08565b915061542e8286614b8b565b60148201915061543e8285614b43565b60208201915061544e8284614b43565b60208201915081905095945050505050565b7f455243313135353a2062616c616e636520717565727920666f7220746865207a60008201527f65726f2061646472657373000000000000000000000000000000000000000000602082015250565b60006154bc602b836140d7565b91506154c782615460565b604082019050919050565b600060208201905081810360008301526154eb816154af565b9050919050565b7f19457468657265756d205369676e6564204d6573736167653a0a333200000000600082015250565b6000615528601c83614afd565b9150615533826154f2565b601c82019050919050565b6000819050919050565b6000819050919050565b61556361555e8261553e565b615548565b82525050565b60006155748261551b565b91506155808284615552565b60208201915081905092915050565b7f4e487b7100000000000000000000000000000000000000000000000000000000600052602160045260246000fd5b7f45434453413a20696e76616c6964207369676e61747572650000000000000000600082015250565b60006155f46018836140d7565b91506155ff826155be565b602082019050919050565b60006020820190508181036000830152615623816155e7565b9050919050565b7f45434453413a20696e76616c6964207369676e6174757265206c656e67746800600082015250565b6000615660601f836140d7565b915061566b8261562a565b602082019050919050565b6000602082019050818103600083015261568f81615653565b9050919050565b7f45434453413a20696e76616c6964207369676e6174757265202773272076616c60008201527f7565000000000000000000000000000000000000000000000000000000000000602082015250565b60006156f26022836140d7565b91506156fd82615696565b604082019050919050565b60006020820190508181036000830152615721816156e5565b9050919050565b7f45434453413a20696e76616c6964207369676e6174757265202776272076616c60008201527f7565000000000000000000000000000000000000000000000000000000000000602082015250565b60006157846022836140d7565b915061578f82615728565b604082019050919050565b600060208201905081810360008301526157b381615777565b9050919050565b7f455243313135353a206d696e7420746f20746865207a65726f2061646472657360008201527f7300000000000000000000000000000000000000000000000000000000000000602082015250565b60006158166021836140d7565b9150615821826157ba565b604082019050919050565b6000602082019050818103600083015261584581615809565b9050919050565b600061585782613bc4565b915061586283613bc4565b9250827fffffffffffffffffffffffffffffffffffffffffffffffffffffffffffffffff0382111561589757615896614956565b5b828201905092915050565b60006040820190506158b76000830185613c3a565b6158c46020830184613c3a565b9392505050565b600081519050919050565b600082825260208201905092915050565b60006158f2826158cb565b6158fc81856158d6565b935061590c8185602086016140e8565b61591581613d29565b840191505092915050565b600060a082019050615935600083018861433a565b615942602083018761433a565b61594f6040830186613c3a565b61595c6060830185613c3a565b818103608083015261596e81846158e7565b90509695505050505050565b60008151905061598981613c90565b92915050565b6000602082840312156159a5576159a4613b5c565b5b60006159b38482850161597a565b91505092915050565b60008160e01c9050919050565b600060033d11156159e85760046000803e6159e56000516159bc565b90505b90565b600060443d10156159fb57615a7e565b615a03613b52565b60043d036004823e80513d602482011167ffffffffffffffff82111715615a2b575050615a7e565b808201805167ffffffffffffffff811115615a495750505050615a7e565b80602083010160043d038501811115615a66575050505050615a7e565b615a7582602001850186613d69565b82955050505050505b90565b7f455243313135353a207472616e7366657220746f206e6f6e204552433131353560008201527f526563656976657220696d706c656d656e746572000000000000000000000000602082015250565b6000615add6034836140d7565b9150615ae882615a81565b604082019050919050565b60006020820190508181036000830152615b0c81615ad0565b9050919050565b7f455243313135353a204552433131353552656365697665722072656a6563746560008201527f6420746f6b656e73000000000000000000000000000000000000000000000000602082015250565b6000615b6f6028836140d7565b9150615b7a82615b13565b604082019050919050565b60006020820190508181036000830152615b9e81615b62565b9050919050565b7f455243313135353a207472616e7366657220746f20746865207a65726f20616460008201527f6472657373000000000000000000000000000000000000000000000000000000602082015250565b6000615c016025836140d7565b9150615c0c82615ba5565b604082019050919050565b60006020820190508181036000830152615c3081615bf4565b9050919050565b7f455243313135353a2069647320616e6420616d6f756e7473206c656e6774682060008201527f6d69736d61746368000000000000000000000000000000000000000000000000602082015250565b6000615c936028836140d7565b9150615c9e82615c37565b604082019050919050565b60006020820190508181036000830152615cc281615c86565b9050919050565b7f455243313135353a20696e73756666696369656e742062616c616e636573206660008201527f6f72207472616e73666572000000000000000000000000000000000000000000602082015250565b6000615d25602b836140d7565b9150615d3082615cc9565b604082019050919050565b60006020820190508181036000830152615d5481615d18565b9050919050565b60006040820190508181036000830152615d7581856144ff565b90508181036020830152615d8981846144ff565b90509392505050565b600060a082019050615da7600083018861433a565b615db4602083018761433a565b8181036040830152615dc681866144ff565b90508181036060830152615dda81856144ff565b90508181036080830152615dee81846158e7565b90509695505050505050565b7f456e756d657261626c655365743a20696e646578206f7574206f6620626f756e60008201527f6473000000000000000000000000000000000000000000000000000000000000602082015250565b6000615e566022836140d7565b9150615e6182615dfa565b604082019050919050565b60006020820190508181036000830152615e8581615e49565b9050919050565b615e958161553e565b82525050565b600060ff82169050919050565b615eb181615e9b565b82525050565b6000608082019050615ecc6000830187615e8c565b615ed96020830186615ea8565b615ee66040830185615e8c565b615ef36060830184615e8c565b95945050505050565b7f4e487b7100000000000000000000000000000000000000000000000000000000600052603160045260246000fdfea26469706673582212200eeeca44e20353a69a2aaef7459b10099bb9da5c6f2f6e122ba0462c1cba4f2164736f6c634300080a0033",
  "devdoc": {
    "kind": "dev",
    "methods": {
      "accountsByToken(uint256)": {
        "params": {
          "id": "token id to query"
        },
        "returns": {
          "_0": "list of holder addresses"
        }
      },
      "balanceOf(address,uint256)": {
        "params": {
          "account": "address to query",
          "id": "token to query"
        },
        "returns": {
          "_0": "token balance"
        }
      },
      "balanceOfBatch(address[],uint256[])": {
        "params": {
          "accounts": "addresss to query",
          "ids": "tokens to query"
        },
        "returns": {
          "_0": "token balances"
        }
      },
      "isApprovedForAll(address,address)": {
        "params": {
          "account": "address to query for approval granted",
          "operator": "address to query for approval received"
        },
        "returns": {
          "_0": "whether operator is approved to spend tokens held by account"
        }
      },
      "safeBatchTransferFrom(address,address,uint256[],uint256[],bytes)": {
        "params": {
          "amounts": "list of quantities of tokens to transfer",
          "data": "data payload",
          "from": "sender of tokens",
          "ids": "list of token IDs",
          "to": "receiver of tokens"
        }
      },
      "safeTransferFrom(address,address,uint256,uint256,bytes)": {
        "params": {
          "amount": "quantity of tokens to transfer",
          "data": "data payload",
          "from": "sender of tokens",
          "id": "token ID",
          "to": "receiver of tokens"
        }
      },
      "setApprovalForAll(address,bool)": {
        "params": {
          "operator": "address whose approval status to update",
          "status": "whether operator should be considered approved"
        }
      },
      "supportsInterface(bytes4)": {
        "params": {
          "interfaceId": "interface id"
        },
        "returns": {
          "_0": "bool whether interface is supported"
        }
      },
      "tokensByAccount(address)": {
        "params": {
          "account": "address to query"
        },
        "returns": {
          "_0": "list of token ids"
        }
      },
      "totalHolders(uint256)": {
        "params": {
          "id": "token id to query"
        },
        "returns": {
          "_0": "quantity of holders"
        }
      },
      "totalSupply(uint256)": {
        "params": {
          "id": "token id to query"
        },
        "returns": {
          "_0": "token supply"
        }
      }
    },
    "version": 1
  },
  "userdoc": {
    "kind": "user",
    "methods": {
      "accountsByToken(uint256)": {
        "notice": "query holders of given token"
      },
      "balanceOf(address,uint256)": {
        "notice": "query the balance of given token held by given address"
      },
      "balanceOfBatch(address[],uint256[])": {
        "notice": "query the balances of given tokens held by given addresses"
      },
      "isApprovedForAll(address,address)": {
        "notice": "query approval status of given operator with respect to given address"
      },
      "safeBatchTransferFrom(address,address,uint256[],uint256[],bytes)": {
        "notice": "transfer batch of tokens between given addresses, checking for ERC1155Receiver implementation if applicable"
      },
      "safeTransferFrom(address,address,uint256,uint256,bytes)": {
        "notice": "transfer tokens between given addresses, checking for ERC1155Receiver implementation if applicable"
      },
      "setApprovalForAll(address,bool)": {
        "notice": "grant approval to or revoke approval from given operator to spend held tokens"
      },
      "supportsInterface(bytes4)": {
        "notice": "query whether contract has registered support for given interface"
      },
      "tokensByAccount(address)": {
        "notice": "query tokens held by given address"
      },
      "totalHolders(uint256)": {
        "notice": "query total number of holders for given token"
      },
      "totalSupply(uint256)": {
        "notice": "query total minted supply of given token"
      }
    },
    "version": 1
  },
  "storageLayout": {
    "storage": [],
    "types": null
  }
}