{
  "address": "0xc43B4273C40e4534A1e2d61a6d3AAE5D173Cd53e",
  "abi": [
    {
      "anonymous": false,
      "inputs": [
        {
          "indexed": true,
          "internalType": "address",
          "name": "account",
          "type": "address"
        },
        {
          "indexed": true,
          "internalType": "address",
          "name": "operator",
          "type": "address"
        },
        {
          "indexed": false,
          "internalType": "bool",
          "name": "approved",
          "type": "bool"
        }
      ],
      "name": "ApprovalForAll",
      "type": "event"
    },
    {
      "anonymous": false,
      "inputs": [
        {
          "indexed": true,
          "internalType": "address",
          "name": "account",
          "type": "address"
        },
        {
          "indexed": true,
          "internalType": "uint256",
          "name": "tokenId",
          "type": "uint256"
        }
      ],
      "name": "DropCreated",
      "type": "event"
    },
    {
      "anonymous": false,
      "inputs": [
        {
          "indexed": true,
          "internalType": "address",
          "name": "account",
          "type": "address"
        },
        {
          "indexed": true,
          "internalType": "uint256",
          "name": "tokenId",
          "type": "uint256"
        },
        {
          "indexed": true,
          "internalType": "uint256",
          "name": "amount",
          "type": "uint256"
        }
      ],
      "name": "Minted",
      "type": "event"
    },
    {
      "anonymous": false,
      "inputs": [
        {
          "indexed": true,
          "internalType": "address",
          "name": "operator",
          "type": "address"
        },
        {
          "indexed": true,
          "internalType": "address",
          "name": "from",
          "type": "address"
        },
        {
          "indexed": true,
          "internalType": "address",
          "name": "to",
          "type": "address"
        },
        {
          "indexed": false,
          "internalType": "uint256[]",
          "name": "ids",
          "type": "uint256[]"
        },
        {
          "indexed": false,
          "internalType": "uint256[]",
          "name": "values",
          "type": "uint256[]"
        }
      ],
      "name": "TransferBatch",
      "type": "event"
    },
    {
      "anonymous": false,
      "inputs": [
        {
          "indexed": true,
          "internalType": "address",
          "name": "operator",
          "type": "address"
        },
        {
          "indexed": true,
          "internalType": "address",
          "name": "from",
          "type": "address"
        },
        {
          "indexed": true,
          "internalType": "address",
          "name": "to",
          "type": "address"
        },
        {
          "indexed": false,
          "internalType": "uint256",
          "name": "id",
          "type": "uint256"
        },
        {
          "indexed": false,
          "internalType": "uint256",
          "name": "value",
          "type": "uint256"
        }
      ],
      "name": "TransferSingle",
      "type": "event"
    },
    {
      "anonymous": false,
      "inputs": [
        {
          "indexed": false,
          "internalType": "string",
          "name": "value",
          "type": "string"
        },
        {
          "indexed": true,
          "internalType": "uint256",
          "name": "tokenId",
          "type": "uint256"
        }
      ],
      "name": "URI",
      "type": "event"
    },
    {
      "inputs": [
        {
          "internalType": "uint256",
          "name": "id",
          "type": "uint256"
        }
      ],
      "name": "accountsByToken",
      "outputs": [
        {
          "internalType": "address[]",
          "name": "",
          "type": "address[]"
        }
      ],
      "stateMutability": "view",
      "type": "function"
    },
    {
      "inputs": [
        {
          "internalType": "address",
          "name": "account",
          "type": "address"
        },
        {
          "internalType": "uint256",
          "name": "id",
          "type": "uint256"
        }
      ],
      "name": "balanceOf",
      "outputs": [
        {
          "internalType": "uint256",
          "name": "",
          "type": "uint256"
        }
      ],
      "stateMutability": "view",
      "type": "function"
    },
    {
      "inputs": [
        {
          "internalType": "address[]",
          "name": "accounts",
          "type": "address[]"
        },
        {
          "internalType": "uint256[]",
          "name": "ids",
          "type": "uint256[]"
        }
      ],
      "name": "balanceOfBatch",
      "outputs": [
        {
          "internalType": "uint256[]",
          "name": "",
          "type": "uint256[]"
        }
      ],
      "stateMutability": "view",
      "type": "function"
    },
    {
      "inputs": [
        {
          "internalType": "uint256",
          "name": "_tokenId",
          "type": "uint256"
        },
        {
          "internalType": "address",
          "name": "_holder",
          "type": "address"
        },
        {
          "internalType": "uint256",
          "name": "_amount",
          "type": "uint256"
        }
      ],
      "name": "batchMint",
      "outputs": [
        {
          "internalType": "uint256",
          "name": "tokenId",
          "type": "uint256"
        }
      ],
      "stateMutability": "nonpayable",
      "type": "function"
    },
    {
      "inputs": [
        {
          "internalType": "string",
          "name": "_uri",
          "type": "string"
        },
        {
          "internalType": "uint256",
          "name": "_timeStart",
          "type": "uint256"
        },
        {
          "internalType": "uint256",
          "name": "_timeEnd",
          "type": "uint256"
        },
        {
          "internalType": "uint256",
          "name": "_priceStart",
          "type": "uint256"
        },
        {
          "internalType": "uint256",
          "name": "_priceEnd",
          "type": "uint256"
        },
        {
          "internalType": "uint256",
          "name": "_stepDuration",
          "type": "uint256"
        },
        {
          "internalType": "uint256",
          "name": "_amountCap",
          "type": "uint256"
        },
        {
          "internalType": "uint256",
          "name": "_shareCyber",
          "type": "uint256"
        },
        {
          "internalType": "bytes",
          "name": "_signature",
          "type": "bytes"
        }
      ],
      "name": "createDrop",
      "outputs": [
        {
          "internalType": "uint256",
          "name": "tokenId",
          "type": "uint256"
        }
      ],
      "stateMutability": "nonpayable",
      "type": "function"
    },
    {
      "inputs": [
        {
          "internalType": "uint256",
          "name": "_tokenId",
          "type": "uint256"
        },
        {
          "internalType": "address",
          "name": "_minter",
          "type": "address"
        }
      ],
      "name": "dropMintCounter",
      "outputs": [
        {
          "internalType": "uint256",
          "name": "",
          "type": "uint256"
        }
      ],
      "stateMutability": "view",
      "type": "function"
    },
    {
      "inputs": [
        {
          "internalType": "uint256",
          "name": "_tokenId",
          "type": "uint256"
        }
      ],
      "name": "getDrop",
      "outputs": [
        {
          "internalType": "uint256",
          "name": "timeStart",
          "type": "uint256"
        },
        {
          "internalType": "uint256",
          "name": "timeEnd",
          "type": "uint256"
        },
        {
          "internalType": "uint256",
          "name": "priceStart",
          "type": "uint256"
        },
        {
          "internalType": "uint256",
          "name": "priceEnd",
          "type": "uint256"
        },
        {
          "internalType": "uint256",
          "name": "stepDuration",
          "type": "uint256"
        },
        {
          "internalType": "uint256",
          "name": "amountCap",
          "type": "uint256"
        },
        {
          "internalType": "uint256",
          "name": "shareCyber",
          "type": "uint256"
        },
        {
          "internalType": "address",
          "name": "creator",
          "type": "address"
        },
        {
          "internalType": "uint256",
          "name": "minted",
          "type": "uint256"
        }
      ],
      "stateMutability": "view",
      "type": "function"
    },
    {
      "inputs": [
        {
          "internalType": "uint256",
          "name": "_tokenId",
          "type": "uint256"
        }
      ],
      "name": "getMintPriceForToken",
      "outputs": [
        {
          "internalType": "uint256",
          "name": "mintPrice",
          "type": "uint256"
        }
      ],
      "stateMutability": "view",
      "type": "function"
    },
    {
      "inputs": [
        {
          "internalType": "string",
          "name": "_uri",
          "type": "string"
        },
        {
          "internalType": "address",
          "name": "_manager",
          "type": "address"
        },
        {
          "internalType": "address",
          "name": "_trustedForwarder",
          "type": "address"
        },
        {
          "internalType": "address",
          "name": "_opensea",
          "type": "address"
        },
        {
          "internalType": "address",
          "name": "_oncyber",
          "type": "address"
        }
      ],
      "name": "initialize",
      "outputs": [],
      "stateMutability": "nonpayable",
      "type": "function"
    },
    {
      "inputs": [
        {
          "internalType": "address",
          "name": "account",
          "type": "address"
        },
        {
          "internalType": "address",
          "name": "operator",
          "type": "address"
        }
      ],
      "name": "isApprovedForAll",
      "outputs": [
        {
          "internalType": "bool",
          "name": "",
          "type": "bool"
        }
      ],
      "stateMutability": "view",
      "type": "function"
    },
    {
      "inputs": [
        {
          "internalType": "address",
          "name": "forwarder",
          "type": "address"
        }
      ],
      "name": "isTrustedForwarder",
      "outputs": [
        {
          "internalType": "bool",
          "name": "",
          "type": "bool"
        }
      ],
      "stateMutability": "view",
      "type": "function"
    },
    {
      "inputs": [],
      "name": "manager",
      "outputs": [
        {
          "internalType": "address",
          "name": "",
          "type": "address"
        }
      ],
      "stateMutability": "view",
      "type": "function"
    },
    {
      "inputs": [
        {
          "internalType": "uint256",
          "name": "_tokenId",
          "type": "uint256"
        },
        {
          "internalType": "bytes",
          "name": "_signature",
          "type": "bytes"
        }
      ],
      "name": "mint",
      "outputs": [
        {
          "internalType": "bool",
          "name": "success",
          "type": "bool"
        }
      ],
      "stateMutability": "payable",
      "type": "function"
    },
    {
      "inputs": [
        {
          "internalType": "address",
          "name": "_minter",
          "type": "address"
        }
      ],
      "name": "minterNonce",
      "outputs": [
        {
          "internalType": "uint256",
          "name": "",
          "type": "uint256"
        }
      ],
      "stateMutability": "view",
      "type": "function"
    },
    {
      "inputs": [],
      "name": "oncyber",
      "outputs": [
        {
          "internalType": "address",
          "name": "",
          "type": "address"
        }
      ],
      "stateMutability": "view",
      "type": "function"
    },
    {
      "inputs": [
        {
          "internalType": "address",
          "name": "from",
          "type": "address"
        },
        {
          "internalType": "address",
          "name": "to",
          "type": "address"
        },
        {
          "internalType": "uint256[]",
          "name": "ids",
          "type": "uint256[]"
        },
        {
          "internalType": "uint256[]",
          "name": "amounts",
          "type": "uint256[]"
        },
        {
          "internalType": "bytes",
          "name": "data",
          "type": "bytes"
        }
      ],
      "name": "safeBatchTransferFrom",
      "outputs": [],
      "stateMutability": "nonpayable",
      "type": "function"
    },
    {
      "inputs": [
        {
          "internalType": "address",
          "name": "from",
          "type": "address"
        },
        {
          "internalType": "address",
          "name": "to",
          "type": "address"
        },
        {
          "internalType": "uint256",
          "name": "id",
          "type": "uint256"
        },
        {
          "internalType": "uint256",
          "name": "amount",
          "type": "uint256"
        },
        {
          "internalType": "bytes",
          "name": "data",
          "type": "bytes"
        }
      ],
      "name": "safeTransferFrom",
      "outputs": [],
      "stateMutability": "nonpayable",
      "type": "function"
    },
    {
      "inputs": [
        {
          "internalType": "address",
          "name": "operator",
          "type": "address"
        },
        {
          "internalType": "bool",
          "name": "status",
          "type": "bool"
        }
      ],
      "name": "setApprovalForAll",
      "outputs": [],
      "stateMutability": "nonpayable",
      "type": "function"
    },
    {
      "inputs": [
        {
          "internalType": "bytes4",
          "name": "interfaceId",
          "type": "bytes4"
        }
      ],
      "name": "supportsInterface",
      "outputs": [
        {
          "internalType": "bool",
          "name": "",
          "type": "bool"
        }
      ],
      "stateMutability": "view",
      "type": "function"
    },
    {
      "inputs": [
        {
          "internalType": "address",
          "name": "account",
          "type": "address"
        }
      ],
      "name": "tokensByAccount",
      "outputs": [
        {
          "internalType": "uint256[]",
          "name": "",
          "type": "uint256[]"
        }
      ],
      "stateMutability": "view",
      "type": "function"
    },
    {
      "inputs": [
        {
          "internalType": "uint256",
          "name": "id",
          "type": "uint256"
        }
      ],
      "name": "totalHolders",
      "outputs": [
        {
          "internalType": "uint256",
          "name": "",
          "type": "uint256"
        }
      ],
      "stateMutability": "view",
      "type": "function"
    },
    {
      "inputs": [],
      "name": "totalSupply",
      "outputs": [
        {
          "internalType": "uint256",
          "name": "",
          "type": "uint256"
        }
      ],
      "stateMutability": "view",
      "type": "function"
    },
    {
      "inputs": [
        {
          "internalType": "uint256",
          "name": "id",
          "type": "uint256"
        }
      ],
      "name": "totalSupply",
      "outputs": [
        {
          "internalType": "uint256",
          "name": "",
          "type": "uint256"
        }
      ],
      "stateMutability": "view",
      "type": "function"
    },
    {
      "inputs": [
        {
          "internalType": "uint256",
          "name": "_tokenId",
          "type": "uint256"
        }
      ],
      "name": "uri",
      "outputs": [
        {
          "internalType": "string",
          "name": "",
          "type": "string"
        }
      ],
      "stateMutability": "view",
      "type": "function"
    }
  ],
  "transactionHash": "0x18405b2935b639482ed9f71e8689f7ed6dc22689f70b5d90f4ac3e3830cd9042",
  "args": [],
  "solcInputHash": "0060ea7663c0ccaca7055da0e8b85dea",
  "bytecode": "0x608060405234801561001057600080fd5b50615ec380620000216000396000f3fe60806040526004361061014a5760003560e01c8063572b6c05116100b6578063b3a721d11161006f578063b3a721d114610541578063bc01188e1461057e578063bd85b039146105a9578063db7fd408146105e6578063e985e9c514610616578063f242432a146106535761014a565b8063572b6c05146103df5780635c5ed16d1461041c5780636787d449146104595780636dcfd8411461049e57806385bff2e7146104db578063a22cb465146105185761014a565b806318160ddd1161010857806318160ddd146102a95780631b023947146102d45780632eb2c2d6146103115780633567ed3b1461033a578063481c6a75146103775780634e1273f4146103a25761014a565b8062fdd58e1461014f57806301ffc9a71461018c578063081cdf12146101c95780630b885ac3146102065780630e89341c1461022f57806313ba55df1461026c575b600080fd5b34801561015b57600080fd5b5061017660048036038101906101719190613b72565b61067c565b6040516101839190613bc1565b60405180910390f35b34801561019857600080fd5b506101b360048036038101906101ae9190613c34565b610690565b6040516101c09190613c7c565b60405180910390f35b3480156101d557600080fd5b506101f060048036038101906101eb9190613e7e565b6106b3565b6040516101fd9190613bc1565b60405180910390f35b34801561021257600080fd5b5061022d60048036038101906102289190613f80565b610bce565b005b34801561023b57600080fd5b5061025660048036038101906102519190614017565b610e32565b60405161026391906140cc565b60405180910390f35b34801561027857600080fd5b50610293600480360381019061028e9190614017565b610f56565b6040516102a09190613bc1565b60405180910390f35b3480156102b557600080fd5b506102be610f83565b6040516102cb9190613bc1565b60405180910390f35b3480156102e057600080fd5b506102fb60048036038101906102f691906140ee565b610f9d565b6040516103089190613bc1565b60405180910390f35b34801561031d57600080fd5b50610338600480360381019061033391906141e3565b610ff6565b005b34801561034657600080fd5b50610361600480360381019061035c91906142b2565b61108a565b60405161036e9190613bc1565b60405180910390f35b34801561038357600080fd5b5061038c611207565b6040516103999190614314565b60405180910390f35b3480156103ae57600080fd5b506103c960048036038101906103c491906143f2565b61123a565b6040516103d69190614528565b60405180910390f35b3480156103eb57600080fd5b50610406600480360381019061040191906140ee565b61142f565b6040516104139190613c7c565b60405180910390f35b34801561042857600080fd5b50610443600480360381019061043e9190614017565b611492565b6040516104509190613bc1565b60405180910390f35b34801561046557600080fd5b50610480600480360381019061047b9190614017565b6115ea565b6040516104959998979695949392919061454a565b60405180910390f35b3480156104aa57600080fd5b506104c560048036038101906104c09190614017565b6116d3565b6040516104d29190614695565b60405180910390f35b3480156104e757600080fd5b5061050260048036038101906104fd91906140ee565b6117db565b60405161050f9190614528565b60405180910390f35b34801561052457600080fd5b5061053f600480360381019061053a91906146e3565b6118e1565b005b34801561054d57600080fd5b5061056860048036038101906105639190614723565b611a56565b6040516105759190613bc1565b60405180910390f35b34801561058a57600080fd5b50610593611b11565b6040516105a09190614314565b60405180910390f35b3480156105b557600080fd5b506105d060048036038101906105cb9190614017565b611b44565b6040516105dd9190613bc1565b60405180910390f35b61060060048036038101906105fb9190614763565b611b6a565b60405161060d9190613c7c565b60405180910390f35b34801561062257600080fd5b5061063d600480360381019061063891906147bf565b611fcf565b60405161064a9190613c7c565b60405180910390f35b34801561065f57600080fd5b5061067a600480360381019061067591906147ff565b61206c565b005b60006106888383612100565b905092915050565b60006106ac8261069e6121d3565b61220090919063ffffffff16565b9050919050565b60008489896106c291906148c5565b101580156106d05750600085115b61070f576040517f08c379a000000000000000000000000000000000000000000000000000000000815260040161070690614945565b60405180910390fd5b85871015801561071f5750600087115b61075e576040517f08c379a0000000000000000000000000000000000000000000000000000000008152600401610755906149b1565b60405180910390fd5b60648311156107a2576040517f08c379a000000000000000000000000000000000000000000000000000000000815260040161079990614a1d565b60405180910390fd5b60006107ac61226b565b905060006107b982610f9d565b905060008c8c8c8c8c8c8c8c8a8a6040516020016107e09a99989796959493929190614ae2565b604051602081830303815290604052905060006108158661080784805190602001206122a7565b6122d790919063ffffffff16565b905061081f6122fe565b60000160009054906101000a900473ffffffffffffffffffffffffffffffffffffffff1673ffffffffffffffffffffffffffffffffffffffff168173ffffffffffffffffffffffffffffffffffffffff16146108b0576040517f08c379a00000000000000000000000000000000000000000000000000000000081526004016108a790614bde565b60405180910390fd5b6108c36108bb6122fe565b60020161232b565b94506108cf858f612339565b6108e26108da6122fe565b60020161236e565b6109326108ed6122fe565b60030160008673ffffffffffffffffffffffffffffffffffffffff1673ffffffffffffffffffffffffffffffffffffffff16815260200190815260200160002061236e565b8c61093b612384565b6000016000878152602001908152602001600020600001819055508b61095f612384565b6000016000878152602001908152602001600020600101819055508a610983612384565b600001600087815260200190815260200160002060020181905550896109a7612384565b600001600087815260200190815260200160002060030181905550886109cb612384565b600001600087815260200190815260200160002060040181905550876109ef612384565b60000160008781526020019081526020016000206005018190555086610a13612384565b60000160008781526020019081526020016000206006018190555083610a37612384565b600001600087815260200190815260200160002060070160006101000a81548173ffffffffffffffffffffffffffffffffffffffff021916908373ffffffffffffffffffffffffffffffffffffffff160217905550610ab3610a97612384565b600001600087815260200190815260200160002060080161236e565b610b17610abe612384565b600001600087815260200190815260200160002060090160008673ffffffffffffffffffffffffffffffffffffffff1673ffffffffffffffffffffffffffffffffffffffff16815260200190815260200160002061236e565b610b3384866001604051806020016040528060008152506123b1565b848473ffffffffffffffffffffffffffffffffffffffff167f4011446e11141f68f741bffe55d700b48cbc73fb927148a01c8f4664c3be014260405160405180910390a36001858573ffffffffffffffffffffffffffffffffffffffff167f25b428dfde728ccfaddad7e29e4ac23c24ed7fd1a6e3e3f91894a9a073f5dfff60405160405180910390a4505050509998505050505050505050565b3373ffffffffffffffffffffffffffffffffffffffff16610bed6123d2565b60040160009054906101000a900473ffffffffffffffffffffffffffffffffffffffff1673ffffffffffffffffffffffffffffffffffffffff1614610c67576040517f08c379a0000000000000000000000000000000000000000000000000000000008152600401610c5e90614c4a565b60405180910390fd5b82610c706123ff565b60000160006101000a81548173ffffffffffffffffffffffffffffffffffffffff021916908373ffffffffffffffffffffffffffffffffffffffff1602179055506001610cbb6123d2565b60030160007fd9b67a26000000000000000000000000000000000000000000000000000000007bffffffffffffffffffffffffffffffffffffffffffffffffffffffff19167bffffffffffffffffffffffffffffffffffffffffffffffffffffffff1916815260200190815260200160002060006101000a81548160ff021916908315150217905550610d4d8561242c565b83610d566122fe565b60000160006101000a81548173ffffffffffffffffffffffffffffffffffffffff021916908373ffffffffffffffffffffffffffffffffffffffff16021790555081610da06122fe565b60010160006101000a81548173ffffffffffffffffffffffffffffffffffffffff021916908373ffffffffffffffffffffffffffffffffffffffff16021790555080610dea6122fe565b60040160006101000a81548173ffffffffffffffffffffffffffffffffffffffff021916908373ffffffffffffffffffffffffffffffffffffffff1602179055505050505050565b60606000610e3e61244f565b60000160008481526020019081526020016000208054610e5d90614c99565b80601f0160208091040260200160405190810160405280929190818152602001828054610e8990614c99565b8015610ed65780601f10610eab57610100808354040283529160200191610ed6565b820191906000526020600020905b815481529060010190602001808311610eb957829003601f168201915b50505050509050600081511415610f22576040517f08c379a0000000000000000000000000000000000000000000000000000000008152600401610f1990614d17565b60405180910390fd5b610f2a61244f565b60010181604051602001610f3f929190614dcb565b604051602081830303815290604052915050919050565b6000610f7c610f6361247c565b60010160008481526020019081526020016000206124a9565b9050919050565b6000610f98610f906122fe565b60020161232b565b905090565b6000610fef610faa6122fe565b60030160008473ffffffffffffffffffffffffffffffffffffffff1673ffffffffffffffffffffffffffffffffffffffff16815260200190815260200160002061232b565b9050919050565b3373ffffffffffffffffffffffffffffffffffffffff168573ffffffffffffffffffffffffffffffffffffffff16148061103657506110358533611fcf565b5b611075576040517f08c379a000000000000000000000000000000000000000000000000000000000815260040161106c90614e61565b60405180910390fd5b6110833386868686866124be565b5050505050565b60008082116110ce576040517f08c379a00000000000000000000000000000000000000000000000000000000081526004016110c590614ecd565b60405180910390fd5b60b28414611111576040517f08c379a000000000000000000000000000000000000000000000000000000000815260040161110890614945565b60405180910390fd5b600061111b61226b565b905073623fc4f577926c0aadaef11a243754c546c1f98c73ffffffffffffffffffffffffffffffffffffffff168173ffffffffffffffffffffffffffffffffffffffff161461119f576040517f08c379a000000000000000000000000000000000000000000000000000000000815260040161119690614f39565b60405180910390fd5b6111ba848685604051806020016040528060008152506123b1565b82858573ffffffffffffffffffffffffffffffffffffffff167f25b428dfde728ccfaddad7e29e4ac23c24ed7fd1a6e3e3f91894a9a073f5dfff60405160405180910390a4509392505050565b60006112116122fe565b60000160009054906101000a900473ffffffffffffffffffffffffffffffffffffffff16905090565b60608151835114611280576040517f08c379a000000000000000000000000000000000000000000000000000000000815260040161127790614fcb565b60405180910390fd5b600061128a6124e2565b60000190506000845167ffffffffffffffff8111156112ac576112ab613cb2565b5b6040519080825280602002602001820160405280156112da5781602001602082028036833780820191505090505b50905060005b855181101561142357600073ffffffffffffffffffffffffffffffffffffffff1686828151811061131457611313614feb565b5b602002602001015173ffffffffffffffffffffffffffffffffffffffff161415611373576040517f08c379a000000000000000000000000000000000000000000000000000000000815260040161136a9061508c565b60405180910390fd5b82600086838151811061138957611388614feb565b5b6020026020010151815260200190815260200160002060008783815181106113b4576113b3614feb565b5b602002602001015173ffffffffffffffffffffffffffffffffffffffff1673ffffffffffffffffffffffffffffffffffffffff1681526020019081526020016000205482828151811061140a57611409614feb565b5b60200260200101818152505080806001019150506112e0565b50809250505092915050565b60006114396123ff565b60000160009054906101000a900473ffffffffffffffffffffffffffffffffffffffff1673ffffffffffffffffffffffffffffffffffffffff168273ffffffffffffffffffffffffffffffffffffffff16149050919050565b60008061149d612384565b600001600084815260200190815260200160002090506000816002015414156114fb576040517f08c379a00000000000000000000000000000000000000000000000000000000081526004016114f2906150f8565b60405180910390fd5b60008160050154146115595780600501546115188260080161232b565b10611558576040517f08c379a000000000000000000000000000000000000000000000000000000000815260040161154f90615164565b60405180910390fd5b5b806000015442118015611570575080600101544211155b6115af576040517f08c379a00000000000000000000000000000000000000000000000000000000081526004016115a6906151d0565b60405180910390fd5b60008160000154426115c191906148c5565b90506000826000015483600101546115d991906148c5565b905082600201549350505050919050565b600080600080600080600080600080611601612384565b60000160008c8152602001908152602001600020905060008160020154141561165f576040517f08c379a0000000000000000000000000000000000000000000000000000000008152600401611656906150f8565b60405180910390fd5b80600001548160010154826002015483600301548460040154856005015486600601548760070160009054906101000a900473ffffffffffffffffffffffffffffffffffffffff166116b38960080161232b565b995099509950995099509950995099509950509193959799909294969850565b606060006116df61247c565b600101600084815260200190815260200160002090506000611700826124a9565b67ffffffffffffffff81111561171957611718613cb2565b5b6040519080825280602002602001820160405280156117475781602001602082028036833780820191505090505b50905060005b611756836124a9565b8110156117d057611770818461250f90919063ffffffff16565b82828151811061178357611782614feb565b5b602002602001019073ffffffffffffffffffffffffffffffffffffffff16908173ffffffffffffffffffffffffffffffffffffffff168152505080806117c8906151f0565b91505061174d565b508092505050919050565b606060006117e761247c565b60020160008473ffffffffffffffffffffffffffffffffffffffff1673ffffffffffffffffffffffffffffffffffffffff1681526020019081526020016000209050600061183482612529565b67ffffffffffffffff81111561184d5761184c613cb2565b5b60405190808252806020026020018201604052801561187b5781602001602082028036833780820191505090505b50905060005b61188a83612529565b8110156118d6576118a4818461253e90919063ffffffff16565b8282815181106118b7576118b6614feb565b5b60200260200101818152505080806118ce906151f0565b915050611881565b508092505050919050565b8173ffffffffffffffffffffffffffffffffffffffff163373ffffffffffffffffffffffffffffffffffffffff161415611950576040517f08c379a0000000000000000000000000000000000000000000000000000000008152600401611947906152ab565b60405180910390fd5b806119596124e2565b60010160003373ffffffffffffffffffffffffffffffffffffffff1673ffffffffffffffffffffffffffffffffffffffff16815260200190815260200160002060008473ffffffffffffffffffffffffffffffffffffffff1673ffffffffffffffffffffffffffffffffffffffff16815260200190815260200160002060006101000a81548160ff0219169083151502179055508173ffffffffffffffffffffffffffffffffffffffff163373ffffffffffffffffffffffffffffffffffffffff167f17307eab39ab6107e8899845ad3d59bd9653f200f220920489ca2b5937696c3183604051611a4a9190613c7c565b60405180910390a35050565b600080611a61612384565b60000160008581526020019081526020016000209050600081600201541415611abf576040517f08c379a0000000000000000000000000000000000000000000000000000000008152600401611ab6906150f8565b60405180910390fd5b611b088160090160008573ffffffffffffffffffffffffffffffffffffffff1673ffffffffffffffffffffffffffffffffffffffff16815260200190815260200160002061232b565b91505092915050565b6000611b1b6122fe565b60040160009054906101000a900473ffffffffffffffffffffffffffffffffffffffff16905090565b6000611b4e61247c565b6000016000838152602001908152602001600020549050919050565b600080611b7561226b565b90506000611b81612384565b600001600086815260200190815260200160002090506000816005015414611bf5578060050154611bb48260080161232b565b10611bf4576040517f08c379a0000000000000000000000000000000000000000000000000000000008152600401611beb90615164565b60405180910390fd5b5b806000015442118015611c0c575080600101544211155b611c4b576040517f08c379a0000000000000000000000000000000000000000000000000000000008152600401611c42906151d0565b60405180910390fd5b6000816000015442611c5d91906148c5565b9050600082600001548360010154611c7591906148c5565b905060008360020154905080341015611cc3576040517f08c379a0000000000000000000000000000000000000000000000000000000008152600401611cba90614ecd565b60405180910390fd5b60006064856006015434611cd791906152cb565b611ce19190615354565b905060008134611cf191906148c5565b90506000611d3e8760090160008a73ffffffffffffffffffffffffffffffffffffffff1673ffffffffffffffffffffffffffffffffffffffff16815260200190815260200160002061232b565b905060008b8983604051602001611d5793929190615385565b60405160208183030381529060405290506000611d8c8c611d7e84805190602001206122a7565b6122d790919063ffffffff16565b9050611d966122fe565b60000160009054906101000a900473ffffffffffffffffffffffffffffffffffffffff1673ffffffffffffffffffffffffffffffffffffffff168173ffffffffffffffffffffffffffffffffffffffff1614611e27576040517f08c379a0000000000000000000000000000000000000000000000000000000008152600401611e1e90614bde565b60405180910390fd5b611e338960080161236e565b611e7c8960090160008c73ffffffffffffffffffffffffffffffffffffffff1673ffffffffffffffffffffffffffffffffffffffff16815260200190815260200160002061236e565b611e988a8e6001604051806020016040528060008152506123b1565b8860070160009054906101000a900473ffffffffffffffffffffffffffffffffffffffff1673ffffffffffffffffffffffffffffffffffffffff166108fc859081150290604051600060405180830381858888f19350505050158015611f02573d6000803e3d6000fd5b50611f0b6122fe565b60040160009054906101000a900473ffffffffffffffffffffffffffffffffffffffff1673ffffffffffffffffffffffffffffffffffffffff166108fc869081150290604051600060405180830381858888f19350505050158015611f74573d6000803e3d6000fd5b5060018d8b73ffffffffffffffffffffffffffffffffffffffff167f25b428dfde728ccfaddad7e29e4ac23c24ed7fd1a6e3e3f91894a9a073f5dfff60405160405180910390a460019a505050505050505050505092915050565b6000611fd96124e2565b60010160008473ffffffffffffffffffffffffffffffffffffffff1673ffffffffffffffffffffffffffffffffffffffff16815260200190815260200160002060008373ffffffffffffffffffffffffffffffffffffffff1673ffffffffffffffffffffffffffffffffffffffff16815260200190815260200160002060009054906101000a900460ff16905092915050565b3373ffffffffffffffffffffffffffffffffffffffff168573ffffffffffffffffffffffffffffffffffffffff1614806120ac57506120ab8533611fcf565b5b6120eb576040517f08c379a00000000000000000000000000000000000000000000000000000000081526004016120e290614e61565b60405180910390fd5b6120f9338686868686612558565b5050505050565b60008073ffffffffffffffffffffffffffffffffffffffff168373ffffffffffffffffffffffffffffffffffffffff161415612171576040517f08c379a000000000000000000000000000000000000000000000000000000000815260040161216890615434565b60405180910390fd5b6121796124e2565b600001600083815260200190815260200160002060008473ffffffffffffffffffffffffffffffffffffffff1673ffffffffffffffffffffffffffffffffffffffff16815260200190815260200160002054905092915050565b6000807f326d0c59a7612f6a9919e2a8ee333c80ba689d8ba2634de89c85cbb04832e70590508091505090565b6000826000016000837bffffffffffffffffffffffffffffffffffffffffffffffffffffffff19167bffffffffffffffffffffffffffffffffffffffffffffffffffffffff1916815260200190815260200160002060009054906101000a900460ff16905092915050565b6000601860003690501015801561228757506122863361142f565b5b1561229b57601436033560601c90506122a3565b3390506122a4565b5b90565b6000816040516020016122ba91906154cb565b604051602081830303815290604052805190602001209050919050565b60008060006122e6858561257c565b915091506122f3816125ff565b819250505092915050565b6000807f47dc25f21c7793543edaeb1ef19d41726ddbada967ae9a7980b9bd8a45228a5e90508091505090565b600081600001549050919050565b8061234261244f565b60000160008481526020019081526020016000209080519060200190612369929190613a27565b505050565b6001816000016000828254019250508190555050565b6000807f6862122c88c20d0f389f9211fb45e4a0982f5f74838cd11cfb5e8c8b41fbe65990508091505090565b6123bd848484846127d4565b6123cc3360008686868661295e565b50505050565b6000807fc8fcad8db84d3cc18b4c41d551ea0ee66dd599cde068d998e57d5e09332c131c90508091505090565b6000807fa5e014e253d3b66bd348c3cdd05f38b9805fff0b6471d004b58c6ada26cae99390508091505090565b8061243561244f565b600101908051906020019061244b929190613a27565b5050565b6000807fb3408a5d8f30170919d3996b6cc182726500ad24733d17ace2f621485f6e7c8390508091505090565b6000807fb31c2c74f86ca3ce94d901f5f5bbe66f7161eec2f7b5aa0b75a86371436424ea90508091505090565b60006124b782600001612b36565b9050919050565b6124cc868686868686612b47565b6124da868686868686612e53565b505050505050565b6000807f1799cf914cb0cb442ca7c7ac709ee40d0cb89e87351dc08d517fbda27d50c68b90508091505090565b600061251e836000018361302b565b60001c905092915050565b600061253782600001612b36565b9050919050565b600061254d836000018361302b565b60001c905092915050565b61256686868686868661309f565b61257486868686868661295e565b505050505050565b6000806041835114156125be5760008060006020860151925060408601519150606086015160001a90506125b287828585613317565b945094505050506125f8565b6040835114156125ef5760008060208501519150604085015190506125e4868383613424565b9350935050506125f8565b60006002915091505b9250929050565b60006004811115612613576126126154f1565b5b816004811115612626576126256154f1565b5b1415612631576127d1565b60016004811115612645576126446154f1565b5b816004811115612658576126576154f1565b5b1415612699576040517f08c379a00000000000000000000000000000000000000000000000000000000081526004016126909061556c565b60405180910390fd5b600260048111156126ad576126ac6154f1565b5b8160048111156126c0576126bf6154f1565b5b1415612701576040517f08c379a00000000000000000000000000000000000000000000000000000000081526004016126f8906155d8565b60405180910390fd5b60036004811115612715576127146154f1565b5b816004811115612728576127276154f1565b5b1415612769576040517f08c379a00000000000000000000000000000000000000000000000000000000081526004016127609061566a565b60405180910390fd5b60048081111561277c5761277b6154f1565b5b81600481111561278f5761278e6154f1565b5b14156127d0576040517f08c379a00000000000000000000000000000000000000000000000000000000081526004016127c7906156fc565b60405180910390fd5b5b50565b600073ffffffffffffffffffffffffffffffffffffffff168473ffffffffffffffffffffffffffffffffffffffff161415612844576040517f08c379a000000000000000000000000000000000000000000000000000000000815260040161283b9061578e565b60405180910390fd5b6128633360008661285487613472565b61285d87613472565b866134ec565b600061286d6124e2565b60000160008581526020019081526020016000209050828160008773ffffffffffffffffffffffffffffffffffffffff1673ffffffffffffffffffffffffffffffffffffffff16815260200190815260200160002060008282546128d191906157ae565b925050819055508473ffffffffffffffffffffffffffffffffffffffff16600073ffffffffffffffffffffffffffffffffffffffff163373ffffffffffffffffffffffffffffffffffffffff167fc3d58168c5ae7397731d063d5bbf3d657854427343f4c083240f7aacaa2d0f62878760405161294f929190615804565b60405180910390a45050505050565b61297d8473ffffffffffffffffffffffffffffffffffffffff16613502565b15612b2e578373ffffffffffffffffffffffffffffffffffffffff1663f23a6e6187878686866040518663ffffffff1660e01b81526004016129c3959493929190615882565b6020604051808303816000875af19250505080156129ff57506040513d601f19601f820116820180604052508101906129fc91906158f1565b60015b612aa557612a0b61592b565b806308c379a01415612a685750612a2061594d565b80612a2b5750612a6a565b806040517f08c379a0000000000000000000000000000000000000000000000000000000008152600401612a5f91906140cc565b60405180910390fd5b505b6040517f08c379a0000000000000000000000000000000000000000000000000000000008152600401612a9c90615a55565b60405180910390fd5b63f23a6e6160e01b7bffffffffffffffffffffffffffffffffffffffffffffffffffffffff1916817bffffffffffffffffffffffffffffffffffffffffffffffffffffffff191614612b2c576040517f08c379a0000000000000000000000000000000000000000000000000000000008152600401612b2390615ae7565b60405180910390fd5b505b505050505050565b600081600001805490509050919050565b600073ffffffffffffffffffffffffffffffffffffffff168473ffffffffffffffffffffffffffffffffffffffff161415612bb7576040517f08c379a0000000000000000000000000000000000000000000000000000000008152600401612bae90615b79565b60405180910390fd5b8151835114612bfb576040517f08c379a0000000000000000000000000000000000000000000000000000000008152600401612bf290615c0b565b60405180910390fd5b612c098686868686866134ec565b6000612c136124e2565b600001905060005b8451811015612dcb576000858281518110612c3957612c38614feb565b5b602002602001015190506000858381518110612c5857612c57614feb565b5b60200260200101519050600084600084815260200190815260200160002060008b73ffffffffffffffffffffffffffffffffffffffff1673ffffffffffffffffffffffffffffffffffffffff16815260200190815260200160002054905081811015612cf9576040517f08c379a0000000000000000000000000000000000000000000000000000000008152600401612cf090615c9d565b60405180910390fd5b81810385600085815260200190815260200160002060008c73ffffffffffffffffffffffffffffffffffffffff1673ffffffffffffffffffffffffffffffffffffffff16815260200190815260200160002081905550508084600084815260200190815260200160002060008a73ffffffffffffffffffffffffffffffffffffffff1673ffffffffffffffffffffffffffffffffffffffff1681526020019081526020016000206000828254612daf91906157ae565b9250508190555050508080612dc3906151f0565b915050612c1b565b508473ffffffffffffffffffffffffffffffffffffffff168673ffffffffffffffffffffffffffffffffffffffff168873ffffffffffffffffffffffffffffffffffffffff167f4a39dc06d4c0dbc64b70af90fd698a233a518aa5d07e595d983b8c0526c8f7fb8787604051612e42929190615cbd565b60405180910390a450505050505050565b612e728473ffffffffffffffffffffffffffffffffffffffff16613502565b15613023578373ffffffffffffffffffffffffffffffffffffffff1663bc197c8187878686866040518663ffffffff1660e01b8152600401612eb8959493929190615cf4565b6020604051808303816000875af1925050508015612ef457506040513d601f19601f82011682018060405250810190612ef191906158f1565b60015b612f9a57612f0061592b565b806308c379a01415612f5d5750612f1561594d565b80612f205750612f5f565b806040517f08c379a0000000000000000000000000000000000000000000000000000000008152600401612f5491906140cc565b60405180910390fd5b505b6040517f08c379a0000000000000000000000000000000000000000000000000000000008152600401612f9190615a55565b60405180910390fd5b63bc197c8160e01b7bffffffffffffffffffffffffffffffffffffffffffffffffffffffff1916817bffffffffffffffffffffffffffffffffffffffffffffffffffffffff191614613021576040517f08c379a000000000000000000000000000000000000000000000000000000000815260040161301890615ae7565b60405180910390fd5b505b505050505050565b600081836000018054905011613076576040517f08c379a000000000000000000000000000000000000000000000000000000000815260040161306d90615dce565b60405180910390fd5b82600001828154811061308c5761308b614feb565b5b9060005260206000200154905092915050565b600073ffffffffffffffffffffffffffffffffffffffff168473ffffffffffffffffffffffffffffffffffffffff16141561310f576040517f08c379a000000000000000000000000000000000000000000000000000000000815260040161310690615b79565b60405180910390fd5b61312d86868661311e87613472565b61312787613472565b866134ec565b60006131376124e2565b6000019050600081600086815260200190815260200160002060008873ffffffffffffffffffffffffffffffffffffffff1673ffffffffffffffffffffffffffffffffffffffff168152602001908152602001600020549050838110156131d3576040517f08c379a00000000000000000000000000000000000000000000000000000000081526004016131ca90615c9d565b60405180910390fd5b83810382600087815260200190815260200160002060008973ffffffffffffffffffffffffffffffffffffffff1673ffffffffffffffffffffffffffffffffffffffff16815260200190815260200160002081905550508281600086815260200190815260200160002060008773ffffffffffffffffffffffffffffffffffffffff1673ffffffffffffffffffffffffffffffffffffffff168152602001908152602001600020600082825461328991906157ae565b925050819055508473ffffffffffffffffffffffffffffffffffffffff168673ffffffffffffffffffffffffffffffffffffffff168873ffffffffffffffffffffffffffffffffffffffff167fc3d58168c5ae7397731d063d5bbf3d657854427343f4c083240f7aacaa2d0f628787604051613306929190615804565b60405180910390a450505050505050565b6000807f7fffffffffffffffffffffffffffffff5d576e7357a4501ddfe92f46681b20a08360001c111561335257600060039150915061341b565b601b8560ff161415801561336a5750601c8560ff1614155b1561337c57600060049150915061341b565b6000600187878787604051600081526020016040526040516133a19493929190615e19565b6020604051602081039080840390855afa1580156133c3573d6000803e3d6000fd5b505050602060405103519050600073ffffffffffffffffffffffffffffffffffffffff168173ffffffffffffffffffffffffffffffffffffffff1614156134125760006001925092505061341b565b80600092509250505b94509492505050565b6000806000807f7fffffffffffffffffffffffffffffffffffffffffffffffffffffffffffffff85169150601b8560ff1c01905061346487828885613317565b935093505050935093915050565b60606000600167ffffffffffffffff81111561349157613490613cb2565b5b6040519080825280602002602001820160405280156134bf5781602001602082028036833780820191505090505b50905082816000815181106134d7576134d6614feb565b5b60200260200101818152505080915050919050565b6134fa868686868686613515565b505050505050565b600080823b905060008111915050919050565b61352386868686868661352b565b505050505050565b6135398686868686866137e6565b8373ffffffffffffffffffffffffffffffffffffffff168573ffffffffffffffffffffffffffffffffffffffff16146137de57600061357661247c565b9050600081600101905060008260020160008973ffffffffffffffffffffffffffffffffffffffff1673ffffffffffffffffffffffffffffffffffffffff168152602001908152602001600020905060008360020160008973ffffffffffffffffffffffffffffffffffffffff1673ffffffffffffffffffffffffffffffffffffffff168152602001908152602001600020905060005b87518110156137d857600087828151811061362b5761362a614feb565b5b6020026020010151905060008111156137c457600089838151811061365357613652614feb565b5b60200260200101519050600073ffffffffffffffffffffffffffffffffffffffff168c73ffffffffffffffffffffffffffffffffffffffff1614156136c3578187600001600083815260200190815260200160002060008282546136b791906157ae565b9250508190555061370f565b816136ce8d83612100565b141561370e576136f88c8760008481526020019081526020016000206137ee90919063ffffffff16565b5061370c818661381e90919063ffffffff16565b505b5b600073ffffffffffffffffffffffffffffffffffffffff168b73ffffffffffffffffffffffffffffffffffffffff1614156137755781876000016000838152602001908152602001600020600082825461376991906148c5565b925050819055506137c2565b60006137818c83612100565b14156137c1576137ab8b87600084815260200190815260200160002061383890919063ffffffff16565b506137bf818561386890919063ffffffff16565b505b5b505b5080806137d0906151f0565b91505061360d565b50505050505b505050505050565b505050505050565b6000613816836000018373ffffffffffffffffffffffffffffffffffffffff1660001b613882565b905092915050565b6000613830836000018360001b613882565b905092915050565b6000613860836000018373ffffffffffffffffffffffffffffffffffffffff1660001b613994565b905092915050565b600061387a836000018360001b613994565b905092915050565b600080836001016000848152602001908152602001600020549050600081146139885760006001826138b491906148c5565b9050600085600001600187600001805490506138d091906148c5565b815481106138e1576138e0614feb565b5b906000526020600020015490508086600001838154811061390557613904614feb565b5b906000526020600020018190555060018261392091906157ae565b866001016000838152602001908152602001600020819055508560000180548061394d5761394c615e5e565b5b60019003818190600052602060002001600090559055856001016000868152602001908152602001600020600090556001935050505061398e565b60009150505b92915050565b60006139a08383613a04565b6139f95782600001829080600181540180825580915050600190039060005260206000200160009091909190915055826000018054905083600101600084815260200190815260200160002081905550600190506139fe565b600090505b92915050565b600080836001016000848152602001908152602001600020541415905092915050565b828054613a3390614c99565b90600052602060002090601f016020900481019282613a555760008555613a9c565b82601f10613a6e57805160ff1916838001178555613a9c565b82800160010185558215613a9c579182015b82811115613a9b578251825591602001919060010190613a80565b5b509050613aa99190613aad565b5090565b5b80821115613ac6576000816000905550600101613aae565b5090565b6000604051905090565b600080fd5b600080fd5b600073ffffffffffffffffffffffffffffffffffffffff82169050919050565b6000613b0982613ade565b9050919050565b613b1981613afe565b8114613b2457600080fd5b50565b600081359050613b3681613b10565b92915050565b6000819050919050565b613b4f81613b3c565b8114613b5a57600080fd5b50565b600081359050613b6c81613b46565b92915050565b60008060408385031215613b8957613b88613ad4565b5b6000613b9785828601613b27565b9250506020613ba885828601613b5d565b9150509250929050565b613bbb81613b3c565b82525050565b6000602082019050613bd66000830184613bb2565b92915050565b60007fffffffff0000000000000000000000000000000000000000000000000000000082169050919050565b613c1181613bdc565b8114613c1c57600080fd5b50565b600081359050613c2e81613c08565b92915050565b600060208284031215613c4a57613c49613ad4565b5b6000613c5884828501613c1f565b91505092915050565b60008115159050919050565b613c7681613c61565b82525050565b6000602082019050613c916000830184613c6d565b92915050565b600080fd5b600080fd5b6000601f19601f8301169050919050565b7f4e487b7100000000000000000000000000000000000000000000000000000000600052604160045260246000fd5b613cea82613ca1565b810181811067ffffffffffffffff82111715613d0957613d08613cb2565b5b80604052505050565b6000613d1c613aca565b9050613d288282613ce1565b919050565b600067ffffffffffffffff821115613d4857613d47613cb2565b5b613d5182613ca1565b9050602081019050919050565b82818337600083830152505050565b6000613d80613d7b84613d2d565b613d12565b905082815260208101848484011115613d9c57613d9b613c9c565b5b613da7848285613d5e565b509392505050565b600082601f830112613dc457613dc3613c97565b5b8135613dd4848260208601613d6d565b91505092915050565b600067ffffffffffffffff821115613df857613df7613cb2565b5b613e0182613ca1565b9050602081019050919050565b6000613e21613e1c84613ddd565b613d12565b905082815260208101848484011115613e3d57613e3c613c9c565b5b613e48848285613d5e565b509392505050565b600082601f830112613e6557613e64613c97565b5b8135613e75848260208601613e0e565b91505092915050565b60008060008060008060008060006101208a8c031215613ea157613ea0613ad4565b5b60008a013567ffffffffffffffff811115613ebf57613ebe613ad9565b5b613ecb8c828d01613daf565b9950506020613edc8c828d01613b5d565b9850506040613eed8c828d01613b5d565b9750506060613efe8c828d01613b5d565b9650506080613f0f8c828d01613b5d565b95505060a0613f208c828d01613b5d565b94505060c0613f318c828d01613b5d565b93505060e0613f428c828d01613b5d565b9250506101008a013567ffffffffffffffff811115613f6457613f63613ad9565b5b613f708c828d01613e50565b9150509295985092959850929598565b600080600080600060a08688031215613f9c57613f9b613ad4565b5b600086013567ffffffffffffffff811115613fba57613fb9613ad9565b5b613fc688828901613daf565b9550506020613fd788828901613b27565b9450506040613fe888828901613b27565b9350506060613ff988828901613b27565b925050608061400a88828901613b27565b9150509295509295909350565b60006020828403121561402d5761402c613ad4565b5b600061403b84828501613b5d565b91505092915050565b600081519050919050565b600082825260208201905092915050565b60005b8381101561407e578082015181840152602081019050614063565b8381111561408d576000848401525b50505050565b600061409e82614044565b6140a8818561404f565b93506140b8818560208601614060565b6140c181613ca1565b840191505092915050565b600060208201905081810360008301526140e68184614093565b905092915050565b60006020828403121561410457614103613ad4565b5b600061411284828501613b27565b91505092915050565b600067ffffffffffffffff82111561413657614135613cb2565b5b602082029050602081019050919050565b600080fd5b600061415f61415a8461411b565b613d12565b9050808382526020820190506020840283018581111561418257614181614147565b5b835b818110156141ab57806141978882613b5d565b845260208401935050602081019050614184565b5050509392505050565b600082601f8301126141ca576141c9613c97565b5b81356141da84826020860161414c565b91505092915050565b600080600080600060a086880312156141ff576141fe613ad4565b5b600061420d88828901613b27565b955050602061421e88828901613b27565b945050604086013567ffffffffffffffff81111561423f5761423e613ad9565b5b61424b888289016141b5565b935050606086013567ffffffffffffffff81111561426c5761426b613ad9565b5b614278888289016141b5565b925050608086013567ffffffffffffffff81111561429957614298613ad9565b5b6142a588828901613e50565b9150509295509295909350565b6000806000606084860312156142cb576142ca613ad4565b5b60006142d986828701613b5d565b93505060206142ea86828701613b27565b92505060406142fb86828701613b5d565b9150509250925092565b61430e81613afe565b82525050565b60006020820190506143296000830184614305565b92915050565b600067ffffffffffffffff82111561434a57614349613cb2565b5b602082029050602081019050919050565b600061436e6143698461432f565b613d12565b9050808382526020820190506020840283018581111561439157614390614147565b5b835b818110156143ba57806143a68882613b27565b845260208401935050602081019050614393565b5050509392505050565b600082601f8301126143d9576143d8613c97565b5b81356143e984826020860161435b565b91505092915050565b6000806040838503121561440957614408613ad4565b5b600083013567ffffffffffffffff81111561442757614426613ad9565b5b614433858286016143c4565b925050602083013567ffffffffffffffff81111561445457614453613ad9565b5b614460858286016141b5565b9150509250929050565b600081519050919050565b600082825260208201905092915050565b6000819050602082019050919050565b61449f81613b3c565b82525050565b60006144b18383614496565b60208301905092915050565b6000602082019050919050565b60006144d58261446a565b6144df8185614475565b93506144ea83614486565b8060005b8381101561451b57815161450288826144a5565b975061450d836144bd565b9250506001810190506144ee565b5085935050505092915050565b6000602082019050818103600083015261454281846144ca565b905092915050565b600061012082019050614560600083018c613bb2565b61456d602083018b613bb2565b61457a604083018a613bb2565b6145876060830189613bb2565b6145946080830188613bb2565b6145a160a0830187613bb2565b6145ae60c0830186613bb2565b6145bb60e0830185614305565b6145c9610100830184613bb2565b9a9950505050505050505050565b600081519050919050565b600082825260208201905092915050565b6000819050602082019050919050565b61460c81613afe565b82525050565b600061461e8383614603565b60208301905092915050565b6000602082019050919050565b6000614642826145d7565b61464c81856145e2565b9350614657836145f3565b8060005b8381101561468857815161466f8882614612565b975061467a8361462a565b92505060018101905061465b565b5085935050505092915050565b600060208201905081810360008301526146af8184614637565b905092915050565b6146c081613c61565b81146146cb57600080fd5b50565b6000813590506146dd816146b7565b92915050565b600080604083850312156146fa576146f9613ad4565b5b600061470885828601613b27565b9250506020614719858286016146ce565b9150509250929050565b6000806040838503121561473a57614739613ad4565b5b600061474885828601613b5d565b925050602061475985828601613b27565b9150509250929050565b6000806040838503121561477a57614779613ad4565b5b600061478885828601613b5d565b925050602083013567ffffffffffffffff8111156147a9576147a8613ad9565b5b6147b585828601613e50565b9150509250929050565b600080604083850312156147d6576147d5613ad4565b5b60006147e485828601613b27565b92505060206147f585828601613b27565b9150509250929050565b600080600080600060a0868803121561481b5761481a613ad4565b5b600061482988828901613b27565b955050602061483a88828901613b27565b945050604061484b88828901613b5d565b935050606061485c88828901613b5d565b925050608086013567ffffffffffffffff81111561487d5761487c613ad9565b5b61488988828901613e50565b9150509295509295909350565b7f4e487b7100000000000000000000000000000000000000000000000000000000600052601160045260246000fd5b60006148d082613b3c565b91506148db83613b3c565b9250828210156148ee576148ed614896565b5b828203905092915050565b7f4954000000000000000000000000000000000000000000000000000000000000600082015250565b600061492f60028361404f565b915061493a826148f9565b602082019050919050565b6000602082019050818103600083015261495e81614922565b9050919050565b7f4950000000000000000000000000000000000000000000000000000000000000600082015250565b600061499b60028361404f565b91506149a682614965565b602082019050919050565b600060208201905081810360008301526149ca8161498e565b9050919050565b7f49534f0000000000000000000000000000000000000000000000000000000000600082015250565b6000614a0760038361404f565b9150614a12826149d1565b602082019050919050565b60006020820190508181036000830152614a36816149fa565b9050919050565b600081905092915050565b6000614a5382614044565b614a5d8185614a3d565b9350614a6d818560208601614060565b80840191505092915050565b6000819050919050565b614a94614a8f82613b3c565b614a79565b82525050565b60008160601b9050919050565b6000614ab282614a9a565b9050919050565b6000614ac482614aa7565b9050919050565b614adc614ad782613afe565b614ab9565b82525050565b6000614aee828d614a48565b9150614afa828c614a83565b602082019150614b0a828b614a83565b602082019150614b1a828a614a83565b602082019150614b2a8289614a83565b602082019150614b3a8288614a83565b602082019150614b4a8287614a83565b602082019150614b5a8286614a83565b602082019150614b6a8285614acb565b601482019150614b7a8284614a83565b6020820191508190509b9a5050505050505050505050565b7f4e4d000000000000000000000000000000000000000000000000000000000000600082015250565b6000614bc860028361404f565b9150614bd382614b92565b602082019050919050565b60006020820190508181036000830152614bf781614bbb565b9050919050565b7f4e4f000000000000000000000000000000000000000000000000000000000000600082015250565b6000614c3460028361404f565b9150614c3f82614bfe565b602082019050919050565b60006020820190508181036000830152614c6381614c27565b9050919050565b7f4e487b7100000000000000000000000000000000000000000000000000000000600052602260045260246000fd5b60006002820490506001821680614cb157607f821691505b60208210811415614cc557614cc4614c6a565b5b50919050565b7f455243313135355552493a20746f6b656e4964206e6f74206578697374000000600082015250565b6000614d01601d8361404f565b9150614d0c82614ccb565b602082019050919050565b60006020820190508181036000830152614d3081614cf4565b9050919050565b60008190508160005260206000209050919050565b60008154614d5981614c99565b614d638186614a3d565b94506001821660008114614d7e5760018114614d8f57614dc2565b60ff19831686528186019350614dc2565b614d9885614d37565b60005b83811015614dba57815481890152600182019150602081019050614d9b565b838801955050505b50505092915050565b6000614dd78285614d4c565b9150614de38284614a48565b91508190509392505050565b7f455243313135353a2063616c6c6572206973206e6f74206f776e6572206e6f7260008201527f20617070726f7665640000000000000000000000000000000000000000000000602082015250565b6000614e4b60298361404f565b9150614e5682614def565b604082019050919050565b60006020820190508181036000830152614e7a81614e3e565b9050919050565b7f4941000000000000000000000000000000000000000000000000000000000000600082015250565b6000614eb760028361404f565b9150614ec282614e81565b602082019050919050565b60006020820190508181036000830152614ee681614eaa565b9050919050565b7f4953000000000000000000000000000000000000000000000000000000000000600082015250565b6000614f2360028361404f565b9150614f2e82614eed565b602082019050919050565b60006020820190508181036000830152614f5281614f16565b9050919050565b7f455243313135353a206163636f756e747320616e6420696473206c656e67746860008201527f206d69736d617463680000000000000000000000000000000000000000000000602082015250565b6000614fb560298361404f565b9150614fc082614f59565b604082019050919050565b60006020820190508181036000830152614fe481614fa8565b9050919050565b7f4e487b7100000000000000000000000000000000000000000000000000000000600052603260045260246000fd5b7f455243313135353a2062617463682062616c616e636520717565727920666f7260008201527f20746865207a65726f2061646472657373000000000000000000000000000000602082015250565b600061507660318361404f565b91506150818261501a565b604082019050919050565b600060208201905081810360008301526150a581615069565b9050919050565b7f444e450000000000000000000000000000000000000000000000000000000000600082015250565b60006150e260038361404f565b91506150ed826150ac565b602082019050919050565b60006020820190508181036000830152615111816150d5565b9050919050565b7f4352000000000000000000000000000000000000000000000000000000000000600082015250565b600061514e60028361404f565b915061515982615118565b602082019050919050565b6000602082019050818103600083015261517d81615141565b9050919050565b7f4f4f540000000000000000000000000000000000000000000000000000000000600082015250565b60006151ba60038361404f565b91506151c582615184565b602082019050919050565b600060208201905081810360008301526151e9816151ad565b9050919050565b60006151fb82613b3c565b91507fffffffffffffffffffffffffffffffffffffffffffffffffffffffffffffffff82141561522e5761522d614896565b5b600182019050919050565b7f455243313135353a2073657474696e6720617070726f76616c2073746174757360008201527f20666f722073656c660000000000000000000000000000000000000000000000602082015250565b600061529560298361404f565b91506152a082615239565b604082019050919050565b600060208201905081810360008301526152c481615288565b9050919050565b60006152d682613b3c565b91506152e183613b3c565b9250817fffffffffffffffffffffffffffffffffffffffffffffffffffffffffffffffff048311821515161561531a57615319614896565b5b828202905092915050565b7f4e487b7100000000000000000000000000000000000000000000000000000000600052601260045260246000fd5b600061535f82613b3c565b915061536a83613b3c565b92508261537a57615379615325565b5b828204905092915050565b60006153918286614a83565b6020820191506153a18285614acb565b6014820191506153b18284614a83565b602082019150819050949350505050565b7f455243313135353a2062616c616e636520717565727920666f7220746865207a60008201527f65726f2061646472657373000000000000000000000000000000000000000000602082015250565b600061541e602b8361404f565b9150615429826153c2565b604082019050919050565b6000602082019050818103600083015261544d81615411565b9050919050565b7f19457468657265756d205369676e6564204d6573736167653a0a333200000000600082015250565b600061548a601c83614a3d565b915061549582615454565b601c82019050919050565b6000819050919050565b6000819050919050565b6154c56154c0826154a0565b6154aa565b82525050565b60006154d68261547d565b91506154e282846154b4565b60208201915081905092915050565b7f4e487b7100000000000000000000000000000000000000000000000000000000600052602160045260246000fd5b7f45434453413a20696e76616c6964207369676e61747572650000000000000000600082015250565b600061555660188361404f565b915061556182615520565b602082019050919050565b6000602082019050818103600083015261558581615549565b9050919050565b7f45434453413a20696e76616c6964207369676e6174757265206c656e67746800600082015250565b60006155c2601f8361404f565b91506155cd8261558c565b602082019050919050565b600060208201905081810360008301526155f1816155b5565b9050919050565b7f45434453413a20696e76616c6964207369676e6174757265202773272076616c60008201527f7565000000000000000000000000000000000000000000000000000000000000602082015250565b600061565460228361404f565b915061565f826155f8565b604082019050919050565b6000602082019050818103600083015261568381615647565b9050919050565b7f45434453413a20696e76616c6964207369676e6174757265202776272076616c60008201527f7565000000000000000000000000000000000000000000000000000000000000602082015250565b60006156e660228361404f565b91506156f18261568a565b604082019050919050565b60006020820190508181036000830152615715816156d9565b9050919050565b7f455243313135353a206d696e7420746f20746865207a65726f2061646472657360008201527f7300000000000000000000000000000000000000000000000000000000000000602082015250565b600061577860218361404f565b91506157838261571c565b604082019050919050565b600060208201905081810360008301526157a78161576b565b9050919050565b60006157b982613b3c565b91506157c483613b3c565b9250827fffffffffffffffffffffffffffffffffffffffffffffffffffffffffffffffff038211156157f9576157f8614896565b5b828201905092915050565b60006040820190506158196000830185613bb2565b6158266020830184613bb2565b9392505050565b600081519050919050565b600082825260208201905092915050565b60006158548261582d565b61585e8185615838565b935061586e818560208601614060565b61587781613ca1565b840191505092915050565b600060a0820190506158976000830188614305565b6158a46020830187614305565b6158b16040830186613bb2565b6158be6060830185613bb2565b81810360808301526158d08184615849565b90509695505050505050565b6000815190506158eb81613c08565b92915050565b60006020828403121561590757615906613ad4565b5b6000615915848285016158dc565b91505092915050565b60008160e01c9050919050565b600060033d111561594a5760046000803e61594760005161591e565b90505b90565b600060443d101561595d576159e0565b615965613aca565b60043d036004823e80513d602482011167ffffffffffffffff8211171561598d5750506159e0565b808201805167ffffffffffffffff8111156159ab57505050506159e0565b80602083010160043d0385018111156159c85750505050506159e0565b6159d782602001850186613ce1565b82955050505050505b90565b7f455243313135353a207472616e7366657220746f206e6f6e204552433131353560008201527f526563656976657220696d706c656d656e746572000000000000000000000000602082015250565b6000615a3f60348361404f565b9150615a4a826159e3565b604082019050919050565b60006020820190508181036000830152615a6e81615a32565b9050919050565b7f455243313135353a204552433131353552656365697665722072656a6563746560008201527f6420746f6b656e73000000000000000000000000000000000000000000000000602082015250565b6000615ad160288361404f565b9150615adc82615a75565b604082019050919050565b60006020820190508181036000830152615b0081615ac4565b9050919050565b7f455243313135353a207472616e7366657220746f20746865207a65726f20616460008201527f6472657373000000000000000000000000000000000000000000000000000000602082015250565b6000615b6360258361404f565b9150615b6e82615b07565b604082019050919050565b60006020820190508181036000830152615b9281615b56565b9050919050565b7f455243313135353a2069647320616e6420616d6f756e7473206c656e6774682060008201527f6d69736d61746368000000000000000000000000000000000000000000000000602082015250565b6000615bf560288361404f565b9150615c0082615b99565b604082019050919050565b60006020820190508181036000830152615c2481615be8565b9050919050565b7f455243313135353a20696e73756666696369656e742062616c616e636573206660008201527f6f72207472616e73666572000000000000000000000000000000000000000000602082015250565b6000615c87602b8361404f565b9150615c9282615c2b565b604082019050919050565b60006020820190508181036000830152615cb681615c7a565b9050919050565b60006040820190508181036000830152615cd781856144ca565b90508181036020830152615ceb81846144ca565b90509392505050565b600060a082019050615d096000830188614305565b615d166020830187614305565b8181036040830152615d2881866144ca565b90508181036060830152615d3c81856144ca565b90508181036080830152615d508184615849565b90509695505050505050565b7f456e756d657261626c655365743a20696e646578206f7574206f6620626f756e60008201527f6473000000000000000000000000000000000000000000000000000000000000602082015250565b6000615db860228361404f565b9150615dc382615d5c565b604082019050919050565b60006020820190508181036000830152615de781615dab565b9050919050565b615df7816154a0565b82525050565b600060ff82169050919050565b615e1381615dfd565b82525050565b6000608082019050615e2e6000830187615dee565b615e3b6020830186615e0a565b615e486040830185615dee565b615e556060830184615dee565b95945050505050565b7f4e487b7100000000000000000000000000000000000000000000000000000000600052603160045260246000fdfea2646970667358221220795f144714327d11d2deae6cb29a60d3960178a7a3a3f644ebabaed51403901264736f6c634300080a0033",
  "devdoc": {
    "kind": "dev",
    "methods": {
      "accountsByToken(uint256)": {
        "params": {
          "id": "token id to query"
        },
        "returns": {
          "_0": "list of holder addresses"
        }
      },
      "balanceOf(address,uint256)": {
        "params": {
          "account": "address to query",
          "id": "token to query"
        },
        "returns": {
          "_0": "token balance"
        }
      },
      "balanceOfBatch(address[],uint256[])": {
        "params": {
          "accounts": "addresss to query",
          "ids": "tokens to query"
        },
        "returns": {
          "_0": "token balances"
        }
      },
      "isApprovedForAll(address,address)": {
        "params": {
          "account": "address to query for approval granted",
          "operator": "address to query for approval received"
        },
        "returns": {
          "_0": "whether operator is approved to spend tokens held by account"
        }
      },
      "safeBatchTransferFrom(address,address,uint256[],uint256[],bytes)": {
        "params": {
          "amounts": "list of quantities of tokens to transfer",
          "data": "data payload",
          "from": "sender of tokens",
          "ids": "list of token IDs",
          "to": "receiver of tokens"
        }
      },
      "safeTransferFrom(address,address,uint256,uint256,bytes)": {
        "params": {
          "amount": "quantity of tokens to transfer",
          "data": "data payload",
          "from": "sender of tokens",
          "id": "token ID",
          "to": "receiver of tokens"
        }
      },
      "setApprovalForAll(address,bool)": {
        "params": {
          "operator": "address whose approval status to update",
          "status": "whether operator should be considered approved"
        }
      },
      "supportsInterface(bytes4)": {
        "params": {
          "interfaceId": "interface id"
        },
        "returns": {
          "_0": "bool whether interface is supported"
        }
      },
      "tokensByAccount(address)": {
        "params": {
          "account": "address to query"
        },
        "returns": {
          "_0": "list of token ids"
        }
      },
      "totalHolders(uint256)": {
        "params": {
          "id": "token id to query"
        },
        "returns": {
          "_0": "quantity of holders"
        }
      },
      "totalSupply(uint256)": {
        "params": {
          "id": "token id to query"
        },
        "returns": {
          "_0": "token supply"
        }
      }
    },
    "version": 1
  },
  "userdoc": {
    "kind": "user",
    "methods": {
      "accountsByToken(uint256)": {
        "notice": "query holders of given token"
      },
      "balanceOf(address,uint256)": {
        "notice": "query the balance of given token held by given address"
      },
      "balanceOfBatch(address[],uint256[])": {
        "notice": "query the balances of given tokens held by given addresses"
      },
      "isApprovedForAll(address,address)": {
        "notice": "query approval status of given operator with respect to given address"
      },
      "safeBatchTransferFrom(address,address,uint256[],uint256[],bytes)": {
        "notice": "transfer batch of tokens between given addresses, checking for ERC1155Receiver implementation if applicable"
      },
      "safeTransferFrom(address,address,uint256,uint256,bytes)": {
        "notice": "transfer tokens between given addresses, checking for ERC1155Receiver implementation if applicable"
      },
      "setApprovalForAll(address,bool)": {
        "notice": "grant approval to or revoke approval from given operator to spend held tokens"
      },
      "supportsInterface(bytes4)": {
        "notice": "query whether contract has registered support for given interface"
      },
      "tokensByAccount(address)": {
        "notice": "query tokens held by given address"
      },
      "totalHolders(uint256)": {
        "notice": "query total number of holders for given token"
      },
      "totalSupply(uint256)": {
        "notice": "query total minted supply of given token"
      }
    },
    "version": 1
  },
  "storageLayout": {
    "storage": [],
    "types": null
  }
}