{
  "address": "0x0d84BF4A82DC7771c09c37BAcF5B7DD6a37d50Ae",
  "abi": [
    {
      "anonymous": false,
      "inputs": [
        {
          "indexed": true,
          "internalType": "address",
          "name": "account",
          "type": "address"
        },
        {
          "indexed": true,
          "internalType": "address",
          "name": "operator",
          "type": "address"
        },
        {
          "indexed": false,
          "internalType": "bool",
          "name": "approved",
          "type": "bool"
        }
      ],
      "name": "ApprovalForAll",
      "type": "event"
    },
    {
      "anonymous": false,
      "inputs": [
        {
          "indexed": true,
          "internalType": "address",
          "name": "account",
          "type": "address"
        },
        {
          "indexed": true,
          "internalType": "uint256",
          "name": "tokenId",
          "type": "uint256"
        }
      ],
      "name": "DestinationMinted",
      "type": "event"
    },
    {
      "anonymous": false,
      "inputs": [
        {
          "indexed": true,
          "internalType": "address",
          "name": "account",
          "type": "address"
        },
        {
          "indexed": true,
          "internalType": "uint256",
          "name": "tokenId",
          "type": "uint256"
        },
        {
          "indexed": true,
          "internalType": "uint256",
          "name": "amount",
          "type": "uint256"
        }
      ],
      "name": "Minted",
      "type": "event"
    },
    {
      "anonymous": false,
      "inputs": [
        {
          "indexed": true,
          "internalType": "address",
          "name": "operator",
          "type": "address"
        },
        {
          "indexed": true,
          "internalType": "address",
          "name": "from",
          "type": "address"
        },
        {
          "indexed": true,
          "internalType": "address",
          "name": "to",
          "type": "address"
        },
        {
          "indexed": false,
          "internalType": "uint256[]",
          "name": "ids",
          "type": "uint256[]"
        },
        {
          "indexed": false,
          "internalType": "uint256[]",
          "name": "values",
          "type": "uint256[]"
        }
      ],
      "name": "TransferBatch",
      "type": "event"
    },
    {
      "anonymous": false,
      "inputs": [
        {
          "indexed": true,
          "internalType": "address",
          "name": "operator",
          "type": "address"
        },
        {
          "indexed": true,
          "internalType": "address",
          "name": "from",
          "type": "address"
        },
        {
          "indexed": true,
          "internalType": "address",
          "name": "to",
          "type": "address"
        },
        {
          "indexed": false,
          "internalType": "uint256",
          "name": "id",
          "type": "uint256"
        },
        {
          "indexed": false,
          "internalType": "uint256",
          "name": "value",
          "type": "uint256"
        }
      ],
      "name": "TransferSingle",
      "type": "event"
    },
    {
      "anonymous": false,
      "inputs": [
        {
          "indexed": false,
          "internalType": "string",
          "name": "value",
          "type": "string"
        },
        {
          "indexed": true,
          "internalType": "uint256",
          "name": "id",
          "type": "uint256"
        }
      ],
      "name": "URI",
      "type": "event"
    },
    {
      "inputs": [
        {
          "internalType": "address",
          "name": "account",
          "type": "address"
        },
        {
          "internalType": "uint256",
          "name": "id",
          "type": "uint256"
        }
      ],
      "name": "balanceOf",
      "outputs": [
        {
          "internalType": "uint256",
          "name": "",
          "type": "uint256"
        }
      ],
      "stateMutability": "view",
      "type": "function"
    },
    {
      "inputs": [
        {
          "internalType": "address[]",
          "name": "accounts",
          "type": "address[]"
        },
        {
          "internalType": "uint256[]",
          "name": "ids",
          "type": "uint256[]"
        }
      ],
      "name": "balanceOfBatch",
      "outputs": [
        {
          "internalType": "uint256[]",
          "name": "",
          "type": "uint256[]"
        }
      ],
      "stateMutability": "view",
      "type": "function"
    },
    {
      "inputs": [
        {
          "internalType": "uint256",
          "name": "_tokenId",
          "type": "uint256"
        }
      ],
      "name": "getDrop",
      "outputs": [
        {
          "components": [
            {
              "internalType": "uint256",
              "name": "timeStart",
              "type": "uint256"
            },
            {
              "internalType": "uint256",
              "name": "timeEnd",
              "type": "uint256"
            },
            {
              "internalType": "uint256",
              "name": "shareCyber",
              "type": "uint256"
            },
            {
              "internalType": "uint256",
              "name": "price",
              "type": "uint256"
            },
            {
              "internalType": "uint256",
              "name": "amountCap",
              "type": "uint256"
            },
            {
              "internalType": "uint256",
              "name": "minted",
              "type": "uint256"
            },
            {
              "internalType": "address payable",
              "name": "creator",
              "type": "address"
            }
          ],
          "internalType": "struct LibUtilityStorage.Drop",
          "name": "",
          "type": "tuple"
        }
      ],
      "stateMutability": "view",
      "type": "function"
    },
    {
      "inputs": [
        {
          "internalType": "string",
          "name": "_uri",
          "type": "string"
        },
        {
          "internalType": "address",
          "name": "_manager",
          "type": "address"
        },
        {
          "internalType": "address",
          "name": "_trustedForwarder",
          "type": "address"
        },
        {
          "internalType": "address",
          "name": "_opensea",
          "type": "address"
        },
        {
          "internalType": "address",
          "name": "_oncyber",
          "type": "address"
        }
      ],
      "name": "initialize",
      "outputs": [],
      "stateMutability": "nonpayable",
      "type": "function"
    },
    {
      "inputs": [
        {
          "internalType": "address",
          "name": "account",
          "type": "address"
        },
        {
          "internalType": "address",
          "name": "operator",
          "type": "address"
        }
      ],
      "name": "isApprovedForAll",
      "outputs": [
        {
          "internalType": "bool",
          "name": "",
          "type": "bool"
        }
      ],
      "stateMutability": "view",
      "type": "function"
    },
    {
      "inputs": [
        {
          "internalType": "address",
          "name": "forwarder",
          "type": "address"
        }
      ],
      "name": "isTrustedForwarder",
      "outputs": [
        {
          "internalType": "bool",
          "name": "",
          "type": "bool"
        }
      ],
      "stateMutability": "view",
      "type": "function"
    },
    {
      "inputs": [],
      "name": "manager",
      "outputs": [
        {
          "internalType": "address",
          "name": "",
          "type": "address"
        }
      ],
      "stateMutability": "view",
      "type": "function"
    },
    {
      "inputs": [
        {
          "internalType": "string",
          "name": "_uri",
          "type": "string"
        },
        {
          "internalType": "uint256",
          "name": "_timeStart",
          "type": "uint256"
        },
        {
          "internalType": "uint256",
          "name": "_timeEnd",
          "type": "uint256"
        },
        {
          "internalType": "uint256",
          "name": "_price",
          "type": "uint256"
        },
        {
          "internalType": "uint256",
          "name": "_amountCap",
          "type": "uint256"
        },
        {
          "internalType": "uint256",
          "name": "_shareCyber",
          "type": "uint256"
        },
        {
          "internalType": "bytes",
          "name": "_signature",
          "type": "bytes"
        }
      ],
      "name": "mint",
      "outputs": [
        {
          "internalType": "uint256",
          "name": "_tokenId",
          "type": "uint256"
        }
      ],
      "stateMutability": "nonpayable",
      "type": "function"
    },
    {
      "inputs": [
        {
          "internalType": "uint256",
          "name": "_tokenId",
          "type": "uint256"
        }
      ],
      "name": "mintEdition",
      "outputs": [
        {
          "internalType": "bool",
          "name": "",
          "type": "bool"
        }
      ],
      "stateMutability": "payable",
      "type": "function"
    },
    {
      "inputs": [
        {
          "internalType": "address",
          "name": "_minter",
          "type": "address"
        }
      ],
      "name": "minterNonce",
      "outputs": [
        {
          "internalType": "uint256",
          "name": "",
          "type": "uint256"
        }
      ],
      "stateMutability": "view",
      "type": "function"
    },
    {
      "inputs": [],
      "name": "oncyber",
      "outputs": [
        {
          "internalType": "address",
          "name": "",
          "type": "address"
        }
      ],
      "stateMutability": "view",
      "type": "function"
    },
    {
      "inputs": [
        {
          "internalType": "address",
          "name": "from",
          "type": "address"
        },
        {
          "internalType": "address",
          "name": "to",
          "type": "address"
        },
        {
          "internalType": "uint256[]",
          "name": "ids",
          "type": "uint256[]"
        },
        {
          "internalType": "uint256[]",
          "name": "amounts",
          "type": "uint256[]"
        },
        {
          "internalType": "bytes",
          "name": "data",
          "type": "bytes"
        }
      ],
      "name": "safeBatchTransferFrom",
      "outputs": [],
      "stateMutability": "nonpayable",
      "type": "function"
    },
    {
      "inputs": [
        {
          "internalType": "address",
          "name": "from",
          "type": "address"
        },
        {
          "internalType": "address",
          "name": "to",
          "type": "address"
        },
        {
          "internalType": "uint256",
          "name": "id",
          "type": "uint256"
        },
        {
          "internalType": "uint256",
          "name": "amount",
          "type": "uint256"
        },
        {
          "internalType": "bytes",
          "name": "data",
          "type": "bytes"
        }
      ],
      "name": "safeTransferFrom",
      "outputs": [],
      "stateMutability": "nonpayable",
      "type": "function"
    },
    {
      "inputs": [
        {
          "internalType": "address",
          "name": "operator",
          "type": "address"
        },
        {
          "internalType": "bool",
          "name": "status",
          "type": "bool"
        }
      ],
      "name": "setApprovalForAll",
      "outputs": [],
      "stateMutability": "nonpayable",
      "type": "function"
    },
    {
      "inputs": [
        {
          "internalType": "bytes4",
          "name": "interfaceId",
          "type": "bytes4"
        }
      ],
      "name": "supportsInterface",
      "outputs": [
        {
          "internalType": "bool",
          "name": "",
          "type": "bool"
        }
      ],
      "stateMutability": "view",
      "type": "function"
    },
    {
      "inputs": [],
      "name": "totalSupply",
      "outputs": [
        {
          "internalType": "uint256",
          "name": "",
          "type": "uint256"
        }
      ],
      "stateMutability": "view",
      "type": "function"
    },
    {
      "inputs": [
        {
          "internalType": "uint256",
          "name": "_tokenId",
          "type": "uint256"
        }
      ],
      "name": "uri",
      "outputs": [
        {
          "internalType": "string",
          "name": "",
          "type": "string"
        }
      ],
      "stateMutability": "view",
      "type": "function"
    }
  ],
  "transactionHash": "0xd17df1a160cd2e0a71c88919376ed1affbef09a19cf709b32ec2d77b2df8725b",
  "args": [],
  "solcInputHash": "ffb0188ae154eada5b6125af779bdf4e",
  "bytecode": "0x608060405234801561001057600080fd5b5061297c806100206000396000f3fe6080604052600436106100fd5760003560e01c8063481c6a7511610095578063a22cb46511610064578063a22cb46514610350578063bc01188e14610370578063dcf2cad4146103ad578063e985e9c5146103cd578063f242432a146103ed57600080fd5b8063481c6a751461021c5780634e1273f41461025b578063572b6c05146102885780636787d449146102d657600080fd5b80630e89341c116100d15780630e89341c1461019a57806318160ddd146101c75780631b023947146101dc5780632eb2c2d6146101fc57600080fd5b8062fdd58e1461010257806301ffc9a71461013557806305322b74146101655780630b885ac314610178575b600080fd5b34801561010e57600080fd5b5061012261011d3660046120b8565b61040d565b6040519081526020015b60405180910390f35b34801561014157600080fd5b506101556101503660046121b3565b610420565b604051901515815260200161012c565b610155610173366004612301565b610463565b34801561018457600080fd5b506101986101933660046121ed565b6106a8565b005b3480156101a657600080fd5b506101ba6101b5366004612301565b610831565b60405161012c919061257c565b3480156101d357600080fd5b5061012261098a565b3480156101e857600080fd5b506101226101f7366004611f1f565b6109ab565b34801561020857600080fd5b50610198610217366004611f6d565b6109e8565b34801561022857600080fd5b50600080516020612907833981519152546001600160a01b03165b6040516001600160a01b03909116815260200161012c565b34801561026757600080fd5b5061027b6102763660046120e2565b610a35565b60405161012c9190612544565b34801561029457600080fd5b506101556102a3366004611f1f565b7fa5e014e253d3b66bd348c3cdd05f38b9805fff0b6471d004b58c6ada26cae993546001600160a01b0390811691161490565b3480156102e257600080fd5b506102f66102f1366004612301565b610c2b565b60405161012c9190815181526020808301519082015260408083015190820152606080830151908201526080808301519082015260a0808301519082015260c0918201516001600160a01b03169181019190915260e00190565b34801561035c57600080fd5b5061019861036b36600461207c565b610d2c565b34801561037c57600080fd5b507f47dc25f21c7793543edaeb1ef19d41726ddbada967ae9a7980b9bd8a45228a62546001600160a01b0316610243565b3480156103b957600080fd5b506101226103c836600461226d565b610e22565b3480156103d957600080fd5b506101556103e8366004611f3a565b611120565b3480156103f957600080fd5b50610198610408366004612017565b61116d565b600061041983836111b3565b9392505050565b6001600160e01b0319811660009081527f326d0c59a7612f6a9919e2a8ee333c80ba689d8ba2634de89c85cbb04832e705602052604081205460ff165b92915050565b60008061046e611254565b60008481527f75bce7b27cc8f04e7a4282e725010cbd105f602d082c4b02f7d958135d62562e6020526040902080549192509042108015906104b4575080600101544211155b6104eb5760405162461bcd60e51b815260206004820152600360248201526213d3d560ea1b60448201526064015b60405180910390fd5b806003015434146105235760405162461bcd60e51b8152602060048201526002602482015261494160f01b60448201526064016104e2565b6004810154156105695780600401548160050154106105695760405162461bcd60e51b815260206004820152600260248201526121a960f11b60448201526064016104e2565b61058582856001604051806020016040528060008152506112aa565b600181600501600082825461059a91906126d4565b909155505060405160019085906001600160a01b038516907f25b428dfde728ccfaddad7e29e4ac23c24ed7fd1a6e3e3f91894a9a073f5dfff90600090a4600060648260020154346105ec919061270e565b6105f691906126ec565b90506000610604823461272d565b60068401546040519192506001600160a01b03169082156108fc029083906000818181858888f19350505050158015610641573d6000803e3d6000fd5b507f47dc25f21c7793543edaeb1ef19d41726ddbada967ae9a7980b9bd8a45228a62546040516001600160a01b03909116906108fc8415029084906000818181858888f1935050505015801561069b573d6000803e3d6000fd5b5060019695505050505050565b7fc8fcad8db84d3cc18b4c41d551ea0ee66dd599cde068d998e57d5e09332c1320546001600160a01b031633146107065760405162461bcd60e51b81526020600482015260026024820152614e4f60f01b60448201526064016104e2565b7fa5e014e253d3b66bd348c3cdd05f38b9805fff0b6471d004b58c6ada26cae99380546001600160a01b0319166001600160a01b038516179055636cdb3d1360e11b6000527fc8fcad8db84d3cc18b4c41d551ea0ee66dd599cde068d998e57d5e09332c131f6020527f845f7f8d885943dffdc1524acbd9538b2923f93aad26d306df3b8982c7f0632d805460ff191660011790556107a4856112cb565b60008051602061290783398151915280546001600160a01b039586166001600160a01b0319918216179091557f47dc25f21c7793543edaeb1ef19d41726ddbada967ae9a7980b9bd8a45228a5f8054938616938216939093179092557f47dc25f21c7793543edaeb1ef19d41726ddbada967ae9a7980b9bd8a45228a628054919094169116179091555050565b60008181527fb3408a5d8f30170919d3996b6cc182726500ad24733d17ace2f621485f6e7c83602052604081208054606092919061086e90612770565b80601f016020809104026020016040519081016040528092919081815260200182805461089a90612770565b80156108e75780601f106108bc576101008083540402835291602001916108e7565b820191906000526020600020905b8154815290600101906020018083116108ca57829003601f168201915b505050505090508051600014156109405760405162461bcd60e51b815260206004820152601d60248201527f455243313135355552493a20746f6b656e4964206e6f7420657869737400000060448201526064016104e2565b604051610973907fb3408a5d8f30170919d3996b6cc182726500ad24733d17ace2f621485f6e7c849083906020016123fa565b604051602081830303815290604052915050919050565b60006109a66000805160206129078339815191525b6002015490565b905090565b6001600160a01b03811660009081527f47dc25f21c7793543edaeb1ef19d41726ddbada967ae9a7980b9bd8a45228a61602052604081205461045d565b6001600160a01b038516331480610a045750610a048533611120565b610a205760405162461bcd60e51b81526004016104e290612622565b610a2e338686868686611301565b5050505050565b60608151835114610a9a5760405162461bcd60e51b815260206004820152602960248201527f455243313135353a206163636f756e747320616e6420696473206c656e677468604482015268040dad2e6dac2e8c6d60bb1b60648201526084016104e2565b82516000805160206129278339815191529060009067ffffffffffffffff811115610ac757610ac7612835565b604051908082528060200260200182016040528015610af0578160200160208202803683370190505b50905060005b8551811015610c225760006001600160a01b0316868281518110610b1c57610b1c61281f565b60200260200101516001600160a01b03161415610b955760405162461bcd60e51b815260206004820152603160248201527f455243313135353a2062617463682062616c616e636520717565727920666f7260448201527020746865207a65726f206164647265737360781b60648201526084016104e2565b826000868381518110610baa57610baa61281f565b602002602001015181526020019081526020016000206000878381518110610bd457610bd461281f565b60200260200101516001600160a01b03166001600160a01b0316815260200190815260200160002054828281518110610c0f57610c0f61281f565b6020908102919091010152600101610af6565b50949350505050565b610c746040518060e0016040528060008152602001600081526020016000815260200160008152602001600081526020016000815260200160006001600160a01b031681525090565b60008281527f75bce7b27cc8f04e7a4282e725010cbd105f602d082c4b02f7d958135d62562e6020908152604091829020825160e08101845281548082526001830154938201939093526002820154938101939093526003810154606084015260048101546080840152600581015460a0840152600601546001600160a01b031660c083015261045d5760405162461bcd60e51b8152602060048201526003602482015262444e4560e81b60448201526064016104e2565b336001600160a01b0383161415610d975760405162461bcd60e51b815260206004820152602960248201527f455243313135353a2073657474696e6720617070726f76616c20737461747573604482015268103337b91039b2b63360b91b60648201526084016104e2565b3360008181527f1799cf914cb0cb442ca7c7ac709ee40d0cb89e87351dc08d517fbda27d50c68c602090815260408083206001600160a01b03871680855290835292819020805460ff191686151590811790915590519081529192917f17307eab39ab6107e8899845ad3d59bd9653f200f220920489ca2b5937696c31910160405180910390a35050565b600080610e2d611254565b90506000610e3a826109ab565b90506064851115610e735760405162461bcd60e51b815260206004820152600360248201526249534f60e81b60448201526064016104e2565b878910610ea75760405162461bcd60e51b8152602060048201526002602482015261125560f21b60448201526064016104e2565b60008a8a8a8a8a8a8789604051602001610ec898979695949392919061239d565b60405160208183030381529060405290506000610f4386610f3d84805190602001206040517f19457468657265756d205369676e6564204d6573736167653a0a3332000000006020820152603c8101829052600090605c01604051602081830303815290604052805190602001209050919050565b90611325565b9050600080516020612907833981519152546001600160a01b03828116911614610f945760405162461bcd60e51b81526020600482015260026024820152614e4d60f01b60448201526064016104e2565b610fab60008051602061290783398151915261099f565b9450610fb7858d611349565b7f47dc25f21c7793543edaeb1ef19d41726ddbada967ae9a7980b9bd8a45228a60805460010190556001600160a01b03841660009081527f47dc25f21c7793543edaeb1ef19d41726ddbada967ae9a7980b9bd8a45228a6160205260409020805460010190556040805160e0810182528c8152602081018c9052908101889052606081018a905260808101899052600060a08201526001600160a01b03851660c0820152807f75bce7b27cc8f04e7a4282e725010cbd105f602d082c4b02f7d958135d62562e60008881526020918252604080822084518155928401516001840155838101516002840155606084015160038401556080840151600484015560a0840151600584015560c090930151600690920180546001600160a01b0319166001600160a01b0393841617905591518892918816917f889de1a576ddf6ed9570e1a2354ffe87302c20bd8af57b5bd4e3bbc84240e7f691a35050505050979650505050505050565b6001600160a01b0391821660009081527f1799cf914cb0cb442ca7c7ac709ee40d0cb89e87351dc08d517fbda27d50c68c6020908152604080832093909416825291909152205460ff1690565b6001600160a01b03851633148061118957506111898533611120565b6111a55760405162461bcd60e51b81526004016104e290612622565b610a2e33868686868661138c565b60006001600160a01b03831661121f5760405162461bcd60e51b815260206004820152602b60248201527f455243313135353a2062616c616e636520717565727920666f7220746865207a60448201526a65726f206164647265737360a81b60648201526084016104e2565b6000805160206129278339815191526000928352602090815260408084206001600160a01b0395909516845293905250205490565b60006018361080159061129057507fa5e014e253d3b66bd348c3cdd05f38b9805fff0b6471d004b58c6ada26cae993546001600160a01b031633145b156112a2575060131936013560601c90565b503390565b90565b6112b9336000868686866113a8565b6112c58484848461151c565b50505050565b80516112fd907fb3408a5d8f30170919d3996b6cc182726500ad24733d17ace2f621485f6e7c84906020840190611d7f565b5050565b61130f86868686868661162b565b61131d8686868686866116f5565b505050505050565b600080600061133485856118d6565b9150915061134181611946565b509392505050565b60008281527fb3408a5d8f30170919d3996b6cc182726500ad24733d17ace2f621485f6e7c8360209081526040909120825161138792840190611d7f565b505050565b61139a8686868686866113a8565b61131d868686868686611b04565b6001600160a01b0384163b1561131d5760405163f23a6e6160e01b81526001600160a01b0385169063f23a6e61906113ec90899089908890889088906004016124ff565b602060405180830381600087803b15801561140657600080fd5b505af1925050508015611436575060408051601f3d908101601f19168201909252611433918101906121d0565b60015b6114e35761144261284b565b806308c379a0141561147c5750611457612866565b80611462575061147e565b8060405162461bcd60e51b81526004016104e2919061257c565b505b60405162461bcd60e51b815260206004820152603460248201527f455243313135353a207472616e7366657220746f206e6f6e20455243313135356044820152732932b1b2b4bb32b91034b6b83632b6b2b73a32b960611b60648201526084016104e2565b6001600160e01b0319811663f23a6e6160e01b146115135760405162461bcd60e51b81526004016104e29061258f565b50505050505050565b6001600160a01b03841661157c5760405162461bcd60e51b815260206004820152602160248201527f455243313135353a206d696e7420746f20746865207a65726f206164647265736044820152607360f81b60648201526084016104e2565b6115953360008661158c87611c18565b610a2e87611c18565b6000838152600080516020612927833981519152602090815260408083206001600160a01b03881684529182905282208054919285926115d69084906126d4565b909155505060408051858152602081018590526001600160a01b0387169160009133917fc3d58168c5ae7397731d063d5bbf3d657854427343f4c083240f7aacaa2d0f62910160405180910390a45050505050565b6001600160a01b0384163b1561131d5760405163bc197c8160e01b81526001600160a01b0385169063bc197c819061166f90899089908890889088906004016124a1565b602060405180830381600087803b15801561168957600080fd5b505af19250505080156116b9575060408051601f3d908101601f191682019092526116b6918101906121d0565b60015b6116c55761144261284b565b6001600160e01b0319811663bc197c8160e01b146115135760405162461bcd60e51b81526004016104e29061258f565b6001600160a01b03841661171b5760405162461bcd60e51b81526004016104e29061266b565b815183511461177d5760405162461bcd60e51b815260206004820152602860248201527f455243313135353a2069647320616e6420616d6f756e7473206c656e677468206044820152670dad2e6dac2e8c6d60c31b60648201526084016104e2565b60008051602061292783398151915260005b84518110156118755760008582815181106117ac576117ac61281f565b6020026020010151905060008583815181106117ca576117ca61281f565b602090810291909101810151600084815286835260408082206001600160a01b038e16835290935291909120549091508181101561181a5760405162461bcd60e51b81526004016104e2906125d7565b6000838152602086815260408083206001600160a01b038e811685529252808320938590039093558a16815290812080548392906118599084906126d4565b925050819055505050808061186d906127d8565b91505061178f565b50846001600160a01b0316866001600160a01b0316886001600160a01b03167f4a39dc06d4c0dbc64b70af90fd698a233a518aa5d07e595d983b8c0526c8f7fb87876040516118c5929190612557565b60405180910390a450505050505050565b60008082516041141561190d5760208301516040840151606085015160001a61190187828585611c63565b9450945050505061193f565b825160401415611937576020830151604084015161192c868383611d50565b93509350505061193f565b506000905060025b9250929050565b600081600481111561195a5761195a612809565b14156119635750565b600181600481111561197757611977612809565b14156119c55760405162461bcd60e51b815260206004820152601860248201527f45434453413a20696e76616c6964207369676e6174757265000000000000000060448201526064016104e2565b60028160048111156119d9576119d9612809565b1415611a275760405162461bcd60e51b815260206004820152601f60248201527f45434453413a20696e76616c6964207369676e6174757265206c656e6774680060448201526064016104e2565b6003816004811115611a3b57611a3b612809565b1415611a945760405162461bcd60e51b815260206004820152602260248201527f45434453413a20696e76616c6964207369676e6174757265202773272076616c604482015261756560f01b60648201526084016104e2565b6004816004811115611aa857611aa8612809565b1415611b015760405162461bcd60e51b815260206004820152602260248201527f45434453413a20696e76616c6964207369676e6174757265202776272076616c604482015261756560f01b60648201526084016104e2565b50565b6001600160a01b038416611b2a5760405162461bcd60e51b81526004016104e29061266b565b611b3986868661158c87611c18565b6000838152600080516020612927833981519152602081815260408084206001600160a01b038a1685529091529091205483811015611b8a5760405162461bcd60e51b81526004016104e2906125d7565b6000858152602083815260408083206001600160a01b038b81168552925280832093879003909355871681529081208054859290611bc99084906126d4565b909155505060408051858152602081018590526001600160a01b038088169289821692918b16917fc3d58168c5ae7397731d063d5bbf3d657854427343f4c083240f7aacaa2d0f6291016118c5565b60408051600180825281830190925260609160009190602080830190803683370190505090508281600081518110611c5257611c5261281f565b602090810291909101015292915050565b6000807f7fffffffffffffffffffffffffffffff5d576e7357a4501ddfe92f46681b20a0831115611c9a5750600090506003611d47565b8460ff16601b14158015611cb257508460ff16601c14155b15611cc35750600090506004611d47565b6040805160008082526020820180845289905260ff881692820192909252606081018690526080810185905260019060a0016020604051602081039080840390855afa158015611d17573d6000803e3d6000fd5b5050604051601f1901519150506001600160a01b038116611d4057600060019250925050611d47565b9150600090505b94509492505050565b6000806001600160ff1b03831660ff84901c601b01611d7187828885611c63565b935093505050935093915050565b828054611d8b90612770565b90600052602060002090601f016020900481019282611dad5760008555611df3565b82601f10611dc657805160ff1916838001178555611df3565b82800160010185558215611df3579182015b82811115611df3578251825591602001919060010190611dd8565b50611dff929150611e03565b5090565b5b80821115611dff5760008155600101611e04565b80356001600160a01b0381168114611e2f57600080fd5b919050565b600082601f830112611e4557600080fd5b81356020611e52826126b0565b604051611e5f82826127ab565b8381528281019150858301600585901b87018401881015611e7f57600080fd5b60005b85811015611e9e57813584529284019290840190600101611e82565b5090979650505050505050565b600082601f830112611ebc57600080fd5b813567ffffffffffffffff811115611ed657611ed6612835565b604051611eed601f8301601f1916602001826127ab565b818152846020838601011115611f0257600080fd5b816020850160208301376000918101602001919091529392505050565b600060208284031215611f3157600080fd5b61041982611e18565b60008060408385031215611f4d57600080fd5b611f5683611e18565b9150611f6460208401611e18565b90509250929050565b600080600080600060a08688031215611f8557600080fd5b611f8e86611e18565b9450611f9c60208701611e18565b9350604086013567ffffffffffffffff80821115611fb957600080fd5b611fc589838a01611e34565b94506060880135915080821115611fdb57600080fd5b611fe789838a01611e34565b93506080880135915080821115611ffd57600080fd5b5061200a88828901611eab565b9150509295509295909350565b600080600080600060a0868803121561202f57600080fd5b61203886611e18565b945061204660208701611e18565b93506040860135925060608601359150608086013567ffffffffffffffff81111561207057600080fd5b61200a88828901611eab565b6000806040838503121561208f57600080fd5b61209883611e18565b9150602083013580151581146120ad57600080fd5b809150509250929050565b600080604083850312156120cb57600080fd5b6120d483611e18565b946020939093013593505050565b600080604083850312156120f557600080fd5b823567ffffffffffffffff8082111561210d57600080fd5b818501915085601f83011261212157600080fd5b8135602061212e826126b0565b60405161213b82826127ab565b8381528281019150858301600585901b870184018b101561215b57600080fd5b600096505b848710156121855761217181611e18565b835260019690960195918301918301612160565b509650508601359250508082111561219c57600080fd5b506121a985828601611e34565b9150509250929050565b6000602082840312156121c557600080fd5b8135610419816128f0565b6000602082840312156121e257600080fd5b8151610419816128f0565b600080600080600060a0868803121561220557600080fd5b853567ffffffffffffffff81111561221c57600080fd5b61222888828901611eab565b95505061223760208701611e18565b935061224560408701611e18565b925061225360608701611e18565b915061226160808701611e18565b90509295509295909350565b600080600080600080600060e0888a03121561228857600080fd5b873567ffffffffffffffff808211156122a057600080fd5b6122ac8b838c01611eab565b985060208a0135975060408a0135965060608a0135955060808a0135945060a08a0135935060c08a01359150808211156122e557600080fd5b506122f28a828b01611eab565b91505092959891949750929550565b60006020828403121561231357600080fd5b5035919050565b600081518084526020808501945080840160005b8381101561234a5781518752958201959082019060010161232e565b509495945050505050565b6000815180845261236d816020860160208601612744565b601f01601f19169290920160200192915050565b60008151612393818560208601612744565b9290920192915050565b600089516123af818460208e01612744565b919091019788525060208701959095526040860193909352606080860192909252608085015260a08401919091521b6bffffffffffffffffffffffff191660c082015260d401919050565b600080845481600182811c91508083168061241657607f831692505b602080841082141561243657634e487b7160e01b86526022600452602486fd5b81801561244a576001811461245b57612488565b60ff19861689528489019650612488565b60008b81526020902060005b868110156124805781548b820152908501908301612467565b505084890196505b5050505050506124988185612381565b95945050505050565b6001600160a01b0386811682528516602082015260a0604082018190526000906124cd9083018661231a565b82810360608401526124df818661231a565b905082810360808401526124f38185612355565b98975050505050505050565b6001600160a01b03868116825285166020820152604081018490526060810183905260a06080820181905260009061253990830184612355565b979650505050505050565b602081526000610419602083018461231a565b60408152600061256a604083018561231a565b8281036020840152612498818561231a565b6020815260006104196020830184612355565b60208082526028908201527f455243313135353a204552433131353552656365697665722072656a656374656040820152676420746f6b656e7360c01b606082015260800190565b6020808252602b908201527f455243313135353a20696e73756666696369656e742062616c616e636573206660408201526a37b9103a3930b739b332b960a91b606082015260800190565b60208082526029908201527f455243313135353a2063616c6c6572206973206e6f74206f776e6572206e6f7260408201526808185c1c1c9bdd995960ba1b606082015260800190565b60208082526025908201527f455243313135353a207472616e7366657220746f20746865207a65726f206164604082015264647265737360d81b606082015260800190565b600067ffffffffffffffff8211156126ca576126ca612835565b5060051b60200190565b600082198211156126e7576126e76127f3565b500190565b60008261270957634e487b7160e01b600052601260045260246000fd5b500490565b6000816000190483118215151615612728576127286127f3565b500290565b60008282101561273f5761273f6127f3565b500390565b60005b8381101561275f578181015183820152602001612747565b838111156112c55750506000910152565b600181811c9082168061278457607f821691505b602082108114156127a557634e487b7160e01b600052602260045260246000fd5b50919050565b601f8201601f1916810167ffffffffffffffff811182821017156127d1576127d1612835565b6040525050565b60006000198214156127ec576127ec6127f3565b5060010190565b634e487b7160e01b600052601160045260246000fd5b634e487b7160e01b600052602160045260246000fd5b634e487b7160e01b600052603260045260246000fd5b634e487b7160e01b600052604160045260246000fd5b600060033d11156112a75760046000803e5060005160e01c90565b600060443d10156128745790565b6040516003193d81016004833e81513d67ffffffffffffffff81602484011181841117156128a457505050505090565b82850191508151818111156128bc5750505050505090565b843d87010160208285010111156128d65750505050505090565b6128e5602082860101876127ab565b509095945050505050565b6001600160e01b031981168114611b0157600080fdfe47dc25f21c7793543edaeb1ef19d41726ddbada967ae9a7980b9bd8a45228a5e1799cf914cb0cb442ca7c7ac709ee40d0cb89e87351dc08d517fbda27d50c68ba264697066735822122045183613617229e17c0a6ed3c73fa63b80ebefeda502b34b0f424b9fc0d011bc64736f6c63430008070033",
  "devdoc": {
    "kind": "dev",
    "methods": {
      "balanceOf(address,uint256)": {
        "params": {
          "account": "address to query",
          "id": "token to query"
        },
        "returns": {
          "_0": "token balance"
        }
      },
      "balanceOfBatch(address[],uint256[])": {
        "params": {
          "accounts": "addresss to query",
          "ids": "tokens to query"
        },
        "returns": {
          "_0": "token balances"
        }
      },
      "isApprovedForAll(address,address)": {
        "params": {
          "account": "address to query for approval granted",
          "operator": "address to query for approval received"
        },
        "returns": {
          "_0": "whether operator is approved to spend tokens held by account"
        }
      },
      "safeBatchTransferFrom(address,address,uint256[],uint256[],bytes)": {
        "params": {
          "amounts": "list of quantities of tokens to transfer",
          "data": "data payload",
          "from": "sender of tokens",
          "ids": "list of token IDs",
          "to": "receiver of tokens"
        }
      },
      "safeTransferFrom(address,address,uint256,uint256,bytes)": {
        "params": {
          "amount": "quantity of tokens to transfer",
          "data": "data payload",
          "from": "sender of tokens",
          "id": "token ID",
          "to": "receiver of tokens"
        }
      },
      "setApprovalForAll(address,bool)": {
        "params": {
          "operator": "address whose approval status to update",
          "status": "whether operator should be considered approved"
        }
      },
      "supportsInterface(bytes4)": {
        "params": {
          "interfaceId": "interface id"
        },
        "returns": {
          "_0": "bool whether interface is supported"
        }
      }
    },
    "version": 1
  },
  "userdoc": {
    "kind": "user",
    "methods": {
      "balanceOf(address,uint256)": {
        "notice": "query the balance of given token held by given address"
      },
      "balanceOfBatch(address[],uint256[])": {
        "notice": "query the balances of given tokens held by given addresses"
      },
      "isApprovedForAll(address,address)": {
        "notice": "query approval status of given operator with respect to given address"
      },
      "safeBatchTransferFrom(address,address,uint256[],uint256[],bytes)": {
        "notice": "transfer batch of tokens between given addresses, checking for ERC1155Receiver implementation if applicable"
      },
      "safeTransferFrom(address,address,uint256,uint256,bytes)": {
        "notice": "transfer tokens between given addresses, checking for ERC1155Receiver implementation if applicable"
      },
      "setApprovalForAll(address,bool)": {
        "notice": "grant approval to or revoke approval from given operator to spend held tokens"
      },
      "supportsInterface(bytes4)": {
        "notice": "query whether contract has registered support for given interface"
      }
    },
    "version": 1
  },
  "storageLayout": {
    "storage": [],
    "types": null
  }
}